{"src/Identity.sol":{"Identity":{"abi":[{"anonymous":false,"inputs":[{"indexed":true,"internalType":"address","name":"userAddress","type":"address"},{"indexed":false,"internalType":"bytes32","name":"apiHash","type":"bytes32"}],"name":"APIAuthorized","type":"event"},{"anonymous":false,"inputs":[{"indexed":true,"internalType":"address","name":"userAddress","type":"address"},{"indexed":false,"internalType":"bytes32","name":"apiHash","type":"bytes32"}],"name":"APIRevoked","type":"event"},{"anonymous":false,"inputs":[{"indexed":true,"internalType":"bytes32","name":"requestId","type":"bytes32"},{"indexed":true,"internalType":"address","name":"userAddress","type":"address"}],"name":"CreditScoreApproved","type":"event"},{"anonymous":false,"inputs":[{"indexed":true,"internalType":"bytes32","name":"requestId","type":"bytes32"},{"indexed":true,"internalType":"address","name":"userAddress","type":"address"}],"name":"CreditScoreRejected","type":"event"},{"anonymous":false,"inputs":[{"indexed":true,"internalType":"bytes32","name":"requestId","type":"bytes32"},{"indexed":true,"internalType":"address","name":"fintechAddress","type":"address"},{"indexed":true,"internalType":"address","name":"userAddress","type":"address"}],"name":"CreditScoreRequested","type":"event"},{"anonymous":false,"inputs":[{"indexed":true,"internalType":"address","name":"userAddress","type":"address"},{"indexed":true,"internalType":"address","name":"fintechAddress","type":"address"}],"name":"FintechAuthorized","type":"event"},{"anonymous":false,"inputs":[{"indexed":true,"internalType":"address","name":"userAddress","type":"address"},{"indexed":true,"internalType":"address","name":"fintechAddress","type":"address"}],"name":"FintechRevoked","type":"event"},{"anonymous":false,"inputs":[{"indexed":true,"internalType":"address","name":"previousOwner","type":"address"},{"indexed":true,"internalType":"address","name":"newOwner","type":"address"}],"name":"OwnershipTransferred","type":"event"},{"anonymous":false,"inputs":[{"indexed":false,"internalType":"address","name":"account","type":"address"}],"name":"Paused","type":"event"},{"anonymous":false,"inputs":[{"indexed":false,"internalType":"address","name":"account","type":"address"}],"name":"Unpaused","type":"event"},{"anonymous":false,"inputs":[{"indexed":true,"internalType":"address","name":"userAddress","type":"address"},{"indexed":false,"internalType":"string","name":"userId","type":"string"}],"name":"UserRegistered","type":"event"},{"anonymous":false,"inputs":[{"indexed":true,"internalType":"address","name":"userAddress","type":"address"}],"name":"UserVerified","type":"event"},{"inputs":[{"internalType":"bytes32","name":"_requestId","type":"bytes32"}],"name":"approveCreditScoreRequest","outputs":[],"stateMutability":"nonpayable","type":"function"},{"inputs":[{"internalType":"address","name":"_userAddress","type":"address"},{"internalType":"bytes32","name":"_apiHash","type":"bytes32"}],"name":"authorizeAPI","outputs":[],"stateMutability":"nonpayable","type":"function"},{"inputs":[{"internalType":"address","name":"_userAddress","type":"address"},{"internalType":"address","name":"_fintechAddress","type":"address"}],"name":"authorizeFintech","outputs":[],"stateMutability":"nonpayable","type":"function"},{"inputs":[{"internalType":"bytes32","name":"_requestId","type":"bytes32"}],"name":"completeCreditScoreRequest","outputs":[],"stateMutability":"nonpayable","type":"function"},{"inputs":[{"internalType":"bytes32","name":"","type":"bytes32"}],"name":"creditScoreRequests","outputs":[{"internalType":"address","name":"fintechAddress","type":"address"},{"internalType":"address","name":"userAddress","type":"address"},{"internalType":"uint256","name":"timestamp","type":"uint256"},{"internalType":"bool","name":"isApproved","type":"bool"},{"internalType":"bool","name":"isCompleted","type":"bool"},{"internalType":"bytes32","name":"requestId","type":"bytes32"}],"stateMutability":"view","type":"function"},{"inputs":[{"internalType":"address","name":"","type":"address"},{"internalType":"uint256","name":"","type":"uint256"}],"name":"fintechCreditScoreRequests","outputs":[{"internalType":"bytes32","name":"","type":"bytes32"}],"stateMutability":"view","type":"function"},{"inputs":[],"name":"getContractStats","outputs":[{"internalType":"uint256","name":"_totalUsers","type":"uint256"},{"internalType":"uint256","name":"_totalCreditScoreRequests","type":"uint256"}],"stateMutability":"view","type":"function"},{"inputs":[{"internalType":"bytes32","name":"_requestId","type":"bytes32"}],"name":"getCreditScoreRequest","outputs":[{"internalType":"address","name":"fintechAddress","type":"address"},{"internalType":"address","name":"userAddress","type":"address"},{"internalType":"uint256","name":"timestamp","type":"uint256"},{"internalType":"bool","name":"isApproved","type":"bool"},{"internalType":"bool","name":"isCompleted","type":"bool"}],"stateMutability":"view","type":"function"},{"inputs":[{"internalType":"address","name":"_fintechAddress","type":"address"}],"name":"getFintechCreditScoreRequests","outputs":[{"internalType":"bytes32[]","name":"","type":"bytes32[]"}],"stateMutability":"view","type":"function"},{"inputs":[{"internalType":"address","name":"_userAddress","type":"address"}],"name":"getUserCreditScoreRequests","outputs":[{"internalType":"bytes32[]","name":"","type":"bytes32[]"}],"stateMutability":"view","type":"function"},{"inputs":[{"internalType":"address","name":"_userAddress","type":"address"}],"name":"getUserIdentity","outputs":[{"internalType":"string","name":"userId","type":"string"},{"internalType":"bool","name":"isVerified","type":"bool"},{"internalType":"uint256","name":"createdAt","type":"uint256"},{"internalType":"uint256","name":"lastUpdated","type":"uint256"},{"internalType":"bool","name":"hasActiveCreditScore","type":"bool"}],"stateMutability":"view","type":"function"},{"inputs":[{"internalType":"address","name":"_userAddress","type":"address"},{"internalType":"bytes32","name":"_apiHash","type":"bytes32"}],"name":"hasAPIAccess","outputs":[{"internalType":"bool","name":"","type":"bool"}],"stateMutability":"view","type":"function"},{"inputs":[{"internalType":"address","name":"","type":"address"}],"name":"identities","outputs":[{"internalType":"address","name":"userAddress","type":"address"},{"internalType":"string","name":"userId","type":"string"},{"internalType":"bool","name":"isVerified","type":"bool"},{"internalType":"uint256","name":"createdAt","type":"uint256"},{"internalType":"uint256","name":"lastUpdated","type":"uint256"},{"internalType":"bool","name":"hasActiveCreditScore","type":"bool"},{"internalType":"uint256","name":"lastCreditScoreRequest","type":"uint256"}],"stateMutability":"view","type":"function"},{"inputs":[{"internalType":"address","name":"_userAddress","type":"address"},{"internalType":"address","name":"_fintechAddress","type":"address"}],"name":"isFintechAuthorized","outputs":[{"internalType":"bool","name":"","type":"bool"}],"stateMutability":"view","type":"function"},{"inputs":[],"name":"owner","outputs":[{"internalType":"address","name":"","type":"address"}],"stateMutability":"view","type":"function"},{"inputs":[],"name":"pause","outputs":[],"stateMutability":"nonpayable","type":"function"},{"inputs":[],"name":"paused","outputs":[{"internalType":"bool","name":"","type":"bool"}],"stateMutability":"view","type":"function"},{"inputs":[{"internalType":"string","name":"_userId","type":"string"}],"name":"registerUser","outputs":[],"stateMutability":"nonpayable","type":"function"},{"inputs":[{"internalType":"bytes32","name":"_requestId","type":"bytes32"}],"name":"rejectCreditScoreRequest","outputs":[],"stateMutability":"nonpayable","type":"function"},{"inputs":[],"name":"renounceOwnership","outputs":[],"stateMutability":"nonpayable","type":"function"},{"inputs":[{"internalType":"address","name":"_userAddress","type":"address"},{"internalType":"bytes32","name":"_requestId","type":"bytes32"}],"name":"requestCreditScore","outputs":[],"stateMutability":"nonpayable","type":"function"},{"inputs":[{"internalType":"address","name":"_userAddress","type":"address"},{"internalType":"bytes32","name":"_apiHash","type":"bytes32"}],"name":"revokeAPI","outputs":[],"stateMutability":"nonpayable","type":"function"},{"inputs":[{"internalType":"address","name":"_userAddress","type":"address"},{"internalType":"address","name":"_fintechAddress","type":"address"}],"name":"revokeFintech","outputs":[],"stateMutability":"nonpayable","type":"function"},{"inputs":[],"name":"totalCreditScoreRequests","outputs":[{"internalType":"uint256","name":"","type":"uint256"}],"stateMutability":"view","type":"function"},{"inputs":[],"name":"totalUsers","outputs":[{"internalType":"uint256","name":"","type":"uint256"}],"stateMutability":"view","type":"function"},{"inputs":[{"internalType":"address","name":"newOwner","type":"address"}],"name":"transferOwnership","outputs":[],"stateMutability":"nonpayable","type":"function"},{"inputs":[],"name":"unpause","outputs":[],"stateMutability":"nonpayable","type":"function"},{"inputs":[{"internalType":"address","name":"","type":"address"},{"internalType":"uint256","name":"","type":"uint256"}],"name":"userCreditScoreRequests","outputs":[{"internalType":"bytes32","name":"","type":"bytes32"}],"stateMutability":"view","type":"function"},{"inputs":[{"internalType":"string","name":"","type":"string"}],"name":"userIdToAddress","outputs":[{"internalType":"address","name":"","type":"address"}],"stateMutability":"view","type":"function"},{"inputs":[{"internalType":"address","name":"_userAddress","type":"address"}],"name":"verifyUser","outputs":[],"stateMutability":"nonpayable","type":"function"}],"evm":{"bytecode":{"linkReferences":{},"object":"608060405234801561001057600080fd5b5061001a33610030565b6000805460ff60a01b1916905560018055610080565b600080546001600160a01b038381166001600160a01b0319831681178455604051919092169283917f8be0079c531659141344cd1fd0a4f28419497f9722a3daafe3b4186f6b6457e09190a35050565b611f658061008f6000396000f3fe608060405234801561001057600080fd5b50600436106101da5760003560e01c80638456cb5911610104578063b1ee4e90116100a2578063dfe6b5d611610071578063dfe6b5d614610557578063e9e52c9414610572578063f2fde38b14610585578063f653b81e1461059857600080fd5b8063b1ee4e90146104f4578063bda7738c14610507578063bff1f9e11461051a578063c21be6ae1461052357600080fd5b8063a137b02f116100de578063a137b02f146103fe578063aa5d71c714610491578063adc4740e146104a4578063af54db06146104b757600080fd5b80638456cb59146103be5780638da5cb5b146103c6578063915b8812146103eb57600080fd5b80634d8131201161017c578063704f1b941161014b578063704f1b94146103795780637089c7a21461038c578063715018a6146103a35780637704953f146103ab57600080fd5b80634d813120146103215780635c975abb146103345780635e9b2de9146103465780636c324d9b1461036657600080fd5b80632129c761116101b85780632129c7611461025c578063244abe87146102805780633f4ba83a146103065780633f4ca9f51461030e57600080fd5b80630ccdc92f146101df57806316cce81814610234578063184bd36e14610249575b600080fd5b61021f6101ed366004611a84565b6001600160a01b0391821660009081526002602090815260408083209390941682526007909201909152205460ff1690565b60405190151581526020015b60405180910390f35b610247610242366004611ab7565b6105be565b005b610247610257366004611ab7565b610858565b61026f61026a366004611ae1565b61098b565b60405161022b959493929190611b53565b6102cf61028e366004611b8c565b60009081526004602052604090208054600182015460028301546003909301546001600160a01b039283169492909116929160ff8083169261010090041690565b604080516001600160a01b03968716815295909416602086015292840191909152151560608301521515608082015260a00161022b565b610247610a74565b61024761031c366004611a84565b610a86565b61024761032f366004611ae1565b610c13565b600054600160a01b900460ff1661021f565b610359610354366004611ae1565b610d12565b60405161022b9190611ba5565b610247610374366004611b8c565b610d7e565b610247610387366004611bff565b610e9a565b61039560085481565b60405190815260200161022b565b6102476110d9565b6102476103b9366004611a84565b6110eb565b61024761120a565b6000546001600160a01b03165b6040516001600160a01b03909116815260200161022b565b6102476103f9366004611ab7565b61121a565b61045561040c366004611b8c565b6004602081905260009182526040909120805460018201546002830154600384015493909401546001600160a01b0392831694929091169260ff80821692610100909204169086565b604080516001600160a01b03978816815296909516602087015293850192909252151560608401521515608083015260a082015260c00161022b565b61039561049f366004611ab7565b611330565b6102476104b2366004611b8c565b611361565b61021f6104c5366004611ab7565b6001600160a01b0391909116600090815260026020908152604080832093835260059093019052205460ff1690565b610395610502366004611ab7565b6114df565b610247610515366004611b8c565b6114fb565b61039560075481565b6103d3610531366004611bff565b80516020818301810180516003825292820191909301209152546001600160a01b031681565b6007546008546040805192835260208301919091520161022b565b610359610580366004611ae1565b61167b565b610247610593366004611ae1565b6116e5565b6105ab6105a6366004611ae1565b61175b565b60405161022b9796959493929190611cb0565b6105c6611830565b6105ce61187d565b6001600160a01b038281166000908152600260205260409020541661060e5760405162461bcd60e51b815260040161060590611d00565b60405180910390fd5b6001600160a01b0382166000908152600260208190526040909120015460ff1661066e5760405162461bcd60e51b8152602060048201526011602482015270155cd95c881b9bdd081d995c9a599a5959607a1b6044820152606401610605565b6001600160a01b038216600090815260026020908152604080832033845260070190915290205460ff166106dd5760405162461bcd60e51b8152602060048201526016602482015275119a5b9d1958da081b9bdd08185d5d1a1bdc9a5e995960521b6044820152606401610605565b6000818152600460205260409020600101546001600160a01b0316156107455760405162461bcd60e51b815260206004820152601960248201527f5265717565737420494420616c726561647920657869737473000000000000006044820152606401610605565b806107625760405162461bcd60e51b815260040161060590611d2d565b600081815260046020818152604080842080546001600160a01b0319908116339081178355600180840180546001600160a01b038c1694168417905542600285015560038401805461ffff191690559583018890559086526005845282862080548087018255908752848720018790558552600683529084208054938401815584529083209091018390556008805491926107fc83611d59565b90915550506001600160a01b03831660008181526002602052604080822042600a9091015551339185917f531f793eb63924895b6e8beb242d00259efc9213d72007c70a37f4e129e7c8e39190a45061085460018055565b5050565b6108606118d6565b6001600160a01b03828116600090815260026020526040902054166108975760405162461bcd60e51b815260040161060590611d00565b6001600160a01b038216600090815260026020908152604080832084845260050190915290205460ff16156109075760405162461bcd60e51b815260206004820152601660248201527510541248185b1c9958591e48185d5d1a1bdc9a5e995960521b6044820152606401610605565b6001600160a01b0382166000818152600260208181526040808420868552600581018352818520805460ff19166001179055600681018352818520429081905594869052928252600490920192909255518381527fb1b2200bd56314412cbb830b49d2a4f91f3b86b586c5c911c807b3b1e54d34f591015b60405180910390a25050565b6001600160a01b038116600090815260026020819052604082209081015460038201546004830154600984015460018501805460609796879687968796929560ff92831694919392169085906109e090611d80565b80601f0160208091040260200160405190810160405280929190818152602001828054610a0c90611d80565b8015610a595780601f10610a2e57610100808354040283529160200191610a59565b820191906000526020600020905b815481529060010190602001808311610a3c57829003601f168201915b50505050509450955095509550955095505091939590929450565b610a7c6118d6565b610a84611930565b565b610a8e6118d6565b6001600160a01b0382811660009081526002602052604090205416610ac55760405162461bcd60e51b815260040161060590611d00565b6001600160a01b038116610b1b5760405162461bcd60e51b815260206004820152601760248201527f496e76616c69642066696e7465636820616464726573730000000000000000006044820152606401610605565b6001600160a01b038083166000908152600260209081526040808320938516835260079093019052205460ff1615610b955760405162461bcd60e51b815260206004820152601a60248201527f46696e7465636820616c726561647920617574686f72697a65640000000000006044820152606401610605565b6001600160a01b038281166000818152600260208181526040808420958716808552600787018352818520805460ff1916600117905560088701835281852042908190558686529390925260049095019190915592517feadeddf4a31a1c6c6b70722dbe3757423f4a17a4d6a4a6df183a9c0559addf2d9190a35050565b610c1b6118d6565b6001600160a01b0381811660009081526002602052604090205416610c525760405162461bcd60e51b815260040161060590611d00565b6001600160a01b0381166000908152600260208190526040909120015460ff1615610cb75760405162461bcd60e51b8152602060048201526015602482015274155cd95c88185b1c9958591e481d995c9a599a5959605a1b6044820152606401610605565b6001600160a01b0381166000818152600260208190526040808320918201805460ff1916600117905542600490920191909155517fa6625d2d26e786e2f473111bea4b2fcdbbf1863d883a2359989ce3a103d2972a9190a250565b6001600160a01b038116600090815260066020908152604091829020805483518184028101840190945280845260609392830182828015610d7257602002820191906000526020600020905b815481526020019060010190808311610d5e575b50505050509050919050565b610d866118d6565b60008181526004602052604090206001015481906001600160a01b0316610dbf5760405162461bcd60e51b815260040161060590611d2d565b60008281526004602052604090206003015460ff16610e175760405162461bcd60e51b815260206004820152601460248201527314995c5d595cdd081b9bdd08185c1c1c9bdd995960621b6044820152606401610605565b600082815260046020526040902060030154610100900460ff1615610e4e5760405162461bcd60e51b815260040161060590611dba565b50600090815260046020908152604080832060038101805461ff0019166101001790556001908101546001600160a01b031684526002909252909120600901805460ff19169091179055565b610ea2611830565b610eaa61187d565b6000815111610efb5760405162461bcd60e51b815260206004820152601760248201527f557365722049442063616e6e6f7420626520656d7074790000000000000000006044820152606401610605565b60006001600160a01b0316600382604051610f169190611df1565b908152604051908190036020019020546001600160a01b031614610f755760405162461bcd60e51b81526020600482015260166024820152755573657220494420616c72656164792065786973747360501b6044820152606401610605565b336000908152600260205260409020546001600160a01b031615610fdb5760405162461bcd60e51b815260206004820152601a60248201527f4164647265737320616c726561647920726567697374657265640000000000006044820152606401610605565b33600081815260026020526040902080546001600160a01b0319169091178155600181016110098382611e5c565b5060028101805460ff199081169091554260038084018290556004840191909155600983018054909216909155604051339190611047908590611df1565b90815260405190819003602001902080546001600160a01b03929092166001600160a01b03199092169190911790556007805490600061108683611d59565b9190505550336001600160a01b03167f48cac28ad4dc618e15f4c2dd5e97751182f166de97b25618318b2112aa951a2f836040516110c49190611f1c565b60405180910390a2506110d660018055565b50565b6110e16118d6565b610a846000611985565b6110f36118d6565b6001600160a01b038281166000908152600260205260409020541661112a5760405162461bcd60e51b815260040161060590611d00565b6001600160a01b038083166000908152600260209081526040808320938516835260079093019052205460ff1661119c5760405162461bcd60e51b8152602060048201526016602482015275119a5b9d1958da081b9bdd08185d5d1a1bdc9a5e995960521b6044820152606401610605565b6001600160a01b038083166000818152600260208181526040808420958716808552600787018352818520805460ff19169055858552929091524260049095019490945592517f9b6320ccead72f7f4a3a7e5b07c3234e4851c2bc207df2de97144eb9598dc66f9190a35050565b6112126118d6565b610a846119d5565b6112226118d6565b6001600160a01b03828116600090815260026020526040902054166112595760405162461bcd60e51b815260040161060590611d00565b6001600160a01b038216600090815260026020908152604080832084845260050190915290205460ff166112c45760405162461bcd60e51b8152602060048201526012602482015271105412481b9bdd08185d5d1a1bdc9a5e995960721b6044820152606401610605565b6001600160a01b0382166000818152600260208181526040808420868552600581018352818520805460ff191690559385905291815242600490930192909255518381527fe8b52de5fadfbc17f0ffdf3c2079acf75506ae811cbab8b01133c6542722c4b7910161097f565b6006602052816000526040600020818154811061134c57600080fd5b90600052602060002001600091509150505481565b60008181526004602052604090206001015481906001600160a01b031661139a5760405162461bcd60e51b815260040161060590611d2d565b6113a261187d565b6000828152600460205260409020600101546001600160a01b031633146113fc5760405162461bcd60e51b815260206004820152600e60248201526d139bdd08185d5d1a1bdc9a5e995960921b6044820152606401610605565b60008281526004602052604090206003015460ff16156114595760405162461bcd60e51b815260206004820152601860248201527714995c5d595cdd08185b1c9958591e48185c1c1c9bdd995960421b6044820152606401610605565b600082815260046020526040902060030154610100900460ff16156114905760405162461bcd60e51b815260040161060590611dba565b600082815260046020526040808220600301805460ff1916600117905551339184917f3f269fd9f498eb3cf2377a93a93345455f99340b62b07f0a3af293be585e634b9190a361085460018055565b6005602052816000526040600020818154811061134c57600080fd5b60008181526004602052604090206001015481906001600160a01b03166115345760405162461bcd60e51b815260040161060590611d2d565b61153c61187d565b6000828152600460205260409020600101546001600160a01b031633146115965760405162461bcd60e51b815260206004820152600e60248201526d139bdd08185d5d1a1bdc9a5e995960921b6044820152606401610605565b60008281526004602052604090206003015460ff16156115f35760405162461bcd60e51b815260206004820152601860248201527714995c5d595cdd08185b1c9958591e48185c1c1c9bdd995960421b6044820152606401610605565b600082815260046020526040902060030154610100900460ff161561162a5760405162461bcd60e51b815260040161060590611dba565b600082815260046020526040808220600301805461ffff191661010017905551339184917f46d7fb2599e0841ec295666b6b246f33c4ed29558f6a661dad11b9fdf41716379190a361085460018055565b6001600160a01b038116600090815260056020908152604091829020805483518184028101840190945280845260609392830182828015610d725760200282019190600052602060002090815481526020019060010190808311610d5e5750505050509050919050565b6116ed6118d6565b6001600160a01b0381166117525760405162461bcd60e51b815260206004820152602660248201527f4f776e61626c653a206e6577206f776e657220697320746865207a65726f206160448201526564647265737360d01b6064820152608401610605565b6110d681611985565b600260205260009081526040902080546001820180546001600160a01b03909216929161178790611d80565b80601f01602080910402602001604051908101604052809291908181526020018280546117b390611d80565b80156118005780601f106117d557610100808354040283529160200191611800565b820191906000526020600020905b8154815290600101906020018083116117e357829003601f168201915b505050506002830154600384015460048501546009860154600a90960154949560ff938416959294509092169087565b600054600160a01b900460ff1615610a845760405162461bcd60e51b815260206004820152601060248201526f14185d5cd8589b194e881c185d5cd95960821b6044820152606401610605565b6002600154036118cf5760405162461bcd60e51b815260206004820152601f60248201527f5265656e7472616e637947756172643a207265656e7472616e742063616c6c006044820152606401610605565b6002600155565b6000546001600160a01b03163314610a845760405162461bcd60e51b815260206004820181905260248201527f4f776e61626c653a2063616c6c6572206973206e6f7420746865206f776e65726044820152606401610605565b611938611a18565b6000805460ff60a01b191690557f5db9ee0a495bf2e6ff9c91a7834c1ba4fdd244a5e8aa4e537bd38aeae4b073aa335b6040516001600160a01b03909116815260200160405180910390a1565b600080546001600160a01b038381166001600160a01b0319831681178455604051919092169283917f8be0079c531659141344cd1fd0a4f28419497f9722a3daafe3b4186f6b6457e09190a35050565b6119dd611830565b6000805460ff60a01b1916600160a01b1790557f62e78cea01bee320cd4e420270b5ea74000d11b0c9f74754ebdbfc544b05a2586119683390565b600054600160a01b900460ff16610a845760405162461bcd60e51b815260206004820152601460248201527314185d5cd8589b194e881b9bdd081c185d5cd95960621b6044820152606401610605565b80356001600160a01b0381168114611a7f57600080fd5b919050565b60008060408385031215611a9757600080fd5b611aa083611a68565b9150611aae60208401611a68565b90509250929050565b60008060408385031215611aca57600080fd5b611ad383611a68565b946020939093013593505050565b600060208284031215611af357600080fd5b611afc82611a68565b9392505050565b60005b83811015611b1e578181015183820152602001611b06565b50506000910152565b60008151808452611b3f816020860160208601611b03565b601f01601f19169290920160200192915050565b60a081526000611b6660a0830188611b27565b951515602083015250604081019390935260608301919091521515608090910152919050565b600060208284031215611b9e57600080fd5b5035919050565b6020808252825182820181905260009190848201906040850190845b81811015611bdd57835183529284019291840191600101611bc1565b50909695505050505050565b634e487b7160e01b600052604160045260246000fd5b600060208284031215611c1157600080fd5b813567ffffffffffffffff80821115611c2957600080fd5b818401915084601f830112611c3d57600080fd5b813581811115611c4f57611c4f611be9565b604051601f8201601f19908116603f01168101908382118183101715611c7757611c77611be9565b81604052828152876020848701011115611c9057600080fd5b826020860160208301376000928101602001929092525095945050505050565b6001600160a01b038816815260e060208201819052600090611cd490830189611b27565b96151560408301525060608101949094526080840192909252151560a083015260c09091015292915050565b602080825260139082015272155cd95c881b9bdd081c9959da5cdd195c9959606a1b604082015260600190565b602080825260129082015271125b9d985b1a59081c995c5d595cdd08125160721b604082015260600190565b600060018201611d7957634e487b7160e01b600052601160045260246000fd5b5060010190565b600181811c90821680611d9457607f821691505b602082108103611db457634e487b7160e01b600052602260045260246000fd5b50919050565b60208082526019908201527f5265717565737420616c726561647920636f6d706c6574656400000000000000604082015260600190565b60008251611e03818460208701611b03565b9190910192915050565b601f821115611e5757600081815260208120601f850160051c81016020861015611e345750805b601f850160051c820191505b81811015611e5357828155600101611e40565b5050505b505050565b815167ffffffffffffffff811115611e7657611e76611be9565b611e8a81611e848454611d80565b84611e0d565b602080601f831160018114611ebf5760008415611ea75750858301515b600019600386901b1c1916600185901b178555611e53565b600085815260208120601f198616915b82811015611eee57888601518255948401946001909101908401611ecf565b5085821015611f0c5787850151600019600388901b60f8161c191681555b5050505050600190811b01905550565b602081526000611afc6020830184611b2756fea26469706673582212208ad17fcbe3975a750c894a3608e896f9d019b774e9c17e59c58ca508a7a113b564736f6c63430008140033","opcodes":"PUSH1 0x80 PUSH1 0x40 MSTORE CALLVALUE DUP1 ISZERO PUSH2 0x10 JUMPI PUSH1 0x0 DUP1 REVERT JUMPDEST POP PUSH2 0x1A CALLER PUSH2 0x30 JUMP JUMPDEST PUSH1 0x0 DUP1 SLOAD PUSH1 0xFF PUSH1 0xA0 SHL NOT AND SWAP1 SSTORE PUSH1 0x1 DUP1 SSTORE PUSH2 0x80 JUMP JUMPDEST PUSH1 0x0 DUP1 SLOAD PUSH1 0x1 PUSH1 0x1 PUSH1 0xA0 SHL SUB DUP4 DUP2 AND PUSH1 0x1 PUSH1 0x1 PUSH1 0xA0 SHL SUB NOT DUP4 AND DUP2 OR DUP5 SSTORE PUSH1 0x40 MLOAD SWAP2 SWAP1 SWAP3 AND SWAP3 DUP4 SWAP2 PUSH32 0x8BE0079C531659141344CD1FD0A4F28419497F9722A3DAAFE3B4186F6B6457E0 SWAP2 SWAP1 LOG3 POP POP JUMP JUMPDEST PUSH2 0x1F65 DUP1 PUSH2 0x8F PUSH1 0x0 CODECOPY PUSH1 0x0 RETURN INVALID PUSH1 0x80 PUSH1 0x40 MSTORE CALLVALUE DUP1 ISZERO PUSH2 0x10 JUMPI PUSH1 0x0 DUP1 REVERT JUMPDEST POP PUSH1 0x4 CALLDATASIZE LT PUSH2 0x1DA JUMPI PUSH1 0x0 CALLDATALOAD PUSH1 0xE0 SHR DUP1 PUSH4 0x8456CB59 GT PUSH2 0x104 JUMPI DUP1 PUSH4 0xB1EE4E90 GT PUSH2 0xA2 JUMPI DUP1 PUSH4 0xDFE6B5D6 GT PUSH2 0x71 JUMPI DUP1 PUSH4 0xDFE6B5D6 EQ PUSH2 0x557 JUMPI DUP1 PUSH4 0xE9E52C94 EQ PUSH2 0x572 JUMPI DUP1 PUSH4 0xF2FDE38B EQ PUSH2 0x585 JUMPI DUP1 PUSH4 0xF653B81E EQ PUSH2 0x598 JUMPI PUSH1 0x0 DUP1 REVERT JUMPDEST DUP1 PUSH4 0xB1EE4E90 EQ PUSH2 0x4F4 JUMPI DUP1 PUSH4 0xBDA7738C EQ PUSH2 0x507 JUMPI DUP1 PUSH4 0xBFF1F9E1 EQ PUSH2 0x51A JUMPI DUP1 PUSH4 0xC21BE6AE EQ PUSH2 0x523 JUMPI PUSH1 0x0 DUP1 REVERT JUMPDEST DUP1 PUSH4 0xA137B02F GT PUSH2 0xDE JUMPI DUP1 PUSH4 0xA137B02F EQ PUSH2 0x3FE JUMPI DUP1 PUSH4 0xAA5D71C7 EQ PUSH2 0x491 JUMPI DUP1 PUSH4 0xADC4740E EQ PUSH2 0x4A4 JUMPI DUP1 PUSH4 0xAF54DB06 EQ PUSH2 0x4B7 JUMPI PUSH1 0x0 DUP1 REVERT JUMPDEST DUP1 PUSH4 0x8456CB59 EQ PUSH2 0x3BE JUMPI DUP1 PUSH4 0x8DA5CB5B EQ PUSH2 0x3C6 JUMPI DUP1 PUSH4 0x915B8812 EQ PUSH2 0x3EB JUMPI PUSH1 0x0 DUP1 REVERT JUMPDEST DUP1 PUSH4 0x4D813120 GT PUSH2 0x17C JUMPI DUP1 PUSH4 0x704F1B94 GT PUSH2 0x14B JUMPI DUP1 PUSH4 0x704F1B94 EQ PUSH2 0x379 JUMPI DUP1 PUSH4 0x7089C7A2 EQ PUSH2 0x38C JUMPI DUP1 PUSH4 0x715018A6 EQ PUSH2 0x3A3 JUMPI DUP1 PUSH4 0x7704953F EQ PUSH2 0x3AB JUMPI PUSH1 0x0 DUP1 REVERT JUMPDEST DUP1 PUSH4 0x4D813120 EQ PUSH2 0x321 JUMPI DUP1 PUSH4 0x5C975ABB EQ PUSH2 0x334 JUMPI DUP1 PUSH4 0x5E9B2DE9 EQ PUSH2 0x346 JUMPI DUP1 PUSH4 0x6C324D9B EQ PUSH2 0x366 JUMPI PUSH1 0x0 DUP1 REVERT JUMPDEST DUP1 PUSH4 0x2129C761 GT PUSH2 0x1B8 JUMPI DUP1 PUSH4 0x2129C761 EQ PUSH2 0x25C JUMPI DUP1 PUSH4 0x244ABE87 EQ PUSH2 0x280 JUMPI DUP1 PUSH4 0x3F4BA83A EQ PUSH2 0x306 JUMPI DUP1 PUSH4 0x3F4CA9F5 EQ PUSH2 0x30E JUMPI PUSH1 0x0 DUP1 REVERT JUMPDEST DUP1 PUSH4 0xCCDC92F EQ PUSH2 0x1DF JUMPI DUP1 PUSH4 0x16CCE818 EQ PUSH2 0x234 JUMPI DUP1 PUSH4 0x184BD36E EQ PUSH2 0x249 JUMPI JUMPDEST PUSH1 0x0 DUP1 REVERT JUMPDEST PUSH2 0x21F PUSH2 0x1ED CALLDATASIZE PUSH1 0x4 PUSH2 0x1A84 JUMP JUMPDEST PUSH1 0x1 PUSH1 0x1 PUSH1 0xA0 SHL SUB SWAP2 DUP3 AND PUSH1 0x0 SWAP1 DUP2 MSTORE PUSH1 0x2 PUSH1 0x20 SWAP1 DUP2 MSTORE PUSH1 0x40 DUP1 DUP4 KECCAK256 SWAP4 SWAP1 SWAP5 AND DUP3 MSTORE PUSH1 0x7 SWAP1 SWAP3 ADD SWAP1 SWAP2 MSTORE KECCAK256 SLOAD PUSH1 0xFF AND SWAP1 JUMP JUMPDEST PUSH1 0x40 MLOAD SWAP1 ISZERO ISZERO DUP2 MSTORE PUSH1 0x20 ADD JUMPDEST PUSH1 0x40 MLOAD DUP1 SWAP2 SUB SWAP1 RETURN JUMPDEST PUSH2 0x247 PUSH2 0x242 CALLDATASIZE PUSH1 0x4 PUSH2 0x1AB7 JUMP JUMPDEST PUSH2 0x5BE JUMP JUMPDEST STOP JUMPDEST PUSH2 0x247 PUSH2 0x257 CALLDATASIZE PUSH1 0x4 PUSH2 0x1AB7 JUMP JUMPDEST PUSH2 0x858 JUMP JUMPDEST PUSH2 0x26F PUSH2 0x26A CALLDATASIZE PUSH1 0x4 PUSH2 0x1AE1 JUMP JUMPDEST PUSH2 0x98B JUMP JUMPDEST PUSH1 0x40 MLOAD PUSH2 0x22B SWAP6 SWAP5 SWAP4 SWAP3 SWAP2 SWAP1 PUSH2 0x1B53 JUMP JUMPDEST PUSH2 0x2CF PUSH2 0x28E CALLDATASIZE PUSH1 0x4 PUSH2 0x1B8C JUMP JUMPDEST PUSH1 0x0 SWAP1 DUP2 MSTORE PUSH1 0x4 PUSH1 0x20 MSTORE PUSH1 0x40 SWAP1 KECCAK256 DUP1 SLOAD PUSH1 0x1 DUP3 ADD SLOAD PUSH1 0x2 DUP4 ADD SLOAD PUSH1 0x3 SWAP1 SWAP4 ADD SLOAD PUSH1 0x1 PUSH1 0x1 PUSH1 0xA0 SHL SUB SWAP3 DUP4 AND SWAP5 SWAP3 SWAP1 SWAP2 AND SWAP3 SWAP2 PUSH1 0xFF DUP1 DUP4 AND SWAP3 PUSH2 0x100 SWAP1 DIV AND SWAP1 JUMP JUMPDEST PUSH1 0x40 DUP1 MLOAD PUSH1 0x1 PUSH1 0x1 PUSH1 0xA0 SHL SUB SWAP7 DUP8 AND DUP2 MSTORE SWAP6 SWAP1 SWAP5 AND PUSH1 0x20 DUP7 ADD MSTORE SWAP3 DUP5 ADD SWAP2 SWAP1 SWAP2 MSTORE ISZERO ISZERO PUSH1 0x60 DUP4 ADD MSTORE ISZERO ISZERO PUSH1 0x80 DUP3 ADD MSTORE PUSH1 0xA0 ADD PUSH2 0x22B JUMP JUMPDEST PUSH2 0x247 PUSH2 0xA74 JUMP JUMPDEST PUSH2 0x247 PUSH2 0x31C CALLDATASIZE PUSH1 0x4 PUSH2 0x1A84 JUMP JUMPDEST PUSH2 0xA86 JUMP JUMPDEST PUSH2 0x247 PUSH2 0x32F CALLDATASIZE PUSH1 0x4 PUSH2 0x1AE1 JUMP JUMPDEST PUSH2 0xC13 JUMP JUMPDEST PUSH1 0x0 SLOAD PUSH1 0x1 PUSH1 0xA0 SHL SWAP1 DIV PUSH1 0xFF AND PUSH2 0x21F JUMP JUMPDEST PUSH2 0x359 PUSH2 0x354 CALLDATASIZE PUSH1 0x4 PUSH2 0x1AE1 JUMP JUMPDEST PUSH2 0xD12 JUMP JUMPDEST PUSH1 0x40 MLOAD PUSH2 0x22B SWAP2 SWAP1 PUSH2 0x1BA5 JUMP JUMPDEST PUSH2 0x247 PUSH2 0x374 CALLDATASIZE PUSH1 0x4 PUSH2 0x1B8C JUMP JUMPDEST PUSH2 0xD7E JUMP JUMPDEST PUSH2 0x247 PUSH2 0x387 CALLDATASIZE PUSH1 0x4 PUSH2 0x1BFF JUMP JUMPDEST PUSH2 0xE9A JUMP JUMPDEST PUSH2 0x395 PUSH1 0x8 SLOAD DUP2 JUMP JUMPDEST PUSH1 0x40 MLOAD SWAP1 DUP2 MSTORE PUSH1 0x20 ADD PUSH2 0x22B JUMP JUMPDEST PUSH2 0x247 PUSH2 0x10D9 JUMP JUMPDEST PUSH2 0x247 PUSH2 0x3B9 CALLDATASIZE PUSH1 0x4 PUSH2 0x1A84 JUMP JUMPDEST PUSH2 0x10EB JUMP JUMPDEST PUSH2 0x247 PUSH2 0x120A JUMP JUMPDEST PUSH1 0x0 SLOAD PUSH1 0x1 PUSH1 0x1 PUSH1 0xA0 SHL SUB AND JUMPDEST PUSH1 0x40 MLOAD PUSH1 0x1 PUSH1 0x1 PUSH1 0xA0 SHL SUB SWAP1 SWAP2 AND DUP2 MSTORE PUSH1 0x20 ADD PUSH2 0x22B JUMP JUMPDEST PUSH2 0x247 PUSH2 0x3F9 CALLDATASIZE PUSH1 0x4 PUSH2 0x1AB7 JUMP JUMPDEST PUSH2 0x121A JUMP JUMPDEST PUSH2 0x455 PUSH2 0x40C CALLDATASIZE PUSH1 0x4 PUSH2 0x1B8C JUMP JUMPDEST PUSH1 0x4 PUSH1 0x20 DUP2 SWAP1 MSTORE PUSH1 0x0 SWAP2 DUP3 MSTORE PUSH1 0x40 SWAP1 SWAP2 KECCAK256 DUP1 SLOAD PUSH1 0x1 DUP3 ADD SLOAD PUSH1 0x2 DUP4 ADD SLOAD PUSH1 0x3 DUP5 ADD SLOAD SWAP4 SWAP1 SWAP5 ADD SLOAD PUSH1 0x1 PUSH1 0x1 PUSH1 0xA0 SHL SUB SWAP3 DUP4 AND SWAP5 SWAP3 SWAP1 SWAP2 AND SWAP3 PUSH1 0xFF DUP1 DUP3 AND SWAP3 PUSH2 0x100 SWAP1 SWAP3 DIV AND SWAP1 DUP7 JUMP JUMPDEST PUSH1 0x40 DUP1 MLOAD PUSH1 0x1 PUSH1 0x1 PUSH1 0xA0 SHL SUB SWAP8 DUP9 AND DUP2 MSTORE SWAP7 SWAP1 SWAP6 AND PUSH1 0x20 DUP8 ADD MSTORE SWAP4 DUP6 ADD SWAP3 SWAP1 SWAP3 MSTORE ISZERO ISZERO PUSH1 0x60 DUP5 ADD MSTORE ISZERO ISZERO PUSH1 0x80 DUP4 ADD MSTORE PUSH1 0xA0 DUP3 ADD MSTORE PUSH1 0xC0 ADD PUSH2 0x22B JUMP JUMPDEST PUSH2 0x395 PUSH2 0x49F CALLDATASIZE PUSH1 0x4 PUSH2 0x1AB7 JUMP JUMPDEST PUSH2 0x1330 JUMP JUMPDEST PUSH2 0x247 PUSH2 0x4B2 CALLDATASIZE PUSH1 0x4 PUSH2 0x1B8C JUMP JUMPDEST PUSH2 0x1361 JUMP JUMPDEST PUSH2 0x21F PUSH2 0x4C5 CALLDATASIZE PUSH1 0x4 PUSH2 0x1AB7 JUMP JUMPDEST PUSH1 0x1 PUSH1 0x1 PUSH1 0xA0 SHL SUB SWAP2 SWAP1 SWAP2 AND PUSH1 0x0 SWAP1 DUP2 MSTORE PUSH1 0x2 PUSH1 0x20 SWAP1 DUP2 MSTORE PUSH1 0x40 DUP1 DUP4 KECCAK256 SWAP4 DUP4 MSTORE PUSH1 0x5 SWAP1 SWAP4 ADD SWAP1 MSTORE KECCAK256 SLOAD PUSH1 0xFF AND SWAP1 JUMP JUMPDEST PUSH2 0x395 PUSH2 0x502 CALLDATASIZE PUSH1 0x4 PUSH2 0x1AB7 JUMP JUMPDEST PUSH2 0x14DF JUMP JUMPDEST PUSH2 0x247 PUSH2 0x515 CALLDATASIZE PUSH1 0x4 PUSH2 0x1B8C JUMP JUMPDEST PUSH2 0x14FB JUMP JUMPDEST PUSH2 0x395 PUSH1 0x7 SLOAD DUP2 JUMP JUMPDEST PUSH2 0x3D3 PUSH2 0x531 CALLDATASIZE PUSH1 0x4 PUSH2 0x1BFF JUMP JUMPDEST DUP1 MLOAD PUSH1 0x20 DUP2 DUP4 ADD DUP2 ADD DUP1 MLOAD PUSH1 0x3 DUP3 MSTORE SWAP3 DUP3 ADD SWAP2 SWAP1 SWAP4 ADD KECCAK256 SWAP2 MSTORE SLOAD PUSH1 0x1 PUSH1 0x1 PUSH1 0xA0 SHL SUB AND DUP2 JUMP JUMPDEST PUSH1 0x7 SLOAD PUSH1 0x8 SLOAD PUSH1 0x40 DUP1 MLOAD SWAP3 DUP4 MSTORE PUSH1 0x20 DUP4 ADD SWAP2 SWAP1 SWAP2 MSTORE ADD PUSH2 0x22B JUMP JUMPDEST PUSH2 0x359 PUSH2 0x580 CALLDATASIZE PUSH1 0x4 PUSH2 0x1AE1 JUMP JUMPDEST PUSH2 0x167B JUMP JUMPDEST PUSH2 0x247 PUSH2 0x593 CALLDATASIZE PUSH1 0x4 PUSH2 0x1AE1 JUMP JUMPDEST PUSH2 0x16E5 JUMP JUMPDEST PUSH2 0x5AB PUSH2 0x5A6 CALLDATASIZE PUSH1 0x4 PUSH2 0x1AE1 JUMP JUMPDEST PUSH2 0x175B JUMP JUMPDEST PUSH1 0x40 MLOAD PUSH2 0x22B SWAP8 SWAP7 SWAP6 SWAP5 SWAP4 SWAP3 SWAP2 SWAP1 PUSH2 0x1CB0 JUMP JUMPDEST PUSH2 0x5C6 PUSH2 0x1830 JUMP JUMPDEST PUSH2 0x5CE PUSH2 0x187D JUMP JUMPDEST PUSH1 0x1 PUSH1 0x1 PUSH1 0xA0 SHL SUB DUP3 DUP2 AND PUSH1 0x0 SWAP1 DUP2 MSTORE PUSH1 0x2 PUSH1 0x20 MSTORE PUSH1 0x40 SWAP1 KECCAK256 SLOAD AND PUSH2 0x60E JUMPI PUSH1 0x40 MLOAD PUSH3 0x461BCD PUSH1 0xE5 SHL DUP2 MSTORE PUSH1 0x4 ADD PUSH2 0x605 SWAP1 PUSH2 0x1D00 JUMP JUMPDEST PUSH1 0x40 MLOAD DUP1 SWAP2 SUB SWAP1 REVERT JUMPDEST PUSH1 0x1 PUSH1 0x1 PUSH1 0xA0 SHL SUB DUP3 AND PUSH1 0x0 SWAP1 DUP2 MSTORE PUSH1 0x2 PUSH1 0x20 DUP2 SWAP1 MSTORE PUSH1 0x40 SWAP1 SWAP2 KECCAK256 ADD SLOAD PUSH1 0xFF AND PUSH2 0x66E JUMPI PUSH1 0x40 MLOAD PUSH3 0x461BCD PUSH1 0xE5 SHL DUP2 MSTORE PUSH1 0x20 PUSH1 0x4 DUP3 ADD MSTORE PUSH1 0x11 PUSH1 0x24 DUP3 ADD MSTORE PUSH17 0x155CD95C881B9BDD081D995C9A599A5959 PUSH1 0x7A SHL PUSH1 0x44 DUP3 ADD MSTORE PUSH1 0x64 ADD PUSH2 0x605 JUMP JUMPDEST PUSH1 0x1 PUSH1 0x1 PUSH1 0xA0 SHL SUB DUP3 AND PUSH1 0x0 SWAP1 DUP2 MSTORE PUSH1 0x2 PUSH1 0x20 SWAP1 DUP2 MSTORE PUSH1 0x40 DUP1 DUP4 KECCAK256 CALLER DUP5 MSTORE PUSH1 0x7 ADD SWAP1 SWAP2 MSTORE SWAP1 KECCAK256 SLOAD PUSH1 0xFF AND PUSH2 0x6DD JUMPI PUSH1 0x40 MLOAD PUSH3 0x461BCD PUSH1 0xE5 SHL DUP2 MSTORE PUSH1 0x20 PUSH1 0x4 DUP3 ADD MSTORE PUSH1 0x16 PUSH1 0x24 DUP3 ADD MSTORE PUSH22 0x119A5B9D1958DA081B9BDD08185D5D1A1BDC9A5E9959 PUSH1 0x52 SHL PUSH1 0x44 DUP3 ADD MSTORE PUSH1 0x64 ADD PUSH2 0x605 JUMP JUMPDEST PUSH1 0x0 DUP2 DUP2 MSTORE PUSH1 0x4 PUSH1 0x20 MSTORE PUSH1 0x40 SWAP1 KECCAK256 PUSH1 0x1 ADD SLOAD PUSH1 0x1 PUSH1 0x1 PUSH1 0xA0 SHL SUB AND ISZERO PUSH2 0x745 JUMPI PUSH1 0x40 MLOAD PUSH3 0x461BCD PUSH1 0xE5 SHL DUP2 MSTORE PUSH1 0x20 PUSH1 0x4 DUP3 ADD MSTORE PUSH1 0x19 PUSH1 0x24 DUP3 ADD MSTORE PUSH32 0x5265717565737420494420616C72656164792065786973747300000000000000 PUSH1 0x44 DUP3 ADD MSTORE PUSH1 0x64 ADD PUSH2 0x605 JUMP JUMPDEST DUP1 PUSH2 0x762 JUMPI PUSH1 0x40 MLOAD PUSH3 0x461BCD PUSH1 0xE5 SHL DUP2 MSTORE PUSH1 0x4 ADD PUSH2 0x605 SWAP1 PUSH2 0x1D2D JUMP JUMPDEST PUSH1 0x0 DUP2 DUP2 MSTORE PUSH1 0x4 PUSH1 0x20 DUP2 DUP2 MSTORE PUSH1 0x40 DUP1 DUP5 KECCAK256 DUP1 SLOAD PUSH1 0x1 PUSH1 0x1 PUSH1 0xA0 SHL SUB NOT SWAP1 DUP2 AND CALLER SWAP1 DUP2 OR DUP4 SSTORE PUSH1 0x1 DUP1 DUP5 ADD DUP1 SLOAD PUSH1 0x1 PUSH1 0x1 PUSH1 0xA0 SHL SUB DUP13 AND SWAP5 AND DUP5 OR SWAP1 SSTORE TIMESTAMP PUSH1 0x2 DUP6 ADD SSTORE PUSH1 0x3 DUP5 ADD DUP1 SLOAD PUSH2 0xFFFF NOT AND SWAP1 SSTORE SWAP6 DUP4 ADD DUP9 SWAP1 SSTORE SWAP1 DUP7 MSTORE PUSH1 0x5 DUP5 MSTORE DUP3 DUP7 KECCAK256 DUP1 SLOAD DUP1 DUP8 ADD DUP3 SSTORE SWAP1 DUP8 MSTORE DUP5 DUP8 KECCAK256 ADD DUP8 SWAP1 SSTORE DUP6 MSTORE PUSH1 0x6 DUP4 MSTORE SWAP1 DUP5 KECCAK256 DUP1 SLOAD SWAP4 DUP5 ADD DUP2 SSTORE DUP5 MSTORE SWAP1 DUP4 KECCAK256 SWAP1 SWAP2 ADD DUP4 SWAP1 SSTORE PUSH1 0x8 DUP1 SLOAD SWAP2 SWAP3 PUSH2 0x7FC DUP4 PUSH2 0x1D59 JUMP JUMPDEST SWAP1 SWAP2 SSTORE POP POP PUSH1 0x1 PUSH1 0x1 PUSH1 0xA0 SHL SUB DUP4 AND PUSH1 0x0 DUP2 DUP2 MSTORE PUSH1 0x2 PUSH1 0x20 MSTORE PUSH1 0x40 DUP1 DUP3 KECCAK256 TIMESTAMP PUSH1 0xA SWAP1 SWAP2 ADD SSTORE MLOAD CALLER SWAP2 DUP6 SWAP2 PUSH32 0x531F793EB63924895B6E8BEB242D00259EFC9213D72007C70A37F4E129E7C8E3 SWAP2 SWAP1 LOG4 POP PUSH2 0x854 PUSH1 0x1 DUP1 SSTORE JUMP JUMPDEST POP POP JUMP JUMPDEST PUSH2 0x860 PUSH2 0x18D6 JUMP JUMPDEST PUSH1 0x1 PUSH1 0x1 PUSH1 0xA0 SHL SUB DUP3 DUP2 AND PUSH1 0x0 SWAP1 DUP2 MSTORE PUSH1 0x2 PUSH1 0x20 MSTORE PUSH1 0x40 SWAP1 KECCAK256 SLOAD AND PUSH2 0x897 JUMPI PUSH1 0x40 MLOAD PUSH3 0x461BCD PUSH1 0xE5 SHL DUP2 MSTORE PUSH1 0x4 ADD PUSH2 0x605 SWAP1 PUSH2 0x1D00 JUMP JUMPDEST PUSH1 0x1 PUSH1 0x1 PUSH1 0xA0 SHL SUB DUP3 AND PUSH1 0x0 SWAP1 DUP2 MSTORE PUSH1 0x2 PUSH1 0x20 SWAP1 DUP2 MSTORE PUSH1 0x40 DUP1 DUP4 KECCAK256 DUP5 DUP5 MSTORE PUSH1 0x5 ADD SWAP1 SWAP2 MSTORE SWAP1 KECCAK256 SLOAD PUSH1 0xFF AND ISZERO PUSH2 0x907 JUMPI PUSH1 0x40 MLOAD PUSH3 0x461BCD PUSH1 0xE5 SHL DUP2 MSTORE PUSH1 0x20 PUSH1 0x4 DUP3 ADD MSTORE PUSH1 0x16 PUSH1 0x24 DUP3 ADD MSTORE PUSH22 0x10541248185B1C9958591E48185D5D1A1BDC9A5E9959 PUSH1 0x52 SHL PUSH1 0x44 DUP3 ADD MSTORE PUSH1 0x64 ADD PUSH2 0x605 JUMP JUMPDEST PUSH1 0x1 PUSH1 0x1 PUSH1 0xA0 SHL SUB DUP3 AND PUSH1 0x0 DUP2 DUP2 MSTORE PUSH1 0x2 PUSH1 0x20 DUP2 DUP2 MSTORE PUSH1 0x40 DUP1 DUP5 KECCAK256 DUP7 DUP6 MSTORE PUSH1 0x5 DUP2 ADD DUP4 MSTORE DUP2 DUP6 KECCAK256 DUP1 SLOAD PUSH1 0xFF NOT AND PUSH1 0x1 OR SWAP1 SSTORE PUSH1 0x6 DUP2 ADD DUP4 MSTORE DUP2 DUP6 KECCAK256 TIMESTAMP SWAP1 DUP2 SWAP1 SSTORE SWAP5 DUP7 SWAP1 MSTORE SWAP3 DUP3 MSTORE PUSH1 0x4 SWAP1 SWAP3 ADD SWAP3 SWAP1 SWAP3 SSTORE MLOAD DUP4 DUP2 MSTORE PUSH32 0xB1B2200BD56314412CBB830B49D2A4F91F3B86B586C5C911C807B3B1E54D34F5 SWAP2 ADD JUMPDEST PUSH1 0x40 MLOAD DUP1 SWAP2 SUB SWAP1 LOG2 POP POP JUMP JUMPDEST PUSH1 0x1 PUSH1 0x1 PUSH1 0xA0 SHL SUB DUP2 AND PUSH1 0x0 SWAP1 DUP2 MSTORE PUSH1 0x2 PUSH1 0x20 DUP2 SWAP1 MSTORE PUSH1 0x40 DUP3 KECCAK256 SWAP1 DUP2 ADD SLOAD PUSH1 0x3 DUP3 ADD SLOAD PUSH1 0x4 DUP4 ADD SLOAD PUSH1 0x9 DUP5 ADD SLOAD PUSH1 0x1 DUP6 ADD DUP1 SLOAD PUSH1 0x60 SWAP8 SWAP7 DUP8 SWAP7 DUP8 SWAP7 DUP8 SWAP7 SWAP3 SWAP6 PUSH1 0xFF SWAP3 DUP4 AND SWAP5 SWAP2 SWAP4 SWAP3 AND SWAP1 DUP6 SWAP1 PUSH2 0x9E0 SWAP1 PUSH2 0x1D80 JUMP JUMPDEST DUP1 PUSH1 0x1F ADD PUSH1 0x20 DUP1 SWAP2 DIV MUL PUSH1 0x20 ADD PUSH1 0x40 MLOAD SWAP1 DUP2 ADD PUSH1 0x40 MSTORE DUP1 SWAP3 SWAP2 SWAP1 DUP2 DUP2 MSTORE PUSH1 0x20 ADD DUP3 DUP1 SLOAD PUSH2 0xA0C SWAP1 PUSH2 0x1D80 JUMP JUMPDEST DUP1 ISZERO PUSH2 0xA59 JUMPI DUP1 PUSH1 0x1F LT PUSH2 0xA2E JUMPI PUSH2 0x100 DUP1 DUP4 SLOAD DIV MUL DUP4 MSTORE SWAP2 PUSH1 0x20 ADD SWAP2 PUSH2 0xA59 JUMP JUMPDEST DUP3 ADD SWAP2 SWAP1 PUSH1 0x0 MSTORE PUSH1 0x20 PUSH1 0x0 KECCAK256 SWAP1 JUMPDEST DUP2 SLOAD DUP2 MSTORE SWAP1 PUSH1 0x1 ADD SWAP1 PUSH1 0x20 ADD DUP1 DUP4 GT PUSH2 0xA3C JUMPI DUP3 SWAP1 SUB PUSH1 0x1F AND DUP3 ADD SWAP2 JUMPDEST POP POP POP POP POP SWAP5 POP SWAP6 POP SWAP6 POP SWAP6 POP SWAP6 POP SWAP6 POP POP SWAP2 SWAP4 SWAP6 SWAP1 SWAP3 SWAP5 POP JUMP JUMPDEST PUSH2 0xA7C PUSH2 0x18D6 JUMP JUMPDEST PUSH2 0xA84 PUSH2 0x1930 JUMP JUMPDEST JUMP JUMPDEST PUSH2 0xA8E PUSH2 0x18D6 JUMP JUMPDEST PUSH1 0x1 PUSH1 0x1 PUSH1 0xA0 SHL SUB DUP3 DUP2 AND PUSH1 0x0 SWAP1 DUP2 MSTORE PUSH1 0x2 PUSH1 0x20 MSTORE PUSH1 0x40 SWAP1 KECCAK256 SLOAD AND PUSH2 0xAC5 JUMPI PUSH1 0x40 MLOAD PUSH3 0x461BCD PUSH1 0xE5 SHL DUP2 MSTORE PUSH1 0x4 ADD PUSH2 0x605 SWAP1 PUSH2 0x1D00 JUMP JUMPDEST PUSH1 0x1 PUSH1 0x1 PUSH1 0xA0 SHL SUB DUP2 AND PUSH2 0xB1B JUMPI PUSH1 0x40 MLOAD PUSH3 0x461BCD PUSH1 0xE5 SHL DUP2 MSTORE PUSH1 0x20 PUSH1 0x4 DUP3 ADD MSTORE PUSH1 0x17 PUSH1 0x24 DUP3 ADD MSTORE PUSH32 0x496E76616C69642066696E746563682061646472657373000000000000000000 PUSH1 0x44 DUP3 ADD MSTORE PUSH1 0x64 ADD PUSH2 0x605 JUMP JUMPDEST PUSH1 0x1 PUSH1 0x1 PUSH1 0xA0 SHL SUB DUP1 DUP4 AND PUSH1 0x0 SWAP1 DUP2 MSTORE PUSH1 0x2 PUSH1 0x20 SWAP1 DUP2 MSTORE PUSH1 0x40 DUP1 DUP4 KECCAK256 SWAP4 DUP6 AND DUP4 MSTORE PUSH1 0x7 SWAP1 SWAP4 ADD SWAP1 MSTORE KECCAK256 SLOAD PUSH1 0xFF AND ISZERO PUSH2 0xB95 JUMPI PUSH1 0x40 MLOAD PUSH3 0x461BCD PUSH1 0xE5 SHL DUP2 MSTORE PUSH1 0x20 PUSH1 0x4 DUP3 ADD MSTORE PUSH1 0x1A PUSH1 0x24 DUP3 ADD MSTORE PUSH32 0x46696E7465636820616C726561647920617574686F72697A6564000000000000 PUSH1 0x44 DUP3 ADD MSTORE PUSH1 0x64 ADD PUSH2 0x605 JUMP JUMPDEST PUSH1 0x1 PUSH1 0x1 PUSH1 0xA0 SHL SUB DUP3 DUP2 AND PUSH1 0x0 DUP2 DUP2 MSTORE PUSH1 0x2 PUSH1 0x20 DUP2 DUP2 MSTORE PUSH1 0x40 DUP1 DUP5 KECCAK256 SWAP6 DUP8 AND DUP1 DUP6 MSTORE PUSH1 0x7 DUP8 ADD DUP4 MSTORE DUP2 DUP6 KECCAK256 DUP1 SLOAD PUSH1 0xFF NOT AND PUSH1 0x1 OR SWAP1 SSTORE PUSH1 0x8 DUP8 ADD DUP4 MSTORE DUP2 DUP6 KECCAK256 TIMESTAMP SWAP1 DUP2 SWAP1 SSTORE DUP7 DUP7 MSTORE SWAP4 SWAP1 SWAP3 MSTORE PUSH1 0x4 SWAP1 SWAP6 ADD SWAP2 SWAP1 SWAP2 SSTORE SWAP3 MLOAD PUSH32 0xEADEDDF4A31A1C6C6B70722DBE3757423F4A17A4D6A4A6DF183A9C0559ADDF2D SWAP2 SWAP1 LOG3 POP POP JUMP JUMPDEST PUSH2 0xC1B PUSH2 0x18D6 JUMP JUMPDEST PUSH1 0x1 PUSH1 0x1 PUSH1 0xA0 SHL SUB DUP2 DUP2 AND PUSH1 0x0 SWAP1 DUP2 MSTORE PUSH1 0x2 PUSH1 0x20 MSTORE PUSH1 0x40 SWAP1 KECCAK256 SLOAD AND PUSH2 0xC52 JUMPI PUSH1 0x40 MLOAD PUSH3 0x461BCD PUSH1 0xE5 SHL DUP2 MSTORE PUSH1 0x4 ADD PUSH2 0x605 SWAP1 PUSH2 0x1D00 JUMP JUMPDEST PUSH1 0x1 PUSH1 0x1 PUSH1 0xA0 SHL SUB DUP2 AND PUSH1 0x0 SWAP1 DUP2 MSTORE PUSH1 0x2 PUSH1 0x20 DUP2 SWAP1 MSTORE PUSH1 0x40 SWAP1 SWAP2 KECCAK256 ADD SLOAD PUSH1 0xFF AND ISZERO PUSH2 0xCB7 JUMPI PUSH1 0x40 MLOAD PUSH3 0x461BCD PUSH1 0xE5 SHL DUP2 MSTORE PUSH1 0x20 PUSH1 0x4 DUP3 ADD MSTORE PUSH1 0x15 PUSH1 0x24 DUP3 ADD MSTORE PUSH21 0x155CD95C88185B1C9958591E481D995C9A599A5959 PUSH1 0x5A SHL PUSH1 0x44 DUP3 ADD MSTORE PUSH1 0x64 ADD PUSH2 0x605 JUMP JUMPDEST PUSH1 0x1 PUSH1 0x1 PUSH1 0xA0 SHL SUB DUP2 AND PUSH1 0x0 DUP2 DUP2 MSTORE PUSH1 0x2 PUSH1 0x20 DUP2 SWAP1 MSTORE PUSH1 0x40 DUP1 DUP4 KECCAK256 SWAP2 DUP3 ADD DUP1 SLOAD PUSH1 0xFF NOT AND PUSH1 0x1 OR SWAP1 SSTORE TIMESTAMP PUSH1 0x4 SWAP1 SWAP3 ADD SWAP2 SWAP1 SWAP2 SSTORE MLOAD PUSH32 0xA6625D2D26E786E2F473111BEA4B2FCDBBF1863D883A2359989CE3A103D2972A SWAP2 SWAP1 LOG2 POP JUMP JUMPDEST PUSH1 0x1 PUSH1 0x1 PUSH1 0xA0 SHL SUB DUP2 AND PUSH1 0x0 SWAP1 DUP2 MSTORE PUSH1 0x6 PUSH1 0x20 SWAP1 DUP2 MSTORE PUSH1 0x40 SWAP2 DUP3 SWAP1 KECCAK256 DUP1 SLOAD DUP4 MLOAD DUP2 DUP5 MUL DUP2 ADD DUP5 ADD SWAP1 SWAP5 MSTORE DUP1 DUP5 MSTORE PUSH1 0x60 SWAP4 SWAP3 DUP4 ADD DUP3 DUP3 DUP1 ISZERO PUSH2 0xD72 JUMPI PUSH1 0x20 MUL DUP3 ADD SWAP2 SWAP1 PUSH1 0x0 MSTORE PUSH1 0x20 PUSH1 0x0 KECCAK256 SWAP1 JUMPDEST DUP2 SLOAD DUP2 MSTORE PUSH1 0x20 ADD SWAP1 PUSH1 0x1 ADD SWAP1 DUP1 DUP4 GT PUSH2 0xD5E JUMPI JUMPDEST POP POP POP POP POP SWAP1 POP SWAP2 SWAP1 POP JUMP JUMPDEST PUSH2 0xD86 PUSH2 0x18D6 JUMP JUMPDEST PUSH1 0x0 DUP2 DUP2 MSTORE PUSH1 0x4 PUSH1 0x20 MSTORE PUSH1 0x40 SWAP1 KECCAK256 PUSH1 0x1 ADD SLOAD DUP2 SWAP1 PUSH1 0x1 PUSH1 0x1 PUSH1 0xA0 SHL SUB AND PUSH2 0xDBF JUMPI PUSH1 0x40 MLOAD PUSH3 0x461BCD PUSH1 0xE5 SHL DUP2 MSTORE PUSH1 0x4 ADD PUSH2 0x605 SWAP1 PUSH2 0x1D2D JUMP JUMPDEST PUSH1 0x0 DUP3 DUP2 MSTORE PUSH1 0x4 PUSH1 0x20 MSTORE PUSH1 0x40 SWAP1 KECCAK256 PUSH1 0x3 ADD SLOAD PUSH1 0xFF AND PUSH2 0xE17 JUMPI PUSH1 0x40 MLOAD PUSH3 0x461BCD PUSH1 0xE5 SHL DUP2 MSTORE PUSH1 0x20 PUSH1 0x4 DUP3 ADD MSTORE PUSH1 0x14 PUSH1 0x24 DUP3 ADD MSTORE PUSH20 0x14995C5D595CDD081B9BDD08185C1C1C9BDD9959 PUSH1 0x62 SHL PUSH1 0x44 DUP3 ADD MSTORE PUSH1 0x64 ADD PUSH2 0x605 JUMP JUMPDEST PUSH1 0x0 DUP3 DUP2 MSTORE PUSH1 0x4 PUSH1 0x20 MSTORE PUSH1 0x40 SWAP1 KECCAK256 PUSH1 0x3 ADD SLOAD PUSH2 0x100 SWAP1 DIV PUSH1 0xFF AND ISZERO PUSH2 0xE4E JUMPI PUSH1 0x40 MLOAD PUSH3 0x461BCD PUSH1 0xE5 SHL DUP2 MSTORE PUSH1 0x4 ADD PUSH2 0x605 SWAP1 PUSH2 0x1DBA JUMP JUMPDEST POP PUSH1 0x0 SWAP1 DUP2 MSTORE PUSH1 0x4 PUSH1 0x20 SWAP1 DUP2 MSTORE PUSH1 0x40 DUP1 DUP4 KECCAK256 PUSH1 0x3 DUP2 ADD DUP1 SLOAD PUSH2 0xFF00 NOT AND PUSH2 0x100 OR SWAP1 SSTORE PUSH1 0x1 SWAP1 DUP2 ADD SLOAD PUSH1 0x1 PUSH1 0x1 PUSH1 0xA0 SHL SUB AND DUP5 MSTORE PUSH1 0x2 SWAP1 SWAP3 MSTORE SWAP1 SWAP2 KECCAK256 PUSH1 0x9 ADD DUP1 SLOAD PUSH1 0xFF NOT AND SWAP1 SWAP2 OR SWAP1 SSTORE JUMP JUMPDEST PUSH2 0xEA2 PUSH2 0x1830 JUMP JUMPDEST PUSH2 0xEAA PUSH2 0x187D JUMP JUMPDEST PUSH1 0x0 DUP2 MLOAD GT PUSH2 0xEFB JUMPI PUSH1 0x40 MLOAD PUSH3 0x461BCD PUSH1 0xE5 SHL DUP2 MSTORE PUSH1 0x20 PUSH1 0x4 DUP3 ADD MSTORE PUSH1 0x17 PUSH1 0x24 DUP3 ADD MSTORE PUSH32 0x557365722049442063616E6E6F7420626520656D707479000000000000000000 PUSH1 0x44 DUP3 ADD MSTORE PUSH1 0x64 ADD PUSH2 0x605 JUMP JUMPDEST PUSH1 0x0 PUSH1 0x1 PUSH1 0x1 PUSH1 0xA0 SHL SUB AND PUSH1 0x3 DUP3 PUSH1 0x40 MLOAD PUSH2 0xF16 SWAP2 SWAP1 PUSH2 0x1DF1 JUMP JUMPDEST SWAP1 DUP2 MSTORE PUSH1 0x40 MLOAD SWAP1 DUP2 SWAP1 SUB PUSH1 0x20 ADD SWAP1 KECCAK256 SLOAD PUSH1 0x1 PUSH1 0x1 PUSH1 0xA0 SHL SUB AND EQ PUSH2 0xF75 JUMPI PUSH1 0x40 MLOAD PUSH3 0x461BCD PUSH1 0xE5 SHL DUP2 MSTORE PUSH1 0x20 PUSH1 0x4 DUP3 ADD MSTORE PUSH1 0x16 PUSH1 0x24 DUP3 ADD MSTORE PUSH22 0x5573657220494420616C726561647920657869737473 PUSH1 0x50 SHL PUSH1 0x44 DUP3 ADD MSTORE PUSH1 0x64 ADD PUSH2 0x605 JUMP JUMPDEST CALLER PUSH1 0x0 SWAP1 DUP2 MSTORE PUSH1 0x2 PUSH1 0x20 MSTORE PUSH1 0x40 SWAP1 KECCAK256 SLOAD PUSH1 0x1 PUSH1 0x1 PUSH1 0xA0 SHL SUB AND ISZERO PUSH2 0xFDB JUMPI PUSH1 0x40 MLOAD PUSH3 0x461BCD PUSH1 0xE5 SHL DUP2 MSTORE PUSH1 0x20 PUSH1 0x4 DUP3 ADD MSTORE PUSH1 0x1A PUSH1 0x24 DUP3 ADD MSTORE PUSH32 0x4164647265737320616C72656164792072656769737465726564000000000000 PUSH1 0x44 DUP3 ADD MSTORE PUSH1 0x64 ADD PUSH2 0x605 JUMP JUMPDEST CALLER PUSH1 0x0 DUP2 DUP2 MSTORE PUSH1 0x2 PUSH1 0x20 MSTORE PUSH1 0x40 SWAP1 KECCAK256 DUP1 SLOAD PUSH1 0x1 PUSH1 0x1 PUSH1 0xA0 SHL SUB NOT AND SWAP1 SWAP2 OR DUP2 SSTORE PUSH1 0x1 DUP2 ADD PUSH2 0x1009 DUP4 DUP3 PUSH2 0x1E5C JUMP JUMPDEST POP PUSH1 0x2 DUP2 ADD DUP1 SLOAD PUSH1 0xFF NOT SWAP1 DUP2 AND SWAP1 SWAP2 SSTORE TIMESTAMP PUSH1 0x3 DUP1 DUP5 ADD DUP3 SWAP1 SSTORE PUSH1 0x4 DUP5 ADD SWAP2 SWAP1 SWAP2 SSTORE PUSH1 0x9 DUP4 ADD DUP1 SLOAD SWAP1 SWAP3 AND SWAP1 SWAP2 SSTORE PUSH1 0x40 MLOAD CALLER SWAP2 SWAP1 PUSH2 0x1047 SWAP1 DUP6 SWAP1 PUSH2 0x1DF1 JUMP JUMPDEST SWAP1 DUP2 MSTORE PUSH1 0x40 MLOAD SWAP1 DUP2 SWAP1 SUB PUSH1 0x20 ADD SWAP1 KECCAK256 DUP1 SLOAD PUSH1 0x1 PUSH1 0x1 PUSH1 0xA0 SHL SUB SWAP3 SWAP1 SWAP3 AND PUSH1 0x1 PUSH1 0x1 PUSH1 0xA0 SHL SUB NOT SWAP1 SWAP3 AND SWAP2 SWAP1 SWAP2 OR SWAP1 SSTORE PUSH1 0x7 DUP1 SLOAD SWAP1 PUSH1 0x0 PUSH2 0x1086 DUP4 PUSH2 0x1D59 JUMP JUMPDEST SWAP2 SWAP1 POP SSTORE POP CALLER PUSH1 0x1 PUSH1 0x1 PUSH1 0xA0 SHL SUB AND PUSH32 0x48CAC28AD4DC618E15F4C2DD5E97751182F166DE97B25618318B2112AA951A2F DUP4 PUSH1 0x40 MLOAD PUSH2 0x10C4 SWAP2 SWAP1 PUSH2 0x1F1C JUMP JUMPDEST PUSH1 0x40 MLOAD DUP1 SWAP2 SUB SWAP1 LOG2 POP PUSH2 0x10D6 PUSH1 0x1 DUP1 SSTORE JUMP JUMPDEST POP JUMP JUMPDEST PUSH2 0x10E1 PUSH2 0x18D6 JUMP JUMPDEST PUSH2 0xA84 PUSH1 0x0 PUSH2 0x1985 JUMP JUMPDEST PUSH2 0x10F3 PUSH2 0x18D6 JUMP JUMPDEST PUSH1 0x1 PUSH1 0x1 PUSH1 0xA0 SHL SUB DUP3 DUP2 AND PUSH1 0x0 SWAP1 DUP2 MSTORE PUSH1 0x2 PUSH1 0x20 MSTORE PUSH1 0x40 SWAP1 KECCAK256 SLOAD AND PUSH2 0x112A JUMPI PUSH1 0x40 MLOAD PUSH3 0x461BCD PUSH1 0xE5 SHL DUP2 MSTORE PUSH1 0x4 ADD PUSH2 0x605 SWAP1 PUSH2 0x1D00 JUMP JUMPDEST PUSH1 0x1 PUSH1 0x1 PUSH1 0xA0 SHL SUB DUP1 DUP4 AND PUSH1 0x0 SWAP1 DUP2 MSTORE PUSH1 0x2 PUSH1 0x20 SWAP1 DUP2 MSTORE PUSH1 0x40 DUP1 DUP4 KECCAK256 SWAP4 DUP6 AND DUP4 MSTORE PUSH1 0x7 SWAP1 SWAP4 ADD SWAP1 MSTORE KECCAK256 SLOAD PUSH1 0xFF AND PUSH2 0x119C JUMPI PUSH1 0x40 MLOAD PUSH3 0x461BCD PUSH1 0xE5 SHL DUP2 MSTORE PUSH1 0x20 PUSH1 0x4 DUP3 ADD MSTORE PUSH1 0x16 PUSH1 0x24 DUP3 ADD MSTORE PUSH22 0x119A5B9D1958DA081B9BDD08185D5D1A1BDC9A5E9959 PUSH1 0x52 SHL PUSH1 0x44 DUP3 ADD MSTORE PUSH1 0x64 ADD PUSH2 0x605 JUMP JUMPDEST PUSH1 0x1 PUSH1 0x1 PUSH1 0xA0 SHL SUB DUP1 DUP4 AND PUSH1 0x0 DUP2 DUP2 MSTORE PUSH1 0x2 PUSH1 0x20 DUP2 DUP2 MSTORE PUSH1 0x40 DUP1 DUP5 KECCAK256 SWAP6 DUP8 AND DUP1 DUP6 MSTORE PUSH1 0x7 DUP8 ADD DUP4 MSTORE DUP2 DUP6 KECCAK256 DUP1 SLOAD PUSH1 0xFF NOT AND SWAP1 SSTORE DUP6 DUP6 MSTORE SWAP3 SWAP1 SWAP2 MSTORE TIMESTAMP PUSH1 0x4 SWAP1 SWAP6 ADD SWAP5 SWAP1 SWAP5 SSTORE SWAP3 MLOAD PUSH32 0x9B6320CCEAD72F7F4A3A7E5B07C3234E4851C2BC207DF2DE97144EB9598DC66F SWAP2 SWAP1 LOG3 POP POP JUMP JUMPDEST PUSH2 0x1212 PUSH2 0x18D6 JUMP JUMPDEST PUSH2 0xA84 PUSH2 0x19D5 JUMP JUMPDEST PUSH2 0x1222 PUSH2 0x18D6 JUMP JUMPDEST PUSH1 0x1 PUSH1 0x1 PUSH1 0xA0 SHL SUB DUP3 DUP2 AND PUSH1 0x0 SWAP1 DUP2 MSTORE PUSH1 0x2 PUSH1 0x20 MSTORE PUSH1 0x40 SWAP1 KECCAK256 SLOAD AND PUSH2 0x1259 JUMPI PUSH1 0x40 MLOAD PUSH3 0x461BCD PUSH1 0xE5 SHL DUP2 MSTORE PUSH1 0x4 ADD PUSH2 0x605 SWAP1 PUSH2 0x1D00 JUMP JUMPDEST PUSH1 0x1 PUSH1 0x1 PUSH1 0xA0 SHL SUB DUP3 AND PUSH1 0x0 SWAP1 DUP2 MSTORE PUSH1 0x2 PUSH1 0x20 SWAP1 DUP2 MSTORE PUSH1 0x40 DUP1 DUP4 KECCAK256 DUP5 DUP5 MSTORE PUSH1 0x5 ADD SWAP1 SWAP2 MSTORE SWAP1 KECCAK256 SLOAD PUSH1 0xFF AND PUSH2 0x12C4 JUMPI PUSH1 0x40 MLOAD PUSH3 0x461BCD PUSH1 0xE5 SHL DUP2 MSTORE PUSH1 0x20 PUSH1 0x4 DUP3 ADD MSTORE PUSH1 0x12 PUSH1 0x24 DUP3 ADD MSTORE PUSH18 0x105412481B9BDD08185D5D1A1BDC9A5E9959 PUSH1 0x72 SHL PUSH1 0x44 DUP3 ADD MSTORE PUSH1 0x64 ADD PUSH2 0x605 JUMP JUMPDEST PUSH1 0x1 PUSH1 0x1 PUSH1 0xA0 SHL SUB DUP3 AND PUSH1 0x0 DUP2 DUP2 MSTORE PUSH1 0x2 PUSH1 0x20 DUP2 DUP2 MSTORE PUSH1 0x40 DUP1 DUP5 KECCAK256 DUP7 DUP6 MSTORE PUSH1 0x5 DUP2 ADD DUP4 MSTORE DUP2 DUP6 KECCAK256 DUP1 SLOAD PUSH1 0xFF NOT AND SWAP1 SSTORE SWAP4 DUP6 SWAP1 MSTORE SWAP2 DUP2 MSTORE TIMESTAMP PUSH1 0x4 SWAP1 SWAP4 ADD SWAP3 SWAP1 SWAP3 SSTORE MLOAD DUP4 DUP2 MSTORE PUSH32 0xE8B52DE5FADFBC17F0FFDF3C2079ACF75506AE811CBAB8B01133C6542722C4B7 SWAP2 ADD PUSH2 0x97F JUMP JUMPDEST PUSH1 0x6 PUSH1 0x20 MSTORE DUP2 PUSH1 0x0 MSTORE PUSH1 0x40 PUSH1 0x0 KECCAK256 DUP2 DUP2 SLOAD DUP2 LT PUSH2 0x134C JUMPI PUSH1 0x0 DUP1 REVERT JUMPDEST SWAP1 PUSH1 0x0 MSTORE PUSH1 0x20 PUSH1 0x0 KECCAK256 ADD PUSH1 0x0 SWAP2 POP SWAP2 POP POP SLOAD DUP2 JUMP JUMPDEST PUSH1 0x0 DUP2 DUP2 MSTORE PUSH1 0x4 PUSH1 0x20 MSTORE PUSH1 0x40 SWAP1 KECCAK256 PUSH1 0x1 ADD SLOAD DUP2 SWAP1 PUSH1 0x1 PUSH1 0x1 PUSH1 0xA0 SHL SUB AND PUSH2 0x139A JUMPI PUSH1 0x40 MLOAD PUSH3 0x461BCD PUSH1 0xE5 SHL DUP2 MSTORE PUSH1 0x4 ADD PUSH2 0x605 SWAP1 PUSH2 0x1D2D JUMP JUMPDEST PUSH2 0x13A2 PUSH2 0x187D JUMP JUMPDEST PUSH1 0x0 DUP3 DUP2 MSTORE PUSH1 0x4 PUSH1 0x20 MSTORE PUSH1 0x40 SWAP1 KECCAK256 PUSH1 0x1 ADD SLOAD PUSH1 0x1 PUSH1 0x1 PUSH1 0xA0 SHL SUB AND CALLER EQ PUSH2 0x13FC JUMPI PUSH1 0x40 MLOAD PUSH3 0x461BCD PUSH1 0xE5 SHL DUP2 MSTORE PUSH1 0x20 PUSH1 0x4 DUP3 ADD MSTORE PUSH1 0xE PUSH1 0x24 DUP3 ADD MSTORE PUSH14 0x139BDD08185D5D1A1BDC9A5E9959 PUSH1 0x92 SHL PUSH1 0x44 DUP3 ADD MSTORE PUSH1 0x64 ADD PUSH2 0x605 JUMP JUMPDEST PUSH1 0x0 DUP3 DUP2 MSTORE PUSH1 0x4 PUSH1 0x20 MSTORE PUSH1 0x40 SWAP1 KECCAK256 PUSH1 0x3 ADD SLOAD PUSH1 0xFF AND ISZERO PUSH2 0x1459 JUMPI PUSH1 0x40 MLOAD PUSH3 0x461BCD PUSH1 0xE5 SHL DUP2 MSTORE PUSH1 0x20 PUSH1 0x4 DUP3 ADD MSTORE PUSH1 0x18 PUSH1 0x24 DUP3 ADD MSTORE PUSH24 0x14995C5D595CDD08185B1C9958591E48185C1C1C9BDD9959 PUSH1 0x42 SHL PUSH1 0x44 DUP3 ADD MSTORE PUSH1 0x64 ADD PUSH2 0x605 JUMP JUMPDEST PUSH1 0x0 DUP3 DUP2 MSTORE PUSH1 0x4 PUSH1 0x20 MSTORE PUSH1 0x40 SWAP1 KECCAK256 PUSH1 0x3 ADD SLOAD PUSH2 0x100 SWAP1 DIV PUSH1 0xFF AND ISZERO PUSH2 0x1490 JUMPI PUSH1 0x40 MLOAD PUSH3 0x461BCD PUSH1 0xE5 SHL DUP2 MSTORE PUSH1 0x4 ADD PUSH2 0x605 SWAP1 PUSH2 0x1DBA JUMP JUMPDEST PUSH1 0x0 DUP3 DUP2 MSTORE PUSH1 0x4 PUSH1 0x20 MSTORE PUSH1 0x40 DUP1 DUP3 KECCAK256 PUSH1 0x3 ADD DUP1 SLOAD PUSH1 0xFF NOT AND PUSH1 0x1 OR SWAP1 SSTORE MLOAD CALLER SWAP2 DUP5 SWAP2 PUSH32 0x3F269FD9F498EB3CF2377A93A93345455F99340B62B07F0A3AF293BE585E634B SWAP2 SWAP1 LOG3 PUSH2 0x854 PUSH1 0x1 DUP1 SSTORE JUMP JUMPDEST PUSH1 0x5 PUSH1 0x20 MSTORE DUP2 PUSH1 0x0 MSTORE PUSH1 0x40 PUSH1 0x0 KECCAK256 DUP2 DUP2 SLOAD DUP2 LT PUSH2 0x134C JUMPI PUSH1 0x0 DUP1 REVERT JUMPDEST PUSH1 0x0 DUP2 DUP2 MSTORE PUSH1 0x4 PUSH1 0x20 MSTORE PUSH1 0x40 SWAP1 KECCAK256 PUSH1 0x1 ADD SLOAD DUP2 SWAP1 PUSH1 0x1 PUSH1 0x1 PUSH1 0xA0 SHL SUB AND PUSH2 0x1534 JUMPI PUSH1 0x40 MLOAD PUSH3 0x461BCD PUSH1 0xE5 SHL DUP2 MSTORE PUSH1 0x4 ADD PUSH2 0x605 SWAP1 PUSH2 0x1D2D JUMP JUMPDEST PUSH2 0x153C PUSH2 0x187D JUMP JUMPDEST PUSH1 0x0 DUP3 DUP2 MSTORE PUSH1 0x4 PUSH1 0x20 MSTORE PUSH1 0x40 SWAP1 KECCAK256 PUSH1 0x1 ADD SLOAD PUSH1 0x1 PUSH1 0x1 PUSH1 0xA0 SHL SUB AND CALLER EQ PUSH2 0x1596 JUMPI PUSH1 0x40 MLOAD PUSH3 0x461BCD PUSH1 0xE5 SHL DUP2 MSTORE PUSH1 0x20 PUSH1 0x4 DUP3 ADD MSTORE PUSH1 0xE PUSH1 0x24 DUP3 ADD MSTORE PUSH14 0x139BDD08185D5D1A1BDC9A5E9959 PUSH1 0x92 SHL PUSH1 0x44 DUP3 ADD MSTORE PUSH1 0x64 ADD PUSH2 0x605 JUMP JUMPDEST PUSH1 0x0 DUP3 DUP2 MSTORE PUSH1 0x4 PUSH1 0x20 MSTORE PUSH1 0x40 SWAP1 KECCAK256 PUSH1 0x3 ADD SLOAD PUSH1 0xFF AND ISZERO PUSH2 0x15F3 JUMPI PUSH1 0x40 MLOAD PUSH3 0x461BCD PUSH1 0xE5 SHL DUP2 MSTORE PUSH1 0x20 PUSH1 0x4 DUP3 ADD MSTORE PUSH1 0x18 PUSH1 0x24 DUP3 ADD MSTORE PUSH24 0x14995C5D595CDD08185B1C9958591E48185C1C1C9BDD9959 PUSH1 0x42 SHL PUSH1 0x44 DUP3 ADD MSTORE PUSH1 0x64 ADD PUSH2 0x605 JUMP JUMPDEST PUSH1 0x0 DUP3 DUP2 MSTORE PUSH1 0x4 PUSH1 0x20 MSTORE PUSH1 0x40 SWAP1 KECCAK256 PUSH1 0x3 ADD SLOAD PUSH2 0x100 SWAP1 DIV PUSH1 0xFF AND ISZERO PUSH2 0x162A JUMPI PUSH1 0x40 MLOAD PUSH3 0x461BCD PUSH1 0xE5 SHL DUP2 MSTORE PUSH1 0x4 ADD PUSH2 0x605 SWAP1 PUSH2 0x1DBA JUMP JUMPDEST PUSH1 0x0 DUP3 DUP2 MSTORE PUSH1 0x4 PUSH1 0x20 MSTORE PUSH1 0x40 DUP1 DUP3 KECCAK256 PUSH1 0x3 ADD DUP1 SLOAD PUSH2 0xFFFF NOT AND PUSH2 0x100 OR SWAP1 SSTORE MLOAD CALLER SWAP2 DUP5 SWAP2 PUSH32 0x46D7FB2599E0841EC295666B6B246F33C4ED29558F6A661DAD11B9FDF4171637 SWAP2 SWAP1 LOG3 PUSH2 0x854 PUSH1 0x1 DUP1 SSTORE JUMP JUMPDEST PUSH1 0x1 PUSH1 0x1 PUSH1 0xA0 SHL SUB DUP2 AND PUSH1 0x0 SWAP1 DUP2 MSTORE PUSH1 0x5 PUSH1 0x20 SWAP1 DUP2 MSTORE PUSH1 0x40 SWAP2 DUP3 SWAP1 KECCAK256 DUP1 SLOAD DUP4 MLOAD DUP2 DUP5 MUL DUP2 ADD DUP5 ADD SWAP1 SWAP5 MSTORE DUP1 DUP5 MSTORE PUSH1 0x60 SWAP4 SWAP3 DUP4 ADD DUP3 DUP3 DUP1 ISZERO PUSH2 0xD72 JUMPI PUSH1 0x20 MUL DUP3 ADD SWAP2 SWAP1 PUSH1 0x0 MSTORE PUSH1 0x20 PUSH1 0x0 KECCAK256 SWAP1 DUP2 SLOAD DUP2 MSTORE PUSH1 0x20 ADD SWAP1 PUSH1 0x1 ADD SWAP1 DUP1 DUP4 GT PUSH2 0xD5E JUMPI POP POP POP POP POP SWAP1 POP SWAP2 SWAP1 POP JUMP JUMPDEST PUSH2 0x16ED PUSH2 0x18D6 JUMP JUMPDEST PUSH1 0x1 PUSH1 0x1 PUSH1 0xA0 SHL SUB DUP2 AND PUSH2 0x1752 JUMPI PUSH1 0x40 MLOAD PUSH3 0x461BCD PUSH1 0xE5 SHL DUP2 MSTORE PUSH1 0x20 PUSH1 0x4 DUP3 ADD MSTORE PUSH1 0x26 PUSH1 0x24 DUP3 ADD MSTORE PUSH32 0x4F776E61626C653A206E6577206F776E657220697320746865207A65726F2061 PUSH1 0x44 DUP3 ADD MSTORE PUSH6 0x646472657373 PUSH1 0xD0 SHL PUSH1 0x64 DUP3 ADD MSTORE PUSH1 0x84 ADD PUSH2 0x605 JUMP JUMPDEST PUSH2 0x10D6 DUP2 PUSH2 0x1985 JUMP JUMPDEST PUSH1 0x2 PUSH1 0x20 MSTORE PUSH1 0x0 SWAP1 DUP2 MSTORE PUSH1 0x40 SWAP1 KECCAK256 DUP1 SLOAD PUSH1 0x1 DUP3 ADD DUP1 SLOAD PUSH1 0x1 PUSH1 0x1 PUSH1 0xA0 SHL SUB SWAP1 SWAP3 AND SWAP3 SWAP2 PUSH2 0x1787 SWAP1 PUSH2 0x1D80 JUMP JUMPDEST DUP1 PUSH1 0x1F ADD PUSH1 0x20 DUP1 SWAP2 DIV MUL PUSH1 0x20 ADD PUSH1 0x40 MLOAD SWAP1 DUP2 ADD PUSH1 0x40 MSTORE DUP1 SWAP3 SWAP2 SWAP1 DUP2 DUP2 MSTORE PUSH1 0x20 ADD DUP3 DUP1 SLOAD PUSH2 0x17B3 SWAP1 PUSH2 0x1D80 JUMP JUMPDEST DUP1 ISZERO PUSH2 0x1800 JUMPI DUP1 PUSH1 0x1F LT PUSH2 0x17D5 JUMPI PUSH2 0x100 DUP1 DUP4 SLOAD DIV MUL DUP4 MSTORE SWAP2 PUSH1 0x20 ADD SWAP2 PUSH2 0x1800 JUMP JUMPDEST DUP3 ADD SWAP2 SWAP1 PUSH1 0x0 MSTORE PUSH1 0x20 PUSH1 0x0 KECCAK256 SWAP1 JUMPDEST DUP2 SLOAD DUP2 MSTORE SWAP1 PUSH1 0x1 ADD SWAP1 PUSH1 0x20 ADD DUP1 DUP4 GT PUSH2 0x17E3 JUMPI DUP3 SWAP1 SUB PUSH1 0x1F AND DUP3 ADD SWAP2 JUMPDEST POP POP POP POP PUSH1 0x2 DUP4 ADD SLOAD PUSH1 0x3 DUP5 ADD SLOAD PUSH1 0x4 DUP6 ADD SLOAD PUSH1 0x9 DUP7 ADD SLOAD PUSH1 0xA SWAP1 SWAP7 ADD SLOAD SWAP5 SWAP6 PUSH1 0xFF SWAP4 DUP5 AND SWAP6 SWAP3 SWAP5 POP SWAP1 SWAP3 AND SWAP1 DUP8 JUMP JUMPDEST PUSH1 0x0 SLOAD PUSH1 0x1 PUSH1 0xA0 SHL SWAP1 DIV PUSH1 0xFF AND ISZERO PUSH2 0xA84 JUMPI PUSH1 0x40 MLOAD PUSH3 0x461BCD PUSH1 0xE5 SHL DUP2 MSTORE PUSH1 0x20 PUSH1 0x4 DUP3 ADD MSTORE PUSH1 0x10 PUSH1 0x24 DUP3 ADD MSTORE PUSH16 0x14185D5CD8589B194E881C185D5CD959 PUSH1 0x82 SHL PUSH1 0x44 DUP3 ADD MSTORE PUSH1 0x64 ADD PUSH2 0x605 JUMP JUMPDEST PUSH1 0x2 PUSH1 0x1 SLOAD SUB PUSH2 0x18CF JUMPI PUSH1 0x40 MLOAD PUSH3 0x461BCD PUSH1 0xE5 SHL DUP2 MSTORE PUSH1 0x20 PUSH1 0x4 DUP3 ADD MSTORE PUSH1 0x1F PUSH1 0x24 DUP3 ADD MSTORE PUSH32 0x5265656E7472616E637947756172643A207265656E7472616E742063616C6C00 PUSH1 0x44 DUP3 ADD MSTORE PUSH1 0x64 ADD PUSH2 0x605 JUMP JUMPDEST PUSH1 0x2 PUSH1 0x1 SSTORE JUMP JUMPDEST PUSH1 0x0 SLOAD PUSH1 0x1 PUSH1 0x1 PUSH1 0xA0 SHL SUB AND CALLER EQ PUSH2 0xA84 JUMPI PUSH1 0x40 MLOAD PUSH3 0x461BCD PUSH1 0xE5 SHL DUP2 MSTORE PUSH1 0x20 PUSH1 0x4 DUP3 ADD DUP2 SWAP1 MSTORE PUSH1 0x24 DUP3 ADD MSTORE PUSH32 0x4F776E61626C653A2063616C6C6572206973206E6F7420746865206F776E6572 PUSH1 0x44 DUP3 ADD MSTORE PUSH1 0x64 ADD PUSH2 0x605 JUMP JUMPDEST PUSH2 0x1938 PUSH2 0x1A18 JUMP JUMPDEST PUSH1 0x0 DUP1 SLOAD PUSH1 0xFF PUSH1 0xA0 SHL NOT AND SWAP1 SSTORE PUSH32 0x5DB9EE0A495BF2E6FF9C91A7834C1BA4FDD244A5E8AA4E537BD38AEAE4B073AA CALLER JUMPDEST PUSH1 0x40 MLOAD PUSH1 0x1 PUSH1 0x1 PUSH1 0xA0 SHL SUB SWAP1 SWAP2 AND DUP2 MSTORE PUSH1 0x20 ADD PUSH1 0x40 MLOAD DUP1 SWAP2 SUB SWAP1 LOG1 JUMP JUMPDEST PUSH1 0x0 DUP1 SLOAD PUSH1 0x1 PUSH1 0x1 PUSH1 0xA0 SHL SUB DUP4 DUP2 AND PUSH1 0x1 PUSH1 0x1 PUSH1 0xA0 SHL SUB NOT DUP4 AND DUP2 OR DUP5 SSTORE PUSH1 0x40 MLOAD SWAP2 SWAP1 SWAP3 AND SWAP3 DUP4 SWAP2 PUSH32 0x8BE0079C531659141344CD1FD0A4F28419497F9722A3DAAFE3B4186F6B6457E0 SWAP2 SWAP1 LOG3 POP POP JUMP JUMPDEST PUSH2 0x19DD PUSH2 0x1830 JUMP JUMPDEST PUSH1 0x0 DUP1 SLOAD PUSH1 0xFF PUSH1 0xA0 SHL NOT AND PUSH1 0x1 PUSH1 0xA0 SHL OR SWAP1 SSTORE PUSH32 0x62E78CEA01BEE320CD4E420270B5EA74000D11B0C9F74754EBDBFC544B05A258 PUSH2 0x1968 CALLER SWAP1 JUMP JUMPDEST PUSH1 0x0 SLOAD PUSH1 0x1 PUSH1 0xA0 SHL SWAP1 DIV PUSH1 0xFF AND PUSH2 0xA84 JUMPI PUSH1 0x40 MLOAD PUSH3 0x461BCD PUSH1 0xE5 SHL DUP2 MSTORE PUSH1 0x20 PUSH1 0x4 DUP3 ADD MSTORE PUSH1 0x14 PUSH1 0x24 DUP3 ADD MSTORE PUSH20 0x14185D5CD8589B194E881B9BDD081C185D5CD959 PUSH1 0x62 SHL PUSH1 0x44 DUP3 ADD MSTORE PUSH1 0x64 ADD PUSH2 0x605 JUMP JUMPDEST DUP1 CALLDATALOAD PUSH1 0x1 PUSH1 0x1 PUSH1 0xA0 SHL SUB DUP2 AND DUP2 EQ PUSH2 0x1A7F JUMPI PUSH1 0x0 DUP1 REVERT JUMPDEST SWAP2 SWAP1 POP JUMP JUMPDEST PUSH1 0x0 DUP1 PUSH1 0x40 DUP4 DUP6 SUB SLT ISZERO PUSH2 0x1A97 JUMPI PUSH1 0x0 DUP1 REVERT JUMPDEST PUSH2 0x1AA0 DUP4 PUSH2 0x1A68 JUMP JUMPDEST SWAP2 POP PUSH2 0x1AAE PUSH1 0x20 DUP5 ADD PUSH2 0x1A68 JUMP JUMPDEST SWAP1 POP SWAP3 POP SWAP3 SWAP1 POP JUMP JUMPDEST PUSH1 0x0 DUP1 PUSH1 0x40 DUP4 DUP6 SUB SLT ISZERO PUSH2 0x1ACA JUMPI PUSH1 0x0 DUP1 REVERT JUMPDEST PUSH2 0x1AD3 DUP4 PUSH2 0x1A68 JUMP JUMPDEST SWAP5 PUSH1 0x20 SWAP4 SWAP1 SWAP4 ADD CALLDATALOAD SWAP4 POP POP POP JUMP JUMPDEST PUSH1 0x0 PUSH1 0x20 DUP3 DUP5 SUB SLT ISZERO PUSH2 0x1AF3 JUMPI PUSH1 0x0 DUP1 REVERT JUMPDEST PUSH2 0x1AFC DUP3 PUSH2 0x1A68 JUMP JUMPDEST SWAP4 SWAP3 POP POP POP JUMP JUMPDEST PUSH1 0x0 JUMPDEST DUP4 DUP2 LT ISZERO PUSH2 0x1B1E JUMPI DUP2 DUP2 ADD MLOAD DUP4 DUP3 ADD MSTORE PUSH1 0x20 ADD PUSH2 0x1B06 JUMP JUMPDEST POP POP PUSH1 0x0 SWAP2 ADD MSTORE JUMP JUMPDEST PUSH1 0x0 DUP2 MLOAD DUP1 DUP5 MSTORE PUSH2 0x1B3F DUP2 PUSH1 0x20 DUP7 ADD PUSH1 0x20 DUP7 ADD PUSH2 0x1B03 JUMP JUMPDEST PUSH1 0x1F ADD PUSH1 0x1F NOT AND SWAP3 SWAP1 SWAP3 ADD PUSH1 0x20 ADD SWAP3 SWAP2 POP POP JUMP JUMPDEST PUSH1 0xA0 DUP2 MSTORE PUSH1 0x0 PUSH2 0x1B66 PUSH1 0xA0 DUP4 ADD DUP9 PUSH2 0x1B27 JUMP JUMPDEST SWAP6 ISZERO ISZERO PUSH1 0x20 DUP4 ADD MSTORE POP PUSH1 0x40 DUP2 ADD SWAP4 SWAP1 SWAP4 MSTORE PUSH1 0x60 DUP4 ADD SWAP2 SWAP1 SWAP2 MSTORE ISZERO ISZERO PUSH1 0x80 SWAP1 SWAP2 ADD MSTORE SWAP2 SWAP1 POP JUMP JUMPDEST PUSH1 0x0 PUSH1 0x20 DUP3 DUP5 SUB SLT ISZERO PUSH2 0x1B9E JUMPI PUSH1 0x0 DUP1 REVERT JUMPDEST POP CALLDATALOAD SWAP2 SWAP1 POP JUMP JUMPDEST PUSH1 0x20 DUP1 DUP3 MSTORE DUP3 MLOAD DUP3 DUP3 ADD DUP2 SWAP1 MSTORE PUSH1 0x0 SWAP2 SWAP1 DUP5 DUP3 ADD SWAP1 PUSH1 0x40 DUP6 ADD SWAP1 DUP5 JUMPDEST DUP2 DUP2 LT ISZERO PUSH2 0x1BDD JUMPI DUP4 MLOAD DUP4 MSTORE SWAP3 DUP5 ADD SWAP3 SWAP2 DUP5 ADD SWAP2 PUSH1 0x1 ADD PUSH2 0x1BC1 JUMP JUMPDEST POP SWAP1 SWAP7 SWAP6 POP POP POP POP POP POP JUMP JUMPDEST PUSH4 0x4E487B71 PUSH1 0xE0 SHL PUSH1 0x0 MSTORE PUSH1 0x41 PUSH1 0x4 MSTORE PUSH1 0x24 PUSH1 0x0 REVERT JUMPDEST PUSH1 0x0 PUSH1 0x20 DUP3 DUP5 SUB SLT ISZERO PUSH2 0x1C11 JUMPI PUSH1 0x0 DUP1 REVERT JUMPDEST DUP2 CALLDATALOAD PUSH8 0xFFFFFFFFFFFFFFFF DUP1 DUP3 GT ISZERO PUSH2 0x1C29 JUMPI PUSH1 0x0 DUP1 REVERT JUMPDEST DUP2 DUP5 ADD SWAP2 POP DUP5 PUSH1 0x1F DUP4 ADD SLT PUSH2 0x1C3D JUMPI PUSH1 0x0 DUP1 REVERT JUMPDEST DUP2 CALLDATALOAD DUP2 DUP2 GT ISZERO PUSH2 0x1C4F JUMPI PUSH2 0x1C4F PUSH2 0x1BE9 JUMP JUMPDEST PUSH1 0x40 MLOAD PUSH1 0x1F DUP3 ADD PUSH1 0x1F NOT SWAP1 DUP2 AND PUSH1 0x3F ADD AND DUP2 ADD SWAP1 DUP4 DUP3 GT DUP2 DUP4 LT OR ISZERO PUSH2 0x1C77 JUMPI PUSH2 0x1C77 PUSH2 0x1BE9 JUMP JUMPDEST DUP2 PUSH1 0x40 MSTORE DUP3 DUP2 MSTORE DUP8 PUSH1 0x20 DUP5 DUP8 ADD ADD GT ISZERO PUSH2 0x1C90 JUMPI PUSH1 0x0 DUP1 REVERT JUMPDEST DUP3 PUSH1 0x20 DUP7 ADD PUSH1 0x20 DUP4 ADD CALLDATACOPY PUSH1 0x0 SWAP3 DUP2 ADD PUSH1 0x20 ADD SWAP3 SWAP1 SWAP3 MSTORE POP SWAP6 SWAP5 POP POP POP POP POP JUMP JUMPDEST PUSH1 0x1 PUSH1 0x1 PUSH1 0xA0 SHL SUB DUP9 AND DUP2 MSTORE PUSH1 0xE0 PUSH1 0x20 DUP3 ADD DUP2 SWAP1 MSTORE PUSH1 0x0 SWAP1 PUSH2 0x1CD4 SWAP1 DUP4 ADD DUP10 PUSH2 0x1B27 JUMP JUMPDEST SWAP7 ISZERO ISZERO PUSH1 0x40 DUP4 ADD MSTORE POP PUSH1 0x60 DUP2 ADD SWAP5 SWAP1 SWAP5 MSTORE PUSH1 0x80 DUP5 ADD SWAP3 SWAP1 SWAP3 MSTORE ISZERO ISZERO PUSH1 0xA0 DUP4 ADD MSTORE PUSH1 0xC0 SWAP1 SWAP2 ADD MSTORE SWAP3 SWAP2 POP POP JUMP JUMPDEST PUSH1 0x20 DUP1 DUP3 MSTORE PUSH1 0x13 SWAP1 DUP3 ADD MSTORE PUSH19 0x155CD95C881B9BDD081C9959DA5CDD195C9959 PUSH1 0x6A SHL PUSH1 0x40 DUP3 ADD MSTORE PUSH1 0x60 ADD SWAP1 JUMP JUMPDEST PUSH1 0x20 DUP1 DUP3 MSTORE PUSH1 0x12 SWAP1 DUP3 ADD MSTORE PUSH18 0x125B9D985B1A59081C995C5D595CDD081251 PUSH1 0x72 SHL PUSH1 0x40 DUP3 ADD MSTORE PUSH1 0x60 ADD SWAP1 JUMP JUMPDEST PUSH1 0x0 PUSH1 0x1 DUP3 ADD PUSH2 0x1D79 JUMPI PUSH4 0x4E487B71 PUSH1 0xE0 SHL PUSH1 0x0 MSTORE PUSH1 0x11 PUSH1 0x4 MSTORE PUSH1 0x24 PUSH1 0x0 REVERT JUMPDEST POP PUSH1 0x1 ADD SWAP1 JUMP JUMPDEST PUSH1 0x1 DUP2 DUP2 SHR SWAP1 DUP3 AND DUP1 PUSH2 0x1D94 JUMPI PUSH1 0x7F DUP3 AND SWAP2 POP JUMPDEST PUSH1 0x20 DUP3 LT DUP2 SUB PUSH2 0x1DB4 JUMPI PUSH4 0x4E487B71 PUSH1 0xE0 SHL PUSH1 0x0 MSTORE PUSH1 0x22 PUSH1 0x4 MSTORE PUSH1 0x24 PUSH1 0x0 REVERT JUMPDEST POP SWAP2 SWAP1 POP JUMP JUMPDEST PUSH1 0x20 DUP1 DUP3 MSTORE PUSH1 0x19 SWAP1 DUP3 ADD MSTORE PUSH32 0x5265717565737420616C726561647920636F6D706C6574656400000000000000 PUSH1 0x40 DUP3 ADD MSTORE PUSH1 0x60 ADD SWAP1 JUMP JUMPDEST PUSH1 0x0 DUP3 MLOAD PUSH2 0x1E03 DUP2 DUP5 PUSH1 0x20 DUP8 ADD PUSH2 0x1B03 JUMP JUMPDEST SWAP2 SWAP1 SWAP2 ADD SWAP3 SWAP2 POP POP JUMP JUMPDEST PUSH1 0x1F DUP3 GT ISZERO PUSH2 0x1E57 JUMPI PUSH1 0x0 DUP2 DUP2 MSTORE PUSH1 0x20 DUP2 KECCAK256 PUSH1 0x1F DUP6 ADD PUSH1 0x5 SHR DUP2 ADD PUSH1 0x20 DUP7 LT ISZERO PUSH2 0x1E34 JUMPI POP DUP1 JUMPDEST PUSH1 0x1F DUP6 ADD PUSH1 0x5 SHR DUP3 ADD SWAP2 POP JUMPDEST DUP2 DUP2 LT ISZERO PUSH2 0x1E53 JUMPI DUP3 DUP2 SSTORE PUSH1 0x1 ADD PUSH2 0x1E40 JUMP JUMPDEST POP POP POP JUMPDEST POP POP POP JUMP JUMPDEST DUP2 MLOAD PUSH8 0xFFFFFFFFFFFFFFFF DUP2 GT ISZERO PUSH2 0x1E76 JUMPI PUSH2 0x1E76 PUSH2 0x1BE9 JUMP JUMPDEST PUSH2 0x1E8A DUP2 PUSH2 0x1E84 DUP5 SLOAD PUSH2 0x1D80 JUMP JUMPDEST DUP5 PUSH2 0x1E0D JUMP JUMPDEST PUSH1 0x20 DUP1 PUSH1 0x1F DUP4 GT PUSH1 0x1 DUP2 EQ PUSH2 0x1EBF JUMPI PUSH1 0x0 DUP5 ISZERO PUSH2 0x1EA7 JUMPI POP DUP6 DUP4 ADD MLOAD JUMPDEST PUSH1 0x0 NOT PUSH1 0x3 DUP7 SWAP1 SHL SHR NOT AND PUSH1 0x1 DUP6 SWAP1 SHL OR DUP6 SSTORE PUSH2 0x1E53 JUMP JUMPDEST PUSH1 0x0 DUP6 DUP2 MSTORE PUSH1 0x20 DUP2 KECCAK256 PUSH1 0x1F NOT DUP7 AND SWAP2 JUMPDEST DUP3 DUP2 LT ISZERO PUSH2 0x1EEE JUMPI DUP9 DUP7 ADD MLOAD DUP3 SSTORE SWAP5 DUP5 ADD SWAP5 PUSH1 0x1 SWAP1 SWAP2 ADD SWAP1 DUP5 ADD PUSH2 0x1ECF JUMP JUMPDEST POP DUP6 DUP3 LT ISZERO PUSH2 0x1F0C JUMPI DUP8 DUP6 ADD MLOAD PUSH1 0x0 NOT PUSH1 0x3 DUP9 SWAP1 SHL PUSH1 0xF8 AND SHR NOT AND DUP2 SSTORE JUMPDEST POP POP POP POP POP PUSH1 0x1 SWAP1 DUP2 SHL ADD SWAP1 SSTORE POP JUMP JUMPDEST PUSH1 0x20 DUP2 MSTORE PUSH1 0x0 PUSH2 0x1AFC PUSH1 0x20 DUP4 ADD DUP5 PUSH2 0x1B27 JUMP INVALID LOG2 PUSH5 0x6970667358 0x22 SLT KECCAK256 DUP11 0xD1 PUSH32 0xCBE3975A750C894A3608E896F9D019B774E9C17E59C58CA508A7A113B564736F PUSH13 0x63430008140033000000000000 "},"methodIdentifiers":{"approveCreditScoreRequest(bytes32)":"adc4740e","authorizeAPI(address,bytes32)":"184bd36e","authorizeFintech(address,address)":"3f4ca9f5","completeCreditScoreRequest(bytes32)":"6c324d9b","creditScoreRequests(bytes32)":"a137b02f","fintechCreditScoreRequests(address,uint256)":"aa5d71c7","getContractStats()":"dfe6b5d6","getCreditScoreRequest(bytes32)":"244abe87","getFintechCreditScoreRequests(address)":"5e9b2de9","getUserCreditScoreRequests(address)":"e9e52c94","getUserIdentity(address)":"2129c761","hasAPIAccess(address,bytes32)":"af54db06","identities(address)":"f653b81e","isFintechAuthorized(address,address)":"0ccdc92f","owner()":"8da5cb5b","pause()":"8456cb59","paused()":"5c975abb","registerUser(string)":"704f1b94","rejectCreditScoreRequest(bytes32)":"bda7738c","renounceOwnership()":"715018a6","requestCreditScore(address,bytes32)":"16cce818","revokeAPI(address,bytes32)":"915b8812","revokeFintech(address,address)":"7704953f","totalCreditScoreRequests()":"7089c7a2","totalUsers()":"bff1f9e1","transferOwnership(address)":"f2fde38b","unpause()":"3f4ba83a","userCreditScoreRequests(address,uint256)":"b1ee4e90","userIdToAddress(string)":"c21be6ae","verifyUser(address)":"4d813120"}}}}}