{"src/DataRegistry.sol":{"DataRegistry":{"abi":[{"anonymous":false,"inputs":[{"indexed":true,"internalType":"bytes32","name":"sourceId","type":"bytes32"},{"indexed":true,"internalType":"bytes32","name":"dataType","type":"bytes32"},{"indexed":true,"internalType":"address","name":"requester","type":"address"}],"name":"DataRequested","type":"event"},{"anonymous":false,"inputs":[{"indexed":true,"internalType":"bytes32","name":"sourceId","type":"bytes32"},{"indexed":false,"internalType":"string","name":"sourceName","type":"string"},{"indexed":true,"internalType":"address","name":"addedBy","type":"address"}],"name":"DataSourceAdded","type":"event"},{"anonymous":false,"inputs":[{"indexed":true,"internalType":"bytes32","name":"sourceId","type":"bytes32"}],"name":"DataSourceDeactivated","type":"event"},{"anonymous":false,"inputs":[{"indexed":true,"internalType":"bytes32","name":"sourceId","type":"bytes32"}],"name":"DataSourceReactivated","type":"event"},{"anonymous":false,"inputs":[{"indexed":true,"internalType":"bytes32","name":"sourceId","type":"bytes32"},{"indexed":false,"internalType":"string","name":"sourceName","type":"string"}],"name":"DataSourceUpdated","type":"event"},{"anonymous":false,"inputs":[{"indexed":true,"internalType":"bytes32","name":"typeId","type":"bytes32"},{"indexed":false,"internalType":"string","name":"typeName","type":"string"}],"name":"DataTypeAdded","type":"event"},{"anonymous":false,"inputs":[{"indexed":true,"internalType":"bytes32","name":"sourceId","type":"bytes32"},{"indexed":true,"internalType":"bytes32","name":"typeId","type":"bytes32"}],"name":"DataTypeSupported","type":"event"},{"anonymous":false,"inputs":[{"indexed":true,"internalType":"bytes32","name":"sourceId","type":"bytes32"},{"indexed":true,"internalType":"bytes32","name":"typeId","type":"bytes32"}],"name":"DataTypeUnsupported","type":"event"},{"anonymous":false,"inputs":[{"indexed":true,"internalType":"address","name":"previousOwner","type":"address"},{"indexed":true,"internalType":"address","name":"newOwner","type":"address"}],"name":"OwnershipTransferred","type":"event"},{"anonymous":false,"inputs":[{"indexed":false,"internalType":"address","name":"account","type":"address"}],"name":"Paused","type":"event"},{"anonymous":false,"inputs":[{"indexed":false,"internalType":"address","name":"account","type":"address"}],"name":"Unpaused","type":"event"},{"inputs":[{"internalType":"bytes32","name":"_sourceId","type":"bytes32"},{"internalType":"string","name":"_sourceName","type":"string"},{"internalType":"string","name":"_sourceDescription","type":"string"},{"internalType":"string","name":"_apiEndpoint","type":"string"},{"internalType":"bytes32","name":"_apiKeyHash","type":"bytes32"}],"name":"addDataSource","outputs":[],"stateMutability":"nonpayable","type":"function"},{"inputs":[{"internalType":"bytes32","name":"_typeId","type":"bytes32"},{"internalType":"string","name":"_typeName","type":"string"},{"internalType":"string","name":"_typeDescription","type":"string"}],"name":"addDataType","outputs":[],"stateMutability":"nonpayable","type":"function"},{"inputs":[{"internalType":"bytes32","name":"_sourceId","type":"bytes32"},{"internalType":"bytes32","name":"_typeId","type":"bytes32"}],"name":"addDataTypeSupport","outputs":[],"stateMutability":"nonpayable","type":"function"},{"inputs":[{"internalType":"uint256","name":"","type":"uint256"}],"name":"allDataTypeIds","outputs":[{"internalType":"bytes32","name":"","type":"bytes32"}],"stateMutability":"view","type":"function"},{"inputs":[{"internalType":"uint256","name":"","type":"uint256"}],"name":"allSourceIds","outputs":[{"internalType":"bytes32","name":"","type":"bytes32"}],"stateMutability":"view","type":"function"},{"inputs":[{"internalType":"address","name":"","type":"address"},{"internalType":"uint256","name":"","type":"uint256"}],"name":"authorizedSources","outputs":[{"internalType":"bytes32","name":"","type":"bytes32"}],"stateMutability":"view","type":"function"},{"inputs":[{"internalType":"bytes32","name":"","type":"bytes32"}],"name":"dataSources","outputs":[{"internalType":"bytes32","name":"sourceId","type":"bytes32"},{"internalType":"string","name":"sourceName","type":"string"},{"internalType":"string","name":"sourceDescription","type":"string"},{"internalType":"string","name":"apiEndpoint","type":"string"},{"internalType":"bytes32","name":"apiKeyHash","type":"bytes32"},{"internalType":"bool","name":"isActive","type":"bool"},{"internalType":"uint256","name":"addedAt","type":"uint256"},{"internalType":"uint256","name":"lastUpdated","type":"uint256"},{"internalType":"address","name":"addedBy","type":"address"},{"internalType":"uint256","name":"requestCount","type":"uint256"},{"internalType":"uint256","name":"successCount","type":"uint256"},{"internalType":"uint256","name":"failureCount","type":"uint256"}],"stateMutability":"view","type":"function"},{"inputs":[{"internalType":"bytes32","name":"","type":"bytes32"}],"name":"dataTypes","outputs":[{"internalType":"bytes32","name":"typeId","type":"bytes32"},{"internalType":"string","name":"typeName","type":"string"},{"internalType":"string","name":"typeDescription","type":"string"},{"internalType":"bool","name":"isSupported","type":"bool"},{"internalType":"uint256","name":"addedAt","type":"uint256"},{"internalType":"uint256","name":"lastUsed","type":"uint256"}],"stateMutability":"view","type":"function"},{"inputs":[{"internalType":"bytes32","name":"_sourceId","type":"bytes32"}],"name":"deactivateDataSource","outputs":[],"stateMutability":"nonpayable","type":"function"},{"inputs":[],"name":"getAllDataTypeIds","outputs":[{"internalType":"bytes32[]","name":"","type":"bytes32[]"}],"stateMutability":"view","type":"function"},{"inputs":[],"name":"getAllSourceIds","outputs":[{"internalType":"bytes32[]","name":"","type":"bytes32[]"}],"stateMutability":"view","type":"function"},{"inputs":[],"name":"getContractStats","outputs":[{"internalType":"uint256","name":"_totalDataSources","type":"uint256"},{"internalType":"uint256","name":"_totalDataTypes","type":"uint256"},{"internalType":"uint256","name":"_totalRequests","type":"uint256"}],"stateMutability":"view","type":"function"},{"inputs":[{"internalType":"bytes32","name":"_sourceId","type":"bytes32"}],"name":"getDataSource","outputs":[{"internalType":"string","name":"sourceName","type":"string"},{"internalType":"string","name":"sourceDescription","type":"string"},{"internalType":"string","name":"apiEndpoint","type":"string"},{"internalType":"bool","name":"isActive","type":"bool"},{"internalType":"uint256","name":"addedAt","type":"uint256"},{"internalType":"uint256","name":"requestCount","type":"uint256"},{"internalType":"uint256","name":"successCount","type":"uint256"},{"internalType":"uint256","name":"failureCount","type":"uint256"}],"stateMutability":"view","type":"function"},{"inputs":[{"internalType":"bytes32","name":"_sourceId","type":"bytes32"}],"name":"getDataSourceStats","outputs":[{"internalType":"uint256","name":"requestCount","type":"uint256"},{"internalType":"uint256","name":"successCount","type":"uint256"},{"internalType":"uint256","name":"failureCount","type":"uint256"}],"stateMutability":"view","type":"function"},{"inputs":[{"internalType":"bytes32","name":"_typeId","type":"bytes32"}],"name":"getDataType","outputs":[{"internalType":"string","name":"typeName","type":"string"},{"internalType":"string","name":"typeDescription","type":"string"},{"internalType":"bool","name":"isSupported","type":"bool"},{"internalType":"uint256","name":"addedAt","type":"uint256"},{"internalType":"uint256","name":"lastUsed","type":"uint256"}],"stateMutability":"view","type":"function"},{"inputs":[{"internalType":"bytes32","name":"_sourceId","type":"bytes32"}],"name":"isDataSourceActive","outputs":[{"internalType":"bool","name":"","type":"bool"}],"stateMutability":"view","type":"function"},{"inputs":[{"internalType":"bytes32","name":"_sourceId","type":"bytes32"},{"internalType":"bytes32","name":"_typeId","type":"bytes32"}],"name":"isDataTypeSupported","outputs":[{"internalType":"bool","name":"","type":"bool"}],"stateMutability":"view","type":"function"},{"inputs":[],"name":"owner","outputs":[{"internalType":"address","name":"","type":"address"}],"stateMutability":"view","type":"function"},{"inputs":[],"name":"pause","outputs":[],"stateMutability":"nonpayable","type":"function"},{"inputs":[],"name":"paused","outputs":[{"internalType":"bool","name":"","type":"bool"}],"stateMutability":"view","type":"function"},{"inputs":[{"internalType":"bytes32","name":"_sourceId","type":"bytes32"}],"name":"reactivateDataSource","outputs":[],"stateMutability":"nonpayable","type":"function"},{"inputs":[{"internalType":"bytes32","name":"_sourceId","type":"bytes32"},{"internalType":"bytes32","name":"_typeId","type":"bytes32"},{"internalType":"address","name":"_requester","type":"address"},{"internalType":"bool","name":"_success","type":"bool"}],"name":"recordDataRequest","outputs":[],"stateMutability":"nonpayable","type":"function"},{"inputs":[{"internalType":"bytes32","name":"_sourceId","type":"bytes32"},{"internalType":"bytes32","name":"_typeId","type":"bytes32"}],"name":"removeDataTypeSupport","outputs":[],"stateMutability":"nonpayable","type":"function"},{"inputs":[],"name":"renounceOwnership","outputs":[],"stateMutability":"nonpayable","type":"function"},{"inputs":[],"name":"totalDataSources","outputs":[{"internalType":"uint256","name":"","type":"uint256"}],"stateMutability":"view","type":"function"},{"inputs":[],"name":"totalDataTypes","outputs":[{"internalType":"uint256","name":"","type":"uint256"}],"stateMutability":"view","type":"function"},{"inputs":[],"name":"totalRequests","outputs":[{"internalType":"uint256","name":"","type":"uint256"}],"stateMutability":"view","type":"function"},{"inputs":[{"internalType":"address","name":"newOwner","type":"address"}],"name":"transferOwnership","outputs":[],"stateMutability":"nonpayable","type":"function"},{"inputs":[],"name":"unpause","outputs":[],"stateMutability":"nonpayable","type":"function"},{"inputs":[{"internalType":"bytes32","name":"_sourceId","type":"bytes32"},{"internalType":"string","name":"_sourceName","type":"string"},{"internalType":"string","name":"_sourceDescription","type":"string"},{"internalType":"string","name":"_apiEndpoint","type":"string"}],"name":"updateDataSource","outputs":[],"stateMutability":"nonpayable","type":"function"},{"inputs":[{"internalType":"bytes32","name":"_typeId","type":"bytes32"},{"internalType":"string","name":"_typeName","type":"string"},{"internalType":"string","name":"_typeDescription","type":"string"}],"name":"updateDataType","outputs":[],"stateMutability":"nonpayable","type":"function"}],"evm":{"bytecode":{"linkReferences":{},"object":"608060405234801561001057600080fd5b5061001a33610030565b6000805460ff60a01b1916905560018055610080565b600080546001600160a01b038381166001600160a01b0319831681178455604051919092169283917f8be0079c531659141344cd1fd0a4f28419497f9722a3daafe3b4186f6b6457e09190a35050565b61249b8061008f6000396000f3fe608060405234801561001057600080fd5b50600436106101e55760003560e01c80638456cb591161010f578063d10c4f34116100a2578063e73d244111610071578063e73d24411461045e578063f2fde38b14610471578063f69426e914610484578063f8c2ba471461048c57600080fd5b8063d10c4f34146103f1578063d28b669d14610416578063dbc65e921461043d578063dfe6b5d61461045057600080fd5b80639ced2f92116100de5780639ced2f92146103a55780639f70c906146103b8578063b4e2dc4c146103cb578063cf2bfc72146103de57600080fd5b80638456cb59146103665780638aea61dc1461036e5780638da5cb5b14610377578063946aa5b61461039257600080fd5b80635153c98c1161018757806366c94c3b1161015657806366c94c3b146103065780636f34805714610319578063715018a61461032c57806379eeeb901461033457600080fd5b80635153c98c146102b9578063595f81e6146102cc5780635c975abb146102df57806362b5dfd1146102fd57600080fd5b80633a93b271116101c35780633a93b271146102415780633bf6fc2e1461026c5780633f4ba83a1461029a57806343a4a1ec146102a257600080fd5b806319367e31146101ea57806324c73ab21461020857806331502f131461021d575b600080fd5b6101f26104b2565b6040516101ff9190611d45565b60405180910390f35b61021b610216366004611e2c565b61050a565b005b61023061022b366004611ebe565b61066d565b6040516101ff959493929190611f1d565b61025461024f366004611ebe565b610803565b6040516101ff9c9b9a99989796959493929190611f60565b61027f61027a366004611ebe565b610a05565b604080519384526020840192909252908201526060016101ff565b61021b610a5c565b6102ab60075481565b6040519081526020016101ff565b61021b6102c7366004611ff1565b610a6e565b6102ab6102da366004611ebe565b610c09565b600054600160a01b900460ff165b60405190151581526020016101ff565b6102ab60085481565b6102ab610314366004611ebe565b610c2a565b6102ab61032736600461202f565b610c3a565b61021b610c6b565b6102ed610342366004611ff1565b6000918252600260209081526040808420928452600c909201905290205460ff1690565b61021b610c7d565b6102ab60095481565b6000546040516001600160a01b0390911681526020016101ff565b61021b6103a0366004612059565b610c8d565b61021b6103b3366004612059565b610e63565b61021b6103c6366004611ff1565b610f50565b61021b6103d93660046120c6565b611083565b61021b6103ec366004611ebe565b6112df565b6104046103ff366004611ebe565b6113c1565b6040516101ff96959493929190612160565b610429610424366004611ebe565b61150c565b6040516101ff9897969594939291906121aa565b61021b61044b366004612212565b611753565b60075460085460095461027f565b61021b61046c366004611ebe565b611960565b61021b61047f36600461225f565b611a3e565b6101f2611ab7565b6102ed61049a366004611ebe565b60009081526002602052604090206005015460ff1690565b6060600580548060200260200160405190810160405280929190818152602001828054801561050057602002820191906000526020600020905b8154815260200190600101908083116104ec575b5050505050905090565b610512611b0d565b60008481526002602052604090205484906105485760405162461bcd60e51b815260040161053f90612281565b60405180910390fd5b60008451116105995760405162461bcd60e51b815260206004820152601b60248201527f536f75726365206e616d652063616e6e6f7420626520656d7074790000000000604482015260640161053f565b60008251116105ea5760405162461bcd60e51b815260206004820152601c60248201527f41504920656e64706f696e742063616e6e6f7420626520656d70747900000000604482015260640161053f565b6000858152600260205260409020600181016106068682612334565b50600281016106158582612334565b50600381016106248482612334565b5042600782015560405186907f27bcebe012215a3b32197fdd524320eaa59aa51f81adfc48696dceec72bbcf5e9061065d9088906123f4565b60405180910390a2505050505050565b60008181526003602052604081205460609182918190819086906106a35760405162461bcd60e51b815260040161053f90612407565b600087815260036020819052604090912090810154600482015460058301546001840180549093600286019360ff90911692909185906106e2906122ac565b80601f016020809104026020016040519081016040528092919081815260200182805461070e906122ac565b801561075b5780601f106107305761010080835404028352916020019161075b565b820191906000526020600020905b81548152906001019060200180831161073e57829003601f168201915b5050505050945083805461076e906122ac565b80601f016020809104026020016040519081016040528092919081815260200182805461079a906122ac565b80156107e75780601f106107bc576101008083540402835291602001916107e7565b820191906000526020600020905b8154815290600101906020018083116107ca57829003601f168201915b5050505050935096509650965096509650505091939590929450565b60026020526000908152604090208054600182018054919291610825906122ac565b80601f0160208091040260200160405190810160405280929190818152602001828054610851906122ac565b801561089e5780601f106108735761010080835404028352916020019161089e565b820191906000526020600020905b81548152906001019060200180831161088157829003601f168201915b5050505050908060020180546108b3906122ac565b80601f01602080910402602001604051908101604052809291908181526020018280546108df906122ac565b801561092c5780601f106109015761010080835404028352916020019161092c565b820191906000526020600020905b81548152906001019060200180831161090f57829003601f168201915b505050505090806003018054610941906122ac565b80601f016020809104026020016040519081016040528092919081815260200182805461096d906122ac565b80156109ba5780601f1061098f576101008083540402835291602001916109ba565b820191906000526020600020905b81548152906001019060200180831161099d57829003601f168201915b505050600484015460058501546006860154600787015460088801546009890154600a8a0154600b909a01549899959860ff909516975092955090936001600160a01b03909116928c565b600081815260026020526040812054819081908490610a365760405162461bcd60e51b815260040161053f90612281565b5050506000918252506002602052604090206009810154600a820154600b909201549092565b610a64611b0d565b610a6c611b67565b565b610a76611b0d565b6000828152600260205260409020548290610aa35760405162461bcd60e51b815260040161053f90612281565b6000828152600360205260409020548290610ad05760405162461bcd60e51b815260040161053f90612407565b60008481526002602052604090206005015460ff16610b285760405162461bcd60e51b8152602060048201526014602482015273536f75726365206973206e6f742061637469766560601b604482015260640161053f565b6000848152600260209081526040808320868452600c0190915290205460ff1615610b955760405162461bcd60e51b815260206004820152601b60248201527f44617461207479706520616c726561647920737570706f727465640000000000604482015260640161053f565b6000848152600260208181526040808420878552600c81018352818520805460ff19166001179055600d81018352818520859055888552929091524260079092019190915551849186917f287af36f01a2ab1f6e2d171e9e57e60610cbcdb44e8b10ca0cff56ca09a429e59190a350505050565b60068181548110610c1957600080fd5b600091825260209091200154905081565b60058181548110610c1957600080fd5b60046020528160005260406000208181548110610c5657600080fd5b90600052602060002001600091509150505481565b610c73611b0d565b610a6c6000611bbc565b610c85611b0d565b610a6c611c0c565b610c95611b0d565b610c9d611c4f565b610ca5611c9c565b82610ce45760405162461bcd60e51b815260206004820152600f60248201526e125b9d985b1a59081d1e5c19481251608a1b604482015260640161053f565b60008381526003602052604090205415610d405760405162461bcd60e51b815260206004820152601860248201527f44617461207479706520616c7265616479206578697374730000000000000000604482015260640161053f565b6000825111610d8d5760405162461bcd60e51b815260206004820152601960248201527854797065206e616d652063616e6e6f7420626520656d70747960381b604482015260640161053f565b600083815260036020526040902083815560018101610dac8482612334565b5060028101610dbb8382612334565b5060038101805460ff19169055426004820155600060058201819055600680546001810182559082527ff652222313e28459528d920b65115c16c04f3efc82aaedc97be59f3f377c0d3f018590556008805491610e178361243e565b9190505550837ffea8810348df108cfba34c27b003d2ccbdfdc42667bcd3b7ddcb6bd1ccd04a3e84604051610e4c91906123f4565b60405180910390a250610e5e60018055565b505050565b610e6b611b0d565b6000838152600360205260409020548390610e985760405162461bcd60e51b815260040161053f90612407565b6000835111610ee55760405162461bcd60e51b815260206004820152601960248201527854797065206e616d652063616e6e6f7420626520656d70747960381b604482015260640161053f565b600084815260036020526040902060018101610f018582612334565b5060028101610f108482612334565b50847ffea8810348df108cfba34c27b003d2ccbdfdc42667bcd3b7ddcb6bd1ccd04a3e85604051610f4191906123f4565b60405180910390a25050505050565b610f58611b0d565b6000828152600260205260409020548290610f855760405162461bcd60e51b815260040161053f90612281565b6000828152600360205260409020548290610fb25760405162461bcd60e51b815260040161053f90612407565b6000848152600260209081526040808320868452600c0190915290205460ff1661101e5760405162461bcd60e51b815260206004820152601760248201527f446174612074797065206e6f7420737570706f72746564000000000000000000604482015260640161053f565b6000848152600260208181526040808420878552600c81018352818520805460ff19169055888552929091524260079092019190915551849186917fc648890132025e8c9a1338d8cc57ec2fd0531df5b2f99d4ff5f559f34aaf6e6e9190a350505050565b61108b611b0d565b611093611c4f565b61109b611c9c565b846110b85760405162461bcd60e51b815260040161053f90612281565b600085815260026020526040902054156111145760405162461bcd60e51b815260206004820152601a60248201527f4461746120736f7572636520616c726561647920657869737473000000000000604482015260640161053f565b60008451116111655760405162461bcd60e51b815260206004820152601b60248201527f536f75726365206e616d652063616e6e6f7420626520656d7074790000000000604482015260640161053f565b60008251116111b65760405162461bcd60e51b815260206004820152601c60248201527f41504920656e64706f696e742063616e6e6f7420626520656d70747900000000604482015260640161053f565b6000858152600260205260409020858155600181016111d58682612334565b50600281016111e48582612334565b50600381016111f38482612334565b50600481018290556005808201805460ff1916600190811790915542600684018190556007808501919091556008840180546001600160a01b03191633179055600060098501819055600a8501819055600b8501819055835492830184559283527f036b6384b5eca791c62761152d0c79bb0604c104a5fb6f4eb0703f3154bb3db09091018890558054916112878361243e565b9190505550336001600160a01b0316867f178a477b066771a0df82ea5a8dad8cccb180625dbcfb1bc7aa7d60d3c7db0c2a876040516112c691906123f4565b60405180910390a3506112d860018055565b5050505050565b6112e7611b0d565b60008181526002602052604090205481906113145760405162461bcd60e51b815260040161053f90612281565b60008281526002602052604090206005015460ff166113755760405162461bcd60e51b815260206004820152601a60248201527f536f7572636520616c7265616479206465616374697661746564000000000000604482015260640161053f565b60008281526002602052604080822060058101805460ff19169055426007909101555183917fa9fa24c201cd83fb91b6164e89625d4c2a6692cac32e763c6e9b8242292cb0c391a25050565b600360205260009081526040902080546001820180549192916113e3906122ac565b80601f016020809104026020016040519081016040528092919081815260200182805461140f906122ac565b801561145c5780601f106114315761010080835404028352916020019161145c565b820191906000526020600020905b81548152906001019060200180831161143f57829003601f168201915b505050505090806002018054611471906122ac565b80601f016020809104026020016040519081016040528092919081815260200182805461149d906122ac565b80156114ea5780601f106114bf576101008083540402835291602001916114ea565b820191906000526020600020905b8154815290600101906020018083116114cd57829003601f168201915b5050505060038301546004840154600590940154929360ff9091169290915086565b6000818152600260205260408120546060918291829190819081908190819089906115495760405162461bcd60e51b815260040161053f90612281565b6000600260008c815260200190815260200160002090508060010181600201826003018360050160009054906101000a900460ff168460060154856009015486600a015487600b015487805461159e906122ac565b80601f01602080910402602001604051908101604052809291908181526020018280546115ca906122ac565b80156116175780601f106115ec57610100808354040283529160200191611617565b820191906000526020600020905b8154815290600101906020018083116115fa57829003601f168201915b5050505050975086805461162a906122ac565b80601f0160208091040260200160405190810160405280929190818152602001828054611656906122ac565b80156116a35780601f10611678576101008083540402835291602001916116a3565b820191906000526020600020905b81548152906001019060200180831161168657829003601f168201915b505050505096508580546116b6906122ac565b80601f01602080910402602001604051908101604052809291908181526020018280546116e2906122ac565b801561172f5780601f106117045761010080835404028352916020019161172f565b820191906000526020600020905b81548152906001019060200180831161171257829003601f168201915b50505050509550995099509950995099509950995099505050919395975091939597565b61175b611b0d565b60008481526002602052604090205484906117885760405162461bcd60e51b815260040161053f90612281565b60008481526003602052604090205484906117b55760405162461bcd60e51b815260040161053f90612407565b600086815260026020526040902060050154869060ff1661180f5760405162461bcd60e51b8152602060048201526014602482015273536f75726365206973206e6f742061637469766560601b604482015260640161053f565b6000878152600260209081526040808320898452600c0190915290205460ff166118855760405162461bcd60e51b815260206004820152602160248201527f446174612074797065206e6f7420737570706f7274656420627920736f7572636044820152606560f81b606482015260840161053f565b600087815260026020526040812060098101805491926118a48361243e565b90915550506000878152600d82016020526040902042905584156118de57600a810180549060006118d48361243e565b91905055506118f6565b600b810180549060006118f08361243e565b91905055505b60008781526003602052604081204260059091015560098054916119198361243e565b9190505550856001600160a01b031687897f1567bc0e0b37e348e792076fe4d8e4ca028aa31c3c127ad2f96257a8689b979360405160405180910390a45050505050505050565b611968611b0d565b60008181526002602052604090205481906119955760405162461bcd60e51b815260040161053f90612281565b60008281526002602052604090206005015460ff16156119ef5760405162461bcd60e51b8152602060048201526015602482015274536f7572636520616c72656164792061637469766560581b604482015260640161053f565b60008281526002602052604080822060058101805460ff19166001179055426007909101555183917f2d7ea000e389f3166a25668c58f1edb7da9e3f55d691745984c53e78147de1fd91a25050565b611a46611b0d565b6001600160a01b038116611aab5760405162461bcd60e51b815260206004820152602660248201527f4f776e61626c653a206e6577206f776e657220697320746865207a65726f206160448201526564647265737360d01b606482015260840161053f565b611ab481611bbc565b50565b6060600680548060200260200160405190810160405280929190818152602001828054801561050057602002820191906000526020600020908154815260200190600101908083116104ec575050505050905090565b6000546001600160a01b03163314610a6c5760405162461bcd60e51b815260206004820181905260248201527f4f776e61626c653a2063616c6c6572206973206e6f7420746865206f776e6572604482015260640161053f565b611b6f611cf5565b6000805460ff60a01b191690557f5db9ee0a495bf2e6ff9c91a7834c1ba4fdd244a5e8aa4e537bd38aeae4b073aa335b6040516001600160a01b03909116815260200160405180910390a1565b600080546001600160a01b038381166001600160a01b0319831681178455604051919092169283917f8be0079c531659141344cd1fd0a4f28419497f9722a3daafe3b4186f6b6457e09190a35050565b611c14611c4f565b6000805460ff60a01b1916600160a01b1790557f62e78cea01bee320cd4e420270b5ea74000d11b0c9f74754ebdbfc544b05a258611b9f3390565b600054600160a01b900460ff1615610a6c5760405162461bcd60e51b815260206004820152601060248201526f14185d5cd8589b194e881c185d5cd95960821b604482015260640161053f565b600260015403611cee5760405162461bcd60e51b815260206004820152601f60248201527f5265656e7472616e637947756172643a207265656e7472616e742063616c6c00604482015260640161053f565b6002600155565b600054600160a01b900460ff16610a6c5760405162461bcd60e51b815260206004820152601460248201527314185d5cd8589b194e881b9bdd081c185d5cd95960621b604482015260640161053f565b6020808252825182820181905260009190848201906040850190845b81811015611d7d57835183529284019291840191600101611d61565b50909695505050505050565b634e487b7160e01b600052604160045260246000fd5b600082601f830112611db057600080fd5b813567ffffffffffffffff80821115611dcb57611dcb611d89565b604051601f8301601f19908116603f01168101908282118183101715611df357611df3611d89565b81604052838152866020858801011115611e0c57600080fd5b836020870160208301376000602085830101528094505050505092915050565b60008060008060808587031215611e4257600080fd5b84359350602085013567ffffffffffffffff80821115611e6157600080fd5b611e6d88838901611d9f565b94506040870135915080821115611e8357600080fd5b611e8f88838901611d9f565b93506060870135915080821115611ea557600080fd5b50611eb287828801611d9f565b91505092959194509250565b600060208284031215611ed057600080fd5b5035919050565b6000815180845260005b81811015611efd57602081850181015186830182015201611ee1565b506000602082860101526020601f19601f83011685010191505092915050565b60a081526000611f3060a0830188611ed7565b8281036020840152611f428188611ed7565b95151560408401525050606081019290925260809091015292915050565b60006101808e8352806020840152611f7a8184018f611ed7565b90508281036040840152611f8e818e611ed7565b90508281036060840152611fa2818d611ed7565b608084019b909b52505096151560a088015260c087019590955260e08601939093526001600160a01b039190911661010085015261012084015261014083015261016090910152949350505050565b6000806040838503121561200457600080fd5b50508035926020909101359150565b80356001600160a01b038116811461202a57600080fd5b919050565b6000806040838503121561204257600080fd5b61204b83612013565b946020939093013593505050565b60008060006060848603121561206e57600080fd5b83359250602084013567ffffffffffffffff8082111561208d57600080fd5b61209987838801611d9f565b935060408601359150808211156120af57600080fd5b506120bc86828701611d9f565b9150509250925092565b600080600080600060a086880312156120de57600080fd5b85359450602086013567ffffffffffffffff808211156120fd57600080fd5b61210989838a01611d9f565b9550604088013591508082111561211f57600080fd5b61212b89838a01611d9f565b9450606088013591508082111561214157600080fd5b5061214e88828901611d9f565b95989497509295608001359392505050565b86815260c06020820152600061217960c0830188611ed7565b828103604084015261218b8188611ed7565b95151560608401525050608081019290925260a0909101529392505050565b60006101008083526121be8184018c611ed7565b905082810360208401526121d2818b611ed7565b905082810360408401526121e6818a611ed7565b97151560608401525050608081019490945260a084019290925260c083015260e0909101529392505050565b6000806000806080858703121561222857600080fd5b843593506020850135925061223f60408601612013565b91506060850135801515811461225457600080fd5b939692955090935050565b60006020828403121561227157600080fd5b61227a82612013565b9392505050565b602080825260119082015270125b9d985b1a59081cdbdd5c98d9481251607a1b604082015260600190565b600181811c908216806122c057607f821691505b6020821081036122e057634e487b7160e01b600052602260045260246000fd5b50919050565b601f821115610e5e57600081815260208120601f850160051c8101602086101561230d5750805b601f850160051c820191505b8181101561232c57828155600101612319565b505050505050565b815167ffffffffffffffff81111561234e5761234e611d89565b6123628161235c84546122ac565b846122e6565b602080601f831160018114612397576000841561237f5750858301515b600019600386901b1c1916600185901b17855561232c565b600085815260208120601f198616915b828110156123c6578886015182559484019460019091019084016123a7565b50858210156123e45787850151600019600388901b60f8161c191681555b5050505050600190811b01905550565b60208152600061227a6020830184611ed7565b60208082526018908201527f44617461207479706520646f6573206e6f742065786973740000000000000000604082015260600190565b60006001820161245e57634e487b7160e01b600052601160045260246000fd5b506001019056fea26469706673582212201b687a43d3bb9101f5c76bd531cdea9fbf440653c644f0ecd1ee8d51b41383ce64736f6c63430008140033","opcodes":"PUSH1 0x80 PUSH1 0x40 MSTORE CALLVALUE DUP1 ISZERO PUSH2 0x10 JUMPI PUSH1 0x0 DUP1 REVERT JUMPDEST POP PUSH2 0x1A CALLER PUSH2 0x30 JUMP JUMPDEST PUSH1 0x0 DUP1 SLOAD PUSH1 0xFF PUSH1 0xA0 SHL NOT AND SWAP1 SSTORE PUSH1 0x1 DUP1 SSTORE PUSH2 0x80 JUMP JUMPDEST PUSH1 0x0 DUP1 SLOAD PUSH1 0x1 PUSH1 0x1 PUSH1 0xA0 SHL SUB DUP4 DUP2 AND PUSH1 0x1 PUSH1 0x1 PUSH1 0xA0 SHL SUB NOT DUP4 AND DUP2 OR DUP5 SSTORE PUSH1 0x40 MLOAD SWAP2 SWAP1 SWAP3 AND SWAP3 DUP4 SWAP2 PUSH32 0x8BE0079C531659141344CD1FD0A4F28419497F9722A3DAAFE3B4186F6B6457E0 SWAP2 SWAP1 LOG3 POP POP JUMP JUMPDEST PUSH2 0x249B DUP1 PUSH2 0x8F PUSH1 0x0 CODECOPY PUSH1 0x0 RETURN INVALID PUSH1 0x80 PUSH1 0x40 MSTORE CALLVALUE DUP1 ISZERO PUSH2 0x10 JUMPI PUSH1 0x0 DUP1 REVERT JUMPDEST POP PUSH1 0x4 CALLDATASIZE LT PUSH2 0x1E5 JUMPI PUSH1 0x0 CALLDATALOAD PUSH1 0xE0 SHR DUP1 PUSH4 0x8456CB59 GT PUSH2 0x10F JUMPI DUP1 PUSH4 0xD10C4F34 GT PUSH2 0xA2 JUMPI DUP1 PUSH4 0xE73D2441 GT PUSH2 0x71 JUMPI DUP1 PUSH4 0xE73D2441 EQ PUSH2 0x45E JUMPI DUP1 PUSH4 0xF2FDE38B EQ PUSH2 0x471 JUMPI DUP1 PUSH4 0xF69426E9 EQ PUSH2 0x484 JUMPI DUP1 PUSH4 0xF8C2BA47 EQ PUSH2 0x48C JUMPI PUSH1 0x0 DUP1 REVERT JUMPDEST DUP1 PUSH4 0xD10C4F34 EQ PUSH2 0x3F1 JUMPI DUP1 PUSH4 0xD28B669D EQ PUSH2 0x416 JUMPI DUP1 PUSH4 0xDBC65E92 EQ PUSH2 0x43D JUMPI DUP1 PUSH4 0xDFE6B5D6 EQ PUSH2 0x450 JUMPI PUSH1 0x0 DUP1 REVERT JUMPDEST DUP1 PUSH4 0x9CED2F92 GT PUSH2 0xDE JUMPI DUP1 PUSH4 0x9CED2F92 EQ PUSH2 0x3A5 JUMPI DUP1 PUSH4 0x9F70C906 EQ PUSH2 0x3B8 JUMPI DUP1 PUSH4 0xB4E2DC4C EQ PUSH2 0x3CB JUMPI DUP1 PUSH4 0xCF2BFC72 EQ PUSH2 0x3DE JUMPI PUSH1 0x0 DUP1 REVERT JUMPDEST DUP1 PUSH4 0x8456CB59 EQ PUSH2 0x366 JUMPI DUP1 PUSH4 0x8AEA61DC EQ PUSH2 0x36E JUMPI DUP1 PUSH4 0x8DA5CB5B EQ PUSH2 0x377 JUMPI DUP1 PUSH4 0x946AA5B6 EQ PUSH2 0x392 JUMPI PUSH1 0x0 DUP1 REVERT JUMPDEST DUP1 PUSH4 0x5153C98C GT PUSH2 0x187 JUMPI DUP1 PUSH4 0x66C94C3B GT PUSH2 0x156 JUMPI DUP1 PUSH4 0x66C94C3B EQ PUSH2 0x306 JUMPI DUP1 PUSH4 0x6F348057 EQ PUSH2 0x319 JUMPI DUP1 PUSH4 0x715018A6 EQ PUSH2 0x32C JUMPI DUP1 PUSH4 0x79EEEB90 EQ PUSH2 0x334 JUMPI PUSH1 0x0 DUP1 REVERT JUMPDEST DUP1 PUSH4 0x5153C98C EQ PUSH2 0x2B9 JUMPI DUP1 PUSH4 0x595F81E6 EQ PUSH2 0x2CC JUMPI DUP1 PUSH4 0x5C975ABB EQ PUSH2 0x2DF JUMPI DUP1 PUSH4 0x62B5DFD1 EQ PUSH2 0x2FD JUMPI PUSH1 0x0 DUP1 REVERT JUMPDEST DUP1 PUSH4 0x3A93B271 GT PUSH2 0x1C3 JUMPI DUP1 PUSH4 0x3A93B271 EQ PUSH2 0x241 JUMPI DUP1 PUSH4 0x3BF6FC2E EQ PUSH2 0x26C JUMPI DUP1 PUSH4 0x3F4BA83A EQ PUSH2 0x29A JUMPI DUP1 PUSH4 0x43A4A1EC EQ PUSH2 0x2A2 JUMPI PUSH1 0x0 DUP1 REVERT JUMPDEST DUP1 PUSH4 0x19367E31 EQ PUSH2 0x1EA JUMPI DUP1 PUSH4 0x24C73AB2 EQ PUSH2 0x208 JUMPI DUP1 PUSH4 0x31502F13 EQ PUSH2 0x21D JUMPI JUMPDEST PUSH1 0x0 DUP1 REVERT JUMPDEST PUSH2 0x1F2 PUSH2 0x4B2 JUMP JUMPDEST PUSH1 0x40 MLOAD PUSH2 0x1FF SWAP2 SWAP1 PUSH2 0x1D45 JUMP JUMPDEST PUSH1 0x40 MLOAD DUP1 SWAP2 SUB SWAP1 RETURN JUMPDEST PUSH2 0x21B PUSH2 0x216 CALLDATASIZE PUSH1 0x4 PUSH2 0x1E2C JUMP JUMPDEST PUSH2 0x50A JUMP JUMPDEST STOP JUMPDEST PUSH2 0x230 PUSH2 0x22B CALLDATASIZE PUSH1 0x4 PUSH2 0x1EBE JUMP JUMPDEST PUSH2 0x66D JUMP JUMPDEST PUSH1 0x40 MLOAD PUSH2 0x1FF SWAP6 SWAP5 SWAP4 SWAP3 SWAP2 SWAP1 PUSH2 0x1F1D JUMP JUMPDEST PUSH2 0x254 PUSH2 0x24F CALLDATASIZE PUSH1 0x4 PUSH2 0x1EBE JUMP JUMPDEST PUSH2 0x803 JUMP JUMPDEST PUSH1 0x40 MLOAD PUSH2 0x1FF SWAP13 SWAP12 SWAP11 SWAP10 SWAP9 SWAP8 SWAP7 SWAP6 SWAP5 SWAP4 SWAP3 SWAP2 SWAP1 PUSH2 0x1F60 JUMP JUMPDEST PUSH2 0x27F PUSH2 0x27A CALLDATASIZE PUSH1 0x4 PUSH2 0x1EBE JUMP JUMPDEST PUSH2 0xA05 JUMP JUMPDEST PUSH1 0x40 DUP1 MLOAD SWAP4 DUP5 MSTORE PUSH1 0x20 DUP5 ADD SWAP3 SWAP1 SWAP3 MSTORE SWAP1 DUP3 ADD MSTORE PUSH1 0x60 ADD PUSH2 0x1FF JUMP JUMPDEST PUSH2 0x21B PUSH2 0xA5C JUMP JUMPDEST PUSH2 0x2AB PUSH1 0x7 SLOAD DUP2 JUMP JUMPDEST PUSH1 0x40 MLOAD SWAP1 DUP2 MSTORE PUSH1 0x20 ADD PUSH2 0x1FF JUMP JUMPDEST PUSH2 0x21B PUSH2 0x2C7 CALLDATASIZE PUSH1 0x4 PUSH2 0x1FF1 JUMP JUMPDEST PUSH2 0xA6E JUMP JUMPDEST PUSH2 0x2AB PUSH2 0x2DA CALLDATASIZE PUSH1 0x4 PUSH2 0x1EBE JUMP JUMPDEST PUSH2 0xC09 JUMP JUMPDEST PUSH1 0x0 SLOAD PUSH1 0x1 PUSH1 0xA0 SHL SWAP1 DIV PUSH1 0xFF AND JUMPDEST PUSH1 0x40 MLOAD SWAP1 ISZERO ISZERO DUP2 MSTORE PUSH1 0x20 ADD PUSH2 0x1FF JUMP JUMPDEST PUSH2 0x2AB PUSH1 0x8 SLOAD DUP2 JUMP JUMPDEST PUSH2 0x2AB PUSH2 0x314 CALLDATASIZE PUSH1 0x4 PUSH2 0x1EBE JUMP JUMPDEST PUSH2 0xC2A JUMP JUMPDEST PUSH2 0x2AB PUSH2 0x327 CALLDATASIZE PUSH1 0x4 PUSH2 0x202F JUMP JUMPDEST PUSH2 0xC3A JUMP JUMPDEST PUSH2 0x21B PUSH2 0xC6B JUMP JUMPDEST PUSH2 0x2ED PUSH2 0x342 CALLDATASIZE PUSH1 0x4 PUSH2 0x1FF1 JUMP JUMPDEST PUSH1 0x0 SWAP2 DUP3 MSTORE PUSH1 0x2 PUSH1 0x20 SWAP1 DUP2 MSTORE PUSH1 0x40 DUP1 DUP5 KECCAK256 SWAP3 DUP5 MSTORE PUSH1 0xC SWAP1 SWAP3 ADD SWAP1 MSTORE SWAP1 KECCAK256 SLOAD PUSH1 0xFF AND SWAP1 JUMP JUMPDEST PUSH2 0x21B PUSH2 0xC7D JUMP JUMPDEST PUSH2 0x2AB PUSH1 0x9 SLOAD DUP2 JUMP JUMPDEST PUSH1 0x0 SLOAD PUSH1 0x40 MLOAD PUSH1 0x1 PUSH1 0x1 PUSH1 0xA0 SHL SUB SWAP1 SWAP2 AND DUP2 MSTORE PUSH1 0x20 ADD PUSH2 0x1FF JUMP JUMPDEST PUSH2 0x21B PUSH2 0x3A0 CALLDATASIZE PUSH1 0x4 PUSH2 0x2059 JUMP JUMPDEST PUSH2 0xC8D JUMP JUMPDEST PUSH2 0x21B PUSH2 0x3B3 CALLDATASIZE PUSH1 0x4 PUSH2 0x2059 JUMP JUMPDEST PUSH2 0xE63 JUMP JUMPDEST PUSH2 0x21B PUSH2 0x3C6 CALLDATASIZE PUSH1 0x4 PUSH2 0x1FF1 JUMP JUMPDEST PUSH2 0xF50 JUMP JUMPDEST PUSH2 0x21B PUSH2 0x3D9 CALLDATASIZE PUSH1 0x4 PUSH2 0x20C6 JUMP JUMPDEST PUSH2 0x1083 JUMP JUMPDEST PUSH2 0x21B PUSH2 0x3EC CALLDATASIZE PUSH1 0x4 PUSH2 0x1EBE JUMP JUMPDEST PUSH2 0x12DF JUMP JUMPDEST PUSH2 0x404 PUSH2 0x3FF CALLDATASIZE PUSH1 0x4 PUSH2 0x1EBE JUMP JUMPDEST PUSH2 0x13C1 JUMP JUMPDEST PUSH1 0x40 MLOAD PUSH2 0x1FF SWAP7 SWAP6 SWAP5 SWAP4 SWAP3 SWAP2 SWAP1 PUSH2 0x2160 JUMP JUMPDEST PUSH2 0x429 PUSH2 0x424 CALLDATASIZE PUSH1 0x4 PUSH2 0x1EBE JUMP JUMPDEST PUSH2 0x150C JUMP JUMPDEST PUSH1 0x40 MLOAD PUSH2 0x1FF SWAP9 SWAP8 SWAP7 SWAP6 SWAP5 SWAP4 SWAP3 SWAP2 SWAP1 PUSH2 0x21AA JUMP JUMPDEST PUSH2 0x21B PUSH2 0x44B CALLDATASIZE PUSH1 0x4 PUSH2 0x2212 JUMP JUMPDEST PUSH2 0x1753 JUMP JUMPDEST PUSH1 0x7 SLOAD PUSH1 0x8 SLOAD PUSH1 0x9 SLOAD PUSH2 0x27F JUMP JUMPDEST PUSH2 0x21B PUSH2 0x46C CALLDATASIZE PUSH1 0x4 PUSH2 0x1EBE JUMP JUMPDEST PUSH2 0x1960 JUMP JUMPDEST PUSH2 0x21B PUSH2 0x47F CALLDATASIZE PUSH1 0x4 PUSH2 0x225F JUMP JUMPDEST PUSH2 0x1A3E JUMP JUMPDEST PUSH2 0x1F2 PUSH2 0x1AB7 JUMP JUMPDEST PUSH2 0x2ED PUSH2 0x49A CALLDATASIZE PUSH1 0x4 PUSH2 0x1EBE JUMP JUMPDEST PUSH1 0x0 SWAP1 DUP2 MSTORE PUSH1 0x2 PUSH1 0x20 MSTORE PUSH1 0x40 SWAP1 KECCAK256 PUSH1 0x5 ADD SLOAD PUSH1 0xFF AND SWAP1 JUMP JUMPDEST PUSH1 0x60 PUSH1 0x5 DUP1 SLOAD DUP1 PUSH1 0x20 MUL PUSH1 0x20 ADD PUSH1 0x40 MLOAD SWAP1 DUP2 ADD PUSH1 0x40 MSTORE DUP1 SWAP3 SWAP2 SWAP1 DUP2 DUP2 MSTORE PUSH1 0x20 ADD DUP3 DUP1 SLOAD DUP1 ISZERO PUSH2 0x500 JUMPI PUSH1 0x20 MUL DUP3 ADD SWAP2 SWAP1 PUSH1 0x0 MSTORE PUSH1 0x20 PUSH1 0x0 KECCAK256 SWAP1 JUMPDEST DUP2 SLOAD DUP2 MSTORE PUSH1 0x20 ADD SWAP1 PUSH1 0x1 ADD SWAP1 DUP1 DUP4 GT PUSH2 0x4EC JUMPI JUMPDEST POP POP POP POP POP SWAP1 POP SWAP1 JUMP JUMPDEST PUSH2 0x512 PUSH2 0x1B0D JUMP JUMPDEST PUSH1 0x0 DUP5 DUP2 MSTORE PUSH1 0x2 PUSH1 0x20 MSTORE PUSH1 0x40 SWAP1 KECCAK256 SLOAD DUP5 SWAP1 PUSH2 0x548 JUMPI PUSH1 0x40 MLOAD PUSH3 0x461BCD PUSH1 0xE5 SHL DUP2 MSTORE PUSH1 0x4 ADD PUSH2 0x53F SWAP1 PUSH2 0x2281 JUMP JUMPDEST PUSH1 0x40 MLOAD DUP1 SWAP2 SUB SWAP1 REVERT JUMPDEST PUSH1 0x0 DUP5 MLOAD GT PUSH2 0x599 JUMPI PUSH1 0x40 MLOAD PUSH3 0x461BCD PUSH1 0xE5 SHL DUP2 MSTORE PUSH1 0x20 PUSH1 0x4 DUP3 ADD MSTORE PUSH1 0x1B PUSH1 0x24 DUP3 ADD MSTORE PUSH32 0x536F75726365206E616D652063616E6E6F7420626520656D7074790000000000 PUSH1 0x44 DUP3 ADD MSTORE PUSH1 0x64 ADD PUSH2 0x53F JUMP JUMPDEST PUSH1 0x0 DUP3 MLOAD GT PUSH2 0x5EA JUMPI PUSH1 0x40 MLOAD PUSH3 0x461BCD PUSH1 0xE5 SHL DUP2 MSTORE PUSH1 0x20 PUSH1 0x4 DUP3 ADD MSTORE PUSH1 0x1C PUSH1 0x24 DUP3 ADD MSTORE PUSH32 0x41504920656E64706F696E742063616E6E6F7420626520656D70747900000000 PUSH1 0x44 DUP3 ADD MSTORE PUSH1 0x64 ADD PUSH2 0x53F JUMP JUMPDEST PUSH1 0x0 DUP6 DUP2 MSTORE PUSH1 0x2 PUSH1 0x20 MSTORE PUSH1 0x40 SWAP1 KECCAK256 PUSH1 0x1 DUP2 ADD PUSH2 0x606 DUP7 DUP3 PUSH2 0x2334 JUMP JUMPDEST POP PUSH1 0x2 DUP2 ADD PUSH2 0x615 DUP6 DUP3 PUSH2 0x2334 JUMP JUMPDEST POP PUSH1 0x3 DUP2 ADD PUSH2 0x624 DUP5 DUP3 PUSH2 0x2334 JUMP JUMPDEST POP TIMESTAMP PUSH1 0x7 DUP3 ADD SSTORE PUSH1 0x40 MLOAD DUP7 SWAP1 PUSH32 0x27BCEBE012215A3B32197FDD524320EAA59AA51F81ADFC48696DCEEC72BBCF5E SWAP1 PUSH2 0x65D SWAP1 DUP9 SWAP1 PUSH2 0x23F4 JUMP JUMPDEST PUSH1 0x40 MLOAD DUP1 SWAP2 SUB SWAP1 LOG2 POP POP POP POP POP POP JUMP JUMPDEST PUSH1 0x0 DUP2 DUP2 MSTORE PUSH1 0x3 PUSH1 0x20 MSTORE PUSH1 0x40 DUP2 KECCAK256 SLOAD PUSH1 0x60 SWAP2 DUP3 SWAP2 DUP2 SWAP1 DUP2 SWAP1 DUP7 SWAP1 PUSH2 0x6A3 JUMPI PUSH1 0x40 MLOAD PUSH3 0x461BCD PUSH1 0xE5 SHL DUP2 MSTORE PUSH1 0x4 ADD PUSH2 0x53F SWAP1 PUSH2 0x2407 JUMP JUMPDEST PUSH1 0x0 DUP8 DUP2 MSTORE PUSH1 0x3 PUSH1 0x20 DUP2 SWAP1 MSTORE PUSH1 0x40 SWAP1 SWAP2 KECCAK256 SWAP1 DUP2 ADD SLOAD PUSH1 0x4 DUP3 ADD SLOAD PUSH1 0x5 DUP4 ADD SLOAD PUSH1 0x1 DUP5 ADD DUP1 SLOAD SWAP1 SWAP4 PUSH1 0x2 DUP7 ADD SWAP4 PUSH1 0xFF SWAP1 SWAP2 AND SWAP3 SWAP1 SWAP2 DUP6 SWAP1 PUSH2 0x6E2 SWAP1 PUSH2 0x22AC JUMP JUMPDEST DUP1 PUSH1 0x1F ADD PUSH1 0x20 DUP1 SWAP2 DIV MUL PUSH1 0x20 ADD PUSH1 0x40 MLOAD SWAP1 DUP2 ADD PUSH1 0x40 MSTORE DUP1 SWAP3 SWAP2 SWAP1 DUP2 DUP2 MSTORE PUSH1 0x20 ADD DUP3 DUP1 SLOAD PUSH2 0x70E SWAP1 PUSH2 0x22AC JUMP JUMPDEST DUP1 ISZERO PUSH2 0x75B JUMPI DUP1 PUSH1 0x1F LT PUSH2 0x730 JUMPI PUSH2 0x100 DUP1 DUP4 SLOAD DIV MUL DUP4 MSTORE SWAP2 PUSH1 0x20 ADD SWAP2 PUSH2 0x75B JUMP JUMPDEST DUP3 ADD SWAP2 SWAP1 PUSH1 0x0 MSTORE PUSH1 0x20 PUSH1 0x0 KECCAK256 SWAP1 JUMPDEST DUP2 SLOAD DUP2 MSTORE SWAP1 PUSH1 0x1 ADD SWAP1 PUSH1 0x20 ADD DUP1 DUP4 GT PUSH2 0x73E JUMPI DUP3 SWAP1 SUB PUSH1 0x1F AND DUP3 ADD SWAP2 JUMPDEST POP POP POP POP POP SWAP5 POP DUP4 DUP1 SLOAD PUSH2 0x76E SWAP1 PUSH2 0x22AC JUMP JUMPDEST DUP1 PUSH1 0x1F ADD PUSH1 0x20 DUP1 SWAP2 DIV MUL PUSH1 0x20 ADD PUSH1 0x40 MLOAD SWAP1 DUP2 ADD PUSH1 0x40 MSTORE DUP1 SWAP3 SWAP2 SWAP1 DUP2 DUP2 MSTORE PUSH1 0x20 ADD DUP3 DUP1 SLOAD PUSH2 0x79A SWAP1 PUSH2 0x22AC JUMP JUMPDEST DUP1 ISZERO PUSH2 0x7E7 JUMPI DUP1 PUSH1 0x1F LT PUSH2 0x7BC JUMPI PUSH2 0x100 DUP1 DUP4 SLOAD DIV MUL DUP4 MSTORE SWAP2 PUSH1 0x20 ADD SWAP2 PUSH2 0x7E7 JUMP JUMPDEST DUP3 ADD SWAP2 SWAP1 PUSH1 0x0 MSTORE PUSH1 0x20 PUSH1 0x0 KECCAK256 SWAP1 JUMPDEST DUP2 SLOAD DUP2 MSTORE SWAP1 PUSH1 0x1 ADD SWAP1 PUSH1 0x20 ADD DUP1 DUP4 GT PUSH2 0x7CA JUMPI DUP3 SWAP1 SUB PUSH1 0x1F AND DUP3 ADD SWAP2 JUMPDEST POP POP POP POP POP SWAP4 POP SWAP7 POP SWAP7 POP SWAP7 POP SWAP7 POP SWAP7 POP POP POP SWAP2 SWAP4 SWAP6 SWAP1 SWAP3 SWAP5 POP JUMP JUMPDEST PUSH1 0x2 PUSH1 0x20 MSTORE PUSH1 0x0 SWAP1 DUP2 MSTORE PUSH1 0x40 SWAP1 KECCAK256 DUP1 SLOAD PUSH1 0x1 DUP3 ADD DUP1 SLOAD SWAP2 SWAP3 SWAP2 PUSH2 0x825 SWAP1 PUSH2 0x22AC JUMP JUMPDEST DUP1 PUSH1 0x1F ADD PUSH1 0x20 DUP1 SWAP2 DIV MUL PUSH1 0x20 ADD PUSH1 0x40 MLOAD SWAP1 DUP2 ADD PUSH1 0x40 MSTORE DUP1 SWAP3 SWAP2 SWAP1 DUP2 DUP2 MSTORE PUSH1 0x20 ADD DUP3 DUP1 SLOAD PUSH2 0x851 SWAP1 PUSH2 0x22AC JUMP JUMPDEST DUP1 ISZERO PUSH2 0x89E JUMPI DUP1 PUSH1 0x1F LT PUSH2 0x873 JUMPI PUSH2 0x100 DUP1 DUP4 SLOAD DIV MUL DUP4 MSTORE SWAP2 PUSH1 0x20 ADD SWAP2 PUSH2 0x89E JUMP JUMPDEST DUP3 ADD SWAP2 SWAP1 PUSH1 0x0 MSTORE PUSH1 0x20 PUSH1 0x0 KECCAK256 SWAP1 JUMPDEST DUP2 SLOAD DUP2 MSTORE SWAP1 PUSH1 0x1 ADD SWAP1 PUSH1 0x20 ADD DUP1 DUP4 GT PUSH2 0x881 JUMPI DUP3 SWAP1 SUB PUSH1 0x1F AND DUP3 ADD SWAP2 JUMPDEST POP POP POP POP POP SWAP1 DUP1 PUSH1 0x2 ADD DUP1 SLOAD PUSH2 0x8B3 SWAP1 PUSH2 0x22AC JUMP JUMPDEST DUP1 PUSH1 0x1F ADD PUSH1 0x20 DUP1 SWAP2 DIV MUL PUSH1 0x20 ADD PUSH1 0x40 MLOAD SWAP1 DUP2 ADD PUSH1 0x40 MSTORE DUP1 SWAP3 SWAP2 SWAP1 DUP2 DUP2 MSTORE PUSH1 0x20 ADD DUP3 DUP1 SLOAD PUSH2 0x8DF SWAP1 PUSH2 0x22AC JUMP JUMPDEST DUP1 ISZERO PUSH2 0x92C JUMPI DUP1 PUSH1 0x1F LT PUSH2 0x901 JUMPI PUSH2 0x100 DUP1 DUP4 SLOAD DIV MUL DUP4 MSTORE SWAP2 PUSH1 0x20 ADD SWAP2 PUSH2 0x92C JUMP JUMPDEST DUP3 ADD SWAP2 SWAP1 PUSH1 0x0 MSTORE PUSH1 0x20 PUSH1 0x0 KECCAK256 SWAP1 JUMPDEST DUP2 SLOAD DUP2 MSTORE SWAP1 PUSH1 0x1 ADD SWAP1 PUSH1 0x20 ADD DUP1 DUP4 GT PUSH2 0x90F JUMPI DUP3 SWAP1 SUB PUSH1 0x1F AND DUP3 ADD SWAP2 JUMPDEST POP POP POP POP POP SWAP1 DUP1 PUSH1 0x3 ADD DUP1 SLOAD PUSH2 0x941 SWAP1 PUSH2 0x22AC JUMP JUMPDEST DUP1 PUSH1 0x1F ADD PUSH1 0x20 DUP1 SWAP2 DIV MUL PUSH1 0x20 ADD PUSH1 0x40 MLOAD SWAP1 DUP2 ADD PUSH1 0x40 MSTORE DUP1 SWAP3 SWAP2 SWAP1 DUP2 DUP2 MSTORE PUSH1 0x20 ADD DUP3 DUP1 SLOAD PUSH2 0x96D SWAP1 PUSH2 0x22AC JUMP JUMPDEST DUP1 ISZERO PUSH2 0x9BA JUMPI DUP1 PUSH1 0x1F LT PUSH2 0x98F JUMPI PUSH2 0x100 DUP1 DUP4 SLOAD DIV MUL DUP4 MSTORE SWAP2 PUSH1 0x20 ADD SWAP2 PUSH2 0x9BA JUMP JUMPDEST DUP3 ADD SWAP2 SWAP1 PUSH1 0x0 MSTORE PUSH1 0x20 PUSH1 0x0 KECCAK256 SWAP1 JUMPDEST DUP2 SLOAD DUP2 MSTORE SWAP1 PUSH1 0x1 ADD SWAP1 PUSH1 0x20 ADD DUP1 DUP4 GT PUSH2 0x99D JUMPI DUP3 SWAP1 SUB PUSH1 0x1F AND DUP3 ADD SWAP2 JUMPDEST POP POP POP PUSH1 0x4 DUP5 ADD SLOAD PUSH1 0x5 DUP6 ADD SLOAD PUSH1 0x6 DUP7 ADD SLOAD PUSH1 0x7 DUP8 ADD SLOAD PUSH1 0x8 DUP9 ADD SLOAD PUSH1 0x9 DUP10 ADD SLOAD PUSH1 0xA DUP11 ADD SLOAD PUSH1 0xB SWAP1 SWAP11 ADD SLOAD SWAP9 SWAP10 SWAP6 SWAP9 PUSH1 0xFF SWAP1 SWAP6 AND SWAP8 POP SWAP3 SWAP6 POP SWAP1 SWAP4 PUSH1 0x1 PUSH1 0x1 PUSH1 0xA0 SHL SUB SWAP1 SWAP2 AND SWAP3 DUP13 JUMP JUMPDEST PUSH1 0x0 DUP2 DUP2 MSTORE PUSH1 0x2 PUSH1 0x20 MSTORE PUSH1 0x40 DUP2 KECCAK256 SLOAD DUP2 SWAP1 DUP2 SWAP1 DUP5 SWAP1 PUSH2 0xA36 JUMPI PUSH1 0x40 MLOAD PUSH3 0x461BCD PUSH1 0xE5 SHL DUP2 MSTORE PUSH1 0x4 ADD PUSH2 0x53F SWAP1 PUSH2 0x2281 JUMP JUMPDEST POP POP POP PUSH1 0x0 SWAP2 DUP3 MSTORE POP PUSH1 0x2 PUSH1 0x20 MSTORE PUSH1 0x40 SWAP1 KECCAK256 PUSH1 0x9 DUP2 ADD SLOAD PUSH1 0xA DUP3 ADD SLOAD PUSH1 0xB SWAP1 SWAP3 ADD SLOAD SWAP1 SWAP3 JUMP JUMPDEST PUSH2 0xA64 PUSH2 0x1B0D JUMP JUMPDEST PUSH2 0xA6C PUSH2 0x1B67 JUMP JUMPDEST JUMP JUMPDEST PUSH2 0xA76 PUSH2 0x1B0D JUMP JUMPDEST PUSH1 0x0 DUP3 DUP2 MSTORE PUSH1 0x2 PUSH1 0x20 MSTORE PUSH1 0x40 SWAP1 KECCAK256 SLOAD DUP3 SWAP1 PUSH2 0xAA3 JUMPI PUSH1 0x40 MLOAD PUSH3 0x461BCD PUSH1 0xE5 SHL DUP2 MSTORE PUSH1 0x4 ADD PUSH2 0x53F SWAP1 PUSH2 0x2281 JUMP JUMPDEST PUSH1 0x0 DUP3 DUP2 MSTORE PUSH1 0x3 PUSH1 0x20 MSTORE PUSH1 0x40 SWAP1 KECCAK256 SLOAD DUP3 SWAP1 PUSH2 0xAD0 JUMPI PUSH1 0x40 MLOAD PUSH3 0x461BCD PUSH1 0xE5 SHL DUP2 MSTORE PUSH1 0x4 ADD PUSH2 0x53F SWAP1 PUSH2 0x2407 JUMP JUMPDEST PUSH1 0x0 DUP5 DUP2 MSTORE PUSH1 0x2 PUSH1 0x20 MSTORE PUSH1 0x40 SWAP1 KECCAK256 PUSH1 0x5 ADD SLOAD PUSH1 0xFF AND PUSH2 0xB28 JUMPI PUSH1 0x40 MLOAD PUSH3 0x461BCD PUSH1 0xE5 SHL DUP2 MSTORE PUSH1 0x20 PUSH1 0x4 DUP3 ADD MSTORE PUSH1 0x14 PUSH1 0x24 DUP3 ADD MSTORE PUSH20 0x536F75726365206973206E6F7420616374697665 PUSH1 0x60 SHL PUSH1 0x44 DUP3 ADD MSTORE PUSH1 0x64 ADD PUSH2 0x53F JUMP JUMPDEST PUSH1 0x0 DUP5 DUP2 MSTORE PUSH1 0x2 PUSH1 0x20 SWAP1 DUP2 MSTORE PUSH1 0x40 DUP1 DUP4 KECCAK256 DUP7 DUP5 MSTORE PUSH1 0xC ADD SWAP1 SWAP2 MSTORE SWAP1 KECCAK256 SLOAD PUSH1 0xFF AND ISZERO PUSH2 0xB95 JUMPI PUSH1 0x40 MLOAD PUSH3 0x461BCD PUSH1 0xE5 SHL DUP2 MSTORE PUSH1 0x20 PUSH1 0x4 DUP3 ADD MSTORE PUSH1 0x1B PUSH1 0x24 DUP3 ADD MSTORE PUSH32 0x44617461207479706520616C726561647920737570706F727465640000000000 PUSH1 0x44 DUP3 ADD MSTORE PUSH1 0x64 ADD PUSH2 0x53F JUMP JUMPDEST PUSH1 0x0 DUP5 DUP2 MSTORE PUSH1 0x2 PUSH1 0x20 DUP2 DUP2 MSTORE PUSH1 0x40 DUP1 DUP5 KECCAK256 DUP8 DUP6 MSTORE PUSH1 0xC DUP2 ADD DUP4 MSTORE DUP2 DUP6 KECCAK256 DUP1 SLOAD PUSH1 0xFF NOT AND PUSH1 0x1 OR SWAP1 SSTORE PUSH1 0xD DUP2 ADD DUP4 MSTORE DUP2 DUP6 KECCAK256 DUP6 SWAP1 SSTORE DUP9 DUP6 MSTORE SWAP3 SWAP1 SWAP2 MSTORE TIMESTAMP PUSH1 0x7 SWAP1 SWAP3 ADD SWAP2 SWAP1 SWAP2 SSTORE MLOAD DUP5 SWAP2 DUP7 SWAP2 PUSH32 0x287AF36F01A2AB1F6E2D171E9E57E60610CBCDB44E8B10CA0CFF56CA09A429E5 SWAP2 SWAP1 LOG3 POP POP POP POP JUMP JUMPDEST PUSH1 0x6 DUP2 DUP2 SLOAD DUP2 LT PUSH2 0xC19 JUMPI PUSH1 0x0 DUP1 REVERT JUMPDEST PUSH1 0x0 SWAP2 DUP3 MSTORE PUSH1 0x20 SWAP1 SWAP2 KECCAK256 ADD SLOAD SWAP1 POP DUP2 JUMP JUMPDEST PUSH1 0x5 DUP2 DUP2 SLOAD DUP2 LT PUSH2 0xC19 JUMPI PUSH1 0x0 DUP1 REVERT JUMPDEST PUSH1 0x4 PUSH1 0x20 MSTORE DUP2 PUSH1 0x0 MSTORE PUSH1 0x40 PUSH1 0x0 KECCAK256 DUP2 DUP2 SLOAD DUP2 LT PUSH2 0xC56 JUMPI PUSH1 0x0 DUP1 REVERT JUMPDEST SWAP1 PUSH1 0x0 MSTORE PUSH1 0x20 PUSH1 0x0 KECCAK256 ADD PUSH1 0x0 SWAP2 POP SWAP2 POP POP SLOAD DUP2 JUMP JUMPDEST PUSH2 0xC73 PUSH2 0x1B0D JUMP JUMPDEST PUSH2 0xA6C PUSH1 0x0 PUSH2 0x1BBC JUMP JUMPDEST PUSH2 0xC85 PUSH2 0x1B0D JUMP JUMPDEST PUSH2 0xA6C PUSH2 0x1C0C JUMP JUMPDEST PUSH2 0xC95 PUSH2 0x1B0D JUMP JUMPDEST PUSH2 0xC9D PUSH2 0x1C4F JUMP JUMPDEST PUSH2 0xCA5 PUSH2 0x1C9C JUMP JUMPDEST DUP3 PUSH2 0xCE4 JUMPI PUSH1 0x40 MLOAD PUSH3 0x461BCD PUSH1 0xE5 SHL DUP2 MSTORE PUSH1 0x20 PUSH1 0x4 DUP3 ADD MSTORE PUSH1 0xF PUSH1 0x24 DUP3 ADD MSTORE PUSH15 0x125B9D985B1A59081D1E5C19481251 PUSH1 0x8A SHL PUSH1 0x44 DUP3 ADD MSTORE PUSH1 0x64 ADD PUSH2 0x53F JUMP JUMPDEST PUSH1 0x0 DUP4 DUP2 MSTORE PUSH1 0x3 PUSH1 0x20 MSTORE PUSH1 0x40 SWAP1 KECCAK256 SLOAD ISZERO PUSH2 0xD40 JUMPI PUSH1 0x40 MLOAD PUSH3 0x461BCD PUSH1 0xE5 SHL DUP2 MSTORE PUSH1 0x20 PUSH1 0x4 DUP3 ADD MSTORE PUSH1 0x18 PUSH1 0x24 DUP3 ADD MSTORE PUSH32 0x44617461207479706520616C7265616479206578697374730000000000000000 PUSH1 0x44 DUP3 ADD MSTORE PUSH1 0x64 ADD PUSH2 0x53F JUMP JUMPDEST PUSH1 0x0 DUP3 MLOAD GT PUSH2 0xD8D JUMPI PUSH1 0x40 MLOAD PUSH3 0x461BCD PUSH1 0xE5 SHL DUP2 MSTORE PUSH1 0x20 PUSH1 0x4 DUP3 ADD MSTORE PUSH1 0x19 PUSH1 0x24 DUP3 ADD MSTORE PUSH25 0x54797065206E616D652063616E6E6F7420626520656D707479 PUSH1 0x38 SHL PUSH1 0x44 DUP3 ADD MSTORE PUSH1 0x64 ADD PUSH2 0x53F JUMP JUMPDEST PUSH1 0x0 DUP4 DUP2 MSTORE PUSH1 0x3 PUSH1 0x20 MSTORE PUSH1 0x40 SWAP1 KECCAK256 DUP4 DUP2 SSTORE PUSH1 0x1 DUP2 ADD PUSH2 0xDAC DUP5 DUP3 PUSH2 0x2334 JUMP JUMPDEST POP PUSH1 0x2 DUP2 ADD PUSH2 0xDBB DUP4 DUP3 PUSH2 0x2334 JUMP JUMPDEST POP PUSH1 0x3 DUP2 ADD DUP1 SLOAD PUSH1 0xFF NOT AND SWAP1 SSTORE TIMESTAMP PUSH1 0x4 DUP3 ADD SSTORE PUSH1 0x0 PUSH1 0x5 DUP3 ADD DUP2 SWAP1 SSTORE PUSH1 0x6 DUP1 SLOAD PUSH1 0x1 DUP2 ADD DUP3 SSTORE SWAP1 DUP3 MSTORE PUSH32 0xF652222313E28459528D920B65115C16C04F3EFC82AAEDC97BE59F3F377C0D3F ADD DUP6 SWAP1 SSTORE PUSH1 0x8 DUP1 SLOAD SWAP2 PUSH2 0xE17 DUP4 PUSH2 0x243E JUMP JUMPDEST SWAP2 SWAP1 POP SSTORE POP DUP4 PUSH32 0xFEA8810348DF108CFBA34C27B003D2CCBDFDC42667BCD3B7DDCB6BD1CCD04A3E DUP5 PUSH1 0x40 MLOAD PUSH2 0xE4C SWAP2 SWAP1 PUSH2 0x23F4 JUMP JUMPDEST PUSH1 0x40 MLOAD DUP1 SWAP2 SUB SWAP1 LOG2 POP PUSH2 0xE5E PUSH1 0x1 DUP1 SSTORE JUMP JUMPDEST POP POP POP JUMP JUMPDEST PUSH2 0xE6B PUSH2 0x1B0D JUMP JUMPDEST PUSH1 0x0 DUP4 DUP2 MSTORE PUSH1 0x3 PUSH1 0x20 MSTORE PUSH1 0x40 SWAP1 KECCAK256 SLOAD DUP4 SWAP1 PUSH2 0xE98 JUMPI PUSH1 0x40 MLOAD PUSH3 0x461BCD PUSH1 0xE5 SHL DUP2 MSTORE PUSH1 0x4 ADD PUSH2 0x53F SWAP1 PUSH2 0x2407 JUMP JUMPDEST PUSH1 0x0 DUP4 MLOAD GT PUSH2 0xEE5 JUMPI PUSH1 0x40 MLOAD PUSH3 0x461BCD PUSH1 0xE5 SHL DUP2 MSTORE PUSH1 0x20 PUSH1 0x4 DUP3 ADD MSTORE PUSH1 0x19 PUSH1 0x24 DUP3 ADD MSTORE PUSH25 0x54797065206E616D652063616E6E6F7420626520656D707479 PUSH1 0x38 SHL PUSH1 0x44 DUP3 ADD MSTORE PUSH1 0x64 ADD PUSH2 0x53F JUMP JUMPDEST PUSH1 0x0 DUP5 DUP2 MSTORE PUSH1 0x3 PUSH1 0x20 MSTORE PUSH1 0x40 SWAP1 KECCAK256 PUSH1 0x1 DUP2 ADD PUSH2 0xF01 DUP6 DUP3 PUSH2 0x2334 JUMP JUMPDEST POP PUSH1 0x2 DUP2 ADD PUSH2 0xF10 DUP5 DUP3 PUSH2 0x2334 JUMP JUMPDEST POP DUP5 PUSH32 0xFEA8810348DF108CFBA34C27B003D2CCBDFDC42667BCD3B7DDCB6BD1CCD04A3E DUP6 PUSH1 0x40 MLOAD PUSH2 0xF41 SWAP2 SWAP1 PUSH2 0x23F4 JUMP JUMPDEST PUSH1 0x40 MLOAD DUP1 SWAP2 SUB SWAP1 LOG2 POP POP POP POP POP JUMP JUMPDEST PUSH2 0xF58 PUSH2 0x1B0D JUMP JUMPDEST PUSH1 0x0 DUP3 DUP2 MSTORE PUSH1 0x2 PUSH1 0x20 MSTORE PUSH1 0x40 SWAP1 KECCAK256 SLOAD DUP3 SWAP1 PUSH2 0xF85 JUMPI PUSH1 0x40 MLOAD PUSH3 0x461BCD PUSH1 0xE5 SHL DUP2 MSTORE PUSH1 0x4 ADD PUSH2 0x53F SWAP1 PUSH2 0x2281 JUMP JUMPDEST PUSH1 0x0 DUP3 DUP2 MSTORE PUSH1 0x3 PUSH1 0x20 MSTORE PUSH1 0x40 SWAP1 KECCAK256 SLOAD DUP3 SWAP1 PUSH2 0xFB2 JUMPI PUSH1 0x40 MLOAD PUSH3 0x461BCD PUSH1 0xE5 SHL DUP2 MSTORE PUSH1 0x4 ADD PUSH2 0x53F SWAP1 PUSH2 0x2407 JUMP JUMPDEST PUSH1 0x0 DUP5 DUP2 MSTORE PUSH1 0x2 PUSH1 0x20 SWAP1 DUP2 MSTORE PUSH1 0x40 DUP1 DUP4 KECCAK256 DUP7 DUP5 MSTORE PUSH1 0xC ADD SWAP1 SWAP2 MSTORE SWAP1 KECCAK256 SLOAD PUSH1 0xFF AND PUSH2 0x101E JUMPI PUSH1 0x40 MLOAD PUSH3 0x461BCD PUSH1 0xE5 SHL DUP2 MSTORE PUSH1 0x20 PUSH1 0x4 DUP3 ADD MSTORE PUSH1 0x17 PUSH1 0x24 DUP3 ADD MSTORE PUSH32 0x446174612074797065206E6F7420737570706F72746564000000000000000000 PUSH1 0x44 DUP3 ADD MSTORE PUSH1 0x64 ADD PUSH2 0x53F JUMP JUMPDEST PUSH1 0x0 DUP5 DUP2 MSTORE PUSH1 0x2 PUSH1 0x20 DUP2 DUP2 MSTORE PUSH1 0x40 DUP1 DUP5 KECCAK256 DUP8 DUP6 MSTORE PUSH1 0xC DUP2 ADD DUP4 MSTORE DUP2 DUP6 KECCAK256 DUP1 SLOAD PUSH1 0xFF NOT AND SWAP1 SSTORE DUP9 DUP6 MSTORE SWAP3 SWAP1 SWAP2 MSTORE TIMESTAMP PUSH1 0x7 SWAP1 SWAP3 ADD SWAP2 SWAP1 SWAP2 SSTORE MLOAD DUP5 SWAP2 DUP7 SWAP2 PUSH32 0xC648890132025E8C9A1338D8CC57EC2FD0531DF5B2F99D4FF5F559F34AAF6E6E SWAP2 SWAP1 LOG3 POP POP POP POP JUMP JUMPDEST PUSH2 0x108B PUSH2 0x1B0D JUMP JUMPDEST PUSH2 0x1093 PUSH2 0x1C4F JUMP JUMPDEST PUSH2 0x109B PUSH2 0x1C9C JUMP JUMPDEST DUP5 PUSH2 0x10B8 JUMPI PUSH1 0x40 MLOAD PUSH3 0x461BCD PUSH1 0xE5 SHL DUP2 MSTORE PUSH1 0x4 ADD PUSH2 0x53F SWAP1 PUSH2 0x2281 JUMP JUMPDEST PUSH1 0x0 DUP6 DUP2 MSTORE PUSH1 0x2 PUSH1 0x20 MSTORE PUSH1 0x40 SWAP1 KECCAK256 SLOAD ISZERO PUSH2 0x1114 JUMPI PUSH1 0x40 MLOAD PUSH3 0x461BCD PUSH1 0xE5 SHL DUP2 MSTORE PUSH1 0x20 PUSH1 0x4 DUP3 ADD MSTORE PUSH1 0x1A PUSH1 0x24 DUP3 ADD MSTORE PUSH32 0x4461746120736F7572636520616C726561647920657869737473000000000000 PUSH1 0x44 DUP3 ADD MSTORE PUSH1 0x64 ADD PUSH2 0x53F JUMP JUMPDEST PUSH1 0x0 DUP5 MLOAD GT PUSH2 0x1165 JUMPI PUSH1 0x40 MLOAD PUSH3 0x461BCD PUSH1 0xE5 SHL DUP2 MSTORE PUSH1 0x20 PUSH1 0x4 DUP3 ADD MSTORE PUSH1 0x1B PUSH1 0x24 DUP3 ADD MSTORE PUSH32 0x536F75726365206E616D652063616E6E6F7420626520656D7074790000000000 PUSH1 0x44 DUP3 ADD MSTORE PUSH1 0x64 ADD PUSH2 0x53F JUMP JUMPDEST PUSH1 0x0 DUP3 MLOAD GT PUSH2 0x11B6 JUMPI PUSH1 0x40 MLOAD PUSH3 0x461BCD PUSH1 0xE5 SHL DUP2 MSTORE PUSH1 0x20 PUSH1 0x4 DUP3 ADD MSTORE PUSH1 0x1C PUSH1 0x24 DUP3 ADD MSTORE PUSH32 0x41504920656E64706F696E742063616E6E6F7420626520656D70747900000000 PUSH1 0x44 DUP3 ADD MSTORE PUSH1 0x64 ADD PUSH2 0x53F JUMP JUMPDEST PUSH1 0x0 DUP6 DUP2 MSTORE PUSH1 0x2 PUSH1 0x20 MSTORE PUSH1 0x40 SWAP1 KECCAK256 DUP6 DUP2 SSTORE PUSH1 0x1 DUP2 ADD PUSH2 0x11D5 DUP7 DUP3 PUSH2 0x2334 JUMP JUMPDEST POP PUSH1 0x2 DUP2 ADD PUSH2 0x11E4 DUP6 DUP3 PUSH2 0x2334 JUMP JUMPDEST POP PUSH1 0x3 DUP2 ADD PUSH2 0x11F3 DUP5 DUP3 PUSH2 0x2334 JUMP JUMPDEST POP PUSH1 0x4 DUP2 ADD DUP3 SWAP1 SSTORE PUSH1 0x5 DUP1 DUP3 ADD DUP1 SLOAD PUSH1 0xFF NOT AND PUSH1 0x1 SWAP1 DUP2 OR SWAP1 SWAP2 SSTORE TIMESTAMP PUSH1 0x6 DUP5 ADD DUP2 SWAP1 SSTORE PUSH1 0x7 DUP1 DUP6 ADD SWAP2 SWAP1 SWAP2 SSTORE PUSH1 0x8 DUP5 ADD DUP1 SLOAD PUSH1 0x1 PUSH1 0x1 PUSH1 0xA0 SHL SUB NOT AND CALLER OR SWAP1 SSTORE PUSH1 0x0 PUSH1 0x9 DUP6 ADD DUP2 SWAP1 SSTORE PUSH1 0xA DUP6 ADD DUP2 SWAP1 SSTORE PUSH1 0xB DUP6 ADD DUP2 SWAP1 SSTORE DUP4 SLOAD SWAP3 DUP4 ADD DUP5 SSTORE SWAP3 DUP4 MSTORE PUSH32 0x36B6384B5ECA791C62761152D0C79BB0604C104A5FB6F4EB0703F3154BB3DB0 SWAP1 SWAP2 ADD DUP9 SWAP1 SSTORE DUP1 SLOAD SWAP2 PUSH2 0x1287 DUP4 PUSH2 0x243E JUMP JUMPDEST SWAP2 SWAP1 POP SSTORE POP CALLER PUSH1 0x1 PUSH1 0x1 PUSH1 0xA0 SHL SUB AND DUP7 PUSH32 0x178A477B066771A0DF82EA5A8DAD8CCCB180625DBCFB1BC7AA7D60D3C7DB0C2A DUP8 PUSH1 0x40 MLOAD PUSH2 0x12C6 SWAP2 SWAP1 PUSH2 0x23F4 JUMP JUMPDEST PUSH1 0x40 MLOAD DUP1 SWAP2 SUB SWAP1 LOG3 POP PUSH2 0x12D8 PUSH1 0x1 DUP1 SSTORE JUMP JUMPDEST POP POP POP POP POP JUMP JUMPDEST PUSH2 0x12E7 PUSH2 0x1B0D JUMP JUMPDEST PUSH1 0x0 DUP2 DUP2 MSTORE PUSH1 0x2 PUSH1 0x20 MSTORE PUSH1 0x40 SWAP1 KECCAK256 SLOAD DUP2 SWAP1 PUSH2 0x1314 JUMPI PUSH1 0x40 MLOAD PUSH3 0x461BCD PUSH1 0xE5 SHL DUP2 MSTORE PUSH1 0x4 ADD PUSH2 0x53F SWAP1 PUSH2 0x2281 JUMP JUMPDEST PUSH1 0x0 DUP3 DUP2 MSTORE PUSH1 0x2 PUSH1 0x20 MSTORE PUSH1 0x40 SWAP1 KECCAK256 PUSH1 0x5 ADD SLOAD PUSH1 0xFF AND PUSH2 0x1375 JUMPI PUSH1 0x40 MLOAD PUSH3 0x461BCD PUSH1 0xE5 SHL DUP2 MSTORE PUSH1 0x20 PUSH1 0x4 DUP3 ADD MSTORE PUSH1 0x1A PUSH1 0x24 DUP3 ADD MSTORE PUSH32 0x536F7572636520616C7265616479206465616374697661746564000000000000 PUSH1 0x44 DUP3 ADD MSTORE PUSH1 0x64 ADD PUSH2 0x53F JUMP JUMPDEST PUSH1 0x0 DUP3 DUP2 MSTORE PUSH1 0x2 PUSH1 0x20 MSTORE PUSH1 0x40 DUP1 DUP3 KECCAK256 PUSH1 0x5 DUP2 ADD DUP1 SLOAD PUSH1 0xFF NOT AND SWAP1 SSTORE TIMESTAMP PUSH1 0x7 SWAP1 SWAP2 ADD SSTORE MLOAD DUP4 SWAP2 PUSH32 0xA9FA24C201CD83FB91B6164E89625D4C2A6692CAC32E763C6E9B8242292CB0C3 SWAP2 LOG2 POP POP JUMP JUMPDEST PUSH1 0x3 PUSH1 0x20 MSTORE PUSH1 0x0 SWAP1 DUP2 MSTORE PUSH1 0x40 SWAP1 KECCAK256 DUP1 SLOAD PUSH1 0x1 DUP3 ADD DUP1 SLOAD SWAP2 SWAP3 SWAP2 PUSH2 0x13E3 SWAP1 PUSH2 0x22AC JUMP JUMPDEST DUP1 PUSH1 0x1F ADD PUSH1 0x20 DUP1 SWAP2 DIV MUL PUSH1 0x20 ADD PUSH1 0x40 MLOAD SWAP1 DUP2 ADD PUSH1 0x40 MSTORE DUP1 SWAP3 SWAP2 SWAP1 DUP2 DUP2 MSTORE PUSH1 0x20 ADD DUP3 DUP1 SLOAD PUSH2 0x140F SWAP1 PUSH2 0x22AC JUMP JUMPDEST DUP1 ISZERO PUSH2 0x145C JUMPI DUP1 PUSH1 0x1F LT PUSH2 0x1431 JUMPI PUSH2 0x100 DUP1 DUP4 SLOAD DIV MUL DUP4 MSTORE SWAP2 PUSH1 0x20 ADD SWAP2 PUSH2 0x145C JUMP JUMPDEST DUP3 ADD SWAP2 SWAP1 PUSH1 0x0 MSTORE PUSH1 0x20 PUSH1 0x0 KECCAK256 SWAP1 JUMPDEST DUP2 SLOAD DUP2 MSTORE SWAP1 PUSH1 0x1 ADD SWAP1 PUSH1 0x20 ADD DUP1 DUP4 GT PUSH2 0x143F JUMPI DUP3 SWAP1 SUB PUSH1 0x1F AND DUP3 ADD SWAP2 JUMPDEST POP POP POP POP POP SWAP1 DUP1 PUSH1 0x2 ADD DUP1 SLOAD PUSH2 0x1471 SWAP1 PUSH2 0x22AC JUMP JUMPDEST DUP1 PUSH1 0x1F ADD PUSH1 0x20 DUP1 SWAP2 DIV MUL PUSH1 0x20 ADD PUSH1 0x40 MLOAD SWAP1 DUP2 ADD PUSH1 0x40 MSTORE DUP1 SWAP3 SWAP2 SWAP1 DUP2 DUP2 MSTORE PUSH1 0x20 ADD DUP3 DUP1 SLOAD PUSH2 0x149D SWAP1 PUSH2 0x22AC JUMP JUMPDEST DUP1 ISZERO PUSH2 0x14EA JUMPI DUP1 PUSH1 0x1F LT PUSH2 0x14BF JUMPI PUSH2 0x100 DUP1 DUP4 SLOAD DIV MUL DUP4 MSTORE SWAP2 PUSH1 0x20 ADD SWAP2 PUSH2 0x14EA JUMP JUMPDEST DUP3 ADD SWAP2 SWAP1 PUSH1 0x0 MSTORE PUSH1 0x20 PUSH1 0x0 KECCAK256 SWAP1 JUMPDEST DUP2 SLOAD DUP2 MSTORE SWAP1 PUSH1 0x1 ADD SWAP1 PUSH1 0x20 ADD DUP1 DUP4 GT PUSH2 0x14CD JUMPI DUP3 SWAP1 SUB PUSH1 0x1F AND DUP3 ADD SWAP2 JUMPDEST POP POP POP POP PUSH1 0x3 DUP4 ADD SLOAD PUSH1 0x4 DUP5 ADD SLOAD PUSH1 0x5 SWAP1 SWAP5 ADD SLOAD SWAP3 SWAP4 PUSH1 0xFF SWAP1 SWAP2 AND SWAP3 SWAP1 SWAP2 POP DUP7 JUMP JUMPDEST PUSH1 0x0 DUP2 DUP2 MSTORE PUSH1 0x2 PUSH1 0x20 MSTORE PUSH1 0x40 DUP2 KECCAK256 SLOAD PUSH1 0x60 SWAP2 DUP3 SWAP2 DUP3 SWAP2 SWAP1 DUP2 SWAP1 DUP2 SWAP1 DUP2 SWAP1 DUP2 SWAP1 DUP10 SWAP1 PUSH2 0x1549 JUMPI PUSH1 0x40 MLOAD PUSH3 0x461BCD PUSH1 0xE5 SHL DUP2 MSTORE PUSH1 0x4 ADD PUSH2 0x53F SWAP1 PUSH2 0x2281 JUMP JUMPDEST PUSH1 0x0 PUSH1 0x2 PUSH1 0x0 DUP13 DUP2 MSTORE PUSH1 0x20 ADD SWAP1 DUP2 MSTORE PUSH1 0x20 ADD PUSH1 0x0 KECCAK256 SWAP1 POP DUP1 PUSH1 0x1 ADD DUP2 PUSH1 0x2 ADD DUP3 PUSH1 0x3 ADD DUP4 PUSH1 0x5 ADD PUSH1 0x0 SWAP1 SLOAD SWAP1 PUSH2 0x100 EXP SWAP1 DIV PUSH1 0xFF AND DUP5 PUSH1 0x6 ADD SLOAD DUP6 PUSH1 0x9 ADD SLOAD DUP7 PUSH1 0xA ADD SLOAD DUP8 PUSH1 0xB ADD SLOAD DUP8 DUP1 SLOAD PUSH2 0x159E SWAP1 PUSH2 0x22AC JUMP JUMPDEST DUP1 PUSH1 0x1F ADD PUSH1 0x20 DUP1 SWAP2 DIV MUL PUSH1 0x20 ADD PUSH1 0x40 MLOAD SWAP1 DUP2 ADD PUSH1 0x40 MSTORE DUP1 SWAP3 SWAP2 SWAP1 DUP2 DUP2 MSTORE PUSH1 0x20 ADD DUP3 DUP1 SLOAD PUSH2 0x15CA SWAP1 PUSH2 0x22AC JUMP JUMPDEST DUP1 ISZERO PUSH2 0x1617 JUMPI DUP1 PUSH1 0x1F LT PUSH2 0x15EC JUMPI PUSH2 0x100 DUP1 DUP4 SLOAD DIV MUL DUP4 MSTORE SWAP2 PUSH1 0x20 ADD SWAP2 PUSH2 0x1617 JUMP JUMPDEST DUP3 ADD SWAP2 SWAP1 PUSH1 0x0 MSTORE PUSH1 0x20 PUSH1 0x0 KECCAK256 SWAP1 JUMPDEST DUP2 SLOAD DUP2 MSTORE SWAP1 PUSH1 0x1 ADD SWAP1 PUSH1 0x20 ADD DUP1 DUP4 GT PUSH2 0x15FA JUMPI DUP3 SWAP1 SUB PUSH1 0x1F AND DUP3 ADD SWAP2 JUMPDEST POP POP POP POP POP SWAP8 POP DUP7 DUP1 SLOAD PUSH2 0x162A SWAP1 PUSH2 0x22AC JUMP JUMPDEST DUP1 PUSH1 0x1F ADD PUSH1 0x20 DUP1 SWAP2 DIV MUL PUSH1 0x20 ADD PUSH1 0x40 MLOAD SWAP1 DUP2 ADD PUSH1 0x40 MSTORE DUP1 SWAP3 SWAP2 SWAP1 DUP2 DUP2 MSTORE PUSH1 0x20 ADD DUP3 DUP1 SLOAD PUSH2 0x1656 SWAP1 PUSH2 0x22AC JUMP JUMPDEST DUP1 ISZERO PUSH2 0x16A3 JUMPI DUP1 PUSH1 0x1F LT PUSH2 0x1678 JUMPI PUSH2 0x100 DUP1 DUP4 SLOAD DIV MUL DUP4 MSTORE SWAP2 PUSH1 0x20 ADD SWAP2 PUSH2 0x16A3 JUMP JUMPDEST DUP3 ADD SWAP2 SWAP1 PUSH1 0x0 MSTORE PUSH1 0x20 PUSH1 0x0 KECCAK256 SWAP1 JUMPDEST DUP2 SLOAD DUP2 MSTORE SWAP1 PUSH1 0x1 ADD SWAP1 PUSH1 0x20 ADD DUP1 DUP4 GT PUSH2 0x1686 JUMPI DUP3 SWAP1 SUB PUSH1 0x1F AND DUP3 ADD SWAP2 JUMPDEST POP POP POP POP POP SWAP7 POP DUP6 DUP1 SLOAD PUSH2 0x16B6 SWAP1 PUSH2 0x22AC JUMP JUMPDEST DUP1 PUSH1 0x1F ADD PUSH1 0x20 DUP1 SWAP2 DIV MUL PUSH1 0x20 ADD PUSH1 0x40 MLOAD SWAP1 DUP2 ADD PUSH1 0x40 MSTORE DUP1 SWAP3 SWAP2 SWAP1 DUP2 DUP2 MSTORE PUSH1 0x20 ADD DUP3 DUP1 SLOAD PUSH2 0x16E2 SWAP1 PUSH2 0x22AC JUMP JUMPDEST DUP1 ISZERO PUSH2 0x172F JUMPI DUP1 PUSH1 0x1F LT PUSH2 0x1704 JUMPI PUSH2 0x100 DUP1 DUP4 SLOAD DIV MUL DUP4 MSTORE SWAP2 PUSH1 0x20 ADD SWAP2 PUSH2 0x172F JUMP JUMPDEST DUP3 ADD SWAP2 SWAP1 PUSH1 0x0 MSTORE PUSH1 0x20 PUSH1 0x0 KECCAK256 SWAP1 JUMPDEST DUP2 SLOAD DUP2 MSTORE SWAP1 PUSH1 0x1 ADD SWAP1 PUSH1 0x20 ADD DUP1 DUP4 GT PUSH2 0x1712 JUMPI DUP3 SWAP1 SUB PUSH1 0x1F AND DUP3 ADD SWAP2 JUMPDEST POP POP POP POP POP SWAP6 POP SWAP10 POP SWAP10 POP SWAP10 POP SWAP10 POP SWAP10 POP SWAP10 POP SWAP10 POP SWAP10 POP POP POP SWAP2 SWAP4 SWAP6 SWAP8 POP SWAP2 SWAP4 SWAP6 SWAP8 JUMP JUMPDEST PUSH2 0x175B PUSH2 0x1B0D JUMP JUMPDEST PUSH1 0x0 DUP5 DUP2 MSTORE PUSH1 0x2 PUSH1 0x20 MSTORE PUSH1 0x40 SWAP1 KECCAK256 SLOAD DUP5 SWAP1 PUSH2 0x1788 JUMPI PUSH1 0x40 MLOAD PUSH3 0x461BCD PUSH1 0xE5 SHL DUP2 MSTORE PUSH1 0x4 ADD PUSH2 0x53F SWAP1 PUSH2 0x2281 JUMP JUMPDEST PUSH1 0x0 DUP5 DUP2 MSTORE PUSH1 0x3 PUSH1 0x20 MSTORE PUSH1 0x40 SWAP1 KECCAK256 SLOAD DUP5 SWAP1 PUSH2 0x17B5 JUMPI PUSH1 0x40 MLOAD PUSH3 0x461BCD PUSH1 0xE5 SHL DUP2 MSTORE PUSH1 0x4 ADD PUSH2 0x53F SWAP1 PUSH2 0x2407 JUMP JUMPDEST PUSH1 0x0 DUP7 DUP2 MSTORE PUSH1 0x2 PUSH1 0x20 MSTORE PUSH1 0x40 SWAP1 KECCAK256 PUSH1 0x5 ADD SLOAD DUP7 SWAP1 PUSH1 0xFF AND PUSH2 0x180F JUMPI PUSH1 0x40 MLOAD PUSH3 0x461BCD PUSH1 0xE5 SHL DUP2 MSTORE PUSH1 0x20 PUSH1 0x4 DUP3 ADD MSTORE PUSH1 0x14 PUSH1 0x24 DUP3 ADD MSTORE PUSH20 0x536F75726365206973206E6F7420616374697665 PUSH1 0x60 SHL PUSH1 0x44 DUP3 ADD MSTORE PUSH1 0x64 ADD PUSH2 0x53F JUMP JUMPDEST PUSH1 0x0 DUP8 DUP2 MSTORE PUSH1 0x2 PUSH1 0x20 SWAP1 DUP2 MSTORE PUSH1 0x40 DUP1 DUP4 KECCAK256 DUP10 DUP5 MSTORE PUSH1 0xC ADD SWAP1 SWAP2 MSTORE SWAP1 KECCAK256 SLOAD PUSH1 0xFF AND PUSH2 0x1885 JUMPI PUSH1 0x40 MLOAD PUSH3 0x461BCD PUSH1 0xE5 SHL DUP2 MSTORE PUSH1 0x20 PUSH1 0x4 DUP3 ADD MSTORE PUSH1 0x21 PUSH1 0x24 DUP3 ADD MSTORE PUSH32 0x446174612074797065206E6F7420737570706F7274656420627920736F757263 PUSH1 0x44 DUP3 ADD MSTORE PUSH1 0x65 PUSH1 0xF8 SHL PUSH1 0x64 DUP3 ADD MSTORE PUSH1 0x84 ADD PUSH2 0x53F JUMP JUMPDEST PUSH1 0x0 DUP8 DUP2 MSTORE PUSH1 0x2 PUSH1 0x20 MSTORE PUSH1 0x40 DUP2 KECCAK256 PUSH1 0x9 DUP2 ADD DUP1 SLOAD SWAP2 SWAP3 PUSH2 0x18A4 DUP4 PUSH2 0x243E JUMP JUMPDEST SWAP1 SWAP2 SSTORE POP POP PUSH1 0x0 DUP8 DUP2 MSTORE PUSH1 0xD DUP3 ADD PUSH1 0x20 MSTORE PUSH1 0x40 SWAP1 KECCAK256 TIMESTAMP SWAP1 SSTORE DUP5 ISZERO PUSH2 0x18DE JUMPI PUSH1 0xA DUP2 ADD DUP1 SLOAD SWAP1 PUSH1 0x0 PUSH2 0x18D4 DUP4 PUSH2 0x243E JUMP JUMPDEST SWAP2 SWAP1 POP SSTORE POP PUSH2 0x18F6 JUMP JUMPDEST PUSH1 0xB DUP2 ADD DUP1 SLOAD SWAP1 PUSH1 0x0 PUSH2 0x18F0 DUP4 PUSH2 0x243E JUMP JUMPDEST SWAP2 SWAP1 POP SSTORE POP JUMPDEST PUSH1 0x0 DUP8 DUP2 MSTORE PUSH1 0x3 PUSH1 0x20 MSTORE PUSH1 0x40 DUP2 KECCAK256 TIMESTAMP PUSH1 0x5 SWAP1 SWAP2 ADD SSTORE PUSH1 0x9 DUP1 SLOAD SWAP2 PUSH2 0x1919 DUP4 PUSH2 0x243E JUMP JUMPDEST SWAP2 SWAP1 POP SSTORE POP DUP6 PUSH1 0x1 PUSH1 0x1 PUSH1 0xA0 SHL SUB AND DUP8 DUP10 PUSH32 0x1567BC0E0B37E348E792076FE4D8E4CA028AA31C3C127AD2F96257A8689B9793 PUSH1 0x40 MLOAD PUSH1 0x40 MLOAD DUP1 SWAP2 SUB SWAP1 LOG4 POP POP POP POP POP POP POP POP JUMP JUMPDEST PUSH2 0x1968 PUSH2 0x1B0D JUMP JUMPDEST PUSH1 0x0 DUP2 DUP2 MSTORE PUSH1 0x2 PUSH1 0x20 MSTORE PUSH1 0x40 SWAP1 KECCAK256 SLOAD DUP2 SWAP1 PUSH2 0x1995 JUMPI PUSH1 0x40 MLOAD PUSH3 0x461BCD PUSH1 0xE5 SHL DUP2 MSTORE PUSH1 0x4 ADD PUSH2 0x53F SWAP1 PUSH2 0x2281 JUMP JUMPDEST PUSH1 0x0 DUP3 DUP2 MSTORE PUSH1 0x2 PUSH1 0x20 MSTORE PUSH1 0x40 SWAP1 KECCAK256 PUSH1 0x5 ADD SLOAD PUSH1 0xFF AND ISZERO PUSH2 0x19EF JUMPI PUSH1 0x40 MLOAD PUSH3 0x461BCD PUSH1 0xE5 SHL DUP2 MSTORE PUSH1 0x20 PUSH1 0x4 DUP3 ADD MSTORE PUSH1 0x15 PUSH1 0x24 DUP3 ADD MSTORE PUSH21 0x536F7572636520616C726561647920616374697665 PUSH1 0x58 SHL PUSH1 0x44 DUP3 ADD MSTORE PUSH1 0x64 ADD PUSH2 0x53F JUMP JUMPDEST PUSH1 0x0 DUP3 DUP2 MSTORE PUSH1 0x2 PUSH1 0x20 MSTORE PUSH1 0x40 DUP1 DUP3 KECCAK256 PUSH1 0x5 DUP2 ADD DUP1 SLOAD PUSH1 0xFF NOT AND PUSH1 0x1 OR SWAP1 SSTORE TIMESTAMP PUSH1 0x7 SWAP1 SWAP2 ADD SSTORE MLOAD DUP4 SWAP2 PUSH32 0x2D7EA000E389F3166A25668C58F1EDB7DA9E3F55D691745984C53E78147DE1FD SWAP2 LOG2 POP POP JUMP JUMPDEST PUSH2 0x1A46 PUSH2 0x1B0D JUMP JUMPDEST PUSH1 0x1 PUSH1 0x1 PUSH1 0xA0 SHL SUB DUP2 AND PUSH2 0x1AAB JUMPI PUSH1 0x40 MLOAD PUSH3 0x461BCD PUSH1 0xE5 SHL DUP2 MSTORE PUSH1 0x20 PUSH1 0x4 DUP3 ADD MSTORE PUSH1 0x26 PUSH1 0x24 DUP3 ADD MSTORE PUSH32 0x4F776E61626C653A206E6577206F776E657220697320746865207A65726F2061 PUSH1 0x44 DUP3 ADD MSTORE PUSH6 0x646472657373 PUSH1 0xD0 SHL PUSH1 0x64 DUP3 ADD MSTORE PUSH1 0x84 ADD PUSH2 0x53F JUMP JUMPDEST PUSH2 0x1AB4 DUP2 PUSH2 0x1BBC JUMP JUMPDEST POP JUMP JUMPDEST PUSH1 0x60 PUSH1 0x6 DUP1 SLOAD DUP1 PUSH1 0x20 MUL PUSH1 0x20 ADD PUSH1 0x40 MLOAD SWAP1 DUP2 ADD PUSH1 0x40 MSTORE DUP1 SWAP3 SWAP2 SWAP1 DUP2 DUP2 MSTORE PUSH1 0x20 ADD DUP3 DUP1 SLOAD DUP1 ISZERO PUSH2 0x500 JUMPI PUSH1 0x20 MUL DUP3 ADD SWAP2 SWAP1 PUSH1 0x0 MSTORE PUSH1 0x20 PUSH1 0x0 KECCAK256 SWAP1 DUP2 SLOAD DUP2 MSTORE PUSH1 0x20 ADD SWAP1 PUSH1 0x1 ADD SWAP1 DUP1 DUP4 GT PUSH2 0x4EC JUMPI POP POP POP POP POP SWAP1 POP SWAP1 JUMP JUMPDEST PUSH1 0x0 SLOAD PUSH1 0x1 PUSH1 0x1 PUSH1 0xA0 SHL SUB AND CALLER EQ PUSH2 0xA6C JUMPI PUSH1 0x40 MLOAD PUSH3 0x461BCD PUSH1 0xE5 SHL DUP2 MSTORE PUSH1 0x20 PUSH1 0x4 DUP3 ADD DUP2 SWAP1 MSTORE PUSH1 0x24 DUP3 ADD MSTORE PUSH32 0x4F776E61626C653A2063616C6C6572206973206E6F7420746865206F776E6572 PUSH1 0x44 DUP3 ADD MSTORE PUSH1 0x64 ADD PUSH2 0x53F JUMP JUMPDEST PUSH2 0x1B6F PUSH2 0x1CF5 JUMP JUMPDEST PUSH1 0x0 DUP1 SLOAD PUSH1 0xFF PUSH1 0xA0 SHL NOT AND SWAP1 SSTORE PUSH32 0x5DB9EE0A495BF2E6FF9C91A7834C1BA4FDD244A5E8AA4E537BD38AEAE4B073AA CALLER JUMPDEST PUSH1 0x40 MLOAD PUSH1 0x1 PUSH1 0x1 PUSH1 0xA0 SHL SUB SWAP1 SWAP2 AND DUP2 MSTORE PUSH1 0x20 ADD PUSH1 0x40 MLOAD DUP1 SWAP2 SUB SWAP1 LOG1 JUMP JUMPDEST PUSH1 0x0 DUP1 SLOAD PUSH1 0x1 PUSH1 0x1 PUSH1 0xA0 SHL SUB DUP4 DUP2 AND PUSH1 0x1 PUSH1 0x1 PUSH1 0xA0 SHL SUB NOT DUP4 AND DUP2 OR DUP5 SSTORE PUSH1 0x40 MLOAD SWAP2 SWAP1 SWAP3 AND SWAP3 DUP4 SWAP2 PUSH32 0x8BE0079C531659141344CD1FD0A4F28419497F9722A3DAAFE3B4186F6B6457E0 SWAP2 SWAP1 LOG3 POP POP JUMP JUMPDEST PUSH2 0x1C14 PUSH2 0x1C4F JUMP JUMPDEST PUSH1 0x0 DUP1 SLOAD PUSH1 0xFF PUSH1 0xA0 SHL NOT AND PUSH1 0x1 PUSH1 0xA0 SHL OR SWAP1 SSTORE PUSH32 0x62E78CEA01BEE320CD4E420270B5EA74000D11B0C9F74754EBDBFC544B05A258 PUSH2 0x1B9F CALLER SWAP1 JUMP JUMPDEST PUSH1 0x0 SLOAD PUSH1 0x1 PUSH1 0xA0 SHL SWAP1 DIV PUSH1 0xFF AND ISZERO PUSH2 0xA6C JUMPI PUSH1 0x40 MLOAD PUSH3 0x461BCD PUSH1 0xE5 SHL DUP2 MSTORE PUSH1 0x20 PUSH1 0x4 DUP3 ADD MSTORE PUSH1 0x10 PUSH1 0x24 DUP3 ADD MSTORE PUSH16 0x14185D5CD8589B194E881C185D5CD959 PUSH1 0x82 SHL PUSH1 0x44 DUP3 ADD MSTORE PUSH1 0x64 ADD PUSH2 0x53F JUMP JUMPDEST PUSH1 0x2 PUSH1 0x1 SLOAD SUB PUSH2 0x1CEE JUMPI PUSH1 0x40 MLOAD PUSH3 0x461BCD PUSH1 0xE5 SHL DUP2 MSTORE PUSH1 0x20 PUSH1 0x4 DUP3 ADD MSTORE PUSH1 0x1F PUSH1 0x24 DUP3 ADD MSTORE PUSH32 0x5265656E7472616E637947756172643A207265656E7472616E742063616C6C00 PUSH1 0x44 DUP3 ADD MSTORE PUSH1 0x64 ADD PUSH2 0x53F JUMP JUMPDEST PUSH1 0x2 PUSH1 0x1 SSTORE JUMP JUMPDEST PUSH1 0x0 SLOAD PUSH1 0x1 PUSH1 0xA0 SHL SWAP1 DIV PUSH1 0xFF AND PUSH2 0xA6C JUMPI PUSH1 0x40 MLOAD PUSH3 0x461BCD PUSH1 0xE5 SHL DUP2 MSTORE PUSH1 0x20 PUSH1 0x4 DUP3 ADD MSTORE PUSH1 0x14 PUSH1 0x24 DUP3 ADD MSTORE PUSH20 0x14185D5CD8589B194E881B9BDD081C185D5CD959 PUSH1 0x62 SHL PUSH1 0x44 DUP3 ADD MSTORE PUSH1 0x64 ADD PUSH2 0x53F JUMP JUMPDEST PUSH1 0x20 DUP1 DUP3 MSTORE DUP3 MLOAD DUP3 DUP3 ADD DUP2 SWAP1 MSTORE PUSH1 0x0 SWAP2 SWAP1 DUP5 DUP3 ADD SWAP1 PUSH1 0x40 DUP6 ADD SWAP1 DUP5 JUMPDEST DUP2 DUP2 LT ISZERO PUSH2 0x1D7D JUMPI DUP4 MLOAD DUP4 MSTORE SWAP3 DUP5 ADD SWAP3 SWAP2 DUP5 ADD SWAP2 PUSH1 0x1 ADD PUSH2 0x1D61 JUMP JUMPDEST POP SWAP1 SWAP7 SWAP6 POP POP POP POP POP POP JUMP JUMPDEST PUSH4 0x4E487B71 PUSH1 0xE0 SHL PUSH1 0x0 MSTORE PUSH1 0x41 PUSH1 0x4 MSTORE PUSH1 0x24 PUSH1 0x0 REVERT JUMPDEST PUSH1 0x0 DUP3 PUSH1 0x1F DUP4 ADD SLT PUSH2 0x1DB0 JUMPI PUSH1 0x0 DUP1 REVERT JUMPDEST DUP2 CALLDATALOAD PUSH8 0xFFFFFFFFFFFFFFFF DUP1 DUP3 GT ISZERO PUSH2 0x1DCB JUMPI PUSH2 0x1DCB PUSH2 0x1D89 JUMP JUMPDEST PUSH1 0x40 MLOAD PUSH1 0x1F DUP4 ADD PUSH1 0x1F NOT SWAP1 DUP2 AND PUSH1 0x3F ADD AND DUP2 ADD SWAP1 DUP3 DUP3 GT DUP2 DUP4 LT OR ISZERO PUSH2 0x1DF3 JUMPI PUSH2 0x1DF3 PUSH2 0x1D89 JUMP JUMPDEST DUP2 PUSH1 0x40 MSTORE DUP4 DUP2 MSTORE DUP7 PUSH1 0x20 DUP6 DUP9 ADD ADD GT ISZERO PUSH2 0x1E0C JUMPI PUSH1 0x0 DUP1 REVERT JUMPDEST DUP4 PUSH1 0x20 DUP8 ADD PUSH1 0x20 DUP4 ADD CALLDATACOPY PUSH1 0x0 PUSH1 0x20 DUP6 DUP4 ADD ADD MSTORE DUP1 SWAP5 POP POP POP POP POP SWAP3 SWAP2 POP POP JUMP JUMPDEST PUSH1 0x0 DUP1 PUSH1 0x0 DUP1 PUSH1 0x80 DUP6 DUP8 SUB SLT ISZERO PUSH2 0x1E42 JUMPI PUSH1 0x0 DUP1 REVERT JUMPDEST DUP5 CALLDATALOAD SWAP4 POP PUSH1 0x20 DUP6 ADD CALLDATALOAD PUSH8 0xFFFFFFFFFFFFFFFF DUP1 DUP3 GT ISZERO PUSH2 0x1E61 JUMPI PUSH1 0x0 DUP1 REVERT JUMPDEST PUSH2 0x1E6D DUP9 DUP4 DUP10 ADD PUSH2 0x1D9F JUMP JUMPDEST SWAP5 POP PUSH1 0x40 DUP8 ADD CALLDATALOAD SWAP2 POP DUP1 DUP3 GT ISZERO PUSH2 0x1E83 JUMPI PUSH1 0x0 DUP1 REVERT JUMPDEST PUSH2 0x1E8F DUP9 DUP4 DUP10 ADD PUSH2 0x1D9F JUMP JUMPDEST SWAP4 POP PUSH1 0x60 DUP8 ADD CALLDATALOAD SWAP2 POP DUP1 DUP3 GT ISZERO PUSH2 0x1EA5 JUMPI PUSH1 0x0 DUP1 REVERT JUMPDEST POP PUSH2 0x1EB2 DUP8 DUP3 DUP9 ADD PUSH2 0x1D9F JUMP JUMPDEST SWAP2 POP POP SWAP3 SWAP6 SWAP2 SWAP5 POP SWAP3 POP JUMP JUMPDEST PUSH1 0x0 PUSH1 0x20 DUP3 DUP5 SUB SLT ISZERO PUSH2 0x1ED0 JUMPI PUSH1 0x0 DUP1 REVERT JUMPDEST POP CALLDATALOAD SWAP2 SWAP1 POP JUMP JUMPDEST PUSH1 0x0 DUP2 MLOAD DUP1 DUP5 MSTORE PUSH1 0x0 JUMPDEST DUP2 DUP2 LT ISZERO PUSH2 0x1EFD JUMPI PUSH1 0x20 DUP2 DUP6 ADD DUP2 ADD MLOAD DUP7 DUP4 ADD DUP3 ADD MSTORE ADD PUSH2 0x1EE1 JUMP JUMPDEST POP PUSH1 0x0 PUSH1 0x20 DUP3 DUP7 ADD ADD MSTORE PUSH1 0x20 PUSH1 0x1F NOT PUSH1 0x1F DUP4 ADD AND DUP6 ADD ADD SWAP2 POP POP SWAP3 SWAP2 POP POP JUMP JUMPDEST PUSH1 0xA0 DUP2 MSTORE PUSH1 0x0 PUSH2 0x1F30 PUSH1 0xA0 DUP4 ADD DUP9 PUSH2 0x1ED7 JUMP JUMPDEST DUP3 DUP2 SUB PUSH1 0x20 DUP5 ADD MSTORE PUSH2 0x1F42 DUP2 DUP9 PUSH2 0x1ED7 JUMP JUMPDEST SWAP6 ISZERO ISZERO PUSH1 0x40 DUP5 ADD MSTORE POP POP PUSH1 0x60 DUP2 ADD SWAP3 SWAP1 SWAP3 MSTORE PUSH1 0x80 SWAP1 SWAP2 ADD MSTORE SWAP3 SWAP2 POP POP JUMP JUMPDEST PUSH1 0x0 PUSH2 0x180 DUP15 DUP4 MSTORE DUP1 PUSH1 0x20 DUP5 ADD MSTORE PUSH2 0x1F7A DUP2 DUP5 ADD DUP16 PUSH2 0x1ED7 JUMP JUMPDEST SWAP1 POP DUP3 DUP2 SUB PUSH1 0x40 DUP5 ADD MSTORE PUSH2 0x1F8E DUP2 DUP15 PUSH2 0x1ED7 JUMP JUMPDEST SWAP1 POP DUP3 DUP2 SUB PUSH1 0x60 DUP5 ADD MSTORE PUSH2 0x1FA2 DUP2 DUP14 PUSH2 0x1ED7 JUMP JUMPDEST PUSH1 0x80 DUP5 ADD SWAP12 SWAP1 SWAP12 MSTORE POP POP SWAP7 ISZERO ISZERO PUSH1 0xA0 DUP9 ADD MSTORE PUSH1 0xC0 DUP8 ADD SWAP6 SWAP1 SWAP6 MSTORE PUSH1 0xE0 DUP7 ADD SWAP4 SWAP1 SWAP4 MSTORE PUSH1 0x1 PUSH1 0x1 PUSH1 0xA0 SHL SUB SWAP2 SWAP1 SWAP2 AND PUSH2 0x100 DUP6 ADD MSTORE PUSH2 0x120 DUP5 ADD MSTORE PUSH2 0x140 DUP4 ADD MSTORE PUSH2 0x160 SWAP1 SWAP2 ADD MSTORE SWAP5 SWAP4 POP POP POP POP JUMP JUMPDEST PUSH1 0x0 DUP1 PUSH1 0x40 DUP4 DUP6 SUB SLT ISZERO PUSH2 0x2004 JUMPI PUSH1 0x0 DUP1 REVERT JUMPDEST POP POP DUP1 CALLDATALOAD SWAP3 PUSH1 0x20 SWAP1 SWAP2 ADD CALLDATALOAD SWAP2 POP JUMP JUMPDEST DUP1 CALLDATALOAD PUSH1 0x1 PUSH1 0x1 PUSH1 0xA0 SHL SUB DUP2 AND DUP2 EQ PUSH2 0x202A JUMPI PUSH1 0x0 DUP1 REVERT JUMPDEST SWAP2 SWAP1 POP JUMP JUMPDEST PUSH1 0x0 DUP1 PUSH1 0x40 DUP4 DUP6 SUB SLT ISZERO PUSH2 0x2042 JUMPI PUSH1 0x0 DUP1 REVERT JUMPDEST PUSH2 0x204B DUP4 PUSH2 0x2013 JUMP JUMPDEST SWAP5 PUSH1 0x20 SWAP4 SWAP1 SWAP4 ADD CALLDATALOAD SWAP4 POP POP POP JUMP JUMPDEST PUSH1 0x0 DUP1 PUSH1 0x0 PUSH1 0x60 DUP5 DUP7 SUB SLT ISZERO PUSH2 0x206E JUMPI PUSH1 0x0 DUP1 REVERT JUMPDEST DUP4 CALLDATALOAD SWAP3 POP PUSH1 0x20 DUP5 ADD CALLDATALOAD PUSH8 0xFFFFFFFFFFFFFFFF DUP1 DUP3 GT ISZERO PUSH2 0x208D JUMPI PUSH1 0x0 DUP1 REVERT JUMPDEST PUSH2 0x2099 DUP8 DUP4 DUP9 ADD PUSH2 0x1D9F JUMP JUMPDEST SWAP4 POP PUSH1 0x40 DUP7 ADD CALLDATALOAD SWAP2 POP DUP1 DUP3 GT ISZERO PUSH2 0x20AF JUMPI PUSH1 0x0 DUP1 REVERT JUMPDEST POP PUSH2 0x20BC DUP7 DUP3 DUP8 ADD PUSH2 0x1D9F JUMP JUMPDEST SWAP2 POP POP SWAP3 POP SWAP3 POP SWAP3 JUMP JUMPDEST PUSH1 0x0 DUP1 PUSH1 0x0 DUP1 PUSH1 0x0 PUSH1 0xA0 DUP7 DUP9 SUB SLT ISZERO PUSH2 0x20DE JUMPI PUSH1 0x0 DUP1 REVERT JUMPDEST DUP6 CALLDATALOAD SWAP5 POP PUSH1 0x20 DUP7 ADD CALLDATALOAD PUSH8 0xFFFFFFFFFFFFFFFF DUP1 DUP3 GT ISZERO PUSH2 0x20FD JUMPI PUSH1 0x0 DUP1 REVERT JUMPDEST PUSH2 0x2109 DUP10 DUP4 DUP11 ADD PUSH2 0x1D9F JUMP JUMPDEST SWAP6 POP PUSH1 0x40 DUP9 ADD CALLDATALOAD SWAP2 POP DUP1 DUP3 GT ISZERO PUSH2 0x211F JUMPI PUSH1 0x0 DUP1 REVERT JUMPDEST PUSH2 0x212B DUP10 DUP4 DUP11 ADD PUSH2 0x1D9F JUMP JUMPDEST SWAP5 POP PUSH1 0x60 DUP9 ADD CALLDATALOAD SWAP2 POP DUP1 DUP3 GT ISZERO PUSH2 0x2141 JUMPI PUSH1 0x0 DUP1 REVERT JUMPDEST POP PUSH2 0x214E DUP9 DUP3 DUP10 ADD PUSH2 0x1D9F JUMP JUMPDEST SWAP6 SWAP9 SWAP5 SWAP8 POP SWAP3 SWAP6 PUSH1 0x80 ADD CALLDATALOAD SWAP4 SWAP3 POP POP POP JUMP JUMPDEST DUP7 DUP2 MSTORE PUSH1 0xC0 PUSH1 0x20 DUP3 ADD MSTORE PUSH1 0x0 PUSH2 0x2179 PUSH1 0xC0 DUP4 ADD DUP9 PUSH2 0x1ED7 JUMP JUMPDEST DUP3 DUP2 SUB PUSH1 0x40 DUP5 ADD MSTORE PUSH2 0x218B DUP2 DUP9 PUSH2 0x1ED7 JUMP JUMPDEST SWAP6 ISZERO ISZERO PUSH1 0x60 DUP5 ADD MSTORE POP POP PUSH1 0x80 DUP2 ADD SWAP3 SWAP1 SWAP3 MSTORE PUSH1 0xA0 SWAP1 SWAP2 ADD MSTORE SWAP4 SWAP3 POP POP POP JUMP JUMPDEST PUSH1 0x0 PUSH2 0x100 DUP1 DUP4 MSTORE PUSH2 0x21BE DUP2 DUP5 ADD DUP13 PUSH2 0x1ED7 JUMP JUMPDEST SWAP1 POP DUP3 DUP2 SUB PUSH1 0x20 DUP5 ADD MSTORE PUSH2 0x21D2 DUP2 DUP12 PUSH2 0x1ED7 JUMP JUMPDEST SWAP1 POP DUP3 DUP2 SUB PUSH1 0x40 DUP5 ADD MSTORE PUSH2 0x21E6 DUP2 DUP11 PUSH2 0x1ED7 JUMP JUMPDEST SWAP8 ISZERO ISZERO PUSH1 0x60 DUP5 ADD MSTORE POP POP PUSH1 0x80 DUP2 ADD SWAP5 SWAP1 SWAP5 MSTORE PUSH1 0xA0 DUP5 ADD SWAP3 SWAP1 SWAP3 MSTORE PUSH1 0xC0 DUP4 ADD MSTORE PUSH1 0xE0 SWAP1 SWAP2 ADD MSTORE SWAP4 SWAP3 POP POP POP JUMP JUMPDEST PUSH1 0x0 DUP1 PUSH1 0x0 DUP1 PUSH1 0x80 DUP6 DUP8 SUB SLT ISZERO PUSH2 0x2228 JUMPI PUSH1 0x0 DUP1 REVERT JUMPDEST DUP5 CALLDATALOAD SWAP4 POP PUSH1 0x20 DUP6 ADD CALLDATALOAD SWAP3 POP PUSH2 0x223F PUSH1 0x40 DUP7 ADD PUSH2 0x2013 JUMP JUMPDEST SWAP2 POP PUSH1 0x60 DUP6 ADD CALLDATALOAD DUP1 ISZERO ISZERO DUP2 EQ PUSH2 0x2254 JUMPI PUSH1 0x0 DUP1 REVERT JUMPDEST SWAP4 SWAP7 SWAP3 SWAP6 POP SWAP1 SWAP4 POP POP JUMP JUMPDEST PUSH1 0x0 PUSH1 0x20 DUP3 DUP5 SUB SLT ISZERO PUSH2 0x2271 JUMPI PUSH1 0x0 DUP1 REVERT JUMPDEST PUSH2 0x227A DUP3 PUSH2 0x2013 JUMP JUMPDEST SWAP4 SWAP3 POP POP POP JUMP JUMPDEST PUSH1 0x20 DUP1 DUP3 MSTORE PUSH1 0x11 SWAP1 DUP3 ADD MSTORE PUSH17 0x125B9D985B1A59081CDBDD5C98D9481251 PUSH1 0x7A SHL PUSH1 0x40 DUP3 ADD MSTORE PUSH1 0x60 ADD SWAP1 JUMP JUMPDEST PUSH1 0x1 DUP2 DUP2 SHR SWAP1 DUP3 AND DUP1 PUSH2 0x22C0 JUMPI PUSH1 0x7F DUP3 AND SWAP2 POP JUMPDEST PUSH1 0x20 DUP3 LT DUP2 SUB PUSH2 0x22E0 JUMPI PUSH4 0x4E487B71 PUSH1 0xE0 SHL PUSH1 0x0 MSTORE PUSH1 0x22 PUSH1 0x4 MSTORE PUSH1 0x24 PUSH1 0x0 REVERT JUMPDEST POP SWAP2 SWAP1 POP JUMP JUMPDEST PUSH1 0x1F DUP3 GT ISZERO PUSH2 0xE5E JUMPI PUSH1 0x0 DUP2 DUP2 MSTORE PUSH1 0x20 DUP2 KECCAK256 PUSH1 0x1F DUP6 ADD PUSH1 0x5 SHR DUP2 ADD PUSH1 0x20 DUP7 LT ISZERO PUSH2 0x230D JUMPI POP DUP1 JUMPDEST PUSH1 0x1F DUP6 ADD PUSH1 0x5 SHR DUP3 ADD SWAP2 POP JUMPDEST DUP2 DUP2 LT ISZERO PUSH2 0x232C JUMPI DUP3 DUP2 SSTORE PUSH1 0x1 ADD PUSH2 0x2319 JUMP JUMPDEST POP POP POP POP POP POP JUMP JUMPDEST DUP2 MLOAD PUSH8 0xFFFFFFFFFFFFFFFF DUP2 GT ISZERO PUSH2 0x234E JUMPI PUSH2 0x234E PUSH2 0x1D89 JUMP JUMPDEST PUSH2 0x2362 DUP2 PUSH2 0x235C DUP5 SLOAD PUSH2 0x22AC JUMP JUMPDEST DUP5 PUSH2 0x22E6 JUMP JUMPDEST PUSH1 0x20 DUP1 PUSH1 0x1F DUP4 GT PUSH1 0x1 DUP2 EQ PUSH2 0x2397 JUMPI PUSH1 0x0 DUP5 ISZERO PUSH2 0x237F JUMPI POP DUP6 DUP4 ADD MLOAD JUMPDEST PUSH1 0x0 NOT PUSH1 0x3 DUP7 SWAP1 SHL SHR NOT AND PUSH1 0x1 DUP6 SWAP1 SHL OR DUP6 SSTORE PUSH2 0x232C JUMP JUMPDEST PUSH1 0x0 DUP6 DUP2 MSTORE PUSH1 0x20 DUP2 KECCAK256 PUSH1 0x1F NOT DUP7 AND SWAP2 JUMPDEST DUP3 DUP2 LT ISZERO PUSH2 0x23C6 JUMPI DUP9 DUP7 ADD MLOAD DUP3 SSTORE SWAP5 DUP5 ADD SWAP5 PUSH1 0x1 SWAP1 SWAP2 ADD SWAP1 DUP5 ADD PUSH2 0x23A7 JUMP JUMPDEST POP DUP6 DUP3 LT ISZERO PUSH2 0x23E4 JUMPI DUP8 DUP6 ADD MLOAD PUSH1 0x0 NOT PUSH1 0x3 DUP9 SWAP1 SHL PUSH1 0xF8 AND SHR NOT AND DUP2 SSTORE JUMPDEST POP POP POP POP POP PUSH1 0x1 SWAP1 DUP2 SHL ADD SWAP1 SSTORE POP JUMP JUMPDEST PUSH1 0x20 DUP2 MSTORE PUSH1 0x0 PUSH2 0x227A PUSH1 0x20 DUP4 ADD DUP5 PUSH2 0x1ED7 JUMP JUMPDEST PUSH1 0x20 DUP1 DUP3 MSTORE PUSH1 0x18 SWAP1 DUP3 ADD MSTORE PUSH32 0x44617461207479706520646F6573206E6F742065786973740000000000000000 PUSH1 0x40 DUP3 ADD MSTORE PUSH1 0x60 ADD SWAP1 JUMP JUMPDEST PUSH1 0x0 PUSH1 0x1 DUP3 ADD PUSH2 0x245E JUMPI PUSH4 0x4E487B71 PUSH1 0xE0 SHL PUSH1 0x0 MSTORE PUSH1 0x11 PUSH1 0x4 MSTORE PUSH1 0x24 PUSH1 0x0 REVERT JUMPDEST POP PUSH1 0x1 ADD SWAP1 JUMP INVALID LOG2 PUSH5 0x6970667358 0x22 SLT KECCAK256 SHL PUSH9 0x7A43D3BB9101F5C76B 0xD5 BALANCE 0xCD 0xEA SWAP16 0xBF PREVRANDAO MOD MSTORE8 0xC6 PREVRANDAO CREATE 0xEC 0xD1 0xEE DUP14 MLOAD 0xB4 SGT DUP4 0xCE PUSH5 0x736F6C6343 STOP ADDMOD EQ STOP CALLER "},"methodIdentifiers":{"addDataSource(bytes32,string,string,string,bytes32)":"b4e2dc4c","addDataType(bytes32,string,string)":"946aa5b6","addDataTypeSupport(bytes32,bytes32)":"5153c98c","allDataTypeIds(uint256)":"595f81e6","allSourceIds(uint256)":"66c94c3b","authorizedSources(address,uint256)":"6f348057","dataSources(bytes32)":"3a93b271","dataTypes(bytes32)":"d10c4f34","deactivateDataSource(bytes32)":"cf2bfc72","getAllDataTypeIds()":"f69426e9","getAllSourceIds()":"19367e31","getContractStats()":"dfe6b5d6","getDataSource(bytes32)":"d28b669d","getDataSourceStats(bytes32)":"3bf6fc2e","getDataType(bytes32)":"31502f13","isDataSourceActive(bytes32)":"f8c2ba47","isDataTypeSupported(bytes32,bytes32)":"79eeeb90","owner()":"8da5cb5b","pause()":"8456cb59","paused()":"5c975abb","reactivateDataSource(bytes32)":"e73d2441","recordDataRequest(bytes32,bytes32,address,bool)":"dbc65e92","removeDataTypeSupport(bytes32,bytes32)":"9f70c906","renounceOwnership()":"715018a6","totalDataSources()":"43a4a1ec","totalDataTypes()":"62b5dfd1","totalRequests()":"8aea61dc","transferOwnership(address)":"f2fde38b","unpause()":"3f4ba83a","updateDataSource(bytes32,string,string,string)":"24c73ab2","updateDataType(bytes32,string,string)":"9ced2f92"}}}}}