{
  "_format": "hh-sol-artifact-1",
  "contractName": "ScoreSBT",
  "sourceName": "src/ScoreSBT.sol",
  "abi": [
    {
      "inputs": [],
      "stateMutability": "nonpayable",
      "type": "constructor"
    },
    {
      "anonymous": false,
      "inputs": [
        {
          "indexed": true,
          "internalType": "address",
          "name": "owner",
          "type": "address"
        },
        {
          "indexed": true,
          "internalType": "address",
          "name": "approved",
          "type": "address"
        },
        {
          "indexed": true,
          "internalType": "uint256",
          "name": "tokenId",
          "type": "uint256"
        }
      ],
      "name": "Approval",
      "type": "event"
    },
    {
      "anonymous": false,
      "inputs": [
        {
          "indexed": true,
          "internalType": "address",
          "name": "owner",
          "type": "address"
        },
        {
          "indexed": true,
          "internalType": "address",
          "name": "operator",
          "type": "address"
        },
        {
          "indexed": false,
          "internalType": "bool",
          "name": "approved",
          "type": "bool"
        }
      ],
      "name": "ApprovalForAll",
      "type": "event"
    },
    {
      "anonymous": false,
      "inputs": [
        {
          "indexed": true,
          "internalType": "address",
          "name": "previousOwner",
          "type": "address"
        },
        {
          "indexed": true,
          "internalType": "address",
          "name": "newOwner",
          "type": "address"
        }
      ],
      "name": "OwnershipTransferred",
      "type": "event"
    },
    {
      "anonymous": false,
      "inputs": [
        {
          "indexed": true,
          "internalType": "uint256",
          "name": "tokenId",
          "type": "uint256"
        },
        {
          "indexed": true,
          "internalType": "address",
          "name": "userAddress",
          "type": "address"
        },
        {
          "indexed": false,
          "internalType": "bytes32",
          "name": "scoreHash",
          "type": "bytes32"
        }
      ],
      "name": "PassportMinted",
      "type": "event"
    },
    {
      "anonymous": false,
      "inputs": [
        {
          "indexed": true,
          "internalType": "uint256",
          "name": "tokenId",
          "type": "uint256"
        },
        {
          "indexed": true,
          "internalType": "address",
          "name": "userAddress",
          "type": "address"
        },
        {
          "indexed": false,
          "internalType": "bytes32",
          "name": "newScoreHash",
          "type": "bytes32"
        }
      ],
      "name": "PassportRenewed",
      "type": "event"
    },
    {
      "anonymous": false,
      "inputs": [
        {
          "indexed": true,
          "internalType": "uint256",
          "name": "tokenId",
          "type": "uint256"
        },
        {
          "indexed": true,
          "internalType": "address",
          "name": "userAddress",
          "type": "address"
        }
      ],
      "name": "PassportRevoked",
      "type": "event"
    },
    {
      "anonymous": false,
      "inputs": [
        {
          "indexed": false,
          "internalType": "address",
          "name": "account",
          "type": "address"
        }
      ],
      "name": "Paused",
      "type": "event"
    },
    {
      "anonymous": false,
      "inputs": [
        {
          "indexed": true,
          "internalType": "address",
          "name": "from",
          "type": "address"
        },
        {
          "indexed": true,
          "internalType": "address",
          "name": "to",
          "type": "address"
        },
        {
          "indexed": true,
          "internalType": "uint256",
          "name": "tokenId",
          "type": "uint256"
        }
      ],
      "name": "Transfer",
      "type": "event"
    },
    {
      "anonymous": false,
      "inputs": [
        {
          "indexed": false,
          "internalType": "address",
          "name": "account",
          "type": "address"
        }
      ],
      "name": "Unpaused",
      "type": "event"
    },
    {
      "inputs": [],
      "name": "activePassports",
      "outputs": [
        {
          "internalType": "uint256",
          "name": "",
          "type": "uint256"
        }
      ],
      "stateMutability": "view",
      "type": "function"
    },
    {
      "inputs": [
        {
          "internalType": "address",
          "name": "to",
          "type": "address"
        },
        {
          "internalType": "uint256",
          "name": "tokenId",
          "type": "uint256"
        }
      ],
      "name": "approve",
      "outputs": [],
      "stateMutability": "nonpayable",
      "type": "function"
    },
    {
      "inputs": [
        {
          "internalType": "address",
          "name": "owner",
          "type": "address"
        }
      ],
      "name": "balanceOf",
      "outputs": [
        {
          "internalType": "uint256",
          "name": "",
          "type": "uint256"
        }
      ],
      "stateMutability": "view",
      "type": "function"
    },
    {
      "inputs": [
        {
          "internalType": "uint256",
          "name": "tokenId",
          "type": "uint256"
        }
      ],
      "name": "getApproved",
      "outputs": [
        {
          "internalType": "address",
          "name": "",
          "type": "address"
        }
      ],
      "stateMutability": "view",
      "type": "function"
    },
    {
      "inputs": [],
      "name": "getContractStats",
      "outputs": [
        {
          "internalType": "uint256",
          "name": "_totalPassports",
          "type": "uint256"
        },
        {
          "internalType": "uint256",
          "name": "_activePassports",
          "type": "uint256"
        }
      ],
      "stateMutability": "view",
      "type": "function"
    },
    {
      "inputs": [
        {
          "internalType": "uint256",
          "name": "_tokenId",
          "type": "uint256"
        }
      ],
      "name": "getPassport",
      "outputs": [
        {
          "internalType": "address",
          "name": "userAddress",
          "type": "address"
        },
        {
          "internalType": "bytes32",
          "name": "scoreHash",
          "type": "bytes32"
        },
        {
          "internalType": "uint256",
          "name": "scoreTimestamp",
          "type": "uint256"
        },
        {
          "internalType": "uint256",
          "name": "validUntil",
          "type": "uint256"
        },
        {
          "internalType": "string",
          "name": "metadataURI",
          "type": "string"
        },
        {
          "internalType": "bool",
          "name": "isActive",
          "type": "bool"
        }
      ],
      "stateMutability": "view",
      "type": "function"
    },
    {
      "inputs": [
        {
          "internalType": "bytes32",
          "name": "_scoreHash",
          "type": "bytes32"
        }
      ],
      "name": "getTokenIdByScoreHash",
      "outputs": [
        {
          "internalType": "uint256",
          "name": "",
          "type": "uint256"
        }
      ],
      "stateMutability": "view",
      "type": "function"
    },
    {
      "inputs": [
        {
          "internalType": "address",
          "name": "_userAddress",
          "type": "address"
        }
      ],
      "name": "getUserPassports",
      "outputs": [
        {
          "internalType": "uint256[]",
          "name": "",
          "type": "uint256[]"
        }
      ],
      "stateMutability": "view",
      "type": "function"
    },
    {
      "inputs": [
        {
          "internalType": "address",
          "name": "owner",
          "type": "address"
        },
        {
          "internalType": "address",
          "name": "operator",
          "type": "address"
        }
      ],
      "name": "isApprovedForAll",
      "outputs": [
        {
          "internalType": "bool",
          "name": "",
          "type": "bool"
        }
      ],
      "stateMutability": "view",
      "type": "function"
    },
    {
      "inputs": [
        {
          "internalType": "uint256",
          "name": "_tokenId",
          "type": "uint256"
        }
      ],
      "name": "isPassportValid",
      "outputs": [
        {
          "internalType": "bool",
          "name": "",
          "type": "bool"
        }
      ],
      "stateMutability": "view",
      "type": "function"
    },
    {
      "inputs": [
        {
          "internalType": "address",
          "name": "_userAddress",
          "type": "address"
        },
        {
          "internalType": "bytes32",
          "name": "_scoreHash",
          "type": "bytes32"
        },
        {
          "internalType": "uint256",
          "name": "_validUntil",
          "type": "uint256"
        },
        {
          "internalType": "string",
          "name": "_metadataURI",
          "type": "string"
        }
      ],
      "name": "mintPassport",
      "outputs": [
        {
          "internalType": "uint256",
          "name": "",
          "type": "uint256"
        }
      ],
      "stateMutability": "nonpayable",
      "type": "function"
    },
    {
      "inputs": [],
      "name": "name",
      "outputs": [
        {
          "internalType": "string",
          "name": "",
          "type": "string"
        }
      ],
      "stateMutability": "view",
      "type": "function"
    },
    {
      "inputs": [],
      "name": "owner",
      "outputs": [
        {
          "internalType": "address",
          "name": "",
          "type": "address"
        }
      ],
      "stateMutability": "view",
      "type": "function"
    },
    {
      "inputs": [
        {
          "internalType": "uint256",
          "name": "tokenId",
          "type": "uint256"
        }
      ],
      "name": "ownerOf",
      "outputs": [
        {
          "internalType": "address",
          "name": "",
          "type": "address"
        }
      ],
      "stateMutability": "view",
      "type": "function"
    },
    {
      "inputs": [
        {
          "internalType": "uint256",
          "name": "",
          "type": "uint256"
        }
      ],
      "name": "passports",
      "outputs": [
        {
          "internalType": "uint256",
          "name": "tokenId",
          "type": "uint256"
        },
        {
          "internalType": "address",
          "name": "userAddress",
          "type": "address"
        },
        {
          "internalType": "bytes32",
          "name": "scoreHash",
          "type": "bytes32"
        },
        {
          "internalType": "uint256",
          "name": "scoreTimestamp",
          "type": "uint256"
        },
        {
          "internalType": "uint256",
          "name": "validUntil",
          "type": "uint256"
        },
        {
          "internalType": "string",
          "name": "metadataURI",
          "type": "string"
        },
        {
          "internalType": "bool",
          "name": "isActive",
          "type": "bool"
        },
        {
          "internalType": "address",
          "name": "mintedBy",
          "type": "address"
        },
        {
          "internalType": "uint256",
          "name": "mintedAt",
          "type": "uint256"
        }
      ],
      "stateMutability": "view",
      "type": "function"
    },
    {
      "inputs": [],
      "name": "pause",
      "outputs": [],
      "stateMutability": "nonpayable",
      "type": "function"
    },
    {
      "inputs": [],
      "name": "paused",
      "outputs": [
        {
          "internalType": "bool",
          "name": "",
          "type": "bool"
        }
      ],
      "stateMutability": "view",
      "type": "function"
    },
    {
      "inputs": [
        {
          "internalType": "uint256",
          "name": "_tokenId",
          "type": "uint256"
        },
        {
          "internalType": "bytes32",
          "name": "_newScoreHash",
          "type": "bytes32"
        },
        {
          "internalType": "uint256",
          "name": "_newValidUntil",
          "type": "uint256"
        },
        {
          "internalType": "string",
          "name": "_newMetadataURI",
          "type": "string"
        }
      ],
      "name": "renewPassport",
      "outputs": [],
      "stateMutability": "nonpayable",
      "type": "function"
    },
    {
      "inputs": [],
      "name": "renounceOwnership",
      "outputs": [],
      "stateMutability": "nonpayable",
      "type": "function"
    },
    {
      "inputs": [
        {
          "internalType": "uint256",
          "name": "_tokenId",
          "type": "uint256"
        }
      ],
      "name": "revokePassport",
      "outputs": [],
      "stateMutability": "nonpayable",
      "type": "function"
    },
    {
      "inputs": [
        {
          "internalType": "address",
          "name": "from",
          "type": "address"
        },
        {
          "internalType": "address",
          "name": "to",
          "type": "address"
        },
        {
          "internalType": "uint256",
          "name": "tokenId",
          "type": "uint256"
        }
      ],
      "name": "safeTransferFrom",
      "outputs": [],
      "stateMutability": "nonpayable",
      "type": "function"
    },
    {
      "inputs": [
        {
          "internalType": "address",
          "name": "from",
          "type": "address"
        },
        {
          "internalType": "address",
          "name": "to",
          "type": "address"
        },
        {
          "internalType": "uint256",
          "name": "tokenId",
          "type": "uint256"
        },
        {
          "internalType": "bytes",
          "name": "data",
          "type": "bytes"
        }
      ],
      "name": "safeTransferFrom",
      "outputs": [],
      "stateMutability": "nonpayable",
      "type": "function"
    },
    {
      "inputs": [
        {
          "internalType": "bytes32",
          "name": "",
          "type": "bytes32"
        }
      ],
      "name": "scoreHashToTokenId",
      "outputs": [
        {
          "internalType": "uint256",
          "name": "",
          "type": "uint256"
        }
      ],
      "stateMutability": "view",
      "type": "function"
    },
    {
      "inputs": [
        {
          "internalType": "address",
          "name": "operator",
          "type": "address"
        },
        {
          "internalType": "bool",
          "name": "approved",
          "type": "bool"
        }
      ],
      "name": "setApprovalForAll",
      "outputs": [],
      "stateMutability": "nonpayable",
      "type": "function"
    },
    {
      "inputs": [
        {
          "internalType": "bytes4",
          "name": "interfaceId",
          "type": "bytes4"
        }
      ],
      "name": "supportsInterface",
      "outputs": [
        {
          "internalType": "bool",
          "name": "",
          "type": "bool"
        }
      ],
      "stateMutability": "view",
      "type": "function"
    },
    {
      "inputs": [],
      "name": "symbol",
      "outputs": [
        {
          "internalType": "string",
          "name": "",
          "type": "string"
        }
      ],
      "stateMutability": "view",
      "type": "function"
    },
    {
      "inputs": [
        {
          "internalType": "uint256",
          "name": "tokenId",
          "type": "uint256"
        }
      ],
      "name": "tokenURI",
      "outputs": [
        {
          "internalType": "string",
          "name": "",
          "type": "string"
        }
      ],
      "stateMutability": "view",
      "type": "function"
    },
    {
      "inputs": [],
      "name": "totalPassports",
      "outputs": [
        {
          "internalType": "uint256",
          "name": "",
          "type": "uint256"
        }
      ],
      "stateMutability": "view",
      "type": "function"
    },
    {
      "inputs": [
        {
          "internalType": "address",
          "name": "from",
          "type": "address"
        },
        {
          "internalType": "address",
          "name": "to",
          "type": "address"
        },
        {
          "internalType": "uint256",
          "name": "tokenId",
          "type": "uint256"
        }
      ],
      "name": "transferFrom",
      "outputs": [],
      "stateMutability": "nonpayable",
      "type": "function"
    },
    {
      "inputs": [
        {
          "internalType": "address",
          "name": "newOwner",
          "type": "address"
        }
      ],
      "name": "transferOwnership",
      "outputs": [],
      "stateMutability": "nonpayable",
      "type": "function"
    },
    {
      "inputs": [],
      "name": "unpause",
      "outputs": [],
      "stateMutability": "nonpayable",
      "type": "function"
    },
    {
      "inputs": [
        {
          "internalType": "address",
          "name": "",
          "type": "address"
        },
        {
          "internalType": "uint256",
          "name": "",
          "type": "uint256"
        }
      ],
      "name": "userPassports",
      "outputs": [
        {
          "internalType": "uint256",
          "name": "",
          "type": "uint256"
        }
      ],
      "stateMutability": "view",
      "type": "function"
    }
  ],
  "bytecode": "0x60806040523480156200001157600080fd5b506040518060400160405280601a81526020017f5a6b72656469742046696e616e6369616c2050617373706f72740000000000008152506040518060400160405280600381526020016205a46560ec1b8152508160009081620000759190620001af565b506001620000848282620001af565b505050620000a16200009b620000b460201b60201c565b620000b8565b6006805460ff60a01b191690556200027b565b3390565b600680546001600160a01b038381166001600160a01b0319831681179093556040519116919082907f8be0079c531659141344cd1fd0a4f28419497f9722a3daafe3b4186f6b6457e090600090a35050565b634e487b7160e01b600052604160045260246000fd5b600181811c908216806200013557607f821691505b6020821081036200015657634e487b7160e01b600052602260045260246000fd5b50919050565b601f821115620001aa57600081815260208120601f850160051c81016020861015620001855750805b601f850160051c820191505b81811015620001a65782815560010162000191565b5050505b505050565b81516001600160401b03811115620001cb57620001cb6200010a565b620001e381620001dc845462000120565b846200015c565b602080601f8311600181146200021b5760008415620002025750858301515b600019600386901b1c1916600185901b178555620001a6565b600085815260208120601f198616915b828110156200024c578886015182559484019460019091019084016200022b565b50858210156200026b5787850151600019600388901b60f8161c191681555b5050505050600190811b01905550565b611fc8806200028b6000396000f3fe608060405234801561001057600080fd5b50600436106101f05760003560e01c806388f861d41161010f578063c87b56dd116100a2578063e985e9c511610071578063e985e9c514610449578063f2a0ae1214610485578063f2fde38b146104a5578063f8913cd2146104b857600080fd5b8063c87b56dd146103d3578063cb22f5fd146103e6578063dfe6b5d61461040e578063e978aa611461042957600080fd5b80639f5679f4116100de5780639f5679f414610389578063a22cb465146103ae578063b88d4fde146103bc578063b999d972146103ca57600080fd5b806388f861d41461034a5780638da5cb5b1461035d57806392c3ad1d1461036e57806395d89b411461038157600080fd5b806346b7146f116101875780636d354f42116101565780636d354f421461030757806370a0823114610327578063715018a61461033a5780638456cb591461034257600080fd5b806346b7146f146102bc57806350b7b985146102cf5780635c975abb146102e25780636352211e146102f457600080fd5b806323b872dd116101c357806323b872dd146102725780633f4ba83a1461028057806342842e0e14610288578063461fa4e01461029b57600080fd5b806301ffc9a7146101f557806306fdde031461021d578063081812fc14610232578063095ea7b31461025d575b600080fd5b6102086102033660046118b4565b6104c1565b60405190151581526020015b60405180910390f35b610225610513565b6040516102149190611921565b610245610240366004611934565b6105a5565b6040516001600160a01b039091168152602001610214565b61027061026b366004611969565b6105cc565b005b61027061026b366004611993565b61027061061e565b610270610296366004611993565b610630565b6102ae6102a9366004611a7b565b61064b565b604051908152602001610214565b6102086102ca366004611934565b610935565b6102706102dd366004611adc565b61098c565b600654600160a01b900460ff16610208565b610245610302366004611934565b610c02565b6102ae610315366004611934565b600a6020526000908152604090205481565b6102ae610335366004611b1e565b610c62565b610270610ce8565b610270610cfa565b6102ae610358366004611969565b610d0a565b6006546001600160a01b0316610245565b61027061037c366004611934565b610d3b565b610225610e4b565b61039c610397366004611934565b610e5a565b60405161021496959493929190611b39565b61027061026b366004611b81565b61027061026b366004611bbd565b6102ae600c5481565b6102256103e1366004611934565b610f71565b6103f96103f4366004611934565b610fe5565b60405161021499989796959493929190611c2d565b600b54600c5460408051928352602083019190915201610214565b61043c610437366004611b1e565b6110d0565b6040516102149190611c8a565b610208610457366004611cce565b6001600160a01b03918216600090815260056020908152604080832093909416825291909152205460ff1690565b6102ae610493366004611934565b6000908152600a602052604090205490565b6102706104b3366004611b1e565b61113c565b6102ae600b5481565b60006001600160e01b031982166380ac58cd60e01b14806104f257506001600160e01b03198216635b5e139f60e01b145b8061050d57506301ffc9a760e01b6001600160e01b03198316145b92915050565b60606000805461052290611d01565b80601f016020809104026020016040519081016040528092919081815260200182805461054e90611d01565b801561059b5780601f106105705761010080835404028352916020019161059b565b820191906000526020600020905b81548152906001019060200180831161057e57829003601f168201915b5050505050905090565b60006105b0826111b5565b506000908152600460205260409020546001600160a01b031690565b60405162461bcd60e51b8152602060048201526019602482015278546f6b656e206973206e6f6e2d7472616e7366657261626c6560381b60448201526064015b60405180910390fd5b5050565b505050565b610626611205565b61062e61125f565b565b610619838383604051806020016040528060008152506105cc565b6000610655611205565b61065d6112b4565b6001600160a01b0385166106aa5760405162461bcd60e51b8152602060048201526014602482015273496e76616c69642075736572206164647265737360601b604482015260640161060c565b836106ec5760405162461bcd60e51b8152602060048201526012602482015271092dcecc2d8d2c840e6c6dee4ca40d0c2e6d60731b604482015260640161060c565b42831161073b5760405162461bcd60e51b815260206004820152601760248201527f496e76616c69642076616c696469747920706572696f64000000000000000000604482015260640161060c565b6000848152600a6020526040902054156107975760405162461bcd60e51b815260206004820152601760248201527f53636f7265206861736820616c72656164792075736564000000000000000000604482015260640161060c565b60008251116107e85760405162461bcd60e51b815260206004820152601c60248201527f4d65746164617461205552492063616e6e6f7420626520656d70747900000000604482015260640161060c565b6107f6600780546001019055565b600061080160075490565b905061080d8682611301565b60008181526008602052604090208181556001810180546001600160a01b0319166001600160a01b03891617905560028101869055426003820155600481018590556005810161085d8582611d83565b5060068101805460016001600160a81b031990911661010033021781179091554260078301556001600160a01b0388166000908152600960209081526040808320805494850181558352818320909301859055888252600a9052908120839055600b8054916108cb83611e59565b9091555050600c80549060006108e083611e59565b9190505550866001600160a01b0316827fdedf2ae52157ec2cb41ce7999d14d1a3d9f32ce2d0d1342c281d2ca66ebad7868860405161092191815260200190565b60405180910390a35090505b949350505050565b6000816109418161131b565b61095d5760405162461bcd60e51b815260040161060c90611e72565b6000838152600860205260409020600681015460ff1680156109825750428160040154115b9250505b50919050565b610994611205565b8361099e8161131b565b6109ba5760405162461bcd60e51b815260040161060c90611e72565b6109c26112b4565b60008581526008602052604090206006015460ff16610a1c5760405162461bcd60e51b815260206004820152601660248201527550617373706f7274206973206e6f742061637469766560501b604482015260640161060c565b83610a625760405162461bcd60e51b8152602060048201526016602482015275092dcecc2d8d2c840dccaee40e6c6dee4ca40d0c2e6d60531b604482015260640161060c565b428311610ab15760405162461bcd60e51b815260206004820152601b60248201527f496e76616c6964206e65772076616c696469747920706572696f640000000000604482015260640161060c565b6000848152600a602052604090205415610b0d5760405162461bcd60e51b815260206004820152601b60248201527f4e65772073636f7265206861736820616c726561647920757365640000000000604482015260640161060c565b6000825111610b5e5760405162461bcd60e51b815260206004820181905260248201527f4e6577206d65746164617461205552492063616e6e6f7420626520656d707479604482015260640161060c565b60008581526008602090815260408083206002810180548552600a909352908320929092558590554260038201556004810184905560058101610ba18482611d83565b506000858152600a6020908152604091829020889055600183015491518781526001600160a01b039092169188917f9a03991531cd7f408b2de75ed1fb10a6b6673767f15685cae8f5f5d6ff88ad3b910160405180910390a3505050505050565b6000818152600260205260408120546001600160a01b03168061050d5760405162461bcd60e51b8152602060048201526018602482015277115490cdcc8c4e881a5b9d985b1a59081d1bdad95b88125160421b604482015260640161060c565b60006001600160a01b038216610ccc5760405162461bcd60e51b815260206004820152602960248201527f4552433732313a2061646472657373207a65726f206973206e6f7420612076616044820152683634b21037bbb732b960b91b606482015260840161060c565b506001600160a01b031660009081526003602052604090205490565b610cf0611205565b61062e6000611338565b610d02611205565b61062e61138a565b60096020528160005260406000208181548110610d2657600080fd5b90600052602060002001600091509150505481565b610d43611205565b80610d4d8161131b565b610d695760405162461bcd60e51b815260040161060c90611e72565b610d716112b4565b60008281526008602052604090206006015460ff16610dd25760405162461bcd60e51b815260206004820152601860248201527f50617373706f727420616c7265616479207265766f6b65640000000000000000604482015260640161060c565b600082815260086020526040812060018101546006909101805460ff19169055600c80546001600160a01b0390921692610e0b83611ea0565b90915550506040516001600160a01b0382169084907f1e7d0ac2efe56312f138412567c85c64881970f500c654270550dc52a19f857590600090a3505050565b60606001805461052290611d01565b6000806000806060600086610e6e8161131b565b610e8a5760405162461bcd60e51b815260040161060c90611e72565b6000888152600860205260409020600181015460028201546003830154600484015460068501546005860180546001600160a01b0390961695909160ff16908290610ed490611d01565b80601f0160208091040260200160405190810160405280929190818152602001828054610f0090611d01565b8015610f4d5780601f10610f2257610100808354040283529160200191610f4d565b820191906000526020600020905b815481529060010190602001808311610f3057829003601f168201915b50505050509150975097509750975097509750505091939550919395565b50505050565b6060610f7c826111b5565b6000610f9360408051602081019091526000815290565b90506000815111610fb35760405180602001604052806000815250610fde565b80610fbd846113cd565b604051602001610fce929190611eb7565b6040516020818303038152906040525b9392505050565b60086020526000908152604090208054600182015460028301546003840154600485015460058601805495966001600160a01b03909516959394929391929161102d90611d01565b80601f016020809104026020016040519081016040528092919081815260200182805461105990611d01565b80156110a65780601f1061107b576101008083540402835291602001916110a6565b820191906000526020600020905b81548152906001019060200180831161108957829003601f168201915b505050506006830154600790930154919260ff8116926101009091046001600160a01b0316915089565b6001600160a01b03811660009081526009602090815260409182902080548351818402810184019094528084526060939283018282801561113057602002820191906000526020600020905b81548152602001906001019080831161111c575b50505050509050919050565b611144611205565b6001600160a01b0381166111a95760405162461bcd60e51b815260206004820152602660248201527f4f776e61626c653a206e6577206f776e657220697320746865207a65726f206160448201526564647265737360d01b606482015260840161060c565b6111b281611338565b50565b6111be8161131b565b6111b25760405162461bcd60e51b8152602060048201526018602482015277115490cdcc8c4e881a5b9d985b1a59081d1bdad95b88125160421b604482015260640161060c565b6006546001600160a01b0316331461062e5760405162461bcd60e51b815260206004820181905260248201527f4f776e61626c653a2063616c6c6572206973206e6f7420746865206f776e6572604482015260640161060c565b611267611460565b6006805460ff60a01b191690557f5db9ee0a495bf2e6ff9c91a7834c1ba4fdd244a5e8aa4e537bd38aeae4b073aa335b6040516001600160a01b03909116815260200160405180910390a1565b600654600160a01b900460ff161561062e5760405162461bcd60e51b815260206004820152601060248201526f14185d5cd8589b194e881c185d5cd95960821b604482015260640161060c565b6106158282604051806020016040528060008152506114b0565b6000908152600260205260409020546001600160a01b0316151590565b600680546001600160a01b038381166001600160a01b0319831681179093556040519116919082907f8be0079c531659141344cd1fd0a4f28419497f9722a3daafe3b4186f6b6457e090600090a35050565b6113926112b4565b6006805460ff60a01b1916600160a01b1790557f62e78cea01bee320cd4e420270b5ea74000d11b0c9f74754ebdbfc544b05a2586112973390565b606060006113da836114e3565b600101905060008167ffffffffffffffff8111156113fa576113fa6119cf565b6040519080825280601f01601f191660200182016040528015611424576020820181803683370190505b5090508181016020015b600019016f181899199a1a9b1b9c1cb0b131b232b360811b600a86061a8153600a850494508461142e57509392505050565b600654600160a01b900460ff1661062e5760405162461bcd60e51b815260206004820152601460248201527314185d5cd8589b194e881b9bdd081c185d5cd95960621b604482015260640161060c565b6114ba83836115bb565b6114c76000848484611736565b6106195760405162461bcd60e51b815260040161060c90611ee6565b60008072184f03e93ff9f4daa797ed6e38ed64bf6a1f0160401b83106115225772184f03e93ff9f4daa797ed6e38ed64bf6a1f0160401b830492506040015b6d04ee2d6d415b85acef8100000000831061154e576d04ee2d6d415b85acef8100000000830492506020015b662386f26fc10000831061156c57662386f26fc10000830492506010015b6305f5e1008310611584576305f5e100830492506008015b612710831061159857612710830492506004015b606483106115aa576064830492506002015b600a831061050d5760010192915050565b6001600160a01b0382166116115760405162461bcd60e51b815260206004820181905260248201527f4552433732313a206d696e7420746f20746865207a65726f2061646472657373604482015260640161060c565b61161a8161131b565b156116675760405162461bcd60e51b815260206004820152601c60248201527f4552433732313a20746f6b656e20616c7265616479206d696e74656400000000604482015260640161060c565b611675600083836001611834565b61167e8161131b565b156116cb5760405162461bcd60e51b815260206004820152601c60248201527f4552433732313a20746f6b656e20616c7265616479206d696e74656400000000604482015260640161060c565b6001600160a01b038216600081815260036020908152604080832080546001019055848352600290915280822080546001600160a01b0319168417905551839291907fddf252ad1be2c89b69c2b068fc378daa952ba7f163c4a11628f55a4df523b3ef908290a45050565b60006001600160a01b0384163b1561182c57604051630a85bd0160e11b81526001600160a01b0385169063150b7a029061177a903390899088908890600401611f38565b6020604051808303816000875af19250505080156117b5575060408051601f3d908101601f191682019092526117b291810190611f75565b60015b611812573d8080156117e3576040519150601f19603f3d011682016040523d82523d6000602084013e6117e8565b606091505b50805160000361180a5760405162461bcd60e51b815260040161060c90611ee6565b805181602001fd5b6001600160e01b031916630a85bd0160e11b14905061092d565b50600161092d565b6001600160a01b038416158061185157506001600160a01b038316155b6118995760405162461bcd60e51b8152602060048201526019602482015278546f6b656e206973206e6f6e2d7472616e7366657261626c6560381b604482015260640161060c565b610f6b565b6001600160e01b0319811681146111b257600080fd5b6000602082840312156118c657600080fd5b8135610fde8161189e565b60005b838110156118ec5781810151838201526020016118d4565b50506000910152565b6000815180845261190d8160208601602086016118d1565b601f01601f19169290920160200192915050565b602081526000610fde60208301846118f5565b60006020828403121561194657600080fd5b5035919050565b80356001600160a01b038116811461196457600080fd5b919050565b6000806040838503121561197c57600080fd5b6119858361194d565b946020939093013593505050565b6000806000606084860312156119a857600080fd5b6119b18461194d565b92506119bf6020850161194d565b9150604084013590509250925092565b634e487b7160e01b600052604160045260246000fd5b600067ffffffffffffffff80841115611a0057611a006119cf565b604051601f8501601f19908116603f01168101908282118183101715611a2857611a286119cf565b81604052809350858152868686011115611a4157600080fd5b858560208301376000602087830101525050509392505050565b600082601f830112611a6c57600080fd5b610fde838335602085016119e5565b60008060008060808587031215611a9157600080fd5b611a9a8561194d565b93506020850135925060408501359150606085013567ffffffffffffffff811115611ac457600080fd5b611ad087828801611a5b565b91505092959194509250565b60008060008060808587031215611af257600080fd5b843593506020850135925060408501359150606085013567ffffffffffffffff811115611ac457600080fd5b600060208284031215611b3057600080fd5b610fde8261194d565b60018060a01b038716815285602082015284604082015283606082015260c060808201526000611b6c60c08301856118f5565b905082151560a0830152979650505050505050565b60008060408385031215611b9457600080fd5b611b9d8361194d565b915060208301358015158114611bb257600080fd5b809150509250929050565b60008060008060808587031215611bd357600080fd5b611bdc8561194d565b9350611bea6020860161194d565b925060408501359150606085013567ffffffffffffffff811115611c0d57600080fd5b8501601f81018713611c1e57600080fd5b611ad0878235602084016119e5565b60006101208b835260018060a01b03808c1660208501528a60408501528960608501528860808501528160a0850152611c68828501896118f5565b96151560c08501529490941660e0830152506101000152509695505050505050565b6020808252825182820181905260009190848201906040850190845b81811015611cc257835183529284019291840191600101611ca6565b50909695505050505050565b60008060408385031215611ce157600080fd5b611cea8361194d565b9150611cf86020840161194d565b90509250929050565b600181811c90821680611d1557607f821691505b60208210810361098657634e487b7160e01b600052602260045260246000fd5b601f82111561061957600081815260208120601f850160051c81016020861015611d5c5750805b601f850160051c820191505b81811015611d7b57828155600101611d68565b505050505050565b815167ffffffffffffffff811115611d9d57611d9d6119cf565b611db181611dab8454611d01565b84611d35565b602080601f831160018114611de65760008415611dce5750858301515b600019600386901b1c1916600185901b178555611d7b565b600085815260208120601f198616915b82811015611e1557888601518255948401946001909101908401611df6565b5085821015611e335787850151600019600388901b60f8161c191681555b5050505050600190811b01905550565b634e487b7160e01b600052601160045260246000fd5b600060018201611e6b57611e6b611e43565b5060010190565b602080825260149082015273151bdad95b88191bd95cc81b9bdd08195e1a5cdd60621b604082015260600190565b600081611eaf57611eaf611e43565b506000190190565b60008351611ec98184602088016118d1565b835190830190611edd8183602088016118d1565b01949350505050565b60208082526032908201527f4552433732313a207472616e7366657220746f206e6f6e20455243373231526560408201527131b2b4bb32b91034b6b83632b6b2b73a32b960711b606082015260800190565b6001600160a01b0385811682528416602082015260408101839052608060608201819052600090611f6b908301846118f5565b9695505050505050565b600060208284031215611f8757600080fd5b8151610fde8161189e56fea26469706673582212209bc755abb2d2dd4fdf6f4071e09d168ed840b74e46c5062ef889639676705ac864736f6c63430008140033",
  "linkReferences": {},
  "deployedLinkReferences": {}
}