{
  "_format": "hh-sol-artifact-1",
  "contractName": "CreditScoreModel",
  "sourceName": "src/CreditScoreModel.sol",
  "abi": [
    {
      "inputs": [],
      "stateMutability": "nonpayable",
      "type": "constructor"
    },
    {
      "anonymous": false,
      "inputs": [
        {
          "indexed": false,
          "internalType": "uint256",
          "name": "newBaseScore",
          "type": "uint256"
        }
      ],
      "name": "BaseScoreUpdated",
      "type": "event"
    },
    {
      "anonymous": false,
      "inputs": [
        {
          "indexed": true,
          "internalType": "bytes32",
          "name": "requestId",
          "type": "bytes32"
        },
        {
          "indexed": true,
          "internalType": "address",
          "name": "userAddress",
          "type": "address"
        },
        {
          "indexed": false,
          "internalType": "uint256",
          "name": "encryptedScore",
          "type": "uint256"
        }
      ],
      "name": "ComputationCompleted",
      "type": "event"
    },
    {
      "anonymous": false,
      "inputs": [
        {
          "indexed": true,
          "internalType": "bytes32",
          "name": "requestId",
          "type": "bytes32"
        },
        {
          "indexed": true,
          "internalType": "address",
          "name": "userAddress",
          "type": "address"
        },
        {
          "indexed": true,
          "internalType": "address",
          "name": "fintech",
          "type": "address"
        }
      ],
      "name": "ComputationRequested",
      "type": "event"
    },
    {
      "anonymous": false,
      "inputs": [
        {
          "indexed": false,
          "internalType": "uint256",
          "name": "timestamp",
          "type": "uint256"
        }
      ],
      "name": "ModelParametersUpdated",
      "type": "event"
    },
    {
      "anonymous": false,
      "inputs": [
        {
          "indexed": true,
          "internalType": "address",
          "name": "previousOwner",
          "type": "address"
        },
        {
          "indexed": true,
          "internalType": "address",
          "name": "newOwner",
          "type": "address"
        }
      ],
      "name": "OwnershipTransferred",
      "type": "event"
    },
    {
      "anonymous": false,
      "inputs": [
        {
          "indexed": false,
          "internalType": "address",
          "name": "account",
          "type": "address"
        }
      ],
      "name": "Paused",
      "type": "event"
    },
    {
      "anonymous": false,
      "inputs": [
        {
          "indexed": false,
          "internalType": "address",
          "name": "account",
          "type": "address"
        }
      ],
      "name": "Unpaused",
      "type": "event"
    },
    {
      "inputs": [
        {
          "components": [
            {
              "internalType": "CreditScoreModel.euint32",
              "name": "monthlyIncome",
              "type": "uint256"
            },
            {
              "internalType": "CreditScoreModel.euint32",
              "name": "totalDebt",
              "type": "uint256"
            },
            {
              "internalType": "CreditScoreModel.euint32",
              "name": "debtToIncomeRatio",
              "type": "uint256"
            },
            {
              "internalType": "CreditScoreModel.euint32",
              "name": "creditUtilization",
              "type": "uint256"
            },
            {
              "internalType": "CreditScoreModel.euint32",
              "name": "paymentHistory",
              "type": "uint256"
            },
            {
              "internalType": "CreditScoreModel.euint32",
              "name": "accountAgeMonths",
              "type": "uint256"
            },
            {
              "internalType": "CreditScoreModel.euint32",
              "name": "recentInquiries",
              "type": "uint256"
            },
            {
              "internalType": "CreditScoreModel.euint32",
              "name": "employmentStability",
              "type": "uint256"
            }
          ],
          "internalType": "struct CreditScoreModel.CreditFeatures",
          "name": "features",
          "type": "tuple"
        }
      ],
      "name": "applyCreditScoringModel",
      "outputs": [
        {
          "internalType": "CreditScoreModel.euint32",
          "name": "",
          "type": "uint256"
        }
      ],
      "stateMutability": "view",
      "type": "function"
    },
    {
      "inputs": [],
      "name": "baseCreditScore",
      "outputs": [
        {
          "internalType": "CreditScoreModel.euint32",
          "name": "",
          "type": "uint256"
        }
      ],
      "stateMutability": "view",
      "type": "function"
    },
    {
      "inputs": [],
      "name": "completedRequests",
      "outputs": [
        {
          "internalType": "uint256",
          "name": "",
          "type": "uint256"
        }
      ],
      "stateMutability": "view",
      "type": "function"
    },
    {
      "inputs": [
        {
          "internalType": "bytes",
          "name": "_encryptedData",
          "type": "bytes"
        }
      ],
      "name": "computeCreditScore",
      "outputs": [
        {
          "internalType": "CreditScoreModel.euint32",
          "name": "",
          "type": "uint256"
        }
      ],
      "stateMutability": "view",
      "type": "function"
    },
    {
      "inputs": [
        {
          "internalType": "bytes32",
          "name": "_requestId",
          "type": "bytes32"
        },
        {
          "internalType": "bytes",
          "name": "_encryptedUserData",
          "type": "bytes"
        }
      ],
      "name": "executeComputation",
      "outputs": [],
      "stateMutability": "nonpayable",
      "type": "function"
    },
    {
      "inputs": [
        {
          "internalType": "bytes",
          "name": "_encryptedData",
          "type": "bytes"
        }
      ],
      "name": "extractFeatures",
      "outputs": [
        {
          "components": [
            {
              "internalType": "CreditScoreModel.euint32",
              "name": "monthlyIncome",
              "type": "uint256"
            },
            {
              "internalType": "CreditScoreModel.euint32",
              "name": "totalDebt",
              "type": "uint256"
            },
            {
              "internalType": "CreditScoreModel.euint32",
              "name": "debtToIncomeRatio",
              "type": "uint256"
            },
            {
              "internalType": "CreditScoreModel.euint32",
              "name": "creditUtilization",
              "type": "uint256"
            },
            {
              "internalType": "CreditScoreModel.euint32",
              "name": "paymentHistory",
              "type": "uint256"
            },
            {
              "internalType": "CreditScoreModel.euint32",
              "name": "accountAgeMonths",
              "type": "uint256"
            },
            {
              "internalType": "CreditScoreModel.euint32",
              "name": "recentInquiries",
              "type": "uint256"
            },
            {
              "internalType": "CreditScoreModel.euint32",
              "name": "employmentStability",
              "type": "uint256"
            }
          ],
          "internalType": "struct CreditScoreModel.CreditFeatures",
          "name": "",
          "type": "tuple"
        }
      ],
      "stateMutability": "view",
      "type": "function"
    },
    {
      "inputs": [
        {
          "internalType": "address",
          "name": "",
          "type": "address"
        },
        {
          "internalType": "uint256",
          "name": "",
          "type": "uint256"
        }
      ],
      "name": "fintechRequests",
      "outputs": [
        {
          "internalType": "bytes32",
          "name": "",
          "type": "bytes32"
        }
      ],
      "stateMutability": "view",
      "type": "function"
    },
    {
      "inputs": [
        {
          "internalType": "bytes32",
          "name": "_requestId",
          "type": "bytes32"
        }
      ],
      "name": "getComputationRequest",
      "outputs": [
        {
          "internalType": "address",
          "name": "userAddress",
          "type": "address"
        },
        {
          "internalType": "uint256",
          "name": "timestamp",
          "type": "uint256"
        },
        {
          "internalType": "bool",
          "name": "isCompleted",
          "type": "bool"
        },
        {
          "internalType": "CreditScoreModel.euint32",
          "name": "encryptedScore",
          "type": "uint256"
        },
        {
          "internalType": "bytes32",
          "name": "dataHash",
          "type": "bytes32"
        },
        {
          "internalType": "uint256",
          "name": "validUntil",
          "type": "uint256"
        },
        {
          "internalType": "address",
          "name": "requestedBy",
          "type": "address"
        }
      ],
      "stateMutability": "view",
      "type": "function"
    },
    {
      "inputs": [],
      "name": "getContractStats",
      "outputs": [
        {
          "internalType": "uint256",
          "name": "_totalRequests",
          "type": "uint256"
        },
        {
          "internalType": "uint256",
          "name": "_completedRequests",
          "type": "uint256"
        },
        {
          "internalType": "CreditScoreModel.euint32",
          "name": "_baseCreditScore",
          "type": "uint256"
        }
      ],
      "stateMutability": "view",
      "type": "function"
    },
    {
      "inputs": [
        {
          "internalType": "bytes32",
          "name": "_requestId",
          "type": "bytes32"
        }
      ],
      "name": "getEncryptedScore",
      "outputs": [
        {
          "internalType": "CreditScoreModel.euint32",
          "name": "",
          "type": "uint256"
        }
      ],
      "stateMutability": "view",
      "type": "function"
    },
    {
      "inputs": [
        {
          "internalType": "address",
          "name": "_fintechAddress",
          "type": "address"
        }
      ],
      "name": "getFintechRequests",
      "outputs": [
        {
          "internalType": "bytes32[]",
          "name": "",
          "type": "bytes32[]"
        }
      ],
      "stateMutability": "view",
      "type": "function"
    },
    {
      "inputs": [],
      "name": "getModelParameters",
      "outputs": [
        {
          "internalType": "CreditScoreModel.euint32",
          "name": "baseScore",
          "type": "uint256"
        },
        {
          "internalType": "CreditScoreModel.euint32",
          "name": "riskMultiplier",
          "type": "uint256"
        },
        {
          "internalType": "CreditScoreModel.euint32",
          "name": "creditLimit",
          "type": "uint256"
        },
        {
          "internalType": "bool",
          "name": "isActive",
          "type": "bool"
        },
        {
          "internalType": "uint256",
          "name": "lastUpdated",
          "type": "uint256"
        }
      ],
      "stateMutability": "view",
      "type": "function"
    },
    {
      "inputs": [
        {
          "internalType": "address",
          "name": "_userAddress",
          "type": "address"
        }
      ],
      "name": "getUserRequests",
      "outputs": [
        {
          "internalType": "bytes32[]",
          "name": "",
          "type": "bytes32[]"
        }
      ],
      "stateMutability": "view",
      "type": "function"
    },
    {
      "inputs": [
        {
          "internalType": "bytes32",
          "name": "_requestId",
          "type": "bytes32"
        }
      ],
      "name": "isRequestValid",
      "outputs": [
        {
          "internalType": "bool",
          "name": "",
          "type": "bool"
        }
      ],
      "stateMutability": "view",
      "type": "function"
    },
    {
      "inputs": [],
      "name": "modelParams",
      "outputs": [
        {
          "internalType": "CreditScoreModel.euint32",
          "name": "baseScore",
          "type": "uint256"
        },
        {
          "internalType": "CreditScoreModel.euint32",
          "name": "riskMultiplier",
          "type": "uint256"
        },
        {
          "internalType": "CreditScoreModel.euint32",
          "name": "creditLimit",
          "type": "uint256"
        },
        {
          "internalType": "bool",
          "name": "isActive",
          "type": "bool"
        },
        {
          "internalType": "uint256",
          "name": "lastUpdated",
          "type": "uint256"
        }
      ],
      "stateMutability": "view",
      "type": "function"
    },
    {
      "inputs": [],
      "name": "owner",
      "outputs": [
        {
          "internalType": "address",
          "name": "",
          "type": "address"
        }
      ],
      "stateMutability": "view",
      "type": "function"
    },
    {
      "inputs": [],
      "name": "pause",
      "outputs": [],
      "stateMutability": "nonpayable",
      "type": "function"
    },
    {
      "inputs": [],
      "name": "paused",
      "outputs": [
        {
          "internalType": "bool",
          "name": "",
          "type": "bool"
        }
      ],
      "stateMutability": "view",
      "type": "function"
    },
    {
      "inputs": [],
      "name": "renounceOwnership",
      "outputs": [],
      "stateMutability": "nonpayable",
      "type": "function"
    },
    {
      "inputs": [
        {
          "internalType": "address",
          "name": "_userAddress",
          "type": "address"
        },
        {
          "internalType": "bytes32",
          "name": "_requestId",
          "type": "bytes32"
        },
        {
          "internalType": "bytes32",
          "name": "_dataHash",
          "type": "bytes32"
        },
        {
          "internalType": "uint256",
          "name": "_validUntil",
          "type": "uint256"
        }
      ],
      "name": "requestComputation",
      "outputs": [],
      "stateMutability": "nonpayable",
      "type": "function"
    },
    {
      "inputs": [
        {
          "internalType": "bytes32",
          "name": "",
          "type": "bytes32"
        }
      ],
      "name": "requests",
      "outputs": [
        {
          "internalType": "address",
          "name": "userAddress",
          "type": "address"
        },
        {
          "internalType": "bytes32",
          "name": "requestId",
          "type": "bytes32"
        },
        {
          "internalType": "uint256",
          "name": "timestamp",
          "type": "uint256"
        },
        {
          "internalType": "bool",
          "name": "isCompleted",
          "type": "bool"
        },
        {
          "internalType": "CreditScoreModel.euint32",
          "name": "encryptedScore",
          "type": "uint256"
        },
        {
          "internalType": "bytes32",
          "name": "dataHash",
          "type": "bytes32"
        },
        {
          "internalType": "uint256",
          "name": "validUntil",
          "type": "uint256"
        },
        {
          "internalType": "address",
          "name": "requestedBy",
          "type": "address"
        }
      ],
      "stateMutability": "view",
      "type": "function"
    },
    {
      "inputs": [
        {
          "internalType": "bool",
          "name": "_isActive",
          "type": "bool"
        }
      ],
      "name": "setModelActive",
      "outputs": [],
      "stateMutability": "nonpayable",
      "type": "function"
    },
    {
      "inputs": [],
      "name": "totalRequests",
      "outputs": [
        {
          "internalType": "uint256",
          "name": "",
          "type": "uint256"
        }
      ],
      "stateMutability": "view",
      "type": "function"
    },
    {
      "inputs": [
        {
          "internalType": "address",
          "name": "newOwner",
          "type": "address"
        }
      ],
      "name": "transferOwnership",
      "outputs": [],
      "stateMutability": "nonpayable",
      "type": "function"
    },
    {
      "inputs": [],
      "name": "unpause",
      "outputs": [],
      "stateMutability": "nonpayable",
      "type": "function"
    },
    {
      "inputs": [
        {
          "internalType": "uint32",
          "name": "_baseScore",
          "type": "uint32"
        },
        {
          "internalType": "uint32",
          "name": "_riskMultiplier",
          "type": "uint32"
        },
        {
          "internalType": "uint32",
          "name": "_creditLimit",
          "type": "uint32"
        }
      ],
      "name": "updateModelParameters",
      "outputs": [],
      "stateMutability": "nonpayable",
      "type": "function"
    },
    {
      "inputs": [
        {
          "internalType": "address",
          "name": "",
          "type": "address"
        },
        {
          "internalType": "uint256",
          "name": "",
          "type": "uint256"
        }
      ],
      "name": "userRequests",
      "outputs": [
        {
          "internalType": "bytes32",
          "name": "",
          "type": "bytes32"
        }
      ],
      "stateMutability": "view",
      "type": "function"
    },
    {
      "stateMutability": "payable",
      "type": "receive"
    }
  ],
  "bytecode": "0x6080806040523461008a576000543360018060a01b0382167f8be0079c531659141344cd1fd0a4f28419497f9722a3daafe3b4186f6b6457e0600080a36001600160a81b0319163360ff60a01b191617600055600180805561015e600c81905560055560646006556127106007556008805460ff19169091179055426009556116a890816100908239f35b600080fdfe608060409080825260049081361015610023575b505050361561002157600080fd5b005b60009260e08435811c92836308f438f714610f50575082630d1bad4914610f115782631510bff214610d7a578263263cb6b614610d2457826339a4c80314610c8f5782633ae1ca8c14610c1c5782633f4ba83a14610b815782635c85515b14610af65782635c975abb14610ad15782635de173df14610a2f578263715018a6146109d557826375f347ab146109675782638456cb591461090857826388ef6a6e146106915782638aea61dc146106725782638da5cb5b1461064a5782639d866985146105c857508163a22420cd1461059e578163ad08a08314610546578163b337cf74146104c8578163c16de869146104a9578163c1f58bfc146102e4578163c8284e6d14610293578163cbca31ac14610293578163dfe6b5d614610263578163f2fde38b1461019b575063fdc21a0c1461015e5780610013565b34610197576020366003190112610197573580151580910361019757610182611073565b60ff8019600854169116176008554260095580f35b5080fd5b9190503461025f57602036600319011261025f576101b7610f9f565b906101c0611073565b6001600160a01b0391821692831561020d57505082546001600160a01b0319811683178455167f8be0079c531659141344cd1fd0a4f28419497f9722a3daafe3b4186f6b6457e08380a380f35b906020608492519162461bcd60e51b8352820152602660248201527f4f776e61626c653a206e6577206f776e657220697320746865207a65726f206160448201526564647265737360d01b6064820152fd5b8280fd5b839034610197578160031936011261019757606090600a5490600b5490600c549181519384526020840152820152f35b83346102e157806003193601126102e1575060055460065460075460085460095494519384526020840192909252604083015260ff1615156060820152608081019190915260a090f35b0390f35b80fd5b83915034610197578060031936011261019757823560243567ffffffffffffffff81116104a5576103189036908601610f6c565b94610321611073565b828552600260209081528486205490926001600160a01b0391610347908316151561110d565b61035560ff600854166110cb565b8487526002845260ff600387892001541661046257848752600284526006868820015442101561042d5787156103ea576103bd8798867fc25a10f06fc2baeeacfc621b6b6ef4fa854b170550978b1cd663fd811b6dc9f19798995260028652888a20926111f4565b809382015560038101600160ff198254161790556103dc600b54611188565b600b5554169451908152a380f35b855162461bcd60e51b8152808401859052601e60248201527f456e6372797074656420646174612063616e6e6f7420626520656d70747900006044820152606490fd5b855162461bcd60e51b8152808401859052600f60248201526e14995c5d595cdd08195e1c1a5c9959608a1b6044820152606490fd5b855162461bcd60e51b8152808401859052601d60248201527f436f6d7075746174696f6e20616c726561647920636f6d706c657465640000006044820152606490fd5b8380fd5b839034610197578160031936011261019757602090600c549051908152f35b839034610197576020908160031936011261025f576001600160a01b036104ed610f9f565b168352600382528083209281518093808654928381520195835280832092905b82821061052f576102dd8686610525828b0383611051565b5191829182610fe3565b83548752958601956001938401939091019061050d565b905082346102e157816003193601126102e157610561610f9f565b6001600160a01b03168152602092909252808220805460243593908410156102e1575060209261059091610fb5565b91905490519160031b1c8152f35b905082346102e15760203660031901126102e157506105bf60209235611645565b90519015158152f35b90929150346104a55760203660031901126104a55782610100948335815260026020522060018060a01b038082541694600183015494600284015460ff60038601541691850154926005860154946007600688015497015416978151998a5260208a015288015215156060870152608086015260a085015260c0840152820152f35b848234610197578160031936011261019757905490516001600160a01b039091168152602090f35b848234610197578160031936011261019757602090600a549051908152f35b5090503461025f57608036600319011261025f576106ad610f9f565b9060249283359360448035906064908135936106c76111ad565b6002600154146108c95760026001556106e460ff600854166110cb565b6001600160a01b03978816978815610892576107018a151561110d565b841561085e574286111561081e57898b526002602052878b2054166107df575050509186816107a4959388958684526002602052858420916bffffffffffffffffffffffff60a01b918a838554161784558860018501554260028501556003840160ff1981541690556005840155600683015560078201903390825416179055015584875260036020526107978383892061114e565b338752602052852061114e565b6107af600a54611188565b600a5533917f828c85c37dcaf6553b252a55b553cfed869f43eecae8b5c280784607b40f93b78480a46001805580f35b859160197f5265717565737420494420616c726561647920657869737473000000000000009260208a519562461bcd60e51b8752860152840152820152fd5b50859160177f496e76616c69642076616c696469747920706572696f640000000000000000009260208a519562461bcd60e51b8752860152840152820152fd5b508591601170092dcecc2d8d2c840c8c2e8c240d0c2e6d607b1b9260208a519562461bcd60e51b8752860152840152820152fd5b508591601473496e76616c69642075736572206164647265737360601b9260208a519562461bcd60e51b8752860152840152820152fd5b8591601f7f5265656e7472616e637947756172643a207265656e7472616e742063616c6c009260208a519562461bcd60e51b8752860152840152820152fd5b84823461019757816003193601126101975760207f62e78cea01bee320cd4e420270b5ea74000d11b0c9f74754ebdbfc544b05a25891610946611073565b61094e6111ad565b835460ff60a01b1916600160a01b17845551338152a180f35b91509192346102e1576101003660031901126102e157506020926109ce918351916109918361101e565b35825260243585830152604435848301526064356060830152608435608083015260a43560a083015260c43560c083015260e4359082015261141f565b9051908152f35b84346102e157806003193601126102e1576109ee611073565b80546001600160a01b03198116825581906001600160a01b03167f8be0079c531659141344cd1fd0a4f28419497f9722a3daafe3b4186f6b6457e08280a380f35b8482853461025f57602092836003193601126102e15781358082526002855283822054610a66906001600160a01b0316151561110d565b8082526002855260ff600385842001541615610a8e5781526002845282902001549051908152f35b835162461bcd60e51b8152808401869052601960248201527f436f6d7075746174696f6e206e6f7420636f6d706c65746564000000000000006044820152606490fd5b84823461019757816003193601126101975760ff6020925460a01c1690519015158152f35b91509192346102e15760203660031901126102e15783359067ffffffffffffffff82116102e15750610b38610b32610100958493369101610f6c565b90611253565b83519381518552602082015160208601528082015190850152606081015160608501526080810151608085015260a081015160a085015260c081015160c0850152015190820152f35b8482853461025f578260031936011261025f57610b9c611073565b82549060ff8260a01c1615610be2575060ff60a01b19168255513381527f5db9ee0a495bf2e6ff9c91a7834c1ba4fdd244a5e8aa4e537bd38aeae4b073aa90602090a180f35b606490602084519162461bcd60e51b8352820152601460248201527314185d5cd8589b194e881b9bdd081c185d5cd95960621b6044820152fd5b5090503461025f57602091826003193601126104a5576001600160a01b03610c42610f9f565b16845282528083209281518093808654928381520195835280832092905b828210610c78576102dd8686610525828b0383611051565b835487529586019560019384019390910190610c60565b838286346102e15760203660031901126102e15782358082526002602052828220546001600160a01b039284929091610ccb908516151561110d565b815260026020522090808254169360028301549360ff6003850154169184015491600585015493600760068701549601541695825197885260208801521515908601526060850152608084015260a083015260c0820152f35b848234610197578060031936011261019757610d3e610f9f565b6001600160a01b031682526003602052808220805460243593908410156102e15750602092610d6c91610fb5565b90549060031b1c9051908152f35b5090503461025f57606036600319011261025f5781359163ffffffff90818416809403610f0d5760243590828216809203610f0957604435928316809303610f0957610dc4611073565b8415610ec6578115610e83578215610e4057509183916020937f967488f2edd75466f58e6c71b66aefc81b7b216a0a3ad64a3a3708714769d1f9956005556006556007554260095581600c557ff3ad76dc2def13387cdaa20660cedfa8ce58bd013b7f39fd4b48d718aa3184a6838251428152a151908152a180f35b606490602085519162461bcd60e51b8352820152601d60248201527f437265646974206c696d6974206d75737420626520706f7369746976650000006044820152fd5b606490602085519162461bcd60e51b8352820152602060248201527f5269736b206d756c7469706c696572206d75737420626520706f7369746976656044820152fd5b606490602085519162461bcd60e51b8352820152601b60248201527f426173652073636f7265206d75737420626520706f73697469766500000000006044820152fd5b8580fd5b8480fd5b838286346102e15760203660031901126102e15782359067ffffffffffffffff82116102e15750610f4a6020936109ce92369101610f6c565b906111f4565b859034610197578160031936011261019757602090600b548152f35b9181601f84011215610f9a5782359167ffffffffffffffff8311610f9a5760208381860195010111610f9a57565b600080fd5b600435906001600160a01b0382168203610f9a57565b8054821015610fcd5760005260206000200190600090565b634e487b7160e01b600052603260045260246000fd5b6020908160408183019282815285518094520193019160005b82811061100a575050505090565b835185529381019392810192600101610ffc565b610100810190811067ffffffffffffffff82111761103b57604052565b634e487b7160e01b600052604160045260246000fd5b90601f8019910116810190811067ffffffffffffffff82111761103b57604052565b6000546001600160a01b0316330361108757565b606460405162461bcd60e51b815260206004820152602060248201527f4f776e61626c653a2063616c6c6572206973206e6f7420746865206f776e65726044820152fd5b156110d257565b60405162461bcd60e51b81526020600482015260136024820152724d6f64656c206973206e6f742061637469766560681b6044820152606490fd5b1561111457565b60405162461bcd60e51b8152602060048201526012602482015271125b9d985b1a59081c995c5d595cdd08125160721b6044820152606490fd5b80546801000000000000000081101561103b5761117091600182018155610fb5565b819291549060031b91821b91600019901b1916179055565b60001981146111975760010190565b634e487b7160e01b600052601160045260246000fd5b60ff60005460a01c166111bc57565b60405162461bcd60e51b815260206004820152601060248201526f14185d5cd8589b194e881c185d5cd95960821b6044820152606490fd5b6112069161120191611253565b61141f565b61012c908181101561122957505b6103529081811115611224575090565b905090565b9050611214565b90600f820291808304600f149015171561119757565b9190820180921161119757565b6040918251916112628361101e565b6000918284528260e0602095828782015282888201528260608201528260808201528260a08201528260c0820152015267ffffffffffffffff811161140b578451906112b7601f8201601f1916860183611051565b808252848201923682820111610f0d578185928792863783010152519020908351916112e28361101e565b610100368437815b600881106113cb575050611f40825106936107d09485018095116113b757620186a0848401510690603281850151066064606086015106916102266080870151069361012c9485018095116113a35760f060a088015106600601958660061161138f5750600c60e0600a60c08a015106980151069782519961136b8b61101e565b8a528901528701526060860152608085015260a084015260c083015260e082015290565b634e487b7160e01b81526011600452602490fd5b634e487b7160e01b86526011600452602486fd5b634e487b7160e01b82526011600452602482fd5b8060051b8181048614821517156113f75782811c63ffffffff16908501526113f290611188565b6112ea565b634e487b7160e01b84526011600452602484fd5b634e487b7160e01b83526041600452602483fd5b61271061142c8251611230565b046101c29081018091116111975760e082019081518060031b90808204600814901517156111975761145d91611246565b90602083015160198102908082046019149015171561119757620186a0900460008382101561163e57505b820391821161119757604083019182516006810290808204600614901517156111975760008282101561163757505b810390811161119757606084019081518060011b90808204600214901517156111975760008282101561163057505b810390811161119757608085015161012b198101919082116111975761150f9160011c90611246565b9361152360a0820195600387510490611246565b9160c08201956115338751611230565b60008582101561162957505b84039384116111975751603b1981019281841161119757602b9560186113886115836005986115c4986115a197603c60009111600014611621575060021c90611246565b93511191511181611619575b506000901561160b5750603290611246565b90601e601487511091511081611611575b506000901561160b5750604b90611246565b9351119151118115611603575b50600090156115fe575060645b600060648311156115f757505b81039081116111975790565b90506115eb565b6115de565b9050386115d1565b90611246565b9050386115b2565b90503861158f565b905090611246565b905061153f565b90506114e6565b90506114b7565b9050611488565b600090815260026020526040902080546001600160a01b03161561166c5760060154421090565b5060009056fea2646970667358221220e8342a4d4d9ff8db323cbc03a47d2fbf5cdd4534218171ce2b5fa8d8d9e08d3264736f6c63430008140033",
  "linkReferences": {},
  "deployedLinkReferences": {}
}