{
  "_format": "hh-sol-artifact-1",
  "contractName": "Identity",
  "sourceName": "src/Identity.sol",
  "abi": [
    {
      "anonymous": false,
      "inputs": [
        {
          "indexed": true,
          "internalType": "address",
          "name": "userAddress",
          "type": "address"
        },
        {
          "indexed": false,
          "internalType": "bytes32",
          "name": "apiHash",
          "type": "bytes32"
        }
      ],
      "name": "APIAuthorized",
      "type": "event"
    },
    {
      "anonymous": false,
      "inputs": [
        {
          "indexed": true,
          "internalType": "address",
          "name": "userAddress",
          "type": "address"
        },
        {
          "indexed": false,
          "internalType": "bytes32",
          "name": "apiHash",
          "type": "bytes32"
        }
      ],
      "name": "APIRevoked",
      "type": "event"
    },
    {
      "anonymous": false,
      "inputs": [
        {
          "indexed": true,
          "internalType": "bytes32",
          "name": "requestId",
          "type": "bytes32"
        },
        {
          "indexed": true,
          "internalType": "address",
          "name": "userAddress",
          "type": "address"
        }
      ],
      "name": "CreditScoreApproved",
      "type": "event"
    },
    {
      "anonymous": false,
      "inputs": [
        {
          "indexed": true,
          "internalType": "bytes32",
          "name": "requestId",
          "type": "bytes32"
        },
        {
          "indexed": true,
          "internalType": "address",
          "name": "userAddress",
          "type": "address"
        }
      ],
      "name": "CreditScoreRejected",
      "type": "event"
    },
    {
      "anonymous": false,
      "inputs": [
        {
          "indexed": true,
          "internalType": "bytes32",
          "name": "requestId",
          "type": "bytes32"
        },
        {
          "indexed": true,
          "internalType": "address",
          "name": "fintechAddress",
          "type": "address"
        },
        {
          "indexed": true,
          "internalType": "address",
          "name": "userAddress",
          "type": "address"
        }
      ],
      "name": "CreditScoreRequested",
      "type": "event"
    },
    {
      "anonymous": false,
      "inputs": [
        {
          "indexed": true,
          "internalType": "address",
          "name": "userAddress",
          "type": "address"
        },
        {
          "indexed": true,
          "internalType": "address",
          "name": "fintechAddress",
          "type": "address"
        }
      ],
      "name": "FintechAuthorized",
      "type": "event"
    },
    {
      "anonymous": false,
      "inputs": [
        {
          "indexed": true,
          "internalType": "address",
          "name": "userAddress",
          "type": "address"
        },
        {
          "indexed": true,
          "internalType": "address",
          "name": "fintechAddress",
          "type": "address"
        }
      ],
      "name": "FintechRevoked",
      "type": "event"
    },
    {
      "anonymous": false,
      "inputs": [
        {
          "indexed": true,
          "internalType": "address",
          "name": "previousOwner",
          "type": "address"
        },
        {
          "indexed": true,
          "internalType": "address",
          "name": "newOwner",
          "type": "address"
        }
      ],
      "name": "OwnershipTransferred",
      "type": "event"
    },
    {
      "anonymous": false,
      "inputs": [
        {
          "indexed": false,
          "internalType": "address",
          "name": "account",
          "type": "address"
        }
      ],
      "name": "Paused",
      "type": "event"
    },
    {
      "anonymous": false,
      "inputs": [
        {
          "indexed": false,
          "internalType": "address",
          "name": "account",
          "type": "address"
        }
      ],
      "name": "Unpaused",
      "type": "event"
    },
    {
      "anonymous": false,
      "inputs": [
        {
          "indexed": true,
          "internalType": "address",
          "name": "userAddress",
          "type": "address"
        },
        {
          "indexed": false,
          "internalType": "string",
          "name": "userId",
          "type": "string"
        }
      ],
      "name": "UserRegistered",
      "type": "event"
    },
    {
      "anonymous": false,
      "inputs": [
        {
          "indexed": true,
          "internalType": "address",
          "name": "userAddress",
          "type": "address"
        }
      ],
      "name": "UserVerified",
      "type": "event"
    },
    {
      "inputs": [
        {
          "internalType": "bytes32",
          "name": "_requestId",
          "type": "bytes32"
        }
      ],
      "name": "approveCreditScoreRequest",
      "outputs": [],
      "stateMutability": "nonpayable",
      "type": "function"
    },
    {
      "inputs": [
        {
          "internalType": "address",
          "name": "_userAddress",
          "type": "address"
        },
        {
          "internalType": "bytes32",
          "name": "_apiHash",
          "type": "bytes32"
        }
      ],
      "name": "authorizeAPI",
      "outputs": [],
      "stateMutability": "nonpayable",
      "type": "function"
    },
    {
      "inputs": [
        {
          "internalType": "address",
          "name": "_userAddress",
          "type": "address"
        },
        {
          "internalType": "address",
          "name": "_fintechAddress",
          "type": "address"
        }
      ],
      "name": "authorizeFintech",
      "outputs": [],
      "stateMutability": "nonpayable",
      "type": "function"
    },
    {
      "inputs": [
        {
          "internalType": "bytes32",
          "name": "_requestId",
          "type": "bytes32"
        }
      ],
      "name": "completeCreditScoreRequest",
      "outputs": [],
      "stateMutability": "nonpayable",
      "type": "function"
    },
    {
      "inputs": [
        {
          "internalType": "bytes32",
          "name": "",
          "type": "bytes32"
        }
      ],
      "name": "creditScoreRequests",
      "outputs": [
        {
          "internalType": "address",
          "name": "fintechAddress",
          "type": "address"
        },
        {
          "internalType": "address",
          "name": "userAddress",
          "type": "address"
        },
        {
          "internalType": "uint256",
          "name": "timestamp",
          "type": "uint256"
        },
        {
          "internalType": "bool",
          "name": "isApproved",
          "type": "bool"
        },
        {
          "internalType": "bool",
          "name": "isCompleted",
          "type": "bool"
        },
        {
          "internalType": "bytes32",
          "name": "requestId",
          "type": "bytes32"
        }
      ],
      "stateMutability": "view",
      "type": "function"
    },
    {
      "inputs": [
        {
          "internalType": "address",
          "name": "",
          "type": "address"
        },
        {
          "internalType": "uint256",
          "name": "",
          "type": "uint256"
        }
      ],
      "name": "fintechCreditScoreRequests",
      "outputs": [
        {
          "internalType": "bytes32",
          "name": "",
          "type": "bytes32"
        }
      ],
      "stateMutability": "view",
      "type": "function"
    },
    {
      "inputs": [],
      "name": "getContractStats",
      "outputs": [
        {
          "internalType": "uint256",
          "name": "_totalUsers",
          "type": "uint256"
        },
        {
          "internalType": "uint256",
          "name": "_totalCreditScoreRequests",
          "type": "uint256"
        }
      ],
      "stateMutability": "view",
      "type": "function"
    },
    {
      "inputs": [
        {
          "internalType": "bytes32",
          "name": "_requestId",
          "type": "bytes32"
        }
      ],
      "name": "getCreditScoreRequest",
      "outputs": [
        {
          "internalType": "address",
          "name": "fintechAddress",
          "type": "address"
        },
        {
          "internalType": "address",
          "name": "userAddress",
          "type": "address"
        },
        {
          "internalType": "uint256",
          "name": "timestamp",
          "type": "uint256"
        },
        {
          "internalType": "bool",
          "name": "isApproved",
          "type": "bool"
        },
        {
          "internalType": "bool",
          "name": "isCompleted",
          "type": "bool"
        }
      ],
      "stateMutability": "view",
      "type": "function"
    },
    {
      "inputs": [
        {
          "internalType": "address",
          "name": "_fintechAddress",
          "type": "address"
        }
      ],
      "name": "getFintechCreditScoreRequests",
      "outputs": [
        {
          "internalType": "bytes32[]",
          "name": "",
          "type": "bytes32[]"
        }
      ],
      "stateMutability": "view",
      "type": "function"
    },
    {
      "inputs": [
        {
          "internalType": "address",
          "name": "_userAddress",
          "type": "address"
        }
      ],
      "name": "getUserCreditScoreRequests",
      "outputs": [
        {
          "internalType": "bytes32[]",
          "name": "",
          "type": "bytes32[]"
        }
      ],
      "stateMutability": "view",
      "type": "function"
    },
    {
      "inputs": [
        {
          "internalType": "address",
          "name": "_userAddress",
          "type": "address"
        }
      ],
      "name": "getUserIdentity",
      "outputs": [
        {
          "internalType": "string",
          "name": "userId",
          "type": "string"
        },
        {
          "internalType": "bool",
          "name": "isVerified",
          "type": "bool"
        },
        {
          "internalType": "uint256",
          "name": "createdAt",
          "type": "uint256"
        },
        {
          "internalType": "uint256",
          "name": "lastUpdated",
          "type": "uint256"
        },
        {
          "internalType": "bool",
          "name": "hasActiveCreditScore",
          "type": "bool"
        }
      ],
      "stateMutability": "view",
      "type": "function"
    },
    {
      "inputs": [
        {
          "internalType": "address",
          "name": "_userAddress",
          "type": "address"
        },
        {
          "internalType": "bytes32",
          "name": "_apiHash",
          "type": "bytes32"
        }
      ],
      "name": "hasAPIAccess",
      "outputs": [
        {
          "internalType": "bool",
          "name": "",
          "type": "bool"
        }
      ],
      "stateMutability": "view",
      "type": "function"
    },
    {
      "inputs": [
        {
          "internalType": "address",
          "name": "",
          "type": "address"
        }
      ],
      "name": "identities",
      "outputs": [
        {
          "internalType": "address",
          "name": "userAddress",
          "type": "address"
        },
        {
          "internalType": "string",
          "name": "userId",
          "type": "string"
        },
        {
          "internalType": "bool",
          "name": "isVerified",
          "type": "bool"
        },
        {
          "internalType": "uint256",
          "name": "createdAt",
          "type": "uint256"
        },
        {
          "internalType": "uint256",
          "name": "lastUpdated",
          "type": "uint256"
        },
        {
          "internalType": "bool",
          "name": "hasActiveCreditScore",
          "type": "bool"
        },
        {
          "internalType": "uint256",
          "name": "lastCreditScoreRequest",
          "type": "uint256"
        }
      ],
      "stateMutability": "view",
      "type": "function"
    },
    {
      "inputs": [
        {
          "internalType": "address",
          "name": "_userAddress",
          "type": "address"
        },
        {
          "internalType": "address",
          "name": "_fintechAddress",
          "type": "address"
        }
      ],
      "name": "isFintechAuthorized",
      "outputs": [
        {
          "internalType": "bool",
          "name": "",
          "type": "bool"
        }
      ],
      "stateMutability": "view",
      "type": "function"
    },
    {
      "inputs": [],
      "name": "owner",
      "outputs": [
        {
          "internalType": "address",
          "name": "",
          "type": "address"
        }
      ],
      "stateMutability": "view",
      "type": "function"
    },
    {
      "inputs": [],
      "name": "pause",
      "outputs": [],
      "stateMutability": "nonpayable",
      "type": "function"
    },
    {
      "inputs": [],
      "name": "paused",
      "outputs": [
        {
          "internalType": "bool",
          "name": "",
          "type": "bool"
        }
      ],
      "stateMutability": "view",
      "type": "function"
    },
    {
      "inputs": [
        {
          "internalType": "string",
          "name": "_userId",
          "type": "string"
        }
      ],
      "name": "registerUser",
      "outputs": [],
      "stateMutability": "nonpayable",
      "type": "function"
    },
    {
      "inputs": [
        {
          "internalType": "bytes32",
          "name": "_requestId",
          "type": "bytes32"
        }
      ],
      "name": "rejectCreditScoreRequest",
      "outputs": [],
      "stateMutability": "nonpayable",
      "type": "function"
    },
    {
      "inputs": [],
      "name": "renounceOwnership",
      "outputs": [],
      "stateMutability": "nonpayable",
      "type": "function"
    },
    {
      "inputs": [
        {
          "internalType": "address",
          "name": "_userAddress",
          "type": "address"
        },
        {
          "internalType": "bytes32",
          "name": "_requestId",
          "type": "bytes32"
        }
      ],
      "name": "requestCreditScore",
      "outputs": [],
      "stateMutability": "nonpayable",
      "type": "function"
    },
    {
      "inputs": [
        {
          "internalType": "address",
          "name": "_userAddress",
          "type": "address"
        },
        {
          "internalType": "bytes32",
          "name": "_apiHash",
          "type": "bytes32"
        }
      ],
      "name": "revokeAPI",
      "outputs": [],
      "stateMutability": "nonpayable",
      "type": "function"
    },
    {
      "inputs": [
        {
          "internalType": "address",
          "name": "_userAddress",
          "type": "address"
        },
        {
          "internalType": "address",
          "name": "_fintechAddress",
          "type": "address"
        }
      ],
      "name": "revokeFintech",
      "outputs": [],
      "stateMutability": "nonpayable",
      "type": "function"
    },
    {
      "inputs": [],
      "name": "totalCreditScoreRequests",
      "outputs": [
        {
          "internalType": "uint256",
          "name": "",
          "type": "uint256"
        }
      ],
      "stateMutability": "view",
      "type": "function"
    },
    {
      "inputs": [],
      "name": "totalUsers",
      "outputs": [
        {
          "internalType": "uint256",
          "name": "",
          "type": "uint256"
        }
      ],
      "stateMutability": "view",
      "type": "function"
    },
    {
      "inputs": [
        {
          "internalType": "address",
          "name": "newOwner",
          "type": "address"
        }
      ],
      "name": "transferOwnership",
      "outputs": [],
      "stateMutability": "nonpayable",
      "type": "function"
    },
    {
      "inputs": [],
      "name": "unpause",
      "outputs": [],
      "stateMutability": "nonpayable",
      "type": "function"
    },
    {
      "inputs": [
        {
          "internalType": "address",
          "name": "",
          "type": "address"
        },
        {
          "internalType": "uint256",
          "name": "",
          "type": "uint256"
        }
      ],
      "name": "userCreditScoreRequests",
      "outputs": [
        {
          "internalType": "bytes32",
          "name": "",
          "type": "bytes32"
        }
      ],
      "stateMutability": "view",
      "type": "function"
    },
    {
      "inputs": [
        {
          "internalType": "string",
          "name": "",
          "type": "string"
        }
      ],
      "name": "userIdToAddress",
      "outputs": [
        {
          "internalType": "address",
          "name": "",
          "type": "address"
        }
      ],
      "stateMutability": "view",
      "type": "function"
    },
    {
      "inputs": [
        {
          "internalType": "address",
          "name": "_userAddress",
          "type": "address"
        }
      ],
      "name": "verifyUser",
      "outputs": [],
      "stateMutability": "nonpayable",
      "type": "function"
    }
  ],
  "bytecode": "0x608060405234801561001057600080fd5b5061001a33610030565b6000805460ff60a01b1916905560018055610080565b600080546001600160a01b038381166001600160a01b0319831681178455604051919092169283917f8be0079c531659141344cd1fd0a4f28419497f9722a3daafe3b4186f6b6457e09190a35050565b611f658061008f6000396000f3fe608060405234801561001057600080fd5b50600436106101da5760003560e01c80638456cb5911610104578063b1ee4e90116100a2578063dfe6b5d611610071578063dfe6b5d614610557578063e9e52c9414610572578063f2fde38b14610585578063f653b81e1461059857600080fd5b8063b1ee4e90146104f4578063bda7738c14610507578063bff1f9e11461051a578063c21be6ae1461052357600080fd5b8063a137b02f116100de578063a137b02f146103fe578063aa5d71c714610491578063adc4740e146104a4578063af54db06146104b757600080fd5b80638456cb59146103be5780638da5cb5b146103c6578063915b8812146103eb57600080fd5b80634d8131201161017c578063704f1b941161014b578063704f1b94146103795780637089c7a21461038c578063715018a6146103a35780637704953f146103ab57600080fd5b80634d813120146103215780635c975abb146103345780635e9b2de9146103465780636c324d9b1461036657600080fd5b80632129c761116101b85780632129c7611461025c578063244abe87146102805780633f4ba83a146103065780633f4ca9f51461030e57600080fd5b80630ccdc92f146101df57806316cce81814610234578063184bd36e14610249575b600080fd5b61021f6101ed366004611a84565b6001600160a01b0391821660009081526002602090815260408083209390941682526007909201909152205460ff1690565b60405190151581526020015b60405180910390f35b610247610242366004611ab7565b6105be565b005b610247610257366004611ab7565b610858565b61026f61026a366004611ae1565b61098b565b60405161022b959493929190611b53565b6102cf61028e366004611b8c565b60009081526004602052604090208054600182015460028301546003909301546001600160a01b039283169492909116929160ff8083169261010090041690565b604080516001600160a01b03968716815295909416602086015292840191909152151560608301521515608082015260a00161022b565b610247610a74565b61024761031c366004611a84565b610a86565b61024761032f366004611ae1565b610c13565b600054600160a01b900460ff1661021f565b610359610354366004611ae1565b610d12565b60405161022b9190611ba5565b610247610374366004611b8c565b610d7e565b610247610387366004611bff565b610e9a565b61039560085481565b60405190815260200161022b565b6102476110d9565b6102476103b9366004611a84565b6110eb565b61024761120a565b6000546001600160a01b03165b6040516001600160a01b03909116815260200161022b565b6102476103f9366004611ab7565b61121a565b61045561040c366004611b8c565b6004602081905260009182526040909120805460018201546002830154600384015493909401546001600160a01b0392831694929091169260ff80821692610100909204169086565b604080516001600160a01b03978816815296909516602087015293850192909252151560608401521515608083015260a082015260c00161022b565b61039561049f366004611ab7565b611330565b6102476104b2366004611b8c565b611361565b61021f6104c5366004611ab7565b6001600160a01b0391909116600090815260026020908152604080832093835260059093019052205460ff1690565b610395610502366004611ab7565b6114df565b610247610515366004611b8c565b6114fb565b61039560075481565b6103d3610531366004611bff565b80516020818301810180516003825292820191909301209152546001600160a01b031681565b6007546008546040805192835260208301919091520161022b565b610359610580366004611ae1565b61167b565b610247610593366004611ae1565b6116e5565b6105ab6105a6366004611ae1565b61175b565b60405161022b9796959493929190611cb0565b6105c6611830565b6105ce61187d565b6001600160a01b038281166000908152600260205260409020541661060e5760405162461bcd60e51b815260040161060590611d00565b60405180910390fd5b6001600160a01b0382166000908152600260208190526040909120015460ff1661066e5760405162461bcd60e51b8152602060048201526011602482015270155cd95c881b9bdd081d995c9a599a5959607a1b6044820152606401610605565b6001600160a01b038216600090815260026020908152604080832033845260070190915290205460ff166106dd5760405162461bcd60e51b8152602060048201526016602482015275119a5b9d1958da081b9bdd08185d5d1a1bdc9a5e995960521b6044820152606401610605565b6000818152600460205260409020600101546001600160a01b0316156107455760405162461bcd60e51b815260206004820152601960248201527f5265717565737420494420616c726561647920657869737473000000000000006044820152606401610605565b806107625760405162461bcd60e51b815260040161060590611d2d565b600081815260046020818152604080842080546001600160a01b0319908116339081178355600180840180546001600160a01b038c1694168417905542600285015560038401805461ffff191690559583018890559086526005845282862080548087018255908752848720018790558552600683529084208054938401815584529083209091018390556008805491926107fc83611d59565b90915550506001600160a01b03831660008181526002602052604080822042600a9091015551339185917f531f793eb63924895b6e8beb242d00259efc9213d72007c70a37f4e129e7c8e39190a45061085460018055565b5050565b6108606118d6565b6001600160a01b03828116600090815260026020526040902054166108975760405162461bcd60e51b815260040161060590611d00565b6001600160a01b038216600090815260026020908152604080832084845260050190915290205460ff16156109075760405162461bcd60e51b815260206004820152601660248201527510541248185b1c9958591e48185d5d1a1bdc9a5e995960521b6044820152606401610605565b6001600160a01b0382166000818152600260208181526040808420868552600581018352818520805460ff19166001179055600681018352818520429081905594869052928252600490920192909255518381527fb1b2200bd56314412cbb830b49d2a4f91f3b86b586c5c911c807b3b1e54d34f591015b60405180910390a25050565b6001600160a01b038116600090815260026020819052604082209081015460038201546004830154600984015460018501805460609796879687968796929560ff92831694919392169085906109e090611d80565b80601f0160208091040260200160405190810160405280929190818152602001828054610a0c90611d80565b8015610a595780601f10610a2e57610100808354040283529160200191610a59565b820191906000526020600020905b815481529060010190602001808311610a3c57829003601f168201915b50505050509450955095509550955095505091939590929450565b610a7c6118d6565b610a84611930565b565b610a8e6118d6565b6001600160a01b0382811660009081526002602052604090205416610ac55760405162461bcd60e51b815260040161060590611d00565b6001600160a01b038116610b1b5760405162461bcd60e51b815260206004820152601760248201527f496e76616c69642066696e7465636820616464726573730000000000000000006044820152606401610605565b6001600160a01b038083166000908152600260209081526040808320938516835260079093019052205460ff1615610b955760405162461bcd60e51b815260206004820152601a60248201527f46696e7465636820616c726561647920617574686f72697a65640000000000006044820152606401610605565b6001600160a01b038281166000818152600260208181526040808420958716808552600787018352818520805460ff1916600117905560088701835281852042908190558686529390925260049095019190915592517feadeddf4a31a1c6c6b70722dbe3757423f4a17a4d6a4a6df183a9c0559addf2d9190a35050565b610c1b6118d6565b6001600160a01b0381811660009081526002602052604090205416610c525760405162461bcd60e51b815260040161060590611d00565b6001600160a01b0381166000908152600260208190526040909120015460ff1615610cb75760405162461bcd60e51b8152602060048201526015602482015274155cd95c88185b1c9958591e481d995c9a599a5959605a1b6044820152606401610605565b6001600160a01b0381166000818152600260208190526040808320918201805460ff1916600117905542600490920191909155517fa6625d2d26e786e2f473111bea4b2fcdbbf1863d883a2359989ce3a103d2972a9190a250565b6001600160a01b038116600090815260066020908152604091829020805483518184028101840190945280845260609392830182828015610d7257602002820191906000526020600020905b815481526020019060010190808311610d5e575b50505050509050919050565b610d866118d6565b60008181526004602052604090206001015481906001600160a01b0316610dbf5760405162461bcd60e51b815260040161060590611d2d565b60008281526004602052604090206003015460ff16610e175760405162461bcd60e51b815260206004820152601460248201527314995c5d595cdd081b9bdd08185c1c1c9bdd995960621b6044820152606401610605565b600082815260046020526040902060030154610100900460ff1615610e4e5760405162461bcd60e51b815260040161060590611dba565b50600090815260046020908152604080832060038101805461ff0019166101001790556001908101546001600160a01b031684526002909252909120600901805460ff19169091179055565b610ea2611830565b610eaa61187d565b6000815111610efb5760405162461bcd60e51b815260206004820152601760248201527f557365722049442063616e6e6f7420626520656d7074790000000000000000006044820152606401610605565b60006001600160a01b0316600382604051610f169190611df1565b908152604051908190036020019020546001600160a01b031614610f755760405162461bcd60e51b81526020600482015260166024820152755573657220494420616c72656164792065786973747360501b6044820152606401610605565b336000908152600260205260409020546001600160a01b031615610fdb5760405162461bcd60e51b815260206004820152601a60248201527f4164647265737320616c726561647920726567697374657265640000000000006044820152606401610605565b33600081815260026020526040902080546001600160a01b0319169091178155600181016110098382611e5c565b5060028101805460ff199081169091554260038084018290556004840191909155600983018054909216909155604051339190611047908590611df1565b90815260405190819003602001902080546001600160a01b03929092166001600160a01b03199092169190911790556007805490600061108683611d59565b9190505550336001600160a01b03167f48cac28ad4dc618e15f4c2dd5e97751182f166de97b25618318b2112aa951a2f836040516110c49190611f1c565b60405180910390a2506110d660018055565b50565b6110e16118d6565b610a846000611985565b6110f36118d6565b6001600160a01b038281166000908152600260205260409020541661112a5760405162461bcd60e51b815260040161060590611d00565b6001600160a01b038083166000908152600260209081526040808320938516835260079093019052205460ff1661119c5760405162461bcd60e51b8152602060048201526016602482015275119a5b9d1958da081b9bdd08185d5d1a1bdc9a5e995960521b6044820152606401610605565b6001600160a01b038083166000818152600260208181526040808420958716808552600787018352818520805460ff19169055858552929091524260049095019490945592517f9b6320ccead72f7f4a3a7e5b07c3234e4851c2bc207df2de97144eb9598dc66f9190a35050565b6112126118d6565b610a846119d5565b6112226118d6565b6001600160a01b03828116600090815260026020526040902054166112595760405162461bcd60e51b815260040161060590611d00565b6001600160a01b038216600090815260026020908152604080832084845260050190915290205460ff166112c45760405162461bcd60e51b8152602060048201526012602482015271105412481b9bdd08185d5d1a1bdc9a5e995960721b6044820152606401610605565b6001600160a01b0382166000818152600260208181526040808420868552600581018352818520805460ff191690559385905291815242600490930192909255518381527fe8b52de5fadfbc17f0ffdf3c2079acf75506ae811cbab8b01133c6542722c4b7910161097f565b6006602052816000526040600020818154811061134c57600080fd5b90600052602060002001600091509150505481565b60008181526004602052604090206001015481906001600160a01b031661139a5760405162461bcd60e51b815260040161060590611d2d565b6113a261187d565b6000828152600460205260409020600101546001600160a01b031633146113fc5760405162461bcd60e51b815260206004820152600e60248201526d139bdd08185d5d1a1bdc9a5e995960921b6044820152606401610605565b60008281526004602052604090206003015460ff16156114595760405162461bcd60e51b815260206004820152601860248201527714995c5d595cdd08185b1c9958591e48185c1c1c9bdd995960421b6044820152606401610605565b600082815260046020526040902060030154610100900460ff16156114905760405162461bcd60e51b815260040161060590611dba565b600082815260046020526040808220600301805460ff1916600117905551339184917f3f269fd9f498eb3cf2377a93a93345455f99340b62b07f0a3af293be585e634b9190a361085460018055565b6005602052816000526040600020818154811061134c57600080fd5b60008181526004602052604090206001015481906001600160a01b03166115345760405162461bcd60e51b815260040161060590611d2d565b61153c61187d565b6000828152600460205260409020600101546001600160a01b031633146115965760405162461bcd60e51b815260206004820152600e60248201526d139bdd08185d5d1a1bdc9a5e995960921b6044820152606401610605565b60008281526004602052604090206003015460ff16156115f35760405162461bcd60e51b815260206004820152601860248201527714995c5d595cdd08185b1c9958591e48185c1c1c9bdd995960421b6044820152606401610605565b600082815260046020526040902060030154610100900460ff161561162a5760405162461bcd60e51b815260040161060590611dba565b600082815260046020526040808220600301805461ffff191661010017905551339184917f46d7fb2599e0841ec295666b6b246f33c4ed29558f6a661dad11b9fdf41716379190a361085460018055565b6001600160a01b038116600090815260056020908152604091829020805483518184028101840190945280845260609392830182828015610d725760200282019190600052602060002090815481526020019060010190808311610d5e5750505050509050919050565b6116ed6118d6565b6001600160a01b0381166117525760405162461bcd60e51b815260206004820152602660248201527f4f776e61626c653a206e6577206f776e657220697320746865207a65726f206160448201526564647265737360d01b6064820152608401610605565b6110d681611985565b600260205260009081526040902080546001820180546001600160a01b03909216929161178790611d80565b80601f01602080910402602001604051908101604052809291908181526020018280546117b390611d80565b80156118005780601f106117d557610100808354040283529160200191611800565b820191906000526020600020905b8154815290600101906020018083116117e357829003601f168201915b505050506002830154600384015460048501546009860154600a90960154949560ff938416959294509092169087565b600054600160a01b900460ff1615610a845760405162461bcd60e51b815260206004820152601060248201526f14185d5cd8589b194e881c185d5cd95960821b6044820152606401610605565b6002600154036118cf5760405162461bcd60e51b815260206004820152601f60248201527f5265656e7472616e637947756172643a207265656e7472616e742063616c6c006044820152606401610605565b6002600155565b6000546001600160a01b03163314610a845760405162461bcd60e51b815260206004820181905260248201527f4f776e61626c653a2063616c6c6572206973206e6f7420746865206f776e65726044820152606401610605565b611938611a18565b6000805460ff60a01b191690557f5db9ee0a495bf2e6ff9c91a7834c1ba4fdd244a5e8aa4e537bd38aeae4b073aa335b6040516001600160a01b03909116815260200160405180910390a1565b600080546001600160a01b038381166001600160a01b0319831681178455604051919092169283917f8be0079c531659141344cd1fd0a4f28419497f9722a3daafe3b4186f6b6457e09190a35050565b6119dd611830565b6000805460ff60a01b1916600160a01b1790557f62e78cea01bee320cd4e420270b5ea74000d11b0c9f74754ebdbfc544b05a2586119683390565b600054600160a01b900460ff16610a845760405162461bcd60e51b815260206004820152601460248201527314185d5cd8589b194e881b9bdd081c185d5cd95960621b6044820152606401610605565b80356001600160a01b0381168114611a7f57600080fd5b919050565b60008060408385031215611a9757600080fd5b611aa083611a68565b9150611aae60208401611a68565b90509250929050565b60008060408385031215611aca57600080fd5b611ad383611a68565b946020939093013593505050565b600060208284031215611af357600080fd5b611afc82611a68565b9392505050565b60005b83811015611b1e578181015183820152602001611b06565b50506000910152565b60008151808452611b3f816020860160208601611b03565b601f01601f19169290920160200192915050565b60a081526000611b6660a0830188611b27565b951515602083015250604081019390935260608301919091521515608090910152919050565b600060208284031215611b9e57600080fd5b5035919050565b6020808252825182820181905260009190848201906040850190845b81811015611bdd57835183529284019291840191600101611bc1565b50909695505050505050565b634e487b7160e01b600052604160045260246000fd5b600060208284031215611c1157600080fd5b813567ffffffffffffffff80821115611c2957600080fd5b818401915084601f830112611c3d57600080fd5b813581811115611c4f57611c4f611be9565b604051601f8201601f19908116603f01168101908382118183101715611c7757611c77611be9565b81604052828152876020848701011115611c9057600080fd5b826020860160208301376000928101602001929092525095945050505050565b6001600160a01b038816815260e060208201819052600090611cd490830189611b27565b96151560408301525060608101949094526080840192909252151560a083015260c09091015292915050565b602080825260139082015272155cd95c881b9bdd081c9959da5cdd195c9959606a1b604082015260600190565b602080825260129082015271125b9d985b1a59081c995c5d595cdd08125160721b604082015260600190565b600060018201611d7957634e487b7160e01b600052601160045260246000fd5b5060010190565b600181811c90821680611d9457607f821691505b602082108103611db457634e487b7160e01b600052602260045260246000fd5b50919050565b60208082526019908201527f5265717565737420616c726561647920636f6d706c6574656400000000000000604082015260600190565b60008251611e03818460208701611b03565b9190910192915050565b601f821115611e5757600081815260208120601f850160051c81016020861015611e345750805b601f850160051c820191505b81811015611e5357828155600101611e40565b5050505b505050565b815167ffffffffffffffff811115611e7657611e76611be9565b611e8a81611e848454611d80565b84611e0d565b602080601f831160018114611ebf5760008415611ea75750858301515b600019600386901b1c1916600185901b178555611e53565b600085815260208120601f198616915b82811015611eee57888601518255948401946001909101908401611ecf565b5085821015611f0c5787850151600019600388901b60f8161c191681555b5050505050600190811b01905550565b602081526000611afc6020830184611b2756fea26469706673582212208ad17fcbe3975a750c894a3608e896f9d019b774e9c17e59c58ca508a7a113b564736f6c63430008140033",
  "linkReferences": {},
  "deployedLinkReferences": {}
}