{
  "_format": "hh-sol-artifact-1",
  "contractName": "DataRegistry",
  "sourceName": "src/DataRegistry.sol",
  "abi": [
    {
      "anonymous": false,
      "inputs": [
        {
          "indexed": true,
          "internalType": "bytes32",
          "name": "sourceId",
          "type": "bytes32"
        },
        {
          "indexed": true,
          "internalType": "bytes32",
          "name": "dataType",
          "type": "bytes32"
        },
        {
          "indexed": true,
          "internalType": "address",
          "name": "requester",
          "type": "address"
        }
      ],
      "name": "DataRequested",
      "type": "event"
    },
    {
      "anonymous": false,
      "inputs": [
        {
          "indexed": true,
          "internalType": "bytes32",
          "name": "sourceId",
          "type": "bytes32"
        },
        {
          "indexed": false,
          "internalType": "string",
          "name": "sourceName",
          "type": "string"
        },
        {
          "indexed": true,
          "internalType": "address",
          "name": "addedBy",
          "type": "address"
        }
      ],
      "name": "DataSourceAdded",
      "type": "event"
    },
    {
      "anonymous": false,
      "inputs": [
        {
          "indexed": true,
          "internalType": "bytes32",
          "name": "sourceId",
          "type": "bytes32"
        }
      ],
      "name": "DataSourceDeactivated",
      "type": "event"
    },
    {
      "anonymous": false,
      "inputs": [
        {
          "indexed": true,
          "internalType": "bytes32",
          "name": "sourceId",
          "type": "bytes32"
        }
      ],
      "name": "DataSourceReactivated",
      "type": "event"
    },
    {
      "anonymous": false,
      "inputs": [
        {
          "indexed": true,
          "internalType": "bytes32",
          "name": "sourceId",
          "type": "bytes32"
        },
        {
          "indexed": false,
          "internalType": "string",
          "name": "sourceName",
          "type": "string"
        }
      ],
      "name": "DataSourceUpdated",
      "type": "event"
    },
    {
      "anonymous": false,
      "inputs": [
        {
          "indexed": true,
          "internalType": "bytes32",
          "name": "typeId",
          "type": "bytes32"
        },
        {
          "indexed": false,
          "internalType": "string",
          "name": "typeName",
          "type": "string"
        }
      ],
      "name": "DataTypeAdded",
      "type": "event"
    },
    {
      "anonymous": false,
      "inputs": [
        {
          "indexed": true,
          "internalType": "bytes32",
          "name": "sourceId",
          "type": "bytes32"
        },
        {
          "indexed": true,
          "internalType": "bytes32",
          "name": "typeId",
          "type": "bytes32"
        }
      ],
      "name": "DataTypeSupported",
      "type": "event"
    },
    {
      "anonymous": false,
      "inputs": [
        {
          "indexed": true,
          "internalType": "bytes32",
          "name": "sourceId",
          "type": "bytes32"
        },
        {
          "indexed": true,
          "internalType": "bytes32",
          "name": "typeId",
          "type": "bytes32"
        }
      ],
      "name": "DataTypeUnsupported",
      "type": "event"
    },
    {
      "anonymous": false,
      "inputs": [
        {
          "indexed": true,
          "internalType": "address",
          "name": "previousOwner",
          "type": "address"
        },
        {
          "indexed": true,
          "internalType": "address",
          "name": "newOwner",
          "type": "address"
        }
      ],
      "name": "OwnershipTransferred",
      "type": "event"
    },
    {
      "anonymous": false,
      "inputs": [
        {
          "indexed": false,
          "internalType": "address",
          "name": "account",
          "type": "address"
        }
      ],
      "name": "Paused",
      "type": "event"
    },
    {
      "anonymous": false,
      "inputs": [
        {
          "indexed": false,
          "internalType": "address",
          "name": "account",
          "type": "address"
        }
      ],
      "name": "Unpaused",
      "type": "event"
    },
    {
      "inputs": [
        {
          "internalType": "bytes32",
          "name": "_sourceId",
          "type": "bytes32"
        },
        {
          "internalType": "string",
          "name": "_sourceName",
          "type": "string"
        },
        {
          "internalType": "string",
          "name": "_sourceDescription",
          "type": "string"
        },
        {
          "internalType": "string",
          "name": "_apiEndpoint",
          "type": "string"
        },
        {
          "internalType": "bytes32",
          "name": "_apiKeyHash",
          "type": "bytes32"
        }
      ],
      "name": "addDataSource",
      "outputs": [],
      "stateMutability": "nonpayable",
      "type": "function"
    },
    {
      "inputs": [
        {
          "internalType": "bytes32",
          "name": "_typeId",
          "type": "bytes32"
        },
        {
          "internalType": "string",
          "name": "_typeName",
          "type": "string"
        },
        {
          "internalType": "string",
          "name": "_typeDescription",
          "type": "string"
        }
      ],
      "name": "addDataType",
      "outputs": [],
      "stateMutability": "nonpayable",
      "type": "function"
    },
    {
      "inputs": [
        {
          "internalType": "bytes32",
          "name": "_sourceId",
          "type": "bytes32"
        },
        {
          "internalType": "bytes32",
          "name": "_typeId",
          "type": "bytes32"
        }
      ],
      "name": "addDataTypeSupport",
      "outputs": [],
      "stateMutability": "nonpayable",
      "type": "function"
    },
    {
      "inputs": [
        {
          "internalType": "uint256",
          "name": "",
          "type": "uint256"
        }
      ],
      "name": "allDataTypeIds",
      "outputs": [
        {
          "internalType": "bytes32",
          "name": "",
          "type": "bytes32"
        }
      ],
      "stateMutability": "view",
      "type": "function"
    },
    {
      "inputs": [
        {
          "internalType": "uint256",
          "name": "",
          "type": "uint256"
        }
      ],
      "name": "allSourceIds",
      "outputs": [
        {
          "internalType": "bytes32",
          "name": "",
          "type": "bytes32"
        }
      ],
      "stateMutability": "view",
      "type": "function"
    },
    {
      "inputs": [
        {
          "internalType": "address",
          "name": "",
          "type": "address"
        },
        {
          "internalType": "uint256",
          "name": "",
          "type": "uint256"
        }
      ],
      "name": "authorizedSources",
      "outputs": [
        {
          "internalType": "bytes32",
          "name": "",
          "type": "bytes32"
        }
      ],
      "stateMutability": "view",
      "type": "function"
    },
    {
      "inputs": [
        {
          "internalType": "bytes32",
          "name": "",
          "type": "bytes32"
        }
      ],
      "name": "dataSources",
      "outputs": [
        {
          "internalType": "bytes32",
          "name": "sourceId",
          "type": "bytes32"
        },
        {
          "internalType": "string",
          "name": "sourceName",
          "type": "string"
        },
        {
          "internalType": "string",
          "name": "sourceDescription",
          "type": "string"
        },
        {
          "internalType": "string",
          "name": "apiEndpoint",
          "type": "string"
        },
        {
          "internalType": "bytes32",
          "name": "apiKeyHash",
          "type": "bytes32"
        },
        {
          "internalType": "bool",
          "name": "isActive",
          "type": "bool"
        },
        {
          "internalType": "uint256",
          "name": "addedAt",
          "type": "uint256"
        },
        {
          "internalType": "uint256",
          "name": "lastUpdated",
          "type": "uint256"
        },
        {
          "internalType": "address",
          "name": "addedBy",
          "type": "address"
        },
        {
          "internalType": "uint256",
          "name": "requestCount",
          "type": "uint256"
        },
        {
          "internalType": "uint256",
          "name": "successCount",
          "type": "uint256"
        },
        {
          "internalType": "uint256",
          "name": "failureCount",
          "type": "uint256"
        }
      ],
      "stateMutability": "view",
      "type": "function"
    },
    {
      "inputs": [
        {
          "internalType": "bytes32",
          "name": "",
          "type": "bytes32"
        }
      ],
      "name": "dataTypes",
      "outputs": [
        {
          "internalType": "bytes32",
          "name": "typeId",
          "type": "bytes32"
        },
        {
          "internalType": "string",
          "name": "typeName",
          "type": "string"
        },
        {
          "internalType": "string",
          "name": "typeDescription",
          "type": "string"
        },
        {
          "internalType": "bool",
          "name": "isSupported",
          "type": "bool"
        },
        {
          "internalType": "uint256",
          "name": "addedAt",
          "type": "uint256"
        },
        {
          "internalType": "uint256",
          "name": "lastUsed",
          "type": "uint256"
        }
      ],
      "stateMutability": "view",
      "type": "function"
    },
    {
      "inputs": [
        {
          "internalType": "bytes32",
          "name": "_sourceId",
          "type": "bytes32"
        }
      ],
      "name": "deactivateDataSource",
      "outputs": [],
      "stateMutability": "nonpayable",
      "type": "function"
    },
    {
      "inputs": [],
      "name": "getAllDataTypeIds",
      "outputs": [
        {
          "internalType": "bytes32[]",
          "name": "",
          "type": "bytes32[]"
        }
      ],
      "stateMutability": "view",
      "type": "function"
    },
    {
      "inputs": [],
      "name": "getAllSourceIds",
      "outputs": [
        {
          "internalType": "bytes32[]",
          "name": "",
          "type": "bytes32[]"
        }
      ],
      "stateMutability": "view",
      "type": "function"
    },
    {
      "inputs": [],
      "name": "getContractStats",
      "outputs": [
        {
          "internalType": "uint256",
          "name": "_totalDataSources",
          "type": "uint256"
        },
        {
          "internalType": "uint256",
          "name": "_totalDataTypes",
          "type": "uint256"
        },
        {
          "internalType": "uint256",
          "name": "_totalRequests",
          "type": "uint256"
        }
      ],
      "stateMutability": "view",
      "type": "function"
    },
    {
      "inputs": [
        {
          "internalType": "bytes32",
          "name": "_sourceId",
          "type": "bytes32"
        }
      ],
      "name": "getDataSource",
      "outputs": [
        {
          "internalType": "string",
          "name": "sourceName",
          "type": "string"
        },
        {
          "internalType": "string",
          "name": "sourceDescription",
          "type": "string"
        },
        {
          "internalType": "string",
          "name": "apiEndpoint",
          "type": "string"
        },
        {
          "internalType": "bool",
          "name": "isActive",
          "type": "bool"
        },
        {
          "internalType": "uint256",
          "name": "addedAt",
          "type": "uint256"
        },
        {
          "internalType": "uint256",
          "name": "requestCount",
          "type": "uint256"
        },
        {
          "internalType": "uint256",
          "name": "successCount",
          "type": "uint256"
        },
        {
          "internalType": "uint256",
          "name": "failureCount",
          "type": "uint256"
        }
      ],
      "stateMutability": "view",
      "type": "function"
    },
    {
      "inputs": [
        {
          "internalType": "bytes32",
          "name": "_sourceId",
          "type": "bytes32"
        }
      ],
      "name": "getDataSourceStats",
      "outputs": [
        {
          "internalType": "uint256",
          "name": "requestCount",
          "type": "uint256"
        },
        {
          "internalType": "uint256",
          "name": "successCount",
          "type": "uint256"
        },
        {
          "internalType": "uint256",
          "name": "failureCount",
          "type": "uint256"
        }
      ],
      "stateMutability": "view",
      "type": "function"
    },
    {
      "inputs": [
        {
          "internalType": "bytes32",
          "name": "_typeId",
          "type": "bytes32"
        }
      ],
      "name": "getDataType",
      "outputs": [
        {
          "internalType": "string",
          "name": "typeName",
          "type": "string"
        },
        {
          "internalType": "string",
          "name": "typeDescription",
          "type": "string"
        },
        {
          "internalType": "bool",
          "name": "isSupported",
          "type": "bool"
        },
        {
          "internalType": "uint256",
          "name": "addedAt",
          "type": "uint256"
        },
        {
          "internalType": "uint256",
          "name": "lastUsed",
          "type": "uint256"
        }
      ],
      "stateMutability": "view",
      "type": "function"
    },
    {
      "inputs": [
        {
          "internalType": "bytes32",
          "name": "_sourceId",
          "type": "bytes32"
        }
      ],
      "name": "isDataSourceActive",
      "outputs": [
        {
          "internalType": "bool",
          "name": "",
          "type": "bool"
        }
      ],
      "stateMutability": "view",
      "type": "function"
    },
    {
      "inputs": [
        {
          "internalType": "bytes32",
          "name": "_sourceId",
          "type": "bytes32"
        },
        {
          "internalType": "bytes32",
          "name": "_typeId",
          "type": "bytes32"
        }
      ],
      "name": "isDataTypeSupported",
      "outputs": [
        {
          "internalType": "bool",
          "name": "",
          "type": "bool"
        }
      ],
      "stateMutability": "view",
      "type": "function"
    },
    {
      "inputs": [],
      "name": "owner",
      "outputs": [
        {
          "internalType": "address",
          "name": "",
          "type": "address"
        }
      ],
      "stateMutability": "view",
      "type": "function"
    },
    {
      "inputs": [],
      "name": "pause",
      "outputs": [],
      "stateMutability": "nonpayable",
      "type": "function"
    },
    {
      "inputs": [],
      "name": "paused",
      "outputs": [
        {
          "internalType": "bool",
          "name": "",
          "type": "bool"
        }
      ],
      "stateMutability": "view",
      "type": "function"
    },
    {
      "inputs": [
        {
          "internalType": "bytes32",
          "name": "_sourceId",
          "type": "bytes32"
        }
      ],
      "name": "reactivateDataSource",
      "outputs": [],
      "stateMutability": "nonpayable",
      "type": "function"
    },
    {
      "inputs": [
        {
          "internalType": "bytes32",
          "name": "_sourceId",
          "type": "bytes32"
        },
        {
          "internalType": "bytes32",
          "name": "_typeId",
          "type": "bytes32"
        },
        {
          "internalType": "address",
          "name": "_requester",
          "type": "address"
        },
        {
          "internalType": "bool",
          "name": "_success",
          "type": "bool"
        }
      ],
      "name": "recordDataRequest",
      "outputs": [],
      "stateMutability": "nonpayable",
      "type": "function"
    },
    {
      "inputs": [
        {
          "internalType": "bytes32",
          "name": "_sourceId",
          "type": "bytes32"
        },
        {
          "internalType": "bytes32",
          "name": "_typeId",
          "type": "bytes32"
        }
      ],
      "name": "removeDataTypeSupport",
      "outputs": [],
      "stateMutability": "nonpayable",
      "type": "function"
    },
    {
      "inputs": [],
      "name": "renounceOwnership",
      "outputs": [],
      "stateMutability": "nonpayable",
      "type": "function"
    },
    {
      "inputs": [],
      "name": "totalDataSources",
      "outputs": [
        {
          "internalType": "uint256",
          "name": "",
          "type": "uint256"
        }
      ],
      "stateMutability": "view",
      "type": "function"
    },
    {
      "inputs": [],
      "name": "totalDataTypes",
      "outputs": [
        {
          "internalType": "uint256",
          "name": "",
          "type": "uint256"
        }
      ],
      "stateMutability": "view",
      "type": "function"
    },
    {
      "inputs": [],
      "name": "totalRequests",
      "outputs": [
        {
          "internalType": "uint256",
          "name": "",
          "type": "uint256"
        }
      ],
      "stateMutability": "view",
      "type": "function"
    },
    {
      "inputs": [
        {
          "internalType": "address",
          "name": "newOwner",
          "type": "address"
        }
      ],
      "name": "transferOwnership",
      "outputs": [],
      "stateMutability": "nonpayable",
      "type": "function"
    },
    {
      "inputs": [],
      "name": "unpause",
      "outputs": [],
      "stateMutability": "nonpayable",
      "type": "function"
    },
    {
      "inputs": [
        {
          "internalType": "bytes32",
          "name": "_sourceId",
          "type": "bytes32"
        },
        {
          "internalType": "string",
          "name": "_sourceName",
          "type": "string"
        },
        {
          "internalType": "string",
          "name": "_sourceDescription",
          "type": "string"
        },
        {
          "internalType": "string",
          "name": "_apiEndpoint",
          "type": "string"
        }
      ],
      "name": "updateDataSource",
      "outputs": [],
      "stateMutability": "nonpayable",
      "type": "function"
    },
    {
      "inputs": [
        {
          "internalType": "bytes32",
          "name": "_typeId",
          "type": "bytes32"
        },
        {
          "internalType": "string",
          "name": "_typeName",
          "type": "string"
        },
        {
          "internalType": "string",
          "name": "_typeDescription",
          "type": "string"
        }
      ],
      "name": "updateDataType",
      "outputs": [],
      "stateMutability": "nonpayable",
      "type": "function"
    }
  ],
  "bytecode": "0x608060405234801561001057600080fd5b5061001a33610030565b6000805460ff60a01b1916905560018055610080565b600080546001600160a01b038381166001600160a01b0319831681178455604051919092169283917f8be0079c531659141344cd1fd0a4f28419497f9722a3daafe3b4186f6b6457e09190a35050565b61249b8061008f6000396000f3fe608060405234801561001057600080fd5b50600436106101e55760003560e01c80638456cb591161010f578063d10c4f34116100a2578063e73d244111610071578063e73d24411461045e578063f2fde38b14610471578063f69426e914610484578063f8c2ba471461048c57600080fd5b8063d10c4f34146103f1578063d28b669d14610416578063dbc65e921461043d578063dfe6b5d61461045057600080fd5b80639ced2f92116100de5780639ced2f92146103a55780639f70c906146103b8578063b4e2dc4c146103cb578063cf2bfc72146103de57600080fd5b80638456cb59146103665780638aea61dc1461036e5780638da5cb5b14610377578063946aa5b61461039257600080fd5b80635153c98c1161018757806366c94c3b1161015657806366c94c3b146103065780636f34805714610319578063715018a61461032c57806379eeeb901461033457600080fd5b80635153c98c146102b9578063595f81e6146102cc5780635c975abb146102df57806362b5dfd1146102fd57600080fd5b80633a93b271116101c35780633a93b271146102415780633bf6fc2e1461026c5780633f4ba83a1461029a57806343a4a1ec146102a257600080fd5b806319367e31146101ea57806324c73ab21461020857806331502f131461021d575b600080fd5b6101f26104b2565b6040516101ff9190611d45565b60405180910390f35b61021b610216366004611e2c565b61050a565b005b61023061022b366004611ebe565b61066d565b6040516101ff959493929190611f1d565b61025461024f366004611ebe565b610803565b6040516101ff9c9b9a99989796959493929190611f60565b61027f61027a366004611ebe565b610a05565b604080519384526020840192909252908201526060016101ff565b61021b610a5c565b6102ab60075481565b6040519081526020016101ff565b61021b6102c7366004611ff1565b610a6e565b6102ab6102da366004611ebe565b610c09565b600054600160a01b900460ff165b60405190151581526020016101ff565b6102ab60085481565b6102ab610314366004611ebe565b610c2a565b6102ab61032736600461202f565b610c3a565b61021b610c6b565b6102ed610342366004611ff1565b6000918252600260209081526040808420928452600c909201905290205460ff1690565b61021b610c7d565b6102ab60095481565b6000546040516001600160a01b0390911681526020016101ff565b61021b6103a0366004612059565b610c8d565b61021b6103b3366004612059565b610e63565b61021b6103c6366004611ff1565b610f50565b61021b6103d93660046120c6565b611083565b61021b6103ec366004611ebe565b6112df565b6104046103ff366004611ebe565b6113c1565b6040516101ff96959493929190612160565b610429610424366004611ebe565b61150c565b6040516101ff9897969594939291906121aa565b61021b61044b366004612212565b611753565b60075460085460095461027f565b61021b61046c366004611ebe565b611960565b61021b61047f36600461225f565b611a3e565b6101f2611ab7565b6102ed61049a366004611ebe565b60009081526002602052604090206005015460ff1690565b6060600580548060200260200160405190810160405280929190818152602001828054801561050057602002820191906000526020600020905b8154815260200190600101908083116104ec575b5050505050905090565b610512611b0d565b60008481526002602052604090205484906105485760405162461bcd60e51b815260040161053f90612281565b60405180910390fd5b60008451116105995760405162461bcd60e51b815260206004820152601b60248201527f536f75726365206e616d652063616e6e6f7420626520656d7074790000000000604482015260640161053f565b60008251116105ea5760405162461bcd60e51b815260206004820152601c60248201527f41504920656e64706f696e742063616e6e6f7420626520656d70747900000000604482015260640161053f565b6000858152600260205260409020600181016106068682612334565b50600281016106158582612334565b50600381016106248482612334565b5042600782015560405186907f27bcebe012215a3b32197fdd524320eaa59aa51f81adfc48696dceec72bbcf5e9061065d9088906123f4565b60405180910390a2505050505050565b60008181526003602052604081205460609182918190819086906106a35760405162461bcd60e51b815260040161053f90612407565b600087815260036020819052604090912090810154600482015460058301546001840180549093600286019360ff90911692909185906106e2906122ac565b80601f016020809104026020016040519081016040528092919081815260200182805461070e906122ac565b801561075b5780601f106107305761010080835404028352916020019161075b565b820191906000526020600020905b81548152906001019060200180831161073e57829003601f168201915b5050505050945083805461076e906122ac565b80601f016020809104026020016040519081016040528092919081815260200182805461079a906122ac565b80156107e75780601f106107bc576101008083540402835291602001916107e7565b820191906000526020600020905b8154815290600101906020018083116107ca57829003601f168201915b5050505050935096509650965096509650505091939590929450565b60026020526000908152604090208054600182018054919291610825906122ac565b80601f0160208091040260200160405190810160405280929190818152602001828054610851906122ac565b801561089e5780601f106108735761010080835404028352916020019161089e565b820191906000526020600020905b81548152906001019060200180831161088157829003601f168201915b5050505050908060020180546108b3906122ac565b80601f01602080910402602001604051908101604052809291908181526020018280546108df906122ac565b801561092c5780601f106109015761010080835404028352916020019161092c565b820191906000526020600020905b81548152906001019060200180831161090f57829003601f168201915b505050505090806003018054610941906122ac565b80601f016020809104026020016040519081016040528092919081815260200182805461096d906122ac565b80156109ba5780601f1061098f576101008083540402835291602001916109ba565b820191906000526020600020905b81548152906001019060200180831161099d57829003601f168201915b505050600484015460058501546006860154600787015460088801546009890154600a8a0154600b909a01549899959860ff909516975092955090936001600160a01b03909116928c565b600081815260026020526040812054819081908490610a365760405162461bcd60e51b815260040161053f90612281565b5050506000918252506002602052604090206009810154600a820154600b909201549092565b610a64611b0d565b610a6c611b67565b565b610a76611b0d565b6000828152600260205260409020548290610aa35760405162461bcd60e51b815260040161053f90612281565b6000828152600360205260409020548290610ad05760405162461bcd60e51b815260040161053f90612407565b60008481526002602052604090206005015460ff16610b285760405162461bcd60e51b8152602060048201526014602482015273536f75726365206973206e6f742061637469766560601b604482015260640161053f565b6000848152600260209081526040808320868452600c0190915290205460ff1615610b955760405162461bcd60e51b815260206004820152601b60248201527f44617461207479706520616c726561647920737570706f727465640000000000604482015260640161053f565b6000848152600260208181526040808420878552600c81018352818520805460ff19166001179055600d81018352818520859055888552929091524260079092019190915551849186917f287af36f01a2ab1f6e2d171e9e57e60610cbcdb44e8b10ca0cff56ca09a429e59190a350505050565b60068181548110610c1957600080fd5b600091825260209091200154905081565b60058181548110610c1957600080fd5b60046020528160005260406000208181548110610c5657600080fd5b90600052602060002001600091509150505481565b610c73611b0d565b610a6c6000611bbc565b610c85611b0d565b610a6c611c0c565b610c95611b0d565b610c9d611c4f565b610ca5611c9c565b82610ce45760405162461bcd60e51b815260206004820152600f60248201526e125b9d985b1a59081d1e5c19481251608a1b604482015260640161053f565b60008381526003602052604090205415610d405760405162461bcd60e51b815260206004820152601860248201527f44617461207479706520616c7265616479206578697374730000000000000000604482015260640161053f565b6000825111610d8d5760405162461bcd60e51b815260206004820152601960248201527854797065206e616d652063616e6e6f7420626520656d70747960381b604482015260640161053f565b600083815260036020526040902083815560018101610dac8482612334565b5060028101610dbb8382612334565b5060038101805460ff19169055426004820155600060058201819055600680546001810182559082527ff652222313e28459528d920b65115c16c04f3efc82aaedc97be59f3f377c0d3f018590556008805491610e178361243e565b9190505550837ffea8810348df108cfba34c27b003d2ccbdfdc42667bcd3b7ddcb6bd1ccd04a3e84604051610e4c91906123f4565b60405180910390a250610e5e60018055565b505050565b610e6b611b0d565b6000838152600360205260409020548390610e985760405162461bcd60e51b815260040161053f90612407565b6000835111610ee55760405162461bcd60e51b815260206004820152601960248201527854797065206e616d652063616e6e6f7420626520656d70747960381b604482015260640161053f565b600084815260036020526040902060018101610f018582612334565b5060028101610f108482612334565b50847ffea8810348df108cfba34c27b003d2ccbdfdc42667bcd3b7ddcb6bd1ccd04a3e85604051610f4191906123f4565b60405180910390a25050505050565b610f58611b0d565b6000828152600260205260409020548290610f855760405162461bcd60e51b815260040161053f90612281565b6000828152600360205260409020548290610fb25760405162461bcd60e51b815260040161053f90612407565b6000848152600260209081526040808320868452600c0190915290205460ff1661101e5760405162461bcd60e51b815260206004820152601760248201527f446174612074797065206e6f7420737570706f72746564000000000000000000604482015260640161053f565b6000848152600260208181526040808420878552600c81018352818520805460ff19169055888552929091524260079092019190915551849186917fc648890132025e8c9a1338d8cc57ec2fd0531df5b2f99d4ff5f559f34aaf6e6e9190a350505050565b61108b611b0d565b611093611c4f565b61109b611c9c565b846110b85760405162461bcd60e51b815260040161053f90612281565b600085815260026020526040902054156111145760405162461bcd60e51b815260206004820152601a60248201527f4461746120736f7572636520616c726561647920657869737473000000000000604482015260640161053f565b60008451116111655760405162461bcd60e51b815260206004820152601b60248201527f536f75726365206e616d652063616e6e6f7420626520656d7074790000000000604482015260640161053f565b60008251116111b65760405162461bcd60e51b815260206004820152601c60248201527f41504920656e64706f696e742063616e6e6f7420626520656d70747900000000604482015260640161053f565b6000858152600260205260409020858155600181016111d58682612334565b50600281016111e48582612334565b50600381016111f38482612334565b50600481018290556005808201805460ff1916600190811790915542600684018190556007808501919091556008840180546001600160a01b03191633179055600060098501819055600a8501819055600b8501819055835492830184559283527f036b6384b5eca791c62761152d0c79bb0604c104a5fb6f4eb0703f3154bb3db09091018890558054916112878361243e565b9190505550336001600160a01b0316867f178a477b066771a0df82ea5a8dad8cccb180625dbcfb1bc7aa7d60d3c7db0c2a876040516112c691906123f4565b60405180910390a3506112d860018055565b5050505050565b6112e7611b0d565b60008181526002602052604090205481906113145760405162461bcd60e51b815260040161053f90612281565b60008281526002602052604090206005015460ff166113755760405162461bcd60e51b815260206004820152601a60248201527f536f7572636520616c7265616479206465616374697661746564000000000000604482015260640161053f565b60008281526002602052604080822060058101805460ff19169055426007909101555183917fa9fa24c201cd83fb91b6164e89625d4c2a6692cac32e763c6e9b8242292cb0c391a25050565b600360205260009081526040902080546001820180549192916113e3906122ac565b80601f016020809104026020016040519081016040528092919081815260200182805461140f906122ac565b801561145c5780601f106114315761010080835404028352916020019161145c565b820191906000526020600020905b81548152906001019060200180831161143f57829003601f168201915b505050505090806002018054611471906122ac565b80601f016020809104026020016040519081016040528092919081815260200182805461149d906122ac565b80156114ea5780601f106114bf576101008083540402835291602001916114ea565b820191906000526020600020905b8154815290600101906020018083116114cd57829003601f168201915b5050505060038301546004840154600590940154929360ff9091169290915086565b6000818152600260205260408120546060918291829190819081908190819089906115495760405162461bcd60e51b815260040161053f90612281565b6000600260008c815260200190815260200160002090508060010181600201826003018360050160009054906101000a900460ff168460060154856009015486600a015487600b015487805461159e906122ac565b80601f01602080910402602001604051908101604052809291908181526020018280546115ca906122ac565b80156116175780601f106115ec57610100808354040283529160200191611617565b820191906000526020600020905b8154815290600101906020018083116115fa57829003601f168201915b5050505050975086805461162a906122ac565b80601f0160208091040260200160405190810160405280929190818152602001828054611656906122ac565b80156116a35780601f10611678576101008083540402835291602001916116a3565b820191906000526020600020905b81548152906001019060200180831161168657829003601f168201915b505050505096508580546116b6906122ac565b80601f01602080910402602001604051908101604052809291908181526020018280546116e2906122ac565b801561172f5780601f106117045761010080835404028352916020019161172f565b820191906000526020600020905b81548152906001019060200180831161171257829003601f168201915b50505050509550995099509950995099509950995099505050919395975091939597565b61175b611b0d565b60008481526002602052604090205484906117885760405162461bcd60e51b815260040161053f90612281565b60008481526003602052604090205484906117b55760405162461bcd60e51b815260040161053f90612407565b600086815260026020526040902060050154869060ff1661180f5760405162461bcd60e51b8152602060048201526014602482015273536f75726365206973206e6f742061637469766560601b604482015260640161053f565b6000878152600260209081526040808320898452600c0190915290205460ff166118855760405162461bcd60e51b815260206004820152602160248201527f446174612074797065206e6f7420737570706f7274656420627920736f7572636044820152606560f81b606482015260840161053f565b600087815260026020526040812060098101805491926118a48361243e565b90915550506000878152600d82016020526040902042905584156118de57600a810180549060006118d48361243e565b91905055506118f6565b600b810180549060006118f08361243e565b91905055505b60008781526003602052604081204260059091015560098054916119198361243e565b9190505550856001600160a01b031687897f1567bc0e0b37e348e792076fe4d8e4ca028aa31c3c127ad2f96257a8689b979360405160405180910390a45050505050505050565b611968611b0d565b60008181526002602052604090205481906119955760405162461bcd60e51b815260040161053f90612281565b60008281526002602052604090206005015460ff16156119ef5760405162461bcd60e51b8152602060048201526015602482015274536f7572636520616c72656164792061637469766560581b604482015260640161053f565b60008281526002602052604080822060058101805460ff19166001179055426007909101555183917f2d7ea000e389f3166a25668c58f1edb7da9e3f55d691745984c53e78147de1fd91a25050565b611a46611b0d565b6001600160a01b038116611aab5760405162461bcd60e51b815260206004820152602660248201527f4f776e61626c653a206e6577206f776e657220697320746865207a65726f206160448201526564647265737360d01b606482015260840161053f565b611ab481611bbc565b50565b6060600680548060200260200160405190810160405280929190818152602001828054801561050057602002820191906000526020600020908154815260200190600101908083116104ec575050505050905090565b6000546001600160a01b03163314610a6c5760405162461bcd60e51b815260206004820181905260248201527f4f776e61626c653a2063616c6c6572206973206e6f7420746865206f776e6572604482015260640161053f565b611b6f611cf5565b6000805460ff60a01b191690557f5db9ee0a495bf2e6ff9c91a7834c1ba4fdd244a5e8aa4e537bd38aeae4b073aa335b6040516001600160a01b03909116815260200160405180910390a1565b600080546001600160a01b038381166001600160a01b0319831681178455604051919092169283917f8be0079c531659141344cd1fd0a4f28419497f9722a3daafe3b4186f6b6457e09190a35050565b611c14611c4f565b6000805460ff60a01b1916600160a01b1790557f62e78cea01bee320cd4e420270b5ea74000d11b0c9f74754ebdbfc544b05a258611b9f3390565b600054600160a01b900460ff1615610a6c5760405162461bcd60e51b815260206004820152601060248201526f14185d5cd8589b194e881c185d5cd95960821b604482015260640161053f565b600260015403611cee5760405162461bcd60e51b815260206004820152601f60248201527f5265656e7472616e637947756172643a207265656e7472616e742063616c6c00604482015260640161053f565b6002600155565b600054600160a01b900460ff16610a6c5760405162461bcd60e51b815260206004820152601460248201527314185d5cd8589b194e881b9bdd081c185d5cd95960621b604482015260640161053f565b6020808252825182820181905260009190848201906040850190845b81811015611d7d57835183529284019291840191600101611d61565b50909695505050505050565b634e487b7160e01b600052604160045260246000fd5b600082601f830112611db057600080fd5b813567ffffffffffffffff80821115611dcb57611dcb611d89565b604051601f8301601f19908116603f01168101908282118183101715611df357611df3611d89565b81604052838152866020858801011115611e0c57600080fd5b836020870160208301376000602085830101528094505050505092915050565b60008060008060808587031215611e4257600080fd5b84359350602085013567ffffffffffffffff80821115611e6157600080fd5b611e6d88838901611d9f565b94506040870135915080821115611e8357600080fd5b611e8f88838901611d9f565b93506060870135915080821115611ea557600080fd5b50611eb287828801611d9f565b91505092959194509250565b600060208284031215611ed057600080fd5b5035919050565b6000815180845260005b81811015611efd57602081850181015186830182015201611ee1565b506000602082860101526020601f19601f83011685010191505092915050565b60a081526000611f3060a0830188611ed7565b8281036020840152611f428188611ed7565b95151560408401525050606081019290925260809091015292915050565b60006101808e8352806020840152611f7a8184018f611ed7565b90508281036040840152611f8e818e611ed7565b90508281036060840152611fa2818d611ed7565b608084019b909b52505096151560a088015260c087019590955260e08601939093526001600160a01b039190911661010085015261012084015261014083015261016090910152949350505050565b6000806040838503121561200457600080fd5b50508035926020909101359150565b80356001600160a01b038116811461202a57600080fd5b919050565b6000806040838503121561204257600080fd5b61204b83612013565b946020939093013593505050565b60008060006060848603121561206e57600080fd5b83359250602084013567ffffffffffffffff8082111561208d57600080fd5b61209987838801611d9f565b935060408601359150808211156120af57600080fd5b506120bc86828701611d9f565b9150509250925092565b600080600080600060a086880312156120de57600080fd5b85359450602086013567ffffffffffffffff808211156120fd57600080fd5b61210989838a01611d9f565b9550604088013591508082111561211f57600080fd5b61212b89838a01611d9f565b9450606088013591508082111561214157600080fd5b5061214e88828901611d9f565b95989497509295608001359392505050565b86815260c06020820152600061217960c0830188611ed7565b828103604084015261218b8188611ed7565b95151560608401525050608081019290925260a0909101529392505050565b60006101008083526121be8184018c611ed7565b905082810360208401526121d2818b611ed7565b905082810360408401526121e6818a611ed7565b97151560608401525050608081019490945260a084019290925260c083015260e0909101529392505050565b6000806000806080858703121561222857600080fd5b843593506020850135925061223f60408601612013565b91506060850135801515811461225457600080fd5b939692955090935050565b60006020828403121561227157600080fd5b61227a82612013565b9392505050565b602080825260119082015270125b9d985b1a59081cdbdd5c98d9481251607a1b604082015260600190565b600181811c908216806122c057607f821691505b6020821081036122e057634e487b7160e01b600052602260045260246000fd5b50919050565b601f821115610e5e57600081815260208120601f850160051c8101602086101561230d5750805b601f850160051c820191505b8181101561232c57828155600101612319565b505050505050565b815167ffffffffffffffff81111561234e5761234e611d89565b6123628161235c84546122ac565b846122e6565b602080601f831160018114612397576000841561237f5750858301515b600019600386901b1c1916600185901b17855561232c565b600085815260208120601f198616915b828110156123c6578886015182559484019460019091019084016123a7565b50858210156123e45787850151600019600388901b60f8161c191681555b5050505050600190811b01905550565b60208152600061227a6020830184611ed7565b60208082526018908201527f44617461207479706520646f6573206e6f742065786973740000000000000000604082015260600190565b60006001820161245e57634e487b7160e01b600052601160045260246000fd5b506001019056fea26469706673582212201b687a43d3bb9101f5c76bd531cdea9fbf440653c644f0ecd1ee8d51b41383ce64736f6c63430008140033",
  "linkReferences": {},
  "deployedLinkReferences": {}
}