{"src/CreditScoreModel.sol":{"CreditScoreModel":{"abi":[{"inputs":[],"stateMutability":"nonpayable","type":"constructor"},{"anonymous":false,"inputs":[{"indexed":false,"internalType":"uint256","name":"newBaseScore","type":"uint256"}],"name":"BaseScoreUpdated","type":"event"},{"anonymous":false,"inputs":[{"indexed":true,"internalType":"bytes32","name":"requestId","type":"bytes32"},{"indexed":true,"internalType":"address","name":"userAddress","type":"address"},{"indexed":false,"internalType":"uint256","name":"encryptedScore","type":"uint256"}],"name":"ComputationCompleted","type":"event"},{"anonymous":false,"inputs":[{"indexed":true,"internalType":"bytes32","name":"requestId","type":"bytes32"},{"indexed":true,"internalType":"address","name":"userAddress","type":"address"},{"indexed":true,"internalType":"address","name":"fintech","type":"address"}],"name":"ComputationRequested","type":"event"},{"anonymous":false,"inputs":[{"indexed":false,"internalType":"uint256","name":"timestamp","type":"uint256"}],"name":"ModelParametersUpdated","type":"event"},{"anonymous":false,"inputs":[{"indexed":true,"internalType":"address","name":"previousOwner","type":"address"},{"indexed":true,"internalType":"address","name":"newOwner","type":"address"}],"name":"OwnershipTransferred","type":"event"},{"anonymous":false,"inputs":[{"indexed":false,"internalType":"address","name":"account","type":"address"}],"name":"Paused","type":"event"},{"anonymous":false,"inputs":[{"indexed":false,"internalType":"address","name":"account","type":"address"}],"name":"Unpaused","type":"event"},{"inputs":[{"components":[{"internalType":"CreditScoreModel.euint32","name":"monthlyIncome","type":"uint256"},{"internalType":"CreditScoreModel.euint32","name":"totalDebt","type":"uint256"},{"internalType":"CreditScoreModel.euint32","name":"debtToIncomeRatio","type":"uint256"},{"internalType":"CreditScoreModel.euint32","name":"creditUtilization","type":"uint256"},{"internalType":"CreditScoreModel.euint32","name":"paymentHistory","type":"uint256"},{"internalType":"CreditScoreModel.euint32","name":"accountAgeMonths","type":"uint256"},{"internalType":"CreditScoreModel.euint32","name":"recentInquiries","type":"uint256"},{"internalType":"CreditScoreModel.euint32","name":"employmentStability","type":"uint256"}],"internalType":"struct CreditScoreModel.CreditFeatures","name":"features","type":"tuple"}],"name":"applyCreditScoringModel","outputs":[{"internalType":"CreditScoreModel.euint32","name":"","type":"uint256"}],"stateMutability":"view","type":"function"},{"inputs":[],"name":"baseCreditScore","outputs":[{"internalType":"CreditScoreModel.euint32","name":"","type":"uint256"}],"stateMutability":"view","type":"function"},{"inputs":[],"name":"completedRequests","outputs":[{"internalType":"uint256","name":"","type":"uint256"}],"stateMutability":"view","type":"function"},{"inputs":[{"internalType":"bytes","name":"_encryptedData","type":"bytes"}],"name":"computeCreditScore","outputs":[{"internalType":"CreditScoreModel.euint32","name":"","type":"uint256"}],"stateMutability":"view","type":"function"},{"inputs":[{"internalType":"bytes32","name":"_requestId","type":"bytes32"},{"internalType":"bytes","name":"_encryptedUserData","type":"bytes"}],"name":"executeComputation","outputs":[],"stateMutability":"nonpayable","type":"function"},{"inputs":[{"internalType":"bytes","name":"_encryptedData","type":"bytes"}],"name":"extractFeatures","outputs":[{"components":[{"internalType":"CreditScoreModel.euint32","name":"monthlyIncome","type":"uint256"},{"internalType":"CreditScoreModel.euint32","name":"totalDebt","type":"uint256"},{"internalType":"CreditScoreModel.euint32","name":"debtToIncomeRatio","type":"uint256"},{"internalType":"CreditScoreModel.euint32","name":"creditUtilization","type":"uint256"},{"internalType":"CreditScoreModel.euint32","name":"paymentHistory","type":"uint256"},{"internalType":"CreditScoreModel.euint32","name":"accountAgeMonths","type":"uint256"},{"internalType":"CreditScoreModel.euint32","name":"recentInquiries","type":"uint256"},{"internalType":"CreditScoreModel.euint32","name":"employmentStability","type":"uint256"}],"internalType":"struct CreditScoreModel.CreditFeatures","name":"","type":"tuple"}],"stateMutability":"view","type":"function"},{"inputs":[{"internalType":"address","name":"","type":"address"},{"internalType":"uint256","name":"","type":"uint256"}],"name":"fintechRequests","outputs":[{"internalType":"bytes32","name":"","type":"bytes32"}],"stateMutability":"view","type":"function"},{"inputs":[{"internalType":"bytes32","name":"_requestId","type":"bytes32"}],"name":"getComputationRequest","outputs":[{"internalType":"address","name":"userAddress","type":"address"},{"internalType":"uint256","name":"timestamp","type":"uint256"},{"internalType":"bool","name":"isCompleted","type":"bool"},{"internalType":"CreditScoreModel.euint32","name":"encryptedScore","type":"uint256"},{"internalType":"bytes32","name":"dataHash","type":"bytes32"},{"internalType":"uint256","name":"validUntil","type":"uint256"},{"internalType":"address","name":"requestedBy","type":"address"}],"stateMutability":"view","type":"function"},{"inputs":[],"name":"getContractStats","outputs":[{"internalType":"uint256","name":"_totalRequests","type":"uint256"},{"internalType":"uint256","name":"_completedRequests","type":"uint256"},{"internalType":"CreditScoreModel.euint32","name":"_baseCreditScore","type":"uint256"}],"stateMutability":"view","type":"function"},{"inputs":[{"internalType":"bytes32","name":"_requestId","type":"bytes32"}],"name":"getEncryptedScore","outputs":[{"internalType":"CreditScoreModel.euint32","name":"","type":"uint256"}],"stateMutability":"view","type":"function"},{"inputs":[{"internalType":"address","name":"_fintechAddress","type":"address"}],"name":"getFintechRequests","outputs":[{"internalType":"bytes32[]","name":"","type":"bytes32[]"}],"stateMutability":"view","type":"function"},{"inputs":[],"name":"getModelParameters","outputs":[{"internalType":"CreditScoreModel.euint32","name":"baseScore","type":"uint256"},{"internalType":"CreditScoreModel.euint32","name":"riskMultiplier","type":"uint256"},{"internalType":"CreditScoreModel.euint32","name":"creditLimit","type":"uint256"},{"internalType":"bool","name":"isActive","type":"bool"},{"internalType":"uint256","name":"lastUpdated","type":"uint256"}],"stateMutability":"view","type":"function"},{"inputs":[{"internalType":"address","name":"_userAddress","type":"address"}],"name":"getUserRequests","outputs":[{"internalType":"bytes32[]","name":"","type":"bytes32[]"}],"stateMutability":"view","type":"function"},{"inputs":[{"internalType":"bytes32","name":"_requestId","type":"bytes32"}],"name":"isRequestValid","outputs":[{"internalType":"bool","name":"","type":"bool"}],"stateMutability":"view","type":"function"},{"inputs":[],"name":"modelParams","outputs":[{"internalType":"CreditScoreModel.euint32","name":"baseScore","type":"uint256"},{"internalType":"CreditScoreModel.euint32","name":"riskMultiplier","type":"uint256"},{"internalType":"CreditScoreModel.euint32","name":"creditLimit","type":"uint256"},{"internalType":"bool","name":"isActive","type":"bool"},{"internalType":"uint256","name":"lastUpdated","type":"uint256"}],"stateMutability":"view","type":"function"},{"inputs":[],"name":"owner","outputs":[{"internalType":"address","name":"","type":"address"}],"stateMutability":"view","type":"function"},{"inputs":[],"name":"pause","outputs":[],"stateMutability":"nonpayable","type":"function"},{"inputs":[],"name":"paused","outputs":[{"internalType":"bool","name":"","type":"bool"}],"stateMutability":"view","type":"function"},{"inputs":[],"name":"renounceOwnership","outputs":[],"stateMutability":"nonpayable","type":"function"},{"inputs":[{"internalType":"address","name":"_userAddress","type":"address"},{"internalType":"bytes32","name":"_requestId","type":"bytes32"},{"internalType":"bytes32","name":"_dataHash","type":"bytes32"},{"internalType":"uint256","name":"_validUntil","type":"uint256"}],"name":"requestComputation","outputs":[],"stateMutability":"nonpayable","type":"function"},{"inputs":[{"internalType":"bytes32","name":"","type":"bytes32"}],"name":"requests","outputs":[{"internalType":"address","name":"userAddress","type":"address"},{"internalType":"bytes32","name":"requestId","type":"bytes32"},{"internalType":"uint256","name":"timestamp","type":"uint256"},{"internalType":"bool","name":"isCompleted","type":"bool"},{"internalType":"CreditScoreModel.euint32","name":"encryptedScore","type":"uint256"},{"internalType":"bytes32","name":"dataHash","type":"bytes32"},{"internalType":"uint256","name":"validUntil","type":"uint256"},{"internalType":"address","name":"requestedBy","type":"address"}],"stateMutability":"view","type":"function"},{"inputs":[{"internalType":"bool","name":"_isActive","type":"bool"}],"name":"setModelActive","outputs":[],"stateMutability":"nonpayable","type":"function"},{"inputs":[],"name":"totalRequests","outputs":[{"internalType":"uint256","name":"","type":"uint256"}],"stateMutability":"view","type":"function"},{"inputs":[{"internalType":"address","name":"newOwner","type":"address"}],"name":"transferOwnership","outputs":[],"stateMutability":"nonpayable","type":"function"},{"inputs":[],"name":"unpause","outputs":[],"stateMutability":"nonpayable","type":"function"},{"inputs":[{"internalType":"uint32","name":"_baseScore","type":"uint32"},{"internalType":"uint32","name":"_riskMultiplier","type":"uint32"},{"internalType":"uint32","name":"_creditLimit","type":"uint32"}],"name":"updateModelParameters","outputs":[],"stateMutability":"nonpayable","type":"function"},{"inputs":[{"internalType":"address","name":"","type":"address"},{"internalType":"uint256","name":"","type":"uint256"}],"name":"userRequests","outputs":[{"internalType":"bytes32","name":"","type":"bytes32"}],"stateMutability":"view","type":"function"},{"stateMutability":"payable","type":"receive"}],"evm":{"bytecode":{"linkReferences":{},"object":"6080806040523461008a576000543360018060a01b0382167f8be0079c531659141344cd1fd0a4f28419497f9722a3daafe3b4186f6b6457e0600080a36001600160a81b0319163360ff60a01b191617600055600180805561015e600c81905560055560646006556127106007556008805460ff19169091179055426009556116a890816100908239f35b600080fdfe608060409080825260049081361015610023575b505050361561002157600080fd5b005b60009260e08435811c92836308f438f714610f50575082630d1bad4914610f115782631510bff214610d7a578263263cb6b614610d2457826339a4c80314610c8f5782633ae1ca8c14610c1c5782633f4ba83a14610b815782635c85515b14610af65782635c975abb14610ad15782635de173df14610a2f578263715018a6146109d557826375f347ab146109675782638456cb591461090857826388ef6a6e146106915782638aea61dc146106725782638da5cb5b1461064a5782639d866985146105c857508163a22420cd1461059e578163ad08a08314610546578163b337cf74146104c8578163c16de869146104a9578163c1f58bfc146102e4578163c8284e6d14610293578163cbca31ac14610293578163dfe6b5d614610263578163f2fde38b1461019b575063fdc21a0c1461015e5780610013565b34610197576020366003190112610197573580151580910361019757610182611073565b60ff8019600854169116176008554260095580f35b5080fd5b9190503461025f57602036600319011261025f576101b7610f9f565b906101c0611073565b6001600160a01b0391821692831561020d57505082546001600160a01b0319811683178455167f8be0079c531659141344cd1fd0a4f28419497f9722a3daafe3b4186f6b6457e08380a380f35b906020608492519162461bcd60e51b8352820152602660248201527f4f776e61626c653a206e6577206f776e657220697320746865207a65726f206160448201526564647265737360d01b6064820152fd5b8280fd5b839034610197578160031936011261019757606090600a5490600b5490600c549181519384526020840152820152f35b83346102e157806003193601126102e1575060055460065460075460085460095494519384526020840192909252604083015260ff1615156060820152608081019190915260a090f35b0390f35b80fd5b83915034610197578060031936011261019757823560243567ffffffffffffffff81116104a5576103189036908601610f6c565b94610321611073565b828552600260209081528486205490926001600160a01b0391610347908316151561110d565b61035560ff600854166110cb565b8487526002845260ff600387892001541661046257848752600284526006868820015442101561042d5787156103ea576103bd8798867fc25a10f06fc2baeeacfc621b6b6ef4fa854b170550978b1cd663fd811b6dc9f19798995260028652888a20926111f4565b809382015560038101600160ff198254161790556103dc600b54611188565b600b5554169451908152a380f35b855162461bcd60e51b8152808401859052601e60248201527f456e6372797074656420646174612063616e6e6f7420626520656d70747900006044820152606490fd5b855162461bcd60e51b8152808401859052600f60248201526e14995c5d595cdd08195e1c1a5c9959608a1b6044820152606490fd5b855162461bcd60e51b8152808401859052601d60248201527f436f6d7075746174696f6e20616c726561647920636f6d706c657465640000006044820152606490fd5b8380fd5b839034610197578160031936011261019757602090600c549051908152f35b839034610197576020908160031936011261025f576001600160a01b036104ed610f9f565b168352600382528083209281518093808654928381520195835280832092905b82821061052f576102dd8686610525828b0383611051565b5191829182610fe3565b83548752958601956001938401939091019061050d565b905082346102e157816003193601126102e157610561610f9f565b6001600160a01b03168152602092909252808220805460243593908410156102e1575060209261059091610fb5565b91905490519160031b1c8152f35b905082346102e15760203660031901126102e157506105bf60209235611645565b90519015158152f35b90929150346104a55760203660031901126104a55782610100948335815260026020522060018060a01b038082541694600183015494600284015460ff60038601541691850154926005860154946007600688015497015416978151998a5260208a015288015215156060870152608086015260a085015260c0840152820152f35b848234610197578160031936011261019757905490516001600160a01b039091168152602090f35b848234610197578160031936011261019757602090600a549051908152f35b5090503461025f57608036600319011261025f576106ad610f9f565b9060249283359360448035906064908135936106c76111ad565b6002600154146108c95760026001556106e460ff600854166110cb565b6001600160a01b03978816978815610892576107018a151561110d565b841561085e574286111561081e57898b526002602052878b2054166107df575050509186816107a4959388958684526002602052858420916bffffffffffffffffffffffff60a01b918a838554161784558860018501554260028501556003840160ff1981541690556005840155600683015560078201903390825416179055015584875260036020526107978383892061114e565b338752602052852061114e565b6107af600a54611188565b600a5533917f828c85c37dcaf6553b252a55b553cfed869f43eecae8b5c280784607b40f93b78480a46001805580f35b859160197f5265717565737420494420616c726561647920657869737473000000000000009260208a519562461bcd60e51b8752860152840152820152fd5b50859160177f496e76616c69642076616c696469747920706572696f640000000000000000009260208a519562461bcd60e51b8752860152840152820152fd5b508591601170092dcecc2d8d2c840c8c2e8c240d0c2e6d607b1b9260208a519562461bcd60e51b8752860152840152820152fd5b508591601473496e76616c69642075736572206164647265737360601b9260208a519562461bcd60e51b8752860152840152820152fd5b8591601f7f5265656e7472616e637947756172643a207265656e7472616e742063616c6c009260208a519562461bcd60e51b8752860152840152820152fd5b84823461019757816003193601126101975760207f62e78cea01bee320cd4e420270b5ea74000d11b0c9f74754ebdbfc544b05a25891610946611073565b61094e6111ad565b835460ff60a01b1916600160a01b17845551338152a180f35b91509192346102e1576101003660031901126102e157506020926109ce918351916109918361101e565b35825260243585830152604435848301526064356060830152608435608083015260a43560a083015260c43560c083015260e4359082015261141f565b9051908152f35b84346102e157806003193601126102e1576109ee611073565b80546001600160a01b03198116825581906001600160a01b03167f8be0079c531659141344cd1fd0a4f28419497f9722a3daafe3b4186f6b6457e08280a380f35b8482853461025f57602092836003193601126102e15781358082526002855283822054610a66906001600160a01b0316151561110d565b8082526002855260ff600385842001541615610a8e5781526002845282902001549051908152f35b835162461bcd60e51b8152808401869052601960248201527f436f6d7075746174696f6e206e6f7420636f6d706c65746564000000000000006044820152606490fd5b84823461019757816003193601126101975760ff6020925460a01c1690519015158152f35b91509192346102e15760203660031901126102e15783359067ffffffffffffffff82116102e15750610b38610b32610100958493369101610f6c565b90611253565b83519381518552602082015160208601528082015190850152606081015160608501526080810151608085015260a081015160a085015260c081015160c0850152015190820152f35b8482853461025f578260031936011261025f57610b9c611073565b82549060ff8260a01c1615610be2575060ff60a01b19168255513381527f5db9ee0a495bf2e6ff9c91a7834c1ba4fdd244a5e8aa4e537bd38aeae4b073aa90602090a180f35b606490602084519162461bcd60e51b8352820152601460248201527314185d5cd8589b194e881b9bdd081c185d5cd95960621b6044820152fd5b5090503461025f57602091826003193601126104a5576001600160a01b03610c42610f9f565b16845282528083209281518093808654928381520195835280832092905b828210610c78576102dd8686610525828b0383611051565b835487529586019560019384019390910190610c60565b838286346102e15760203660031901126102e15782358082526002602052828220546001600160a01b039284929091610ccb908516151561110d565b815260026020522090808254169360028301549360ff6003850154169184015491600585015493600760068701549601541695825197885260208801521515908601526060850152608084015260a083015260c0820152f35b848234610197578060031936011261019757610d3e610f9f565b6001600160a01b031682526003602052808220805460243593908410156102e15750602092610d6c91610fb5565b90549060031b1c9051908152f35b5090503461025f57606036600319011261025f5781359163ffffffff90818416809403610f0d5760243590828216809203610f0957604435928316809303610f0957610dc4611073565b8415610ec6578115610e83578215610e4057509183916020937f967488f2edd75466f58e6c71b66aefc81b7b216a0a3ad64a3a3708714769d1f9956005556006556007554260095581600c557ff3ad76dc2def13387cdaa20660cedfa8ce58bd013b7f39fd4b48d718aa3184a6838251428152a151908152a180f35b606490602085519162461bcd60e51b8352820152601d60248201527f437265646974206c696d6974206d75737420626520706f7369746976650000006044820152fd5b606490602085519162461bcd60e51b8352820152602060248201527f5269736b206d756c7469706c696572206d75737420626520706f7369746976656044820152fd5b606490602085519162461bcd60e51b8352820152601b60248201527f426173652073636f7265206d75737420626520706f73697469766500000000006044820152fd5b8580fd5b8480fd5b838286346102e15760203660031901126102e15782359067ffffffffffffffff82116102e15750610f4a6020936109ce92369101610f6c565b906111f4565b859034610197578160031936011261019757602090600b548152f35b9181601f84011215610f9a5782359167ffffffffffffffff8311610f9a5760208381860195010111610f9a57565b600080fd5b600435906001600160a01b0382168203610f9a57565b8054821015610fcd5760005260206000200190600090565b634e487b7160e01b600052603260045260246000fd5b6020908160408183019282815285518094520193019160005b82811061100a575050505090565b835185529381019392810192600101610ffc565b610100810190811067ffffffffffffffff82111761103b57604052565b634e487b7160e01b600052604160045260246000fd5b90601f8019910116810190811067ffffffffffffffff82111761103b57604052565b6000546001600160a01b0316330361108757565b606460405162461bcd60e51b815260206004820152602060248201527f4f776e61626c653a2063616c6c6572206973206e6f7420746865206f776e65726044820152fd5b156110d257565b60405162461bcd60e51b81526020600482015260136024820152724d6f64656c206973206e6f742061637469766560681b6044820152606490fd5b1561111457565b60405162461bcd60e51b8152602060048201526012602482015271125b9d985b1a59081c995c5d595cdd08125160721b6044820152606490fd5b80546801000000000000000081101561103b5761117091600182018155610fb5565b819291549060031b91821b91600019901b1916179055565b60001981146111975760010190565b634e487b7160e01b600052601160045260246000fd5b60ff60005460a01c166111bc57565b60405162461bcd60e51b815260206004820152601060248201526f14185d5cd8589b194e881c185d5cd95960821b6044820152606490fd5b6112069161120191611253565b61141f565b61012c908181101561122957505b6103529081811115611224575090565b905090565b9050611214565b90600f820291808304600f149015171561119757565b9190820180921161119757565b6040918251916112628361101e565b6000918284528260e0602095828782015282888201528260608201528260808201528260a08201528260c0820152015267ffffffffffffffff811161140b578451906112b7601f8201601f1916860183611051565b808252848201923682820111610f0d578185928792863783010152519020908351916112e28361101e565b610100368437815b600881106113cb575050611f40825106936107d09485018095116113b757620186a0848401510690603281850151066064606086015106916102266080870151069361012c9485018095116113a35760f060a088015106600601958660061161138f5750600c60e0600a60c08a015106980151069782519961136b8b61101e565b8a528901528701526060860152608085015260a084015260c083015260e082015290565b634e487b7160e01b81526011600452602490fd5b634e487b7160e01b86526011600452602486fd5b634e487b7160e01b82526011600452602482fd5b8060051b8181048614821517156113f75782811c63ffffffff16908501526113f290611188565b6112ea565b634e487b7160e01b84526011600452602484fd5b634e487b7160e01b83526041600452602483fd5b61271061142c8251611230565b046101c29081018091116111975760e082019081518060031b90808204600814901517156111975761145d91611246565b90602083015160198102908082046019149015171561119757620186a0900460008382101561163e57505b820391821161119757604083019182516006810290808204600614901517156111975760008282101561163757505b810390811161119757606084019081518060011b90808204600214901517156111975760008282101561163057505b810390811161119757608085015161012b198101919082116111975761150f9160011c90611246565b9361152360a0820195600387510490611246565b9160c08201956115338751611230565b60008582101561162957505b84039384116111975751603b1981019281841161119757602b9560186113886115836005986115c4986115a197603c60009111600014611621575060021c90611246565b93511191511181611619575b506000901561160b5750603290611246565b90601e601487511091511081611611575b506000901561160b5750604b90611246565b9351119151118115611603575b50600090156115fe575060645b600060648311156115f757505b81039081116111975790565b90506115eb565b6115de565b9050386115d1565b90611246565b9050386115b2565b90503861158f565b905090611246565b905061153f565b90506114e6565b90506114b7565b9050611488565b600090815260026020526040902080546001600160a01b03161561166c5760060154421090565b5060009056fea2646970667358221220e8342a4d4d9ff8db323cbc03a47d2fbf5cdd4534218171ce2b5fa8d8d9e08d3264736f6c63430008140033","opcodes":"PUSH1 0x80 DUP1 PUSH1 0x40 MSTORE CALLVALUE PUSH2 0x8A JUMPI PUSH1 0x0 SLOAD CALLER PUSH1 0x1 DUP1 PUSH1 0xA0 SHL SUB DUP3 AND PUSH32 0x8BE0079C531659141344CD1FD0A4F28419497F9722A3DAAFE3B4186F6B6457E0 PUSH1 0x0 DUP1 LOG3 PUSH1 0x1 PUSH1 0x1 PUSH1 0xA8 SHL SUB NOT AND CALLER PUSH1 0xFF PUSH1 0xA0 SHL NOT AND OR PUSH1 0x0 SSTORE PUSH1 0x1 DUP1 DUP1 SSTORE PUSH2 0x15E PUSH1 0xC DUP2 SWAP1 SSTORE PUSH1 0x5 SSTORE PUSH1 0x64 PUSH1 0x6 SSTORE PUSH2 0x2710 PUSH1 0x7 SSTORE PUSH1 0x8 DUP1 SLOAD PUSH1 0xFF NOT AND SWAP1 SWAP2 OR SWAP1 SSTORE TIMESTAMP PUSH1 0x9 SSTORE PUSH2 0x16A8 SWAP1 DUP2 PUSH2 0x90 DUP3 CODECOPY RETURN JUMPDEST PUSH1 0x0 DUP1 REVERT INVALID PUSH1 0x80 PUSH1 0x40 SWAP1 DUP1 DUP3 MSTORE PUSH1 0x4 SWAP1 DUP2 CALLDATASIZE LT ISZERO PUSH2 0x23 JUMPI JUMPDEST POP POP POP CALLDATASIZE ISZERO PUSH2 0x21 JUMPI PUSH1 0x0 DUP1 REVERT JUMPDEST STOP JUMPDEST PUSH1 0x0 SWAP3 PUSH1 0xE0 DUP5 CALLDATALOAD DUP2 SHR SWAP3 DUP4 PUSH4 0x8F438F7 EQ PUSH2 0xF50 JUMPI POP DUP3 PUSH4 0xD1BAD49 EQ PUSH2 0xF11 JUMPI DUP3 PUSH4 0x1510BFF2 EQ PUSH2 0xD7A JUMPI DUP3 PUSH4 0x263CB6B6 EQ PUSH2 0xD24 JUMPI DUP3 PUSH4 0x39A4C803 EQ PUSH2 0xC8F JUMPI DUP3 PUSH4 0x3AE1CA8C EQ PUSH2 0xC1C JUMPI DUP3 PUSH4 0x3F4BA83A EQ PUSH2 0xB81 JUMPI DUP3 PUSH4 0x5C85515B EQ PUSH2 0xAF6 JUMPI DUP3 PUSH4 0x5C975ABB EQ PUSH2 0xAD1 JUMPI DUP3 PUSH4 0x5DE173DF EQ PUSH2 0xA2F JUMPI DUP3 PUSH4 0x715018A6 EQ PUSH2 0x9D5 JUMPI DUP3 PUSH4 0x75F347AB EQ PUSH2 0x967 JUMPI DUP3 PUSH4 0x8456CB59 EQ PUSH2 0x908 JUMPI DUP3 PUSH4 0x88EF6A6E EQ PUSH2 0x691 JUMPI DUP3 PUSH4 0x8AEA61DC EQ PUSH2 0x672 JUMPI DUP3 PUSH4 0x8DA5CB5B EQ PUSH2 0x64A JUMPI DUP3 PUSH4 0x9D866985 EQ PUSH2 0x5C8 JUMPI POP DUP2 PUSH4 0xA22420CD EQ PUSH2 0x59E JUMPI DUP2 PUSH4 0xAD08A083 EQ PUSH2 0x546 JUMPI DUP2 PUSH4 0xB337CF74 EQ PUSH2 0x4C8 JUMPI DUP2 PUSH4 0xC16DE869 EQ PUSH2 0x4A9 JUMPI DUP2 PUSH4 0xC1F58BFC EQ PUSH2 0x2E4 JUMPI DUP2 PUSH4 0xC8284E6D EQ PUSH2 0x293 JUMPI DUP2 PUSH4 0xCBCA31AC EQ PUSH2 0x293 JUMPI DUP2 PUSH4 0xDFE6B5D6 EQ PUSH2 0x263 JUMPI DUP2 PUSH4 0xF2FDE38B EQ PUSH2 0x19B JUMPI POP PUSH4 0xFDC21A0C EQ PUSH2 0x15E JUMPI DUP1 PUSH2 0x13 JUMP JUMPDEST CALLVALUE PUSH2 0x197 JUMPI PUSH1 0x20 CALLDATASIZE PUSH1 0x3 NOT ADD SLT PUSH2 0x197 JUMPI CALLDATALOAD DUP1 ISZERO ISZERO DUP1 SWAP2 SUB PUSH2 0x197 JUMPI PUSH2 0x182 PUSH2 0x1073 JUMP JUMPDEST PUSH1 0xFF DUP1 NOT PUSH1 0x8 SLOAD AND SWAP2 AND OR PUSH1 0x8 SSTORE TIMESTAMP PUSH1 0x9 SSTORE DUP1 RETURN JUMPDEST POP DUP1 REVERT JUMPDEST SWAP2 SWAP1 POP CALLVALUE PUSH2 0x25F JUMPI PUSH1 0x20 CALLDATASIZE PUSH1 0x3 NOT ADD SLT PUSH2 0x25F JUMPI PUSH2 0x1B7 PUSH2 0xF9F JUMP JUMPDEST SWAP1 PUSH2 0x1C0 PUSH2 0x1073 JUMP JUMPDEST PUSH1 0x1 PUSH1 0x1 PUSH1 0xA0 SHL SUB SWAP2 DUP3 AND SWAP3 DUP4 ISZERO PUSH2 0x20D JUMPI POP POP DUP3 SLOAD PUSH1 0x1 PUSH1 0x1 PUSH1 0xA0 SHL SUB NOT DUP2 AND DUP4 OR DUP5 SSTORE AND PUSH32 0x8BE0079C531659141344CD1FD0A4F28419497F9722A3DAAFE3B4186F6B6457E0 DUP4 DUP1 LOG3 DUP1 RETURN JUMPDEST SWAP1 PUSH1 0x20 PUSH1 0x84 SWAP3 MLOAD SWAP2 PUSH3 0x461BCD PUSH1 0xE5 SHL DUP4 MSTORE DUP3 ADD MSTORE PUSH1 0x26 PUSH1 0x24 DUP3 ADD MSTORE PUSH32 0x4F776E61626C653A206E6577206F776E657220697320746865207A65726F2061 PUSH1 0x44 DUP3 ADD MSTORE PUSH6 0x646472657373 PUSH1 0xD0 SHL PUSH1 0x64 DUP3 ADD MSTORE REVERT JUMPDEST DUP3 DUP1 REVERT JUMPDEST DUP4 SWAP1 CALLVALUE PUSH2 0x197 JUMPI DUP2 PUSH1 0x3 NOT CALLDATASIZE ADD SLT PUSH2 0x197 JUMPI PUSH1 0x60 SWAP1 PUSH1 0xA SLOAD SWAP1 PUSH1 0xB SLOAD SWAP1 PUSH1 0xC SLOAD SWAP2 DUP2 MLOAD SWAP4 DUP5 MSTORE PUSH1 0x20 DUP5 ADD MSTORE DUP3 ADD MSTORE RETURN JUMPDEST DUP4 CALLVALUE PUSH2 0x2E1 JUMPI DUP1 PUSH1 0x3 NOT CALLDATASIZE ADD SLT PUSH2 0x2E1 JUMPI POP PUSH1 0x5 SLOAD PUSH1 0x6 SLOAD PUSH1 0x7 SLOAD PUSH1 0x8 SLOAD PUSH1 0x9 SLOAD SWAP5 MLOAD SWAP4 DUP5 MSTORE PUSH1 0x20 DUP5 ADD SWAP3 SWAP1 SWAP3 MSTORE PUSH1 0x40 DUP4 ADD MSTORE PUSH1 0xFF AND ISZERO ISZERO PUSH1 0x60 DUP3 ADD MSTORE PUSH1 0x80 DUP2 ADD SWAP2 SWAP1 SWAP2 MSTORE PUSH1 0xA0 SWAP1 RETURN JUMPDEST SUB SWAP1 RETURN JUMPDEST DUP1 REVERT JUMPDEST DUP4 SWAP2 POP CALLVALUE PUSH2 0x197 JUMPI DUP1 PUSH1 0x3 NOT CALLDATASIZE ADD SLT PUSH2 0x197 JUMPI DUP3 CALLDATALOAD PUSH1 0x24 CALLDATALOAD PUSH8 0xFFFFFFFFFFFFFFFF DUP2 GT PUSH2 0x4A5 JUMPI PUSH2 0x318 SWAP1 CALLDATASIZE SWAP1 DUP7 ADD PUSH2 0xF6C JUMP JUMPDEST SWAP5 PUSH2 0x321 PUSH2 0x1073 JUMP JUMPDEST DUP3 DUP6 MSTORE PUSH1 0x2 PUSH1 0x20 SWAP1 DUP2 MSTORE DUP5 DUP7 KECCAK256 SLOAD SWAP1 SWAP3 PUSH1 0x1 PUSH1 0x1 PUSH1 0xA0 SHL SUB SWAP2 PUSH2 0x347 SWAP1 DUP4 AND ISZERO ISZERO PUSH2 0x110D JUMP JUMPDEST PUSH2 0x355 PUSH1 0xFF PUSH1 0x8 SLOAD AND PUSH2 0x10CB JUMP JUMPDEST DUP5 DUP8 MSTORE PUSH1 0x2 DUP5 MSTORE PUSH1 0xFF PUSH1 0x3 DUP8 DUP10 KECCAK256 ADD SLOAD AND PUSH2 0x462 JUMPI DUP5 DUP8 MSTORE PUSH1 0x2 DUP5 MSTORE PUSH1 0x6 DUP7 DUP9 KECCAK256 ADD SLOAD TIMESTAMP LT ISZERO PUSH2 0x42D JUMPI DUP8 ISZERO PUSH2 0x3EA JUMPI PUSH2 0x3BD DUP8 SWAP9 DUP7 PUSH32 0xC25A10F06FC2BAEEACFC621B6B6EF4FA854B170550978B1CD663FD811B6DC9F1 SWAP8 SWAP9 SWAP10 MSTORE PUSH1 0x2 DUP7 MSTORE DUP9 DUP11 KECCAK256 SWAP3 PUSH2 0x11F4 JUMP JUMPDEST DUP1 SWAP4 DUP3 ADD SSTORE PUSH1 0x3 DUP2 ADD PUSH1 0x1 PUSH1 0xFF NOT DUP3 SLOAD AND OR SWAP1 SSTORE PUSH2 0x3DC PUSH1 0xB SLOAD PUSH2 0x1188 JUMP JUMPDEST PUSH1 0xB SSTORE SLOAD AND SWAP5 MLOAD SWAP1 DUP2 MSTORE LOG3 DUP1 RETURN JUMPDEST DUP6 MLOAD PUSH3 0x461BCD PUSH1 0xE5 SHL DUP2 MSTORE DUP1 DUP5 ADD DUP6 SWAP1 MSTORE PUSH1 0x1E PUSH1 0x24 DUP3 ADD MSTORE PUSH32 0x456E6372797074656420646174612063616E6E6F7420626520656D7074790000 PUSH1 0x44 DUP3 ADD MSTORE PUSH1 0x64 SWAP1 REVERT JUMPDEST DUP6 MLOAD PUSH3 0x461BCD PUSH1 0xE5 SHL DUP2 MSTORE DUP1 DUP5 ADD DUP6 SWAP1 MSTORE PUSH1 0xF PUSH1 0x24 DUP3 ADD MSTORE PUSH15 0x14995C5D595CDD08195E1C1A5C9959 PUSH1 0x8A SHL PUSH1 0x44 DUP3 ADD MSTORE PUSH1 0x64 SWAP1 REVERT JUMPDEST DUP6 MLOAD PUSH3 0x461BCD PUSH1 0xE5 SHL DUP2 MSTORE DUP1 DUP5 ADD DUP6 SWAP1 MSTORE PUSH1 0x1D PUSH1 0x24 DUP3 ADD MSTORE PUSH32 0x436F6D7075746174696F6E20616C726561647920636F6D706C65746564000000 PUSH1 0x44 DUP3 ADD MSTORE PUSH1 0x64 SWAP1 REVERT JUMPDEST DUP4 DUP1 REVERT JUMPDEST DUP4 SWAP1 CALLVALUE PUSH2 0x197 JUMPI DUP2 PUSH1 0x3 NOT CALLDATASIZE ADD SLT PUSH2 0x197 JUMPI PUSH1 0x20 SWAP1 PUSH1 0xC SLOAD SWAP1 MLOAD SWAP1 DUP2 MSTORE RETURN JUMPDEST DUP4 SWAP1 CALLVALUE PUSH2 0x197 JUMPI PUSH1 0x20 SWAP1 DUP2 PUSH1 0x3 NOT CALLDATASIZE ADD SLT PUSH2 0x25F JUMPI PUSH1 0x1 PUSH1 0x1 PUSH1 0xA0 SHL SUB PUSH2 0x4ED PUSH2 0xF9F JUMP JUMPDEST AND DUP4 MSTORE PUSH1 0x3 DUP3 MSTORE DUP1 DUP4 KECCAK256 SWAP3 DUP2 MLOAD DUP1 SWAP4 DUP1 DUP7 SLOAD SWAP3 DUP4 DUP2 MSTORE ADD SWAP6 DUP4 MSTORE DUP1 DUP4 KECCAK256 SWAP3 SWAP1 JUMPDEST DUP3 DUP3 LT PUSH2 0x52F JUMPI PUSH2 0x2DD DUP7 DUP7 PUSH2 0x525 DUP3 DUP12 SUB DUP4 PUSH2 0x1051 JUMP JUMPDEST MLOAD SWAP2 DUP3 SWAP2 DUP3 PUSH2 0xFE3 JUMP JUMPDEST DUP4 SLOAD DUP8 MSTORE SWAP6 DUP7 ADD SWAP6 PUSH1 0x1 SWAP4 DUP5 ADD SWAP4 SWAP1 SWAP2 ADD SWAP1 PUSH2 0x50D JUMP JUMPDEST SWAP1 POP DUP3 CALLVALUE PUSH2 0x2E1 JUMPI DUP2 PUSH1 0x3 NOT CALLDATASIZE ADD SLT PUSH2 0x2E1 JUMPI PUSH2 0x561 PUSH2 0xF9F JUMP JUMPDEST PUSH1 0x1 PUSH1 0x1 PUSH1 0xA0 SHL SUB AND DUP2 MSTORE PUSH1 0x20 SWAP3 SWAP1 SWAP3 MSTORE DUP1 DUP3 KECCAK256 DUP1 SLOAD PUSH1 0x24 CALLDATALOAD SWAP4 SWAP1 DUP5 LT ISZERO PUSH2 0x2E1 JUMPI POP PUSH1 0x20 SWAP3 PUSH2 0x590 SWAP2 PUSH2 0xFB5 JUMP JUMPDEST SWAP2 SWAP1 SLOAD SWAP1 MLOAD SWAP2 PUSH1 0x3 SHL SHR DUP2 MSTORE RETURN JUMPDEST SWAP1 POP DUP3 CALLVALUE PUSH2 0x2E1 JUMPI PUSH1 0x20 CALLDATASIZE PUSH1 0x3 NOT ADD SLT PUSH2 0x2E1 JUMPI POP PUSH2 0x5BF PUSH1 0x20 SWAP3 CALLDATALOAD PUSH2 0x1645 JUMP JUMPDEST SWAP1 MLOAD SWAP1 ISZERO ISZERO DUP2 MSTORE RETURN JUMPDEST SWAP1 SWAP3 SWAP2 POP CALLVALUE PUSH2 0x4A5 JUMPI PUSH1 0x20 CALLDATASIZE PUSH1 0x3 NOT ADD SLT PUSH2 0x4A5 JUMPI DUP3 PUSH2 0x100 SWAP5 DUP4 CALLDATALOAD DUP2 MSTORE PUSH1 0x2 PUSH1 0x20 MSTORE KECCAK256 PUSH1 0x1 DUP1 PUSH1 0xA0 SHL SUB DUP1 DUP3 SLOAD AND SWAP5 PUSH1 0x1 DUP4 ADD SLOAD SWAP5 PUSH1 0x2 DUP5 ADD SLOAD PUSH1 0xFF PUSH1 0x3 DUP7 ADD SLOAD AND SWAP2 DUP6 ADD SLOAD SWAP3 PUSH1 0x5 DUP7 ADD SLOAD SWAP5 PUSH1 0x7 PUSH1 0x6 DUP9 ADD SLOAD SWAP8 ADD SLOAD AND SWAP8 DUP2 MLOAD SWAP10 DUP11 MSTORE PUSH1 0x20 DUP11 ADD MSTORE DUP9 ADD MSTORE ISZERO ISZERO PUSH1 0x60 DUP8 ADD MSTORE PUSH1 0x80 DUP7 ADD MSTORE PUSH1 0xA0 DUP6 ADD MSTORE PUSH1 0xC0 DUP5 ADD MSTORE DUP3 ADD MSTORE RETURN JUMPDEST DUP5 DUP3 CALLVALUE PUSH2 0x197 JUMPI DUP2 PUSH1 0x3 NOT CALLDATASIZE ADD SLT PUSH2 0x197 JUMPI SWAP1 SLOAD SWAP1 MLOAD PUSH1 0x1 PUSH1 0x1 PUSH1 0xA0 SHL SUB SWAP1 SWAP2 AND DUP2 MSTORE PUSH1 0x20 SWAP1 RETURN JUMPDEST DUP5 DUP3 CALLVALUE PUSH2 0x197 JUMPI DUP2 PUSH1 0x3 NOT CALLDATASIZE ADD SLT PUSH2 0x197 JUMPI PUSH1 0x20 SWAP1 PUSH1 0xA SLOAD SWAP1 MLOAD SWAP1 DUP2 MSTORE RETURN JUMPDEST POP SWAP1 POP CALLVALUE PUSH2 0x25F JUMPI PUSH1 0x80 CALLDATASIZE PUSH1 0x3 NOT ADD SLT PUSH2 0x25F JUMPI PUSH2 0x6AD PUSH2 0xF9F JUMP JUMPDEST SWAP1 PUSH1 0x24 SWAP3 DUP4 CALLDATALOAD SWAP4 PUSH1 0x44 DUP1 CALLDATALOAD SWAP1 PUSH1 0x64 SWAP1 DUP2 CALLDATALOAD SWAP4 PUSH2 0x6C7 PUSH2 0x11AD JUMP JUMPDEST PUSH1 0x2 PUSH1 0x1 SLOAD EQ PUSH2 0x8C9 JUMPI PUSH1 0x2 PUSH1 0x1 SSTORE PUSH2 0x6E4 PUSH1 0xFF PUSH1 0x8 SLOAD AND PUSH2 0x10CB JUMP JUMPDEST PUSH1 0x1 PUSH1 0x1 PUSH1 0xA0 SHL SUB SWAP8 DUP9 AND SWAP8 DUP9 ISZERO PUSH2 0x892 JUMPI PUSH2 0x701 DUP11 ISZERO ISZERO PUSH2 0x110D JUMP JUMPDEST DUP5 ISZERO PUSH2 0x85E JUMPI TIMESTAMP DUP7 GT ISZERO PUSH2 0x81E JUMPI DUP10 DUP12 MSTORE PUSH1 0x2 PUSH1 0x20 MSTORE DUP8 DUP12 KECCAK256 SLOAD AND PUSH2 0x7DF JUMPI POP POP POP SWAP2 DUP7 DUP2 PUSH2 0x7A4 SWAP6 SWAP4 DUP9 SWAP6 DUP7 DUP5 MSTORE PUSH1 0x2 PUSH1 0x20 MSTORE DUP6 DUP5 KECCAK256 SWAP2 PUSH12 0xFFFFFFFFFFFFFFFFFFFFFFFF PUSH1 0xA0 SHL SWAP2 DUP11 DUP4 DUP6 SLOAD AND OR DUP5 SSTORE DUP9 PUSH1 0x1 DUP6 ADD SSTORE TIMESTAMP PUSH1 0x2 DUP6 ADD SSTORE PUSH1 0x3 DUP5 ADD PUSH1 0xFF NOT DUP2 SLOAD AND SWAP1 SSTORE PUSH1 0x5 DUP5 ADD SSTORE PUSH1 0x6 DUP4 ADD SSTORE PUSH1 0x7 DUP3 ADD SWAP1 CALLER SWAP1 DUP3 SLOAD AND OR SWAP1 SSTORE ADD SSTORE DUP5 DUP8 MSTORE PUSH1 0x3 PUSH1 0x20 MSTORE PUSH2 0x797 DUP4 DUP4 DUP10 KECCAK256 PUSH2 0x114E JUMP JUMPDEST CALLER DUP8 MSTORE PUSH1 0x20 MSTORE DUP6 KECCAK256 PUSH2 0x114E JUMP JUMPDEST PUSH2 0x7AF PUSH1 0xA SLOAD PUSH2 0x1188 JUMP JUMPDEST PUSH1 0xA SSTORE CALLER SWAP2 PUSH32 0x828C85C37DCAF6553B252A55B553CFED869F43EECAE8B5C280784607B40F93B7 DUP5 DUP1 LOG4 PUSH1 0x1 DUP1 SSTORE DUP1 RETURN JUMPDEST DUP6 SWAP2 PUSH1 0x19 PUSH32 0x5265717565737420494420616C72656164792065786973747300000000000000 SWAP3 PUSH1 0x20 DUP11 MLOAD SWAP6 PUSH3 0x461BCD PUSH1 0xE5 SHL DUP8 MSTORE DUP7 ADD MSTORE DUP5 ADD MSTORE DUP3 ADD MSTORE REVERT JUMPDEST POP DUP6 SWAP2 PUSH1 0x17 PUSH32 0x496E76616C69642076616C696469747920706572696F64000000000000000000 SWAP3 PUSH1 0x20 DUP11 MLOAD SWAP6 PUSH3 0x461BCD PUSH1 0xE5 SHL DUP8 MSTORE DUP7 ADD MSTORE DUP5 ADD MSTORE DUP3 ADD MSTORE REVERT JUMPDEST POP DUP6 SWAP2 PUSH1 0x11 PUSH17 0x92DCECC2D8D2C840C8C2E8C240D0C2E6D PUSH1 0x7B SHL SWAP3 PUSH1 0x20 DUP11 MLOAD SWAP6 PUSH3 0x461BCD PUSH1 0xE5 SHL DUP8 MSTORE DUP7 ADD MSTORE DUP5 ADD MSTORE DUP3 ADD MSTORE REVERT JUMPDEST POP DUP6 SWAP2 PUSH1 0x14 PUSH20 0x496E76616C696420757365722061646472657373 PUSH1 0x60 SHL SWAP3 PUSH1 0x20 DUP11 MLOAD SWAP6 PUSH3 0x461BCD PUSH1 0xE5 SHL DUP8 MSTORE DUP7 ADD MSTORE DUP5 ADD MSTORE DUP3 ADD MSTORE REVERT JUMPDEST DUP6 SWAP2 PUSH1 0x1F PUSH32 0x5265656E7472616E637947756172643A207265656E7472616E742063616C6C00 SWAP3 PUSH1 0x20 DUP11 MLOAD SWAP6 PUSH3 0x461BCD PUSH1 0xE5 SHL DUP8 MSTORE DUP7 ADD MSTORE DUP5 ADD MSTORE DUP3 ADD MSTORE REVERT JUMPDEST DUP5 DUP3 CALLVALUE PUSH2 0x197 JUMPI DUP2 PUSH1 0x3 NOT CALLDATASIZE ADD SLT PUSH2 0x197 JUMPI PUSH1 0x20 PUSH32 0x62E78CEA01BEE320CD4E420270B5EA74000D11B0C9F74754EBDBFC544B05A258 SWAP2 PUSH2 0x946 PUSH2 0x1073 JUMP JUMPDEST PUSH2 0x94E PUSH2 0x11AD JUMP JUMPDEST DUP4 SLOAD PUSH1 0xFF PUSH1 0xA0 SHL NOT AND PUSH1 0x1 PUSH1 0xA0 SHL OR DUP5 SSTORE MLOAD CALLER DUP2 MSTORE LOG1 DUP1 RETURN JUMPDEST SWAP2 POP SWAP2 SWAP3 CALLVALUE PUSH2 0x2E1 JUMPI PUSH2 0x100 CALLDATASIZE PUSH1 0x3 NOT ADD SLT PUSH2 0x2E1 JUMPI POP PUSH1 0x20 SWAP3 PUSH2 0x9CE SWAP2 DUP4 MLOAD SWAP2 PUSH2 0x991 DUP4 PUSH2 0x101E JUMP JUMPDEST CALLDATALOAD DUP3 MSTORE PUSH1 0x24 CALLDATALOAD DUP6 DUP4 ADD MSTORE PUSH1 0x44 CALLDATALOAD DUP5 DUP4 ADD MSTORE PUSH1 0x64 CALLDATALOAD PUSH1 0x60 DUP4 ADD MSTORE PUSH1 0x84 CALLDATALOAD PUSH1 0x80 DUP4 ADD MSTORE PUSH1 0xA4 CALLDATALOAD PUSH1 0xA0 DUP4 ADD MSTORE PUSH1 0xC4 CALLDATALOAD PUSH1 0xC0 DUP4 ADD MSTORE PUSH1 0xE4 CALLDATALOAD SWAP1 DUP3 ADD MSTORE PUSH2 0x141F JUMP JUMPDEST SWAP1 MLOAD SWAP1 DUP2 MSTORE RETURN JUMPDEST DUP5 CALLVALUE PUSH2 0x2E1 JUMPI DUP1 PUSH1 0x3 NOT CALLDATASIZE ADD SLT PUSH2 0x2E1 JUMPI PUSH2 0x9EE PUSH2 0x1073 JUMP JUMPDEST DUP1 SLOAD PUSH1 0x1 PUSH1 0x1 PUSH1 0xA0 SHL SUB NOT DUP2 AND DUP3 SSTORE DUP2 SWAP1 PUSH1 0x1 PUSH1 0x1 PUSH1 0xA0 SHL SUB AND PUSH32 0x8BE0079C531659141344CD1FD0A4F28419497F9722A3DAAFE3B4186F6B6457E0 DUP3 DUP1 LOG3 DUP1 RETURN JUMPDEST DUP5 DUP3 DUP6 CALLVALUE PUSH2 0x25F JUMPI PUSH1 0x20 SWAP3 DUP4 PUSH1 0x3 NOT CALLDATASIZE ADD SLT PUSH2 0x2E1 JUMPI DUP2 CALLDATALOAD DUP1 DUP3 MSTORE PUSH1 0x2 DUP6 MSTORE DUP4 DUP3 KECCAK256 SLOAD PUSH2 0xA66 SWAP1 PUSH1 0x1 PUSH1 0x1 PUSH1 0xA0 SHL SUB AND ISZERO ISZERO PUSH2 0x110D JUMP JUMPDEST DUP1 DUP3 MSTORE PUSH1 0x2 DUP6 MSTORE PUSH1 0xFF PUSH1 0x3 DUP6 DUP5 KECCAK256 ADD SLOAD AND ISZERO PUSH2 0xA8E JUMPI DUP2 MSTORE PUSH1 0x2 DUP5 MSTORE DUP3 SWAP1 KECCAK256 ADD SLOAD SWAP1 MLOAD SWAP1 DUP2 MSTORE RETURN JUMPDEST DUP4 MLOAD PUSH3 0x461BCD PUSH1 0xE5 SHL DUP2 MSTORE DUP1 DUP5 ADD DUP7 SWAP1 MSTORE PUSH1 0x19 PUSH1 0x24 DUP3 ADD MSTORE PUSH32 0x436F6D7075746174696F6E206E6F7420636F6D706C6574656400000000000000 PUSH1 0x44 DUP3 ADD MSTORE PUSH1 0x64 SWAP1 REVERT JUMPDEST DUP5 DUP3 CALLVALUE PUSH2 0x197 JUMPI DUP2 PUSH1 0x3 NOT CALLDATASIZE ADD SLT PUSH2 0x197 JUMPI PUSH1 0xFF PUSH1 0x20 SWAP3 SLOAD PUSH1 0xA0 SHR AND SWAP1 MLOAD SWAP1 ISZERO ISZERO DUP2 MSTORE RETURN JUMPDEST SWAP2 POP SWAP2 SWAP3 CALLVALUE PUSH2 0x2E1 JUMPI PUSH1 0x20 CALLDATASIZE PUSH1 0x3 NOT ADD SLT PUSH2 0x2E1 JUMPI DUP4 CALLDATALOAD SWAP1 PUSH8 0xFFFFFFFFFFFFFFFF DUP3 GT PUSH2 0x2E1 JUMPI POP PUSH2 0xB38 PUSH2 0xB32 PUSH2 0x100 SWAP6 DUP5 SWAP4 CALLDATASIZE SWAP2 ADD PUSH2 0xF6C JUMP JUMPDEST SWAP1 PUSH2 0x1253 JUMP JUMPDEST DUP4 MLOAD SWAP4 DUP2 MLOAD DUP6 MSTORE PUSH1 0x20 DUP3 ADD MLOAD PUSH1 0x20 DUP7 ADD MSTORE DUP1 DUP3 ADD MLOAD SWAP1 DUP6 ADD MSTORE PUSH1 0x60 DUP2 ADD MLOAD PUSH1 0x60 DUP6 ADD MSTORE PUSH1 0x80 DUP2 ADD MLOAD PUSH1 0x80 DUP6 ADD MSTORE PUSH1 0xA0 DUP2 ADD MLOAD PUSH1 0xA0 DUP6 ADD MSTORE PUSH1 0xC0 DUP2 ADD MLOAD PUSH1 0xC0 DUP6 ADD MSTORE ADD MLOAD SWAP1 DUP3 ADD MSTORE RETURN JUMPDEST DUP5 DUP3 DUP6 CALLVALUE PUSH2 0x25F JUMPI DUP3 PUSH1 0x3 NOT CALLDATASIZE ADD SLT PUSH2 0x25F JUMPI PUSH2 0xB9C PUSH2 0x1073 JUMP JUMPDEST DUP3 SLOAD SWAP1 PUSH1 0xFF DUP3 PUSH1 0xA0 SHR AND ISZERO PUSH2 0xBE2 JUMPI POP PUSH1 0xFF PUSH1 0xA0 SHL NOT AND DUP3 SSTORE MLOAD CALLER DUP2 MSTORE PUSH32 0x5DB9EE0A495BF2E6FF9C91A7834C1BA4FDD244A5E8AA4E537BD38AEAE4B073AA SWAP1 PUSH1 0x20 SWAP1 LOG1 DUP1 RETURN JUMPDEST PUSH1 0x64 SWAP1 PUSH1 0x20 DUP5 MLOAD SWAP2 PUSH3 0x461BCD PUSH1 0xE5 SHL DUP4 MSTORE DUP3 ADD MSTORE PUSH1 0x14 PUSH1 0x24 DUP3 ADD MSTORE PUSH20 0x14185D5CD8589B194E881B9BDD081C185D5CD959 PUSH1 0x62 SHL PUSH1 0x44 DUP3 ADD MSTORE REVERT JUMPDEST POP SWAP1 POP CALLVALUE PUSH2 0x25F JUMPI PUSH1 0x20 SWAP2 DUP3 PUSH1 0x3 NOT CALLDATASIZE ADD SLT PUSH2 0x4A5 JUMPI PUSH1 0x1 PUSH1 0x1 PUSH1 0xA0 SHL SUB PUSH2 0xC42 PUSH2 0xF9F JUMP JUMPDEST AND DUP5 MSTORE DUP3 MSTORE DUP1 DUP4 KECCAK256 SWAP3 DUP2 MLOAD DUP1 SWAP4 DUP1 DUP7 SLOAD SWAP3 DUP4 DUP2 MSTORE ADD SWAP6 DUP4 MSTORE DUP1 DUP4 KECCAK256 SWAP3 SWAP1 JUMPDEST DUP3 DUP3 LT PUSH2 0xC78 JUMPI PUSH2 0x2DD DUP7 DUP7 PUSH2 0x525 DUP3 DUP12 SUB DUP4 PUSH2 0x1051 JUMP JUMPDEST DUP4 SLOAD DUP8 MSTORE SWAP6 DUP7 ADD SWAP6 PUSH1 0x1 SWAP4 DUP5 ADD SWAP4 SWAP1 SWAP2 ADD SWAP1 PUSH2 0xC60 JUMP JUMPDEST DUP4 DUP3 DUP7 CALLVALUE PUSH2 0x2E1 JUMPI PUSH1 0x20 CALLDATASIZE PUSH1 0x3 NOT ADD SLT PUSH2 0x2E1 JUMPI DUP3 CALLDATALOAD DUP1 DUP3 MSTORE PUSH1 0x2 PUSH1 0x20 MSTORE DUP3 DUP3 KECCAK256 SLOAD PUSH1 0x1 PUSH1 0x1 PUSH1 0xA0 SHL SUB SWAP3 DUP5 SWAP3 SWAP1 SWAP2 PUSH2 0xCCB SWAP1 DUP6 AND ISZERO ISZERO PUSH2 0x110D JUMP JUMPDEST DUP2 MSTORE PUSH1 0x2 PUSH1 0x20 MSTORE KECCAK256 SWAP1 DUP1 DUP3 SLOAD AND SWAP4 PUSH1 0x2 DUP4 ADD SLOAD SWAP4 PUSH1 0xFF PUSH1 0x3 DUP6 ADD SLOAD AND SWAP2 DUP5 ADD SLOAD SWAP2 PUSH1 0x5 DUP6 ADD SLOAD SWAP4 PUSH1 0x7 PUSH1 0x6 DUP8 ADD SLOAD SWAP7 ADD SLOAD AND SWAP6 DUP3 MLOAD SWAP8 DUP9 MSTORE PUSH1 0x20 DUP9 ADD MSTORE ISZERO ISZERO SWAP1 DUP7 ADD MSTORE PUSH1 0x60 DUP6 ADD MSTORE PUSH1 0x80 DUP5 ADD MSTORE PUSH1 0xA0 DUP4 ADD MSTORE PUSH1 0xC0 DUP3 ADD MSTORE RETURN JUMPDEST DUP5 DUP3 CALLVALUE PUSH2 0x197 JUMPI DUP1 PUSH1 0x3 NOT CALLDATASIZE ADD SLT PUSH2 0x197 JUMPI PUSH2 0xD3E PUSH2 0xF9F JUMP JUMPDEST PUSH1 0x1 PUSH1 0x1 PUSH1 0xA0 SHL SUB AND DUP3 MSTORE PUSH1 0x3 PUSH1 0x20 MSTORE DUP1 DUP3 KECCAK256 DUP1 SLOAD PUSH1 0x24 CALLDATALOAD SWAP4 SWAP1 DUP5 LT ISZERO PUSH2 0x2E1 JUMPI POP PUSH1 0x20 SWAP3 PUSH2 0xD6C SWAP2 PUSH2 0xFB5 JUMP JUMPDEST SWAP1 SLOAD SWAP1 PUSH1 0x3 SHL SHR SWAP1 MLOAD SWAP1 DUP2 MSTORE RETURN JUMPDEST POP SWAP1 POP CALLVALUE PUSH2 0x25F JUMPI PUSH1 0x60 CALLDATASIZE PUSH1 0x3 NOT ADD SLT PUSH2 0x25F JUMPI DUP2 CALLDATALOAD SWAP2 PUSH4 0xFFFFFFFF SWAP1 DUP2 DUP5 AND DUP1 SWAP5 SUB PUSH2 0xF0D JUMPI PUSH1 0x24 CALLDATALOAD SWAP1 DUP3 DUP3 AND DUP1 SWAP3 SUB PUSH2 0xF09 JUMPI PUSH1 0x44 CALLDATALOAD SWAP3 DUP4 AND DUP1 SWAP4 SUB PUSH2 0xF09 JUMPI PUSH2 0xDC4 PUSH2 0x1073 JUMP JUMPDEST DUP5 ISZERO PUSH2 0xEC6 JUMPI DUP2 ISZERO PUSH2 0xE83 JUMPI DUP3 ISZERO PUSH2 0xE40 JUMPI POP SWAP2 DUP4 SWAP2 PUSH1 0x20 SWAP4 PUSH32 0x967488F2EDD75466F58E6C71B66AEFC81B7B216A0A3AD64A3A3708714769D1F9 SWAP6 PUSH1 0x5 SSTORE PUSH1 0x6 SSTORE PUSH1 0x7 SSTORE TIMESTAMP PUSH1 0x9 SSTORE DUP2 PUSH1 0xC SSTORE PUSH32 0xF3AD76DC2DEF13387CDAA20660CEDFA8CE58BD013B7F39FD4B48D718AA3184A6 DUP4 DUP3 MLOAD TIMESTAMP DUP2 MSTORE LOG1 MLOAD SWAP1 DUP2 MSTORE LOG1 DUP1 RETURN JUMPDEST PUSH1 0x64 SWAP1 PUSH1 0x20 DUP6 MLOAD SWAP2 PUSH3 0x461BCD PUSH1 0xE5 SHL DUP4 MSTORE DUP3 ADD MSTORE PUSH1 0x1D PUSH1 0x24 DUP3 ADD MSTORE PUSH32 0x437265646974206C696D6974206D75737420626520706F736974697665000000 PUSH1 0x44 DUP3 ADD MSTORE REVERT JUMPDEST PUSH1 0x64 SWAP1 PUSH1 0x20 DUP6 MLOAD SWAP2 PUSH3 0x461BCD PUSH1 0xE5 SHL DUP4 MSTORE DUP3 ADD MSTORE PUSH1 0x20 PUSH1 0x24 DUP3 ADD MSTORE PUSH32 0x5269736B206D756C7469706C696572206D75737420626520706F736974697665 PUSH1 0x44 DUP3 ADD MSTORE REVERT JUMPDEST PUSH1 0x64 SWAP1 PUSH1 0x20 DUP6 MLOAD SWAP2 PUSH3 0x461BCD PUSH1 0xE5 SHL DUP4 MSTORE DUP3 ADD MSTORE PUSH1 0x1B PUSH1 0x24 DUP3 ADD MSTORE PUSH32 0x426173652073636F7265206D75737420626520706F7369746976650000000000 PUSH1 0x44 DUP3 ADD MSTORE REVERT JUMPDEST DUP6 DUP1 REVERT JUMPDEST DUP5 DUP1 REVERT JUMPDEST DUP4 DUP3 DUP7 CALLVALUE PUSH2 0x2E1 JUMPI PUSH1 0x20 CALLDATASIZE PUSH1 0x3 NOT ADD SLT PUSH2 0x2E1 JUMPI DUP3 CALLDATALOAD SWAP1 PUSH8 0xFFFFFFFFFFFFFFFF DUP3 GT PUSH2 0x2E1 JUMPI POP PUSH2 0xF4A PUSH1 0x20 SWAP4 PUSH2 0x9CE SWAP3 CALLDATASIZE SWAP2 ADD PUSH2 0xF6C JUMP JUMPDEST SWAP1 PUSH2 0x11F4 JUMP JUMPDEST DUP6 SWAP1 CALLVALUE PUSH2 0x197 JUMPI DUP2 PUSH1 0x3 NOT CALLDATASIZE ADD SLT PUSH2 0x197 JUMPI PUSH1 0x20 SWAP1 PUSH1 0xB SLOAD DUP2 MSTORE RETURN JUMPDEST SWAP2 DUP2 PUSH1 0x1F DUP5 ADD SLT ISZERO PUSH2 0xF9A JUMPI DUP3 CALLDATALOAD SWAP2 PUSH8 0xFFFFFFFFFFFFFFFF DUP4 GT PUSH2 0xF9A JUMPI PUSH1 0x20 DUP4 DUP2 DUP7 ADD SWAP6 ADD ADD GT PUSH2 0xF9A JUMPI JUMP JUMPDEST PUSH1 0x0 DUP1 REVERT JUMPDEST PUSH1 0x4 CALLDATALOAD SWAP1 PUSH1 0x1 PUSH1 0x1 PUSH1 0xA0 SHL SUB DUP3 AND DUP3 SUB PUSH2 0xF9A JUMPI JUMP JUMPDEST DUP1 SLOAD DUP3 LT ISZERO PUSH2 0xFCD JUMPI PUSH1 0x0 MSTORE PUSH1 0x20 PUSH1 0x0 KECCAK256 ADD SWAP1 PUSH1 0x0 SWAP1 JUMP JUMPDEST PUSH4 0x4E487B71 PUSH1 0xE0 SHL PUSH1 0x0 MSTORE PUSH1 0x32 PUSH1 0x4 MSTORE PUSH1 0x24 PUSH1 0x0 REVERT JUMPDEST PUSH1 0x20 SWAP1 DUP2 PUSH1 0x40 DUP2 DUP4 ADD SWAP3 DUP3 DUP2 MSTORE DUP6 MLOAD DUP1 SWAP5 MSTORE ADD SWAP4 ADD SWAP2 PUSH1 0x0 JUMPDEST DUP3 DUP2 LT PUSH2 0x100A JUMPI POP POP POP POP SWAP1 JUMP JUMPDEST DUP4 MLOAD DUP6 MSTORE SWAP4 DUP2 ADD SWAP4 SWAP3 DUP2 ADD SWAP3 PUSH1 0x1 ADD PUSH2 0xFFC JUMP JUMPDEST PUSH2 0x100 DUP2 ADD SWAP1 DUP2 LT PUSH8 0xFFFFFFFFFFFFFFFF DUP3 GT OR PUSH2 0x103B JUMPI PUSH1 0x40 MSTORE JUMP JUMPDEST PUSH4 0x4E487B71 PUSH1 0xE0 SHL PUSH1 0x0 MSTORE PUSH1 0x41 PUSH1 0x4 MSTORE PUSH1 0x24 PUSH1 0x0 REVERT JUMPDEST SWAP1 PUSH1 0x1F DUP1 NOT SWAP2 ADD AND DUP2 ADD SWAP1 DUP2 LT PUSH8 0xFFFFFFFFFFFFFFFF DUP3 GT OR PUSH2 0x103B JUMPI PUSH1 0x40 MSTORE JUMP JUMPDEST PUSH1 0x0 SLOAD PUSH1 0x1 PUSH1 0x1 PUSH1 0xA0 SHL SUB AND CALLER SUB PUSH2 0x1087 JUMPI JUMP JUMPDEST PUSH1 0x64 PUSH1 0x40 MLOAD PUSH3 0x461BCD PUSH1 0xE5 SHL DUP2 MSTORE PUSH1 0x20 PUSH1 0x4 DUP3 ADD MSTORE PUSH1 0x20 PUSH1 0x24 DUP3 ADD MSTORE PUSH32 0x4F776E61626C653A2063616C6C6572206973206E6F7420746865206F776E6572 PUSH1 0x44 DUP3 ADD MSTORE REVERT JUMPDEST ISZERO PUSH2 0x10D2 JUMPI JUMP JUMPDEST PUSH1 0x40 MLOAD PUSH3 0x461BCD PUSH1 0xE5 SHL DUP2 MSTORE PUSH1 0x20 PUSH1 0x4 DUP3 ADD MSTORE PUSH1 0x13 PUSH1 0x24 DUP3 ADD MSTORE PUSH19 0x4D6F64656C206973206E6F7420616374697665 PUSH1 0x68 SHL PUSH1 0x44 DUP3 ADD MSTORE PUSH1 0x64 SWAP1 REVERT JUMPDEST ISZERO PUSH2 0x1114 JUMPI JUMP JUMPDEST PUSH1 0x40 MLOAD PUSH3 0x461BCD PUSH1 0xE5 SHL DUP2 MSTORE PUSH1 0x20 PUSH1 0x4 DUP3 ADD MSTORE PUSH1 0x12 PUSH1 0x24 DUP3 ADD MSTORE PUSH18 0x125B9D985B1A59081C995C5D595CDD081251 PUSH1 0x72 SHL PUSH1 0x44 DUP3 ADD MSTORE PUSH1 0x64 SWAP1 REVERT JUMPDEST DUP1 SLOAD PUSH9 0x10000000000000000 DUP2 LT ISZERO PUSH2 0x103B JUMPI PUSH2 0x1170 SWAP2 PUSH1 0x1 DUP3 ADD DUP2 SSTORE PUSH2 0xFB5 JUMP JUMPDEST DUP2 SWAP3 SWAP2 SLOAD SWAP1 PUSH1 0x3 SHL SWAP2 DUP3 SHL SWAP2 PUSH1 0x0 NOT SWAP1 SHL NOT AND OR SWAP1 SSTORE JUMP JUMPDEST PUSH1 0x0 NOT DUP2 EQ PUSH2 0x1197 JUMPI PUSH1 0x1 ADD SWAP1 JUMP JUMPDEST PUSH4 0x4E487B71 PUSH1 0xE0 SHL PUSH1 0x0 MSTORE PUSH1 0x11 PUSH1 0x4 MSTORE PUSH1 0x24 PUSH1 0x0 REVERT JUMPDEST PUSH1 0xFF PUSH1 0x0 SLOAD PUSH1 0xA0 SHR AND PUSH2 0x11BC JUMPI JUMP JUMPDEST PUSH1 0x40 MLOAD PUSH3 0x461BCD PUSH1 0xE5 SHL DUP2 MSTORE PUSH1 0x20 PUSH1 0x4 DUP3 ADD MSTORE PUSH1 0x10 PUSH1 0x24 DUP3 ADD MSTORE PUSH16 0x14185D5CD8589B194E881C185D5CD959 PUSH1 0x82 SHL PUSH1 0x44 DUP3 ADD MSTORE PUSH1 0x64 SWAP1 REVERT JUMPDEST PUSH2 0x1206 SWAP2 PUSH2 0x1201 SWAP2 PUSH2 0x1253 JUMP JUMPDEST PUSH2 0x141F JUMP JUMPDEST PUSH2 0x12C SWAP1 DUP2 DUP2 LT ISZERO PUSH2 0x1229 JUMPI POP JUMPDEST PUSH2 0x352 SWAP1 DUP2 DUP2 GT ISZERO PUSH2 0x1224 JUMPI POP SWAP1 JUMP JUMPDEST SWAP1 POP SWAP1 JUMP JUMPDEST SWAP1 POP PUSH2 0x1214 JUMP JUMPDEST SWAP1 PUSH1 0xF DUP3 MUL SWAP2 DUP1 DUP4 DIV PUSH1 0xF EQ SWAP1 ISZERO OR ISZERO PUSH2 0x1197 JUMPI JUMP JUMPDEST SWAP2 SWAP1 DUP3 ADD DUP1 SWAP3 GT PUSH2 0x1197 JUMPI JUMP JUMPDEST PUSH1 0x40 SWAP2 DUP3 MLOAD SWAP2 PUSH2 0x1262 DUP4 PUSH2 0x101E JUMP JUMPDEST PUSH1 0x0 SWAP2 DUP3 DUP5 MSTORE DUP3 PUSH1 0xE0 PUSH1 0x20 SWAP6 DUP3 DUP8 DUP3 ADD MSTORE DUP3 DUP9 DUP3 ADD MSTORE DUP3 PUSH1 0x60 DUP3 ADD MSTORE DUP3 PUSH1 0x80 DUP3 ADD MSTORE DUP3 PUSH1 0xA0 DUP3 ADD MSTORE DUP3 PUSH1 0xC0 DUP3 ADD MSTORE ADD MSTORE PUSH8 0xFFFFFFFFFFFFFFFF DUP2 GT PUSH2 0x140B JUMPI DUP5 MLOAD SWAP1 PUSH2 0x12B7 PUSH1 0x1F DUP3 ADD PUSH1 0x1F NOT AND DUP7 ADD DUP4 PUSH2 0x1051 JUMP JUMPDEST DUP1 DUP3 MSTORE DUP5 DUP3 ADD SWAP3 CALLDATASIZE DUP3 DUP3 ADD GT PUSH2 0xF0D JUMPI DUP2 DUP6 SWAP3 DUP8 SWAP3 DUP7 CALLDATACOPY DUP4 ADD ADD MSTORE MLOAD SWAP1 KECCAK256 SWAP1 DUP4 MLOAD SWAP2 PUSH2 0x12E2 DUP4 PUSH2 0x101E JUMP JUMPDEST PUSH2 0x100 CALLDATASIZE DUP5 CALLDATACOPY DUP2 JUMPDEST PUSH1 0x8 DUP2 LT PUSH2 0x13CB JUMPI POP POP PUSH2 0x1F40 DUP3 MLOAD MOD SWAP4 PUSH2 0x7D0 SWAP5 DUP6 ADD DUP1 SWAP6 GT PUSH2 0x13B7 JUMPI PUSH3 0x186A0 DUP5 DUP5 ADD MLOAD MOD SWAP1 PUSH1 0x32 DUP2 DUP6 ADD MLOAD MOD PUSH1 0x64 PUSH1 0x60 DUP7 ADD MLOAD MOD SWAP2 PUSH2 0x226 PUSH1 0x80 DUP8 ADD MLOAD MOD SWAP4 PUSH2 0x12C SWAP5 DUP6 ADD DUP1 SWAP6 GT PUSH2 0x13A3 JUMPI PUSH1 0xF0 PUSH1 0xA0 DUP9 ADD MLOAD MOD PUSH1 0x6 ADD SWAP6 DUP7 PUSH1 0x6 GT PUSH2 0x138F JUMPI POP PUSH1 0xC PUSH1 0xE0 PUSH1 0xA PUSH1 0xC0 DUP11 ADD MLOAD MOD SWAP9 ADD MLOAD MOD SWAP8 DUP3 MLOAD SWAP10 PUSH2 0x136B DUP12 PUSH2 0x101E JUMP JUMPDEST DUP11 MSTORE DUP10 ADD MSTORE DUP8 ADD MSTORE PUSH1 0x60 DUP7 ADD MSTORE PUSH1 0x80 DUP6 ADD MSTORE PUSH1 0xA0 DUP5 ADD MSTORE PUSH1 0xC0 DUP4 ADD MSTORE PUSH1 0xE0 DUP3 ADD MSTORE SWAP1 JUMP JUMPDEST PUSH4 0x4E487B71 PUSH1 0xE0 SHL DUP2 MSTORE PUSH1 0x11 PUSH1 0x4 MSTORE PUSH1 0x24 SWAP1 REVERT JUMPDEST PUSH4 0x4E487B71 PUSH1 0xE0 SHL DUP7 MSTORE PUSH1 0x11 PUSH1 0x4 MSTORE PUSH1 0x24 DUP7 REVERT JUMPDEST PUSH4 0x4E487B71 PUSH1 0xE0 SHL DUP3 MSTORE PUSH1 0x11 PUSH1 0x4 MSTORE PUSH1 0x24 DUP3 REVERT JUMPDEST DUP1 PUSH1 0x5 SHL DUP2 DUP2 DIV DUP7 EQ DUP3 ISZERO OR ISZERO PUSH2 0x13F7 JUMPI DUP3 DUP2 SHR PUSH4 0xFFFFFFFF AND SWAP1 DUP6 ADD MSTORE PUSH2 0x13F2 SWAP1 PUSH2 0x1188 JUMP JUMPDEST PUSH2 0x12EA JUMP JUMPDEST PUSH4 0x4E487B71 PUSH1 0xE0 SHL DUP5 MSTORE PUSH1 0x11 PUSH1 0x4 MSTORE PUSH1 0x24 DUP5 REVERT JUMPDEST PUSH4 0x4E487B71 PUSH1 0xE0 SHL DUP4 MSTORE PUSH1 0x41 PUSH1 0x4 MSTORE PUSH1 0x24 DUP4 REVERT JUMPDEST PUSH2 0x2710 PUSH2 0x142C DUP3 MLOAD PUSH2 0x1230 JUMP JUMPDEST DIV PUSH2 0x1C2 SWAP1 DUP2 ADD DUP1 SWAP2 GT PUSH2 0x1197 JUMPI PUSH1 0xE0 DUP3 ADD SWAP1 DUP2 MLOAD DUP1 PUSH1 0x3 SHL SWAP1 DUP1 DUP3 DIV PUSH1 0x8 EQ SWAP1 ISZERO OR ISZERO PUSH2 0x1197 JUMPI PUSH2 0x145D SWAP2 PUSH2 0x1246 JUMP JUMPDEST SWAP1 PUSH1 0x20 DUP4 ADD MLOAD PUSH1 0x19 DUP2 MUL SWAP1 DUP1 DUP3 DIV PUSH1 0x19 EQ SWAP1 ISZERO OR ISZERO PUSH2 0x1197 JUMPI PUSH3 0x186A0 SWAP1 DIV PUSH1 0x0 DUP4 DUP3 LT ISZERO PUSH2 0x163E JUMPI POP JUMPDEST DUP3 SUB SWAP2 DUP3 GT PUSH2 0x1197 JUMPI PUSH1 0x40 DUP4 ADD SWAP2 DUP3 MLOAD PUSH1 0x6 DUP2 MUL SWAP1 DUP1 DUP3 DIV PUSH1 0x6 EQ SWAP1 ISZERO OR ISZERO PUSH2 0x1197 JUMPI PUSH1 0x0 DUP3 DUP3 LT ISZERO PUSH2 0x1637 JUMPI POP JUMPDEST DUP2 SUB SWAP1 DUP2 GT PUSH2 0x1197 JUMPI PUSH1 0x60 DUP5 ADD SWAP1 DUP2 MLOAD DUP1 PUSH1 0x1 SHL SWAP1 DUP1 DUP3 DIV PUSH1 0x2 EQ SWAP1 ISZERO OR ISZERO PUSH2 0x1197 JUMPI PUSH1 0x0 DUP3 DUP3 LT ISZERO PUSH2 0x1630 JUMPI POP JUMPDEST DUP2 SUB SWAP1 DUP2 GT PUSH2 0x1197 JUMPI PUSH1 0x80 DUP6 ADD MLOAD PUSH2 0x12B NOT DUP2 ADD SWAP2 SWAP1 DUP3 GT PUSH2 0x1197 JUMPI PUSH2 0x150F SWAP2 PUSH1 0x1 SHR SWAP1 PUSH2 0x1246 JUMP JUMPDEST SWAP4 PUSH2 0x1523 PUSH1 0xA0 DUP3 ADD SWAP6 PUSH1 0x3 DUP8 MLOAD DIV SWAP1 PUSH2 0x1246 JUMP JUMPDEST SWAP2 PUSH1 0xC0 DUP3 ADD SWAP6 PUSH2 0x1533 DUP8 MLOAD PUSH2 0x1230 JUMP JUMPDEST PUSH1 0x0 DUP6 DUP3 LT ISZERO PUSH2 0x1629 JUMPI POP JUMPDEST DUP5 SUB SWAP4 DUP5 GT PUSH2 0x1197 JUMPI MLOAD PUSH1 0x3B NOT DUP2 ADD SWAP3 DUP2 DUP5 GT PUSH2 0x1197 JUMPI PUSH1 0x2B SWAP6 PUSH1 0x18 PUSH2 0x1388 PUSH2 0x1583 PUSH1 0x5 SWAP9 PUSH2 0x15C4 SWAP9 PUSH2 0x15A1 SWAP8 PUSH1 0x3C PUSH1 0x0 SWAP2 GT PUSH1 0x0 EQ PUSH2 0x1621 JUMPI POP PUSH1 0x2 SHR SWAP1 PUSH2 0x1246 JUMP JUMPDEST SWAP4 MLOAD GT SWAP2 MLOAD GT DUP2 PUSH2 0x1619 JUMPI JUMPDEST POP PUSH1 0x0 SWAP1 ISZERO PUSH2 0x160B JUMPI POP PUSH1 0x32 SWAP1 PUSH2 0x1246 JUMP JUMPDEST SWAP1 PUSH1 0x1E PUSH1 0x14 DUP8 MLOAD LT SWAP2 MLOAD LT DUP2 PUSH2 0x1611 JUMPI JUMPDEST POP PUSH1 0x0 SWAP1 ISZERO PUSH2 0x160B JUMPI POP PUSH1 0x4B SWAP1 PUSH2 0x1246 JUMP JUMPDEST SWAP4 MLOAD GT SWAP2 MLOAD GT DUP2 ISZERO PUSH2 0x1603 JUMPI JUMPDEST POP PUSH1 0x0 SWAP1 ISZERO PUSH2 0x15FE JUMPI POP PUSH1 0x64 JUMPDEST PUSH1 0x0 PUSH1 0x64 DUP4 GT ISZERO PUSH2 0x15F7 JUMPI POP JUMPDEST DUP2 SUB SWAP1 DUP2 GT PUSH2 0x1197 JUMPI SWAP1 JUMP JUMPDEST SWAP1 POP PUSH2 0x15EB JUMP JUMPDEST PUSH2 0x15DE JUMP JUMPDEST SWAP1 POP CODESIZE PUSH2 0x15D1 JUMP JUMPDEST SWAP1 PUSH2 0x1246 JUMP JUMPDEST SWAP1 POP CODESIZE PUSH2 0x15B2 JUMP JUMPDEST SWAP1 POP CODESIZE PUSH2 0x158F JUMP JUMPDEST SWAP1 POP SWAP1 PUSH2 0x1246 JUMP JUMPDEST SWAP1 POP PUSH2 0x153F JUMP JUMPDEST SWAP1 POP PUSH2 0x14E6 JUMP JUMPDEST SWAP1 POP PUSH2 0x14B7 JUMP JUMPDEST SWAP1 POP PUSH2 0x1488 JUMP JUMPDEST PUSH1 0x0 SWAP1 DUP2 MSTORE PUSH1 0x2 PUSH1 0x20 MSTORE PUSH1 0x40 SWAP1 KECCAK256 DUP1 SLOAD PUSH1 0x1 PUSH1 0x1 PUSH1 0xA0 SHL SUB AND ISZERO PUSH2 0x166C JUMPI PUSH1 0x6 ADD SLOAD TIMESTAMP LT SWAP1 JUMP JUMPDEST POP PUSH1 0x0 SWAP1 JUMP INVALID LOG2 PUSH5 0x6970667358 0x22 SLT KECCAK256 0xE8 CALLVALUE 0x2A 0x4D 0x4D SWAP16 0xF8 0xDB ORIGIN EXTCODECOPY 0xBC SUB LOG4 PUSH30 0x2FBF5CDD4534218171CE2B5FA8D8D9E08D3264736F6C6343000814003300 "},"methodIdentifiers":{"applyCreditScoringModel((uint256,uint256,uint256,uint256,uint256,uint256,uint256,uint256))":"75f347ab","baseCreditScore()":"c16de869","completedRequests()":"08f438f7","computeCreditScore(bytes)":"0d1bad49","executeComputation(bytes32,bytes)":"c1f58bfc","extractFeatures(bytes)":"5c85515b","fintechRequests(address,uint256)":"ad08a083","getComputationRequest(bytes32)":"39a4c803","getContractStats()":"dfe6b5d6","getEncryptedScore(bytes32)":"5de173df","getFintechRequests(address)":"3ae1ca8c","getModelParameters()":"c8284e6d","getUserRequests(address)":"b337cf74","isRequestValid(bytes32)":"a22420cd","modelParams()":"cbca31ac","owner()":"8da5cb5b","pause()":"8456cb59","paused()":"5c975abb","renounceOwnership()":"715018a6","requestComputation(address,bytes32,bytes32,uint256)":"88ef6a6e","requests(bytes32)":"9d866985","setModelActive(bool)":"fdc21a0c","totalRequests()":"8aea61dc","transferOwnership(address)":"f2fde38b","unpause()":"3f4ba83a","updateModelParameters(uint32,uint32,uint32)":"1510bff2","userRequests(address,uint256)":"263cb6b6"}}}}}